:100000000C9494080C94AB180C9484180C94BC08B1
:100010000C94BC080C94BC080C94BC080C944517B8
:100020000C94BC080C94BC080C94BC080C94D2181A
:100030000C94BC080C94BC080C94BC080C94BC0830
:100040000C943A180C94BC080C948F160C946916F6
:100050000C94BC080C94BC080C94BC080C94BC0810
:100060000C94BC080C94BC080E1E291E431E531E83
:10007000701E8D1EAA1EC81ED81EE81E001F071F58
:100080001B1F331F491F05A84CCDB2D44EB93836BB
:10009000A9020C50B9918688083CA6AAAA2ABE00DB
:1000A0000000803F00000000240027002A0000001C
:1000B0000008000201000003040700000000000027
:1000C0000000101030020020C0C0F0F03C3CFFFFE8
:1000D000FFFF3C3CF0F0C0C0C0C0F0F03C3CFFFF74
:1000E000FFFF3C3CF0F0C0C0C3C33333CFCF33334A
:1000F0003333CFCF3333C3C33333CFCF03030F0FE8
:100100000F0F0303CFCF3333181030020030F0F05D
:10011000FCFCFCFC3C3C3F3FFFFFFFFF3F3F3C3C07
:10012000FCFCFCFCF0F0F0F0FCFCFCFC3C3C3F3F39
:10013000FFFFFFFF3F3F3C3CFCFCFCFCF0F0C3C377
:10014000C3C333333F3F0F0F333333330F0F3F3FBF
:100150003333C3C3C3C303033333FFFFCFCF0F0F07
:10016000333333330F0FCFCFFFFF33330303161077
:100170003002002CFCFCC0C0F3F33C3CF0F0F0F08B
:10018000F0F03C3CF3F3C0C0FCFC0000C0C0F3F353
:100190003C3CF0F0F0F0F0F03C3CF3F3C0C0000069
:1001A0000303CFCF3F3F0F0F0F0F0F0F0F0F0F0F97
:1001B0003F3FCFCF03033F3F03033F3FCFCFCFCFDF
:1001C0000F0FCFCFCFCF3F3F03033F3F0C30300B5C
:1001D000012000C0F87C3E3EFCF8C000000000009A
:1001E00080E078FEFE000000000000F07C3C3E3E17
:1001F000FEFCE0000000007C3E3E3EFEF8C0000039
:1002000000000000000000F8FEFE0000000000FEFC
:10021000FE3E3E3E3E3E00000000000080F0FC3E00
:100220003E3EFC000000003E3E3E3E3E3E3EFEFEA8
:1002300000000000C0F8FE3E7EFCE0000000000070
:10024000E0FC7E3EFEF8C000000000000000C0E0C0
:10025000C00000000000F0FF0F000000F9FFFFF0F9
:1002600000000000070300FFFF0000000000000185
:100270000000000000FFFF00000000000000000080
:10028000FFFF00000000000000E0FF1FFFFF000074
:10029000000000FFFF00000000000000000000E080
:1002A000FF3F000000000000000000000000000010
:1002B000C0FC7F0300000000FFFF000000FFFF0004
:1002C000000000FEFF03000000FFFFF00000000040
:1002D00000003F7F3F0000000000FFFF0000E0FF44
:1002E0001F00FFFF00000000000000FFFF000000F3
:1002F00000000000000000E0FE1F01000000000000
:10030000F8F8FCFFC7000000000000C0FE3F03003B
:10031000FFFF00000000003F3F3E7EFCF8E00000D1
:10032000000000FFFF80F07C7CF8F000000000007F
:10033000000080F8FF07000000000000019FFFF8A8
:10034000FE1F0100000000FFFFC0000080FFFFFF54
:100350000000000000000000000000000000FFFF9F
:10036000C0FC7F030000FFFF00000000000000FF52
:10037000FF0000000000000000E0FE0F0100000090
:1003800000000000000000010FFFF8000000F8FF6F
:10039000E7E0E0E0FFFFE0E0E00000000000000038
:1003A00007FFFE00000000FFFFFF03000001FFFF4A
:1003B0000000000000F0FF0F00000000000000C07F
:1003C000FC3F03031FFFFCC0000000000F1F3E3E68
:1003D0000F01FFFF0000000000000080000000008F
:1003E000000007FFFF07000000FCFF0700000000FF
:1003F000000000FFFF000000000000E0FE0F000012
:10040000000000000000000000000000C0FF7F00AE
:100410000000030303030303FFFF030303000000C3
:1004200000000000C0FF7F000000000FFFFF800001
:100430000080FF7F00000000FEFF030000000000BE
:10044000000000FFFF8000000080FFFF00000000B0
:100450000000000080FCFF07000000000000FFFF1C
:10046000FF000000000000031F3F7C7C3F1F0300D3
:10047000000000007C7C7C7F7F7C7C7C0000007F17
:100480007F7C7C7C7C7C7C000000003F7E7C7C7ED2
:100490001F07000000000000000000007F7F000038
:1004A0000000001F3E7C7C3E1F0700000000000093
:1004B000031F7F7C7C3F0700000000007F7F00005F
:1004C00000000000000000011F3F7E7C7E3F1F01F6
:1004D000000000003E7C7C7E3F0F01000000000019
:1004E000000000010000000000000A102E0C0114A2
:1004F00000000000000000000000000000000000FC
:100500000000000078FC020303030302FC780000F3
:10051000000000000000FF7E00000283838383024E
:10052000FC780000028383838302FC787EFF0080D6
:1005300080808000FF7E78FC02838383830200003A
:1005400078FC028383838302000000020303030319
:100550000302FC7878FC028383838302FC7878FCB6
:10056000028383838302FC7800000060F0F0600067
:100570000000000000000000000000001E3F40C01E
:10058000C0C0C0403F1E0000000000000000FF7E11
:100590001C3E41C1C1C1C1410000000041C1C1C1F7
:1005A000C1413E1C0000010101010101FF7E00006C
:1005B00041C1C1C1C1413E1C1C3E41C1C1C1C1417B
:1005C0003E1C0000000000000000FF7E1C3E41C1F8
:1005D000C1C1C1413E1C000041C1C1C1C1413E1C5D
:1005E0000810206002380000000000000000000039
:1005F00000FE0000000000000E000E00000000D011
:10060000BE90D0BE9000001C62FFC28000000C12A1
:10061000924CB0880600807C62B21CC000000000D2
:100620000E0E0000000000E01804020200000002AC
:10063000020418E000000024187E182400008080C6
:1006400080F080808000000000000000000000803A
:10065000808080000000000000000000000000001A
:10066000806018060000F804C2320CF80000000494
:1006700004FE0000000000028242221C0000000272
:10068000222222DC0000C0A09884FE808000001E90
:10069000121222C20000F844222222C000000002EE
:1006A00002C2320A0600008C5222528C00003C42E8
:1006B000424226F800000000303000000000000038
:1006C000303000000000808040402020100040407A
:1006D0004040404000001020204040808000000248
:1006E0008242221C00000000000000000000000008
:1006F00000050000000000000000000000000007EE
:100700000000070000000004040F040300000402BE
:1007100001030404030003040404050304000000AF
:100720000000000000000003060810100000001088
:100730001008060300000000000000000000000098
:100740000007000000000000160E0000000000007E
:100750000000000000000000060600000000040287
:100760000100000000000103040402010000000475
:10077000040704040000000704040404000000044B
:10078000040404030000000000000700000000044F
:100790000404040300000102040404030000000038
:1007A000070000000000000304040403000000042C
:1007B0000404020100000000060600000000000022
:1007C000160E0000000000000101020204000101F9
:1007D000010101010000040202010100000000000B
:1007E000050000000000F804728AFA84780000C056
:1007F000380638C0000000FE222222DC0000F80487
:10080000020202020000FE02020204F8000000FEE2
:1008100022222222000000FE222222220000F804CE
:10082000020222E20000FE20202020FE0000000242
:1008300002FE020200000000000202FE0000FE4074
:10084000B0080402000000FE000000000000FE0CE2
:100850007080700CFE00FE0C30C000FE0000F8043A
:10086000020204F80000FE424242221C0000F8048A
:10087000020204F8000000FE4242A21C0000001C1C
:10088000224242800000020202FE02020200FE003A
:10089000000000FE00000638C000C03806003EC060
:1008A000F00EF0C03E0000069860980600000006BA
:1008B00018E0180600000202C2320A06000000001A
:1008C000FE02020202000006186080000000020220
:1008D0000202FE00000040300C0C3040000000001E
:1008E00000000000000001020404040000000601F2
:1008F00001010101060000070404040300000102D5
:1009000004040404000007040404020100000007BA
:1009100004040404000000070000000000000102BD
:1009200004040407000007000000000700000004A2
:10093000040704040000000404040403000007008A
:100940000001020400000007040404040000070082
:10095000000100000700070000000307000001027B
:100960000404020100000700000000000000010272
:10097000040C121110000007000001060000000422
:10098000040404030000000000070000000003044A
:100990000404040300000000010601000000000739
:1009A0000000000700000006010001060000000032
:1009B0000007000000000605040404040000000015
:1009C0001F101010100000000000010204001010A1
:1009D00010101F00000000000000000000000808C8
:1009E000080808080000000002040000000000E001
:1009F000101010F0000000FE201010E0000000E0D9
:100A000010101010000000E0101010FE000000E0B8
:100A1000909090E000000020FC222222020000E0E2
:100A2000101010F0000000FE201010E00000101068
:100A3000F2000000000000101010F200000000FEA4
:100A4000804020100000000202FE00000000F020A4
:100A500010F02010F00000F0201010E0000000E086
:100A6000101010E0000000F0201010E0000000E086
:100A7000101010F0000000F0201010700000006056
:100A8000909090200000002020FC2020200000F00A
:100A9000000000F000000070800080700000F00096
:100AA000C030C000F0000030C0C030000000003096
:100AB000C0008070000000101090503000000080D6
:100AC000807E02020000000000FE00000000000224
:100AD000027E808000000080800000008000000016
:100AE0000000000000000000000000000000000303
:100AF00004040207000000070404040300000003CC
:100B000004040404000000030404020700000003BE
:100B1000040404040000000007000000000000338B
:100B20002424221F0000000700000007000000002E
:100B3000070404000000202020201F000000000700
:100B40000001020400000000000704040000070088
:100B50000007000007000007000000070000000376
:100B6000040404030000003F040404030000000325
:100B70000404023F00000007000000000000000223
:100B80000404040300000000000304040400000344
:100B90000404020700000000030403000000010633
:100BA00001000106010000060101060000002020EE
:100BB000310E0300000000060504040400000000DC
:100BC000001F1010000000000007000000000010CF
:100BD000101F0000000001000001010100000000E2
:100BE000000000000000050800FF0C4B00000000A2
:100BF000003E5B4F5B3E3E6B4F6B3E1C3E7C3E1CA3
:100C0000183C7E3C181C577D571C1C5E7F5E1C00E8
:100C1000183C1800FFE7C3E7FF0018241800FFE79F
:100C2000DBE7FF30483A060E2629792926407F0562
:100C30000507407F05253F5A3CE73C5A7F3E1C1C78
:100C400008081C1C3E7F14227F22145F5F005F5F38
:100C500006097F017F006689956A60606060609424
:100C6000A2FFA29408047E040810207E2010080829
:100C70002A1C08081C2A08081E101010100C1E0C34
:100C80001E0C30383E3830060E3E0E0600000000C6
:100C90000000005F00000007000700147F147F14AD
:100CA000242A7F2A122313086462364956205000F2
:100CB00008070300001C2241000041221C002A1CDE
:100CC0007F1C2A08083E08080080703000080808C9
:100CD0000808000060600020100804023E514945E9
:100CE0003E00427F400072494949462141494D3307
:100CF0001814127F1027454545393C4A494931416E
:100D0000211109073649494936464949291E00003B
:100D10001400000040340000000814224114141490
:100D20001414004122140802015909063E415D597C
:100D30004E7C1211127C7F494949363E4141412285
:100D40007F4141413E7F494949417F090909013EAF
:100D5000414151737F0808087F00417F41002040D6
:100D6000413F017F081422417F404040407F021CE8
:100D7000027F7F0408107F3E4141413E7F090909FF
:100D8000063E4151215E7F091929462649494932CB
:100D900003017F01033F4040403F1F2040201F3F91
:100DA0004038403F63140814630304780403615916
:100DB000494D43007F414141020408102000414158
:100DC000417F040201020440404040400003070804
:100DD0000020545478407F28444438384444442800
:100DE000384444287F385454541800087E090218A7
:100DF000A4A49C787F0804047800447D400020402F
:100E0000403D007F1028440000417F40007C047872
:100E100004787C080404783844444438FC182424BA
:100E20001818242418FC7C0804040848545454243A
:100E300004043F44243C4040207C1C2040201C3CB7
:100E40004030403C44281028444C9090907C4464AE
:100E5000544C440008364100000077000000413641
:100E6000080002010204023C2623263C1EA1A161C7
:100E7000123A4040207A38545455592155557941F9
:100E80002154547841215554784020545579400CD0
:100E90001E527212395555555939545454593955B1
:100EA0005454580000457C410002457D42000145F4
:100EB0007C40F0292429F0F0282528F07C54554561
:100EC000002054547C547C0A097F493249494932F4
:100ED0003248484832324A4848303A4141217A3A09
:100EE00042402078009DA0A07D39444444393D40D3
:100EF00040403D3C24FF2424487E4943662B2FFC80
:100F00002F2BFF0929F620C0887E0903205454792D
:100F1000410000447D413048484A32384040227AFE
:100F2000007A0A0A727D0D19317D2629292F28267B
:100F30002929292630484D40203808080808080883
:100F40000808382F10C8ACBA2F102834FA00007BDC
:100F5000000008142A142222142A1408AA0055009A
:100F6000AAAA55AA55AA000000FF00101010FF0001
:100F7000141414FF001010FF00FF1010F010F014F4
:100F80001414FC001414F700FF0000FF00FF1414F9
:100F9000F404FC141417101F10101F101F14141445
:100FA0001F00101010F0000000001F101010101F84
:100FB00010101010F010000000FF10101010101092
:100FC000101010FF10000000FF140000FF00FF00D1
:100FD000001F10170000FC04F41414171017141449
:100FE000F404F40000FF00F714141414141414F79C
:100FF00000F7141414171410101F101F141414F4F5
:10100000141010F010F000001F101F0000001F143B
:10101000000000FC140000F010F01010FF10FF148E
:101020001414FF141010101F00000000F010FFFF38
:10103000FFFFFFF0F0F0F0F0FFFFFF000000000006
:10104000FFFF0F0F0F0F0F38444438447C2A2A3E0D
:10105000147E02020606027E027E02635549416347
:101060003844443C04407E201E2006027E02029941
:10107000A5E7A5991C2A492A1C4C7201724C304ADA
:101080004D4D303048784830BC625A463D3E494963
:1010900049007E0101017E2A2A2A2A2A44445F440B
:1010A0004440514A444040444A51400000FF01033B
:1010B000E080FF000008086B6B0836123624360605
:1010C0000F090F0600001818000000101000304033
:1010D000FF0101001F01011E00191D1712003C3CF9
:1010E0003C3C000000000000000000250028002B10
:1010F00000020102040810204080010204081020B0
:10110000010204081020000000002300260029002E
:10111000040404040404040402020202020203039D
:1011200003030303D52B512B11241FBECFEFD8E0AF
:10113000DEBFCDBF14E0A0E0B1E0ECEBF6E602C00C
:1011400005900D92A034B107D9F726E0A0E4B4E0F1
:1011500001C01D92A636B207E1F718E0C3E9D8E056
:1011600004C02197FE010E942531C239D107C9F779
:101170000E947E230C9451330C940000089508952E
:101180000895089580E090E00895CF92DF92EF9265
:101190000F93CF93DF936C01FC018485C58582306A
:1011A00040F5D281CD0FCE5FDF5FF601DC1770F422
:1011B000638128E0260F6B5FE090460500914505AE
:1011C0004D2F8D2F0E949E1ADE5FEFCFD281DF5F01
:1011D000DC17B8F5F601638125E0260F6D5FE0901E
:1011E0004605009145054D2F8D2F0E949E1AD65F12
:1011F000EFCFF601D381CD0FCE5FDF5FF601CD17C4
:1012000068F0828143E0480FE09046050091450573
:101210002D2F6D2F0E949E1ADE5FF0CFD381DF5FEE
:10122000CD1778F0F601828145E0480FE090460541
:10123000009145052D2F6D2F8D5F0E949E1AD65F60
:10124000EFCFDF91CF910F91EF90DF90CF90089586
:101250000C94CF311F93CF93DF93EC018E819F814C
:101260000E949519182F8C819D810E9495198117D4
:1012700008F4812F8B87DF91CF911F9108950F93F1
:101280001F93CF93DF93EC018B01CB010E94951943
:10129000CB85C81BCC2341F063E274E081E495E088
:1012A0000E946716C150F6CFB80181E495E0DF9146
:1012B000CF911F910F910C940C1BCF93DF93EC01F6
:1012C000E881F9810084F185E02D0995888599856B
:1012D000988B8F87E881F9810084F185E02DCE011C
:1012E00009958E85811120C02C858B819A812130B2
:1012F00069F038F0223061F42D85820F8C5F9F5F9A
:1013000008C08F5F2D85920F9C5F03C0865F01C070
:10131000975F90934C0580934D056F857889CE013A
:10132000DF91CF910C943F09DF91CF910895CF9336
:10133000DF93EC01E881F9810280F381E02D0995CA
:10134000E881F9810084F185E02DCE010995E881DD
:10135000F9810190F081E02DCE01DF91CF910994C8
:10136000CF93DF93EC018E819F8186179707A4F0BE
:101370008C819D81681779077CF0CB01798768871C
:101380000E9495198A87E881F9810190F081E02D0A
:10139000CE01DF91CF910994DF91CF9108950F9302
:1013A0006034C8F54033B8F50130C1F4213099F507
:1013B000E42FE695E695E69580E4E89FF001112498
:1013C000E60FF11DE55DFE4F477081E090E001C042
:1013D000880F4A95EAF7908189271CC0842F86954B
:1013E00086958695E62FF0E0477090E4899FE00DA2
:1013F000F11D1124E55DFE4F81E090E001C0880FF2
:101400004A95EAF7213019F49081892B03C0809521
:101410009081892380830F9108957F928F929F926C
:10142000AF92BF92CF92DF92EF92FF920F931F93F2
:10143000CF93DF93EC018C85CC80DD806F8578893C
:10144000EE80FF800D857B801A818230B8F56C19A3
:101450007D0980E090E00E94822D4B015C01B70184
:101460006C197D0980E090E00E94822D9B01AC0107
:10147000C501B4010E94C32F6B017C01602F70E095
:1014800080E090E00E94842D9B01AC01C701B60171
:101490000E94E32D0E943C30F62E862F810F43E000
:1014A000480FEE24E39401E0272D672D0E949E1A39
:1014B0004B814F5F6A816F5F6F0D39C0C701861B1B
:1014C000970BBC0180E090E00E94822D4B015C01F3
:1014D000C7018C199D09BC0180E090E00E94822D1B
:1014E0009B01AC01C501B4010E94C32F6B017C01BB
:1014F000602F70E080E090E00E94842D9B01AC01A1
:10150000C701B6010E94E32D0E943C30F62E670D04
:1015100087E0810F23E0260FEE24E39401E0482FBB
:101520000E949E1A4B814F5F4F0D6A816A5F21E0D6
:1015300081E495E00E94CF09DF91CF911F910F9137
:10154000FF90EF90DF90CF90BF90AF909F908F90E3
:101550007F9008955F926F927F928F929F92AF9249
:10156000BF92CF92DF92EF92FF920F931F93CF9390
:10157000DF93EC016A3009F46AC06D3009F4C9C028
:10158000E62EBD80AC801C859B842985621708F4FB
:1015900050C08A8590E0820F911D462F50E0481779
:1015A00059070CF046C0E21A8F8086948694869480
:1015B00081E0881508F451C0C92C38E0D32ED10E33
:1015C0009C2D99198E81282F30E0E92FF0E02E17FD
:1015D0003F077CF1981789F0A885B0E0AA0FBB1FE0
:1015E000A850BD4FE89EE00DF11D112436968D9157
:1015F0009C91E80FF91FF49001C0F12C812EF0FEB0
:1016000003C00B2D2A2D04C021E0A11020E00B2DDA
:10161000482D6C2DCE010E94CF09F69483948D1035
:10162000EECFC394CDCF8FEFC81AD80A185FC81475
:10163000D0F14E818B85840F8F5F8B8790E020E403
:1016400030E0241B3109281739070CF062C09C8553
:101650008F81890F8C871B865CC0ED85FE852E816E
:1016600030E0CF01B9010E9411318E2D90E00E942F
:101670001131829F7001839FF00C929FF00C112416
:101680008E9E90018F9E300D1124269FC001279FB2
:10169000900D369F900D1124E80EF91EC12CD12C0F
:1016A00086E0E80EF11C792C872D89199E81891717
:1016B00008F0B9CFA885B0E0AA0FBB1FA850BD4F56
:1016C0002D853E85C29EF001C39EF00DD29EF00D89
:1016D0001124EE0DFF1DE80FF11D8D919C91E80F77
:1016E000F91F6490512C452D410F60FE03C00B2D56
:1016F0002A2D04C021E0A11020E00B2D672DCE0182
:101700000E94CF096694539488E05812ECCF7394EA
:10171000CBCF81E090E0DF91CF911F910F91FF90AF
:10172000EF90DF90CF90BF90AF909F908F907F9081
:101730006F905F9008950DB407FEFDCF0895089552
:101740008F929F92AF92BF92CF92DF92EF92FF92D1
:101750000F931F93CF93DF93EC015B0149018091BD
:10176000400490914104FC01558344830E942A095E
:101770008091400490914104FC01978286820E94EE
:101780002A0980911A01882341F0809140049091A8
:1017900041040E94970910921A0110924C0584E0AE
:1017A00080934D05C5010E94951A0E948C2080905F
:1017B000680490906904A0906A04B0906B04DC0106
:1017C000CB01880D991DAA1DBB1D809368049093C1
:1017D0006904A0936A04B0936B04F89410924906CC
:1017E00010924A0610924B0610924C067894609123
:1017F00068047091690480916A0490916B04960169
:10180000DD0C440B550B4B015C0197FF07C088248E
:1018100099245401861A970AA80AB90A82169306CF
:10182000A406B506CCF00E94B72E88819981280FB6
:10183000391F201731072CF0E216F3061CF497012C
:1018400001C09801398328831092680410926904BA
:1018500010926A0410926B048EE180934C0588E22A
:1018600080934D056881798181E495E00E940C1B8D
:10187000888199810A9734F463E274E081E495E009
:101880000E946716888199818436910534F463E259
:1018900074E081E495E00E94671668817981809107
:1018A0004004909141040E94B009DF91CF911F91B3
:1018B0000F91FF90EF90DF90CF90BF90AF909F90EF
:1018C0008F900C945B1A4F925F926F927F92AF92BF
:1018D000BF92CF92DF92EF92FF920F931F93CF931D
:1018E000DF936C018B015A01E9010E948C2040902A
:1018F00068045090690460906A0470906B04DC0185
:10190000CB01840D951DA61DB71D8093680490938F
:101910006904A0936A04B0936B04F894109249068A
:1019200010924A0610924B0610924C0678946091E1
:1019300068047091690480916A0490916B042B0192
:101940003C0197FF07C0442455243201461A570A28
:10195000680A790A24E04216510461047104FCF01B
:10196000F601F080F11002C097FD11C024E030E0D4
:1019700040E050E00E94B72E9F2D920F292F30E0BB
:101980002C173D0714F09C2F9150F6019083109274
:1019900068041092690410926A0410926B04109209
:1019A0004C058EE080934D05C8010E94951A81E098
:1019B0000E944C23F601908180914805F50126E0B4
:1019C000929FE00DF11D1124248135812F5F3F4F3F
:1019D00090914705929FA001939F500D1124C8E359
:1019E000D0E0C41BD50BC230D1054CF0D595C795BE
:1019F0002197CD31D1052CF0CCE1D0E002C0C0E080
:101A0000D0E010E094E3F92EF80EE12C00E02F2D49
:101A1000412F6AE1812F0E949E1A1F5F1733A9F799
:101A2000C0934C058AE180934D05F60180819501B4
:101A300046E0849F200D311D1124C9010E94951A92
:101A40000E945B1A10921A0180E0DF91CF911F91E2
:101A50000F91FF90EF90DF90CF90BF90AF907F906D
:101A60006F905F904F900C944C234CE850E060E0F6
:101A700070E080E699E00E94A12068EC70E080E0D0
:101A800090E00E94F4174CE850E060E070E080EADB
:101A90009FE00E94A12068EC70E080E090E00E944E
:101AA000F4174CE850E060E070E080E699E00E94B6
:101AB000A12068EC70E080E090E00E94F4174CE810
:101AC00050E060E070E080EA9FE00C94A1208F92EB
:101AD0009F92AF92BF92EF92FF920F931F93CF937B
:101AE000DF937C0184E68E9D80018F9D100D112473
:101AF000C2E0D1E002501140C8018C0F9D1F0E942E
:101B0000A12E899381E0CA31D807B1F780900201F4
:101B100090900301A0900401B090050120E030E016
:101B200040E85FEBC501B4010E947D2D882351F090
:101B300028EB3EE145E85FE3C501B4010E947D2D3D
:101B40008823F9F088E1E0EEF2E0A2E0B1E0019054
:101B50000D928A95E1F742E350E060E070E088EE94
:101B600093E00E94A12064E670E080E090E00E9493
:101B7000F41742E350E060E070E088EE93E00E94EA
:101B8000A1208091060190910701909326018093F6
:101B9000250180910801909109019093240180937F
:101BA000230120910A01222329F0253028F024E086
:101BB00030E002C021E030E0215020938F0480917A
:101BC0000B0190910C01909322018093210180914F
:101BD0000D0190910E019093200180931F0180913F
:101BE0000F01909110019093910480939004809143
:101BF0001101909112019093280180932701809107
:101C000015019091160190932A01809329018091EA
:101C100018019091190190931C0180931B018091F0
:101C2000140180931D01EF2851F49091170181E078
:101C3000892780938E048091130180931E01DF9188
:101C4000CF911F910F91FF90EF90BF90AF909F9019
:101C50008F9008950E94670D42E350E060E070E0CD
:101C600080EA9FE00E94A12064E670E080E090E0BE
:101C70000E94F41744E650E060E070E080EA9FE0E4
:101C80000C94A12080918F04833018F490E0019689
:101C9000089584E690E008952F923F924F925F92CC
:101CA0006F927F928F929F92AF92BF92CF92DF926C
:101CB000EF92FF920F931F93CF93DF931F92CDB7B5
:101CC000DEB71C0128EB3EE145E85FE360910201CD
:101CD0007091030180910401909105010E947D2D76
:101CE0008090250190902601A0902301B0902401BE
:101CF000C0902101D0902201E0901F01F0902001BE
:101D00000091900410919104609027017090280137
:101D100040901B0150901C01811161C0809106010F
:101D2000909107018815990509F059C08091080123
:101D3000909109018A159B0509F051C00E94420E3D
:101D400020910A0130E02817390709F048C0809136
:101D50000B0190910C018C159D0509F040C08091FC
:101D60000D0190910E018E159F05C9F580910F010F
:101D7000909110018017910791F580911101909138
:101D800012018615970559F59091130180911E0156
:101D9000981325C09091140180911D0198131FC0C4
:101DA00020911501309116018091290190912A010D
:101DB00028173907A1F481E090918E04911180E0F9
:101DC0009091170198130BC01214130444F08091E2
:101DD0001801909119018415950509F463C00E94BA
:101DE000420EF0911E01E0911D01209129013091D8
:101DF0002A0191E060918E04611190E048EB5EE170
:101E000065E87FE34093020150930301609304016E
:101E1000709305019092070180920601B09209012A
:101E2000A092080180930A01D0920C01C0920B018C
:101E3000F0920E01E0920D011093100100930F013A
:101E40007092120160921101F0931301E09314015A
:101E500030931601209315019093170150921901A8
:101E60004092180184E6829D8001839D100D11240B
:101E700082E0C82E81E0D82E7801F8E1EF0EF11C47
:101E8000F60161916F01C80169830E94A12E6981E9
:101E9000681719F0C8010E94A92E0F5F1F4F0E1579
:101EA0001F0571F70F90DF91CF911F910F91FF9058
:101EB000EF90DF90CF90BF90AF909F908F907F90EA
:101EC0006F905F904F903F902F9008958FE00E9409
:101ED000DD17803921E0920734F08438934034F0E4
:101EE00082E090E0089580E090E0089581E090E045
:101EF000089582E10E94DD17803921E0920774F095
:101F00008C3B22E092076CF0803223E0920764F071
:101F10008438934064F081E090E0089580E090E0A0
:101F2000089584E090E0089583E090E0089582E0D1
:101F300090E008958EE00E94C11621E0892B09F0FF
:101F400020E0822F08958F929F92AF92BF92CF92FE
:101F5000DF92EF92FF92CF93DF93C0911B01D0915C
:101F60001C018091000190910101893E93400CF485
:101F700059C0209719F488EE93E050C0C0905804DF
:101F8000D0905904E0905A04F0905B04C114D1043D
:101F9000E104F104B1F08090540490905504A090B5
:101FA0005604B09057040E942E18A50194012C19D4
:101FB0003D094E095F0969017A01C60ED71EE81E68
:101FC000F91E0E942E186093580470935904809350
:101FD0005A0490935B04C701B6012AE030E040E068
:101FE00050E00E94202F6093540470935504809316
:101FF00056049093570480E190E08C1B9D0B880F52
:10200000991F289FB001299F700D389F700D1124D2
:102010008091000190910101861B970B9093010123
:10202000809300018091000190910101DF91CF9197
:10203000FF90EF90DF90CF90BF90AF909F908F90E8
:102040000C94FF2280911D01833009F040C08091E3
:102050004604811104C00E949A0F811124C080910E
:102060004604882321F00E949A0F882331F1809141
:10207000520490915304C39754F110925304109258
:1020800052049091460481E0892780934604882376
:10209000F1F0809166049091670401969093670433
:1020A00080936604089580915204909153040196A0
:1020B0009093530480935204D2CF80915204909114
:1020C000530401969093530480935204D0CF089503
:1020D000882321F0109267041092660460E081E08A
:1020E0000E94EA1660E080E00E94EA160E942E1824
:1020F0006093420470934304809344049093450496
:1021000010925404109255041092560410925704E1
:102110000E942E18609358047093590480935A04B7
:1021200090935B040C94A30FDC01ED91FD918081F1
:10213000ED91FD919081ED91FD916C9163708E23F5
:1021400009F064609F2309F06860E1EBF0E1E60FBD
:10215000F11D659565956D936D917D918D919D9125
:10216000099423C01AC012C016C010C01EC009C0F6
:1021700014C013C006C019C009C00DC007C00DC0EF
:1021800014C062507040804090400BC0615070405D
:102190008040904006C06E5F01C06F5F7F4F8F4FE1
:1021A0009F4F9E938E937E936E93089580917705B3
:1021B000909178050C949410809175059091760516
:1021C0000C949410CF92DF92EF92FF920F931F9393
:1021D000CF93DF936C017A018B01C0E0D0E0CE1584
:1021E000DF0589F0D8016D918D01D601ED91FC914B
:1021F0000190F081E02DC6010995892B11F47E0133
:1022000002C02196ECCFC701DF91CF911F910F91B2
:10221000FF90EF90DF90CF900895FC01538D448D97
:10222000252F30E0842F90E0821B930B541710F081
:10223000CF96089501970895FC01918D828D98178E
:1022400061F0828DDF01A80FB11D5D968C91928D9A
:102250009F5F9F73928F90E008958FEF9FEF089597
:10226000FC01918D828D981731F0828DE80FF11D60
:10227000858D90E008958FEF9FEF0895FC01918D7B
:10228000228D892F90E0805C9F4F821B91098F7374
:102290009927089584EA94E00E943E1121E0892B59
:1022A00009F420E0822F0895FC01848DDF01A80F3E
:1022B000B11DA35ABF4F2C91848D90E001968F736E
:1022C0009927848FA689B7892C93A089B1898C918D
:1022D00080648C93938D848D981306C00288F38953
:1022E000E02D80818F7D80830895EF92FF920F9380
:1022F0001F93CF93DF93EC0181E0888F9B8D8C8DB2
:10230000981305C0E889F989808185FD24C0F62EDF
:102310000B8D10E00F5F1F4F0F731127E02E8C8D78
:10232000E8120CC00FB607FCFACFE889F989808162
:1023300085FFF5CFCE010E945411F1CF8B8DFE01A8
:10234000E80FF11DE35AFF4FF0820B8FEA89FB89FA
:102350008081806207C0EE89FF896083E889F989FE
:1023600080818064808381E090E0DF91CF911F9134
:102370000F91FF90EF900895CF93DF93EC01888D3C
:102380008823C9F0EA89FB89808185FD05C0A88979
:10239000B9898C9186FD0FC00FB607FCF5CF8081FF
:1023A00085FFF2CFA889B9898C9185FFEDCFCE0149
:1023B0000E945411E7CFDF91CF91089580E090E023
:1023C000892B29F00E944A1181110C940000089574
:1023D000833081F028F4813099F08230A1F00895A3
:1023E0008730A9F08830B9F08430D1F48091800032
:1023F0008F7D03C0809180008F7780938000089547
:1024000084B58F7702C084B58F7D84BD0895809197
:10241000B0008F7703C08091B0008F7D8093B000B3
:1024200008953FB7F8948091620490916304A0915D
:102430006404B091650426B5A89B05C02F3F19F030
:102440000196A11DB11D3FBFBA2FA92F982F882734
:10245000820F911DA11DB11DBC01CD0142E0660F8F
:10246000771F881F991F4A95D1F7089508950E94F4
:1024700031330C94CF310C94CF312F923F924F9245
:102480005F926F927F928F929F92AF92BF92CF9204
:10249000DF92EF92FF920F931F93CF93DF9300D0C1
:1024A00000D0CDB7DEB71C01FC01A480B5806785E4
:1024B00070896A197B0980E090E00E94822D6B018F
:1024C0007C01F101868197818A199B09BC0180E01A
:1024D00090E00E94822D9B01AC01C701B6010E94D1
:1024E000C32F20E030E040E753E40E94E32D20E0DA
:1024F00030E046E153E40E94522F25E33AEF4EE8E4
:102500005CE30E94E32D4B015C010E94BE2F6983B6
:102510007A838B839C83F101658570E080E090E095
:102520000E94842D2AE939E949E95FE30E94C32F1B
:102530006B017C01C501B4010E94AF302B013C014D
:10254000F10113813280612F70E06F5F7F4F072EA2
:10255000000C880B990B0E94842D4B015C01A70194
:102560009601C301B2010E94E32D9B01AC01C5019C
:10257000B4010E94522F0E943C30762E632D70E0F1
:102580006F5F7F4F072E000C880B990B0E94842DE4
:102590004B015C01A701960169817A818B819C8145
:1025A0000E94E32D9B01AC01C501B4010E94522F92
:1025B0000E943C30462FEE24E39401E0272D612F4A
:1025C000832D0E949E1A0F900F900F900F90DF9115
:1025D000CF911F910F91FF90EF90DF90CF90BF9020
:1025E000AF909F908F907F906F905F904F903F90B3
:1025F0002F900895CF93DF93EC01E881F981008457
:10260000F185E02D099588859985988B8F87E881DC
:10261000F9810084F185E02DCE0109958E85811127
:1026200019C09A819F5F8B85282F220F820F981BDC
:102630002C858B81222311F0865F01C0855F9093EA
:102640004C0580934D056F857889CE01DF91CF9140
:102650000C943F09DF91CF9108952F923F924F92B2
:102660005F926F927F928F929F92AF92BF92CF9222
:10267000DF92EF92FF920F931F93CF93DF93CDB72B
:10268000DEB72F970FB6F894DEBF0FBECDBF1C018B
:10269000FC01958593808280B0904605A090450509
:1026A00081E0F82EF91AE92EE194EE0C192F492D4C
:1026B000490F0B2D2A2D682D81E495E00E94CF094A
:1026C000492D411B2A2D682D81E495E00E94CF09F8
:1026D000682D610F2A2D492D81E495E00E94CF09D4
:1026E000682D611B2A2D492D81E495E00E94CF09B8
:1026F000612C61160CF055C0F7FC04C01150E39436
:10270000E394FE0C6394862D880F8F5FF80E762C71
:10271000780C0B2D2A2DD12ED90C4D2D672D81E44F
:1027200095E00E94CF09C82CC6182A2D4D2D6C2D7E
:1027300081E495E00E94CF092A2DD92CD11A4D2D84
:10274000672D81E495E00E94CF092A2D4D2D6C2D37
:1027500081E495E00E94CF09D62CD90C2A2D4D2D6D
:10276000C12EC80C6C2D81E495E00E94CF092A2D62
:102770004D2DD82CD11A6D2D81E495E00E94CF0902
:10278000792C76182A2D472D6C2D81E495E00E9436
:10279000CF092A2D472D6D2D81E495E00E94CF09A8
:1027A000A8CF26E930E03F872E87EE85FF85BF0161
:1027B000FF0F880B990B0E94842D25E33AEF4EE81A
:1027C0005CE30E94E32D4B015C010E94BE2F6983F4
:1027D0007A838B839C83F101658570E080E090E0D3
:1027E0000E94842D6B017C0120E030E040EC5FE32F
:1027F0000E94C32F69877A878B879C87C501B401A4
:102800000E94AF302B013C01F101638170E06F5FEA
:102810007F4F072E000C880B990B0E94842D4B01D3
:102820005C01F101628170E06F5F7F4F072E000C49
:10283000880B990B0E94842D6D837E838F839887EC
:10284000A7019601C301B2010E94E32D9B01AC01D7
:10285000C501B4010E94522F0E943C306D87A70130
:10286000960169817A818B819C810E94E32D9B0175
:10287000AC016D817E818F8198850E94522F0E94CC
:102880003C30162F29853A854B855C85C301B20102
:102890000E94E32D9B01AC01C501B4010E94522F9F
:1028A0000E943C30B62E29853A854B855C8569812E
:1028B0007A818B819C810E94E32D9B01AC016D810B
:1028C0007E818F8198850E94522F0E943C30862FF6
:1028D000E0904605009145052D85412F6B2D0E9406
:1028E0009E1A2E853F85225E3F4F3F872E87243AD2
:1028F000314009F05ACFF1018585803108F4AAC032
:1029000025EA30E03F872E87EE85FF85BF01FF0F68
:10291000880B990B0E94842D25E33AEF4EE85CE387
:102920000E94E32D4B015C010E94BE2F69837A83D4
:102930008B839C83F101658570E080E090E00E94CC
:10294000842D6B017C0126E636E646EA5FE30E94B1
:10295000C32F69877A878B879C87C501B4010E9442
:10296000AF302B013C01F101638170E06F5F7F4F5D
:10297000072E000C880B990B0E94842D4B015C01E3
:10298000F101628170E06F5F7F4F072E000C880BB2
:10299000990B0E94842D6D837E838F839887A70176
:1029A0009601C301B2010E94E32D9B01AC01C50158
:1029B000B4010E94522F0E943C30162FA7019601AD
:1029C00069817A818B819C810E94E32D9B01AC01FE
:1029D0006D817E818F8198850E94522F0E943C30AC
:1029E000F62E29853A854B855C85C301B2010E948C
:1029F000E32D9B01AC01C501B4010E94522F0E943E
:102A00003C30B62E29853A854B855C8569817A8173
:102A10008B819C810E94E32D9B01AC016D817E81A5
:102A20008F8198850E94522F0E943C30862FE09023
:102A3000460500914505212F4F2D6B2D0E949E1AB2
:102A40002E853F85225E3F4F3F872E8725393140B7
:102A500009F05ACF2F960FB6F894DEBF0FBECDBF48
:102A6000DF91CF911F910F91FF90EF90DF90CF906A
:102A7000BF90AF909F908F907F906F905F904F909E
:102A80003F902F900895EF92FF920F931F93CF9353
:102A9000DF93EC017B018A0188819981009729F0FD
:102AA0002A813B8124173507F8F4B8016F5F7F4F07
:102AB0000E946732009759F0998388831B830A83A9
:102AC0002C813D81232B81F4FC0110820DC0888173
:102AD0009981009711F00E94CF31198218821D82CE
:102AE0001C821B821A8207C01D830C83B701888158
:102AF00099810E944A33CE01DF91CF911F910F91AE
:102B0000FF90EF900895FC01808191810C94CF316A
:102B1000FC011182108213821282158214826115C7
:102B2000710551F0FB0101900020E9F73197AF01E9
:102B3000461B570B0C9443150895BF92CF92DF921A
:102B4000EF92FF920F931F93CF93DF937C016B0162
:102B5000EA0189012417350720F48D2FE901042F9C
:102B6000182F64E274E0C7010E948815D6011496FC
:102B70008D919C911597C817D907C8F580179107B3
:102B800008F48C01D601ED91FC911197E00FF11F33
:102B9000B08010824D915C91BA016C0F7D1F611560
:102BA000710561F0FB0101900020E9F73197AF0159
:102BB000461B570BC7010E94431513C0F7018081C4
:102BC0009181009711F00E94CF31D70111961C928C
:102BD0001E9215961C921E92149713961C921E928A
:102BE0001297D601ED91FC91E00FF11FB082C70161
:102BF000DF91CF911F910F91FF90EF90DF90CF90D9
:102C0000BF900895DC01ED91FC910190F081E02DE1
:102C100009946115710579F0FB0101900020E9F735
:102C20003197AF01461B570BDC01ED91FC910280FF
:102C3000F381E02D099480E090E008954F925F9237
:102C40006F927F92EF92FF920F931F93CF93DF9338
:102C5000CDB7DEB7A1970FB6F894DEBF0FBECDBFDC
:102C60007C01FA01CB0119A2223008F42AE08E017E
:102C70000F5D1F4F422E512C612C712CBF01A301FF
:102C800092010E94202FF901CA01015011096A30F6
:102C900014F4605D01C0695CD8016C93232B242B74
:102CA000252B61F7B801C7010E940916A1960FB63E
:102CB000F894DEBF0FBECDBFDF91CF911F910F9172
:102CC000FF90EF907F906F905F904F9008950C94DD
:102CD00009161F920F920FB60F9211242F933F9354
:102CE0004F935F936F937F938F939F93AF93BF9314
:102CF000EF93FF9384EA94E00E945411FF91EF91C7
:102D0000BF91AF919F918F917F916F915F914F9103
:102D10003F912F910F900FBE0F901F9018951F920B
:102D20000F920FB60F9211242F938F939F93EF93CF
:102D3000FF93E091B404F091B5048081E091BA046E
:102D4000F091BB0482FD12C090818091BD048F5F21
:102D50008F732091BE04821751F0E091BD04F0E022
:102D6000EC55FB4F958F8093BD0401C08081FF918E
:102D7000EF919F918F912F910F900FBE0F901F9009
:102D80001895CF93DF93282F30E0F901E255FF4FDC
:102D90008491F901EE50FF4ED491F901E05FFE4EAF
:102DA000C491CC2391F081110E94E811EC2FF0E046
:102DB000EE0FFF1FEA5FFE4EA591B491EC91ED235B
:102DC00081E090E021F480E002C080E090E0DF91BB
:102DD000CF9108951F93CF93DF93282F30E0F9010F
:102DE000E255FF4F8491F901EE50FF4ED491F90165
:102DF000E05FFE4EC491CC23C9F0162F81110E94D2
:102E0000E811EC2FF0E0EE0FFF1FE951FF4EA59106
:102E1000B4918FB7F894111105C09C91ED2FE095F6
:102E2000E92302C0EC91ED2BEC938FBFDF91CF91A2
:102E30001F9108959091AB02981324C0E1EFF0E147
:102E4000E4919FEF9093AB02E130B9F098F0E2305B
:102E5000C9F4909170009D7F9093700091E09093E1
:102E6000B0009091B100987F94609093B10010925F
:102E7000B30008C010926E0005C090916F009D7F56
:102E800090936F0060E00C94EA161F920F920FB6B9
:102E90000F9211242F933F934F935F936F937F93E0
:102EA0008F939F93AF93BF93EF93FF938091A00471
:102EB0009091A104A091A204B091A304892B8A2B24
:102EC0008B2B51F180919D04E0919E04F0919F0421
:102ED0009081892780838091A0049091A104A09182
:102EE000A204B091A304181619061A061B06C4F40E
:102EF0008091A0049091A104A091A204B091A30498
:102F00000197A109B1098093A0049093A104A09313
:102F1000A204B093A30404C08091AB020E941A17CC
:102F2000FF91EF91BF91AF919F918F917F916F91A1
:102F30005F914F913F912F910F900FBE0F901F9077
:102F40001895CF93DF9390E0FC01EE50FF4E249153
:102F5000FC01E05FFE4E8491882361F190E0880FD0
:102F6000991FFC01EC55FF4FC591D491FC01E9512B
:102F7000FF4EA591B491611109C09FB7F894888163
:102F8000209582238883EC912E230BC0623061F45C
:102F90009FB7F8943881822F809583238883EC91A2
:102FA0002E2B2C939FBF06C08FB7F894E8812E2B51
:102FB00028838FBFDF91CF9108958E3008F08E5017
:102FC0008770806480937C0080917A008064809315
:102FD0007A0080917A0086FDFCCF80917800209164
:102FE000790090E0922B08958F929F92AF92BF92BA
:102FF000CF92DF92EF92FF926B017C010E9411123F
:103000004B015C01C114D104E104F104F1F00E9410
:103010001112DC01CB0188199909AA09BB09883E64
:103020009340A105B10570F321E0C21AD108E1086F
:10303000F10888EE880E83E0981EA11CB11CC11413
:10304000D104E104F10419F7DDCFFF90EF90DF9098
:10305000CF90BF90AF909F908F9008952FB7F89426
:1030600060915E0470915F048091600490916104AE
:103070002FBF08951F920F920FB60F9211242F9316
:103080003F938F939F93AF93BF9380915E049091F2
:103090005F04A0916004B091610430915D0423E06D
:1030A000230F2D3720F40196A11DB11D05C026E880
:1030B000230F0296A11DB11D20935D0480935E0431
:1030C00090935F04A0936004B093610480916204C4
:1030D00090916304A0916404B09165040196A11DD0
:1030E000B11D8093620490936304A0936404B09331
:1030F0006504BF91AF919F918F913F912F910F9058
:103100000FBE0F901F9018951F920F920FB60F923F
:1031100011242F933F934F935F936F937F938F93DC
:103120009F93AF93BF93EF93FF93E091AE02F09123
:10313000AF020995FF91EF91BF91AF919F918F9150
:103140007F916F915F914F913F912F910F900FBEA3
:103150000F901F9018951F920F920FB60F92112487
:103160002F933F934F935F936F937F938F939F938F
:10317000AF93BF93EF93FF93E091AC02F091AD0258
:103180000995FF91EF91BF91AF919F918F917F91A1
:103190006F915F914F913F912F910F900FBE0F90C4
:1031A0001F9018951F920F920FB60F9211242F9314
:1031B0003F934F935F936F937F938F939F93AF93BF
:1031C000BF93EF93FF9380915C0487FF05C010923B
:1031D0008500109284001BC020915C04022E000C1C
:1031E000330B8091740590E02817390784F480919F
:1031F0005C04082E000C990BFC01EE0FFF1F8E0FD4
:103200009F1FFC01E05BFA4F808186FD15C0809115
:103210005C048F5F80935C0420915C04022E000CA0
:10322000330B8091740590E028173907C4F480911E
:103230005C048C3064F113C080915C04082E000C97
:10324000990BFC01EE0FFF1F8E0F9F1FFC01E05B2F
:10325000FA4F808160E08F730E94EA16D8CF809188
:10326000840090918500049680349C4918F480E491
:103270009CE905C08091840090918500049690930C
:103280008900809388008FEF80935C043BC020917D
:1032900084003091850080915C04082E000C990B0D
:1032A000FC01EE0FFF1F8E0F9F1FFC01E05BFA4F2A
:1032B00081819281820F931F90938900809388006F
:1032C00080915C04082E000C990BFC01EE0FFF1F8F
:1032D0008E0F9F1FFC01E05BFA4F808186FF12C0BA
:1032E00080915C04082E000C990BFC01EE0FFF1F6F
:1032F0008E0F9F1FFC01E05BFA4F808161E08F73AE
:103300000E94EA16FF91EF91BF91AF919F918F912B
:103310007F916F915F914F913F912F910F900FBED1
:103320000F901F901895089508959C01803167E2D1
:103330009607E4F4813F78ED9707D4F097FF05C036
:1033400031952195310992E001C091E04AE050E0C9
:103350008AE02417350744F09F5FBA01869FA001D9
:10336000879F500D1124F5CF892F089585E008958A
:1033700086E008950DB407FEFDCF2898209A2A9A7A
:1033800022988CB58F7B8CBD08958CB580648CBDE4
:103390002A98229A08958F929F92AF92BF92CF92CD
:1033A000DF92EF92FF920F931F93CF93DF936B0106
:1033B0007C01142F20E030E0A9010E947D2D87FFC1
:1033C0000BC06DE281E495E00E940216EC01F7FA71
:1033D000F094F7F8F09402C0C0E0D0E000E060E0C4
:1033E00070E080E09FE3011741F020E030E040E230
:1033F00051E40E94C32F0F5FF6CF9B01AC01C701C0
:10340000B6010E94522F6B017C010E943C304B019F
:103410005C010E94822D9B01AC01C701B6010E9494
:10342000512F6B017C012AE0B501A40181E495E0F4
:103430000E941E16C80FD91F112339F06EE281E4D5
:1034400095E00E940216C80FD91F112331F120E028
:1034500030E040E251E4C701B6010E94E32D4B0188
:103460005C010E943C306B01E12CF12C2AE0B70199
:10347000A60181E495E00E941E16C80FD91FC7015E
:10348000B6010E94822D9B01AC01C501B4010E94CE
:10349000512F6B017C011150D8CFCE01DF91CF911C
:1034A0001F910F91FF90EF90DF90CF90BF90AF9062
:1034B0009F908F900895CF93DF9360E080E20E9409
:1034C00037230E94C51981E28EBD0E949B0B80E2CA
:1034D0008EBD0E949B0B8FE58EBD0E94BA190E9483
:1034E000C51982E28EBD0E949B0B1EBC0E949B0BE5
:1034F00085E08EBD0E94BA190E94C519289A2098AD
:1035000080912B018EBDCCE2D1E00E949B0B899172
:103510008EBD82E0CB3AD807C1F70E94BA1962E0AB
:1035200080E2DF91CF910C943723FC0144815581D7
:103530006081718181E495E00C94E2109F92AF92DA
:10354000BF92CF92DF92EF92FF920F931F93CF9390
:10355000DF93C82FD62F142FD02E422F50E0461BBA
:10356000510957FF03C0519541955109812F90E0B2
:103570008C1B910997FF03C0919581959109BB24FC
:10358000B3948417950714F0B12C06C0812F122F25
:10359000282F8C2FCD2FD82F1C1730F48D2FD22F02
:1035A000282F8C2FC12F182FA12EAC1A822F90E01C
:1035B0008D1B910997FF03C0919581959109F82E74
:1035C000CA2CC694D21718F099249A9413C099243F
:1035D000939410C00E2D2D2DBB2079F04C2F6D2F04
:1035E00081E495E00E94CF09CF18C7FE02C0D90D33
:1035F000CA0CCF5FC11770F303C04D2F6C2FF0CFF3
:10360000DF91CF911F910F91FF90EF90DF90CF90BE
:10361000BF90AF909F900895CF92DF92EF92FF926C
:103620000F931F93CF93DF936B01770FEE08FF0883
:10363000F7FE1BC0EC016DE20E9402168C014427CC
:103640005527BA014C195D096E097F092AE0CE01A0
:103650000E941E16800F911FDF91CF911F910F9135
:10366000FF90EF90DF90CF9008952AE0B701A60178
:10367000DF91CF911F910F91FF90EF90DF90CF904E
:103680000C941E168F929F92AF92BF92CF92DF92B0
:10369000EF92FF920F931F93CF93DF9300D000D050
:1036A00000D0CDB7DEB7A0912901B0912A012FEF4C
:1036B00030E00E94333124E630E040E050E00E94E8
:1036C000B72E622F81E80E943723809192048823CD
:1036D00071F082E280934C0510924D056AE473E02C
:1036E00081E495E00E94671680E00E944C2380915F
:1036F0001A01882331F080918C0490918D040E94EE
:1037000097090E942E180091880410918904209135
:103710008A0430918B04045D1E4F2F4F3F4F0617D4
:1037200017072807390708F075C081E10E94DD17E7
:10373000BC01990F880B990B0E94842D2AE037ED6C
:1037400043EA50E40E94E32D20E030E040E85AE3F1
:103750000E94E32D2CE83EE24AEB5DE30E94C32F7A
:1037600020E030E040E251E40E94E32D0E94353039
:10377000072E000C880B990B0E94842D20E030E06E
:1037800040E251E40E94C32F4B015C01E09097049A
:10379000F09098048701000F111F000F111F0459AA
:1037A0001B4FD8012D913D914D915C916091840406
:1037B0007091850480918604909187040E94512F16
:1037C000F80180829182A282B382A50194010E94B5
:1037D000522F6093840470938504809386049093A1
:1037E0008704FFEFEF1AFF0AF0929804E092970423
:1037F00026E0E216F10424F0109298041092970447
:103800000E942E18609388047093890480938A0420
:1038100090938B0420E030E040EC50E4609184040D
:103820007091850480918604909187040E94C32F33
:103830006B017C0120E030E040E251E40E94E32D86
:103840000E94353080918C0490918D040E94B009C3
:1038500020E030E040E351E4C701B6010E947D2D35
:1038600087FF29C08090930490909404A0909504C1
:10387000B090960438EB830E3BE0931EA11CB11C64
:103880000E942E1886169706A806B906A0F460E0D6
:1038900081E00E94EA1688EE93E00E94FF220E94D7
:1038A000AB2B0E942E186093930470939404809322
:1038B00095049093960426E636E64EE251E4C7015D
:1038C000B6010E947D2D87FF29C0809093049090BF
:1038D0009404A0909504B09096044CED840E45E0BD
:1038E000941EA11CB11C0E942E1886169706A806CD
:1038F000B906A0F460E081E00E94EA1688EE93E049
:103900000E94FF220E94AB2B0E942E18609393040A
:103910007093940480939504909396042DEC3CEC62
:103920004CE251E4C701B6010E947D2D87FF29C0FA
:103930008090930490909404A0909504B090960485
:1039400058EE850E53E0951EA11CB11C0E942E1846
:1039500086169706A806B906A0F460E081E00E94EA
:10396000EA1688EE93E00E94FF220E94350D0E9425
:103970002E1860939304709394048093950490930D
:10398000960423E333E34BE251E4C701B6010E94FE
:103990007D2D87FF11C060E081E00E94EA1688EE6D
:1039A00093E00E94FF220E94350D68EC70E080E0F9
:1039B00090E00E94F417EFCF8091920481115BC0D8
:1039C00089E280934C0510924D0520E030E040E202
:1039D00051E4C701B6010E947D2D87FF06C060E556
:1039E00073E081E495E00E946716A7019601C70184
:1039F000B6010E94B730882319F062E573E01AC05F
:103A000046015701E894B7F82FEF3FEF4FE75FE724
:103A1000C501B4010E94B730811111C02FEF3FEFF3
:103A20004FE75FE7C501B4010E947D2D18163CF4F5
:103A300066E573E081E495E00E9409161CC02FEF53
:103A40003FEF4FE75FE4C701B6010E94AA301816A6
:103A50001CF46AE573E0EECF2FEF3FEF4FE75FEC2A
:103A6000C701B6010E947D2D87FDF3CF41E0C7015C
:103A7000B6010E94CB1988E380934C0587E28093BE
:103A80004D056EE573E081E495E00E946716809134
:103A90009C04882309F4B5C00E948C20009168041E
:103AA0001091690420916A0430916B04DC01CB0110
:103AB000800F911FA21FB31F809368049093690425
:103AC000A0936A04B0936B04F89410924906109284
:103AD0004A0610924B0610924C0678946091680446
:103AE0007091690480916A0490916B048B019C0130
:103AF00097FF07C0002711279801061B170B280BFB
:103B0000390B083011052105310554F110919B0442
:103B1000111102C097FD10C028E030E040E050E0F5
:103B20000E94B72E210F2F3008F02EE020939B0427
:103B3000109267041092660410926804109269044F
:103B400010926A0410926B0480918E04811108C057
:103B50004AE050E060E070E080ED97E00E94A12034
:103B600010924C0510924D0564E973E081E495E0F4
:103B70000E946716A0909B04A6E0AA9EC001112493
:103B8000FC01EB51FA4F5F0180914805248135819A
:103B90002F5F3F4F90914705929FA001939F500D3B
:103BA000112428E330E06901C41AD50AF2E0CF16E7
:103BB000D1046CF0D594C79421E0C21AD1083DE13C
:103BC000C316D10434F02CE1C22ED12C02C0C12C7A
:103BD000D12C10E094E3F92EF80EE12C00E02F2D0B
:103BE000412F6AE1812F0E949E1A1F5F1733A9F7A8
:103BF000C0924C058AE180934D05C5010E94951A3B
:103C000070C1E0919B048E2F90E08F30910508F0F9
:103C10006FC1FC01EC5CFF4F0C942531E090270153
:103C2000F0902801009190041091910460E673E0F7
:103C3000CE0101960E948815CC24C394D12C24E691
:103C400030E040E050E0BE016F5F7F4F85E291E0E1
:103C500017C066E673E0CE0101960E948815CC2459
:103C6000C394D12C14E6E12EF12C00E010E024E600
:103C700030E040E050E0BE016F5F7F4F83E291E0B3
:103C80000E94A00B01C16AE673E0CE0101960E947A
:103C9000881524E030E04DEC55E0BE016F5F7F4FAA
:103CA0008FE894E0EFC080919204811121C160E718
:103CB00073E0CE0101960E948815CC24C394D12CC8
:103CC000A4EFEA2EFF24F39408E710E024EF31E09C
:103CD00048E750E0BE016F5F7F4F81E291E0D0CFB7
:103CE00080919204811104C168E773E0CE010196CE
:103CF0000E948815CC24C394D12CE4EFEE2EFF242F
:103D0000F39406E910E024EF31E046E950E0BE010B
:103D10006F5F7F4F8FE191E0B3CF8091920481116B
:103D2000E7C0E0902701F090280160E873E0CE0141
:103D300001960E948815CC24C394D12C00E010E099
:103D400024E630E040E050E0BE016F5F7F4F80E945
:103D500094E096CF809192048111CAC000919004A2
:103D60001091910468E873E0CE0101960E948815D5
:103D7000CC24C394D12C54E6E52EF12C24E630E07B
:103D800040E050E0BE016F5F7F4F87E291E078CF67
:103D900060E973E0CE0101960E94881524E030E0CE
:103DA00041E955E0BE016F5F7F4F8EE191E06AC04F
:103DB00069E973E0CE0101960E94881524E030E0A5
:103DC00049E755E0BE016F5F7F4F8DE191E05AC03A
:103DD00062EA73E0CE0101960E94881528E0C22EA7
:103DE000D12C3FE0E32EF12C00E010E02FE030E09A
:103DF00040E050E0BE016F5F7F4F8BE191E040CF2C
:103E000080919204811174C06CEA73E006C08091C5
:103E1000920481116DC061EB73E0CE0101960E94A6
:103E2000881524E030E049EA55E0BE016F5F7F4F1E
:103E30008AE994E027C066EB73E0CE0101960E9408
:103E40008815CC24C394D12C94E6E92EF12C00E003
:103E500010E024E630E040E050E0BE016F5F7F4FAD
:103E600089E291E00DCF6EEB73E0CE0101960E94E6
:103E7000881522E030E041EC55E0BE016F5F7F4FD6
:103E80008EE894E00E94630CCE0101960E94831597
:103E90002FC010924C058EE080934D0564EC73E0CA
:103EA00081E495E00E94671610924C058AE18093A8
:103EB0004D0569EC73E081E495E00E94671610926D
:103EC0004C0586E280934D056FEC73E081E495E04C
:103ED0000E94671642E068EB7EE185E89FE30E945E
:103EE000CB190E945B1A10921A0180E00E944C23A9
:103EF0000E94790F8C01892B09F4F9C00E94790F77
:103F000020919904049709F064C021115EC080914A
:103F10009C0481112DC080919B048A3041F48091D2
:103F20009A04882329F190E00E942A0E1FC08B304A
:103F3000F9F480919A048823D9F090E00E944C0E05
:103F400042E350E060E070E080ED97E00E94A12045
:103F500064E670E080E090E00E94F41744E650E0F0
:103F600060E070E080ED97E00E94A12010929A043A
:103F700090919C0481E0892780939C048091920415
:103F8000882361F080919B049DEF980F943018F086
:103F90008A50823018F481E080939C0480E891E09C
:103FA000EBE2F1E0DF019C011D9221503040E1F78E
:103FB00081E080931A01F8941092490610924A0603
:103FC00010924B0610924C06789481E080939904ED
:103FD00090C021118EC04AE050E060E070E08CEDAE
:103FE00095E00E94A12060EA70E080E090E00E94ED
:103FF000F4170E94790F7C018017910709F079C0AE
:1040000080911E01811107C080919204811103C02B
:10401000C7010E942A0E80911E018130E1F4809137
:104020009204811118C021E030E02E193F094EE1C1
:10403000429FC001439F900D11248C599F4F909334
:1040400026018093250144E650E060E070E080EDB9
:1040500097E00E94A12080911E018230C1F421E0EE
:1040600030E02E193F0949E1429FC001439F900D66
:1040700011248C599F4F909324018093230144E68F
:1040800050E060E070E080ED97E00E94A120809118
:104090001E01833091F433E0E316F10419F48093A8
:1040A0008F0403C0EA94E0928F0444E650E060E09D
:1040B00070E080ED97E00E94A12081E08093990458
:1040C00020E831E0EBE2F1E0DF01A9011D9241506F
:1040D0005040E1F780931A01F8941092490610922B
:1040E0004A0610924B0610924C06789402C0109229
:1040F000990426960FB6F894DEBF0FBECDBFDF91B0
:10410000CF911F910F91FF90EF90DF90CF90BF90D4
:10411000AF909F908F90089580914D06823030F43B
:10412000F89482E496E00E94941001C0F8946091A3
:10413000490670914A0680914B0690914C067894FE
:1041400008953F924F925F926F927F928F929F92CB
:10415000AF92BF92CF92DF92EF92FF920F931F9395
:10416000CF93DF9300D000D0CDB7DEB72091AB0264
:10417000263021F02F3F09F02CC204C0E1EFF0E11E
:10418000349076C026E02093AB02E1EFF0E1E491B9
:10419000EF3F09F41EC2E13011F1E23009F443C0EF
:1041A000E11165C014BC15BC24B5226024BD25B541
:1041B000216025BDE6E1F1E1E491F0E0EE0FFF1FA3
:1041C000E951FF4E259134913093590620935806BA
:1041D000E8EFF0E1E491E0935706312C4BC01092E8
:1041E000800010928100209181002860209381003E
:1041F00020918100216020938100E6E1F1E1E491CA
:10420000F0E0EE0FFF1FE951FF4E259134913093FE
:10421000560620935506E8EFF0E1E491E09354064A
:104220003324339427C01092B0001092B100209133
:10423000B00022602093B0002091B1002160209353
:10424000B100E6E1F1E1E491F0E0EE0FFF1FE9518A
:10425000FF4E2591349130939F0420939E04E8EF04
:10426000F0E1E491E0939D04B2E03B2E03C03E2ECA
:1042700037FCAFC12A013B018C0161E086E00E945E
:10428000A1174801A12CB12C832D8D7F09F0BBC053
:1042900060E072E18AE790E0A50194010E94B72EE8
:1042A00029833A834B835C8369017A0121E0C21A36
:1042B000D108E108F1088FEFC816D104E104F10438
:1042C00009F008F44CC060E472E48FE090E0A501CE
:1042D00094010E94B72E69017A01E1E0CE1AD1085B
:1042E000E108F108F2E03F1220C02FEFC216D1041E
:1042F000E104F10409F008F46AC160E970ED83E0BB
:1043000090E0A50194010E94B72E69017A0181E035
:10431000C81AD108E108F108EFEFCE16D104E10484
:10432000F10409F0D0F583E067C0FFEFCF16D104A8
:10433000E104F104B1F0A8F068E478EE81E090E0E7
:10434000A50194010E94B72E69017A0181E0C81A83
:10435000D108E108F108332009F4DFC02FC181E062
:1043600001C082E03320A1F047C089819A81AB81EE
:10437000BC812AE0B595A795979587952A95D1F7A1
:104380006C017D0121E0C21AD108E108F10885E045
:1043900095B5987F892B85BD6FC068E478EE81E084
:1043A00090E0A50194010E94B72E69017A01F1E025
:1043B000CF1AD108E108F1082FEFC216D104E104A9
:1043C000F10409F008F4A7C064E274EF80E090E023
:1043D000A50194010E94B72E69017A01E1E0CE1A8D
:1043E000D108E108F108FFEFCF16D104E104F10490
:1043F00011F008F0B4C085E09091B100987F892B4E
:104400008093B10039C060E072E18AE790E0A501D5
:1044100094010E94B72E69017A0181E0C81AD1087F
:10442000E108F108C114D104E1E0EE06F10488F0DE
:1044300068E478EE81E090E0A50194010E94B72E37
:1044400069017A01F1E0CF1AD108E108F10893E09F
:1044500001C091E021E032120FC080918100887F7D
:10446000892B80938100411451046104710449F443
:104470002FEF3FEFA9012DC04114510461047104D5
:1044800071F0D801AA0FBB1FA30192010E94D62E82
:1044900028EE33E040E050E00E94202F03C02FEFD1
:1044A0003FEFA90181E03816A1F0E2E03E1619F1D4
:1044B00031108FC0C7BC20935E0630935F064093D7
:1044C00060065093610680916E00826080936E005A
:1044D00080C0D0928900C092880020935A06309301
:1044E0005B0640935C0650935D0680916F0082608E
:1044F00080936F006EC0C092B3002093A0043093ED
:10450000A1044093A2045093A304809170008260A0
:10451000809370005EC084E06FCFFFEFCF16D104B0
:10452000E104F104D1F0C8F062E17AE780E090E0C4
:10453000A50194010E94B72E69017A0181E0C81A91
:10454000D108E108F108EFEFCE16D104E104F1043F
:1045500011F008F00ACF84E01BCF83E019CF62E1AD
:104560007AE780E090E0A50194010E94B72E6901EE
:104570007A0181E0C81AD108E108F108EFEFCE1600
:10458000D104E104F104C1F0B8F089819A81AB81D2
:10459000BC814AE0B595A795979587954A95D1F73F
:1045A0006C017D0121E0C21AD108E108F108332035
:1045B00009F4EDCE87E020CF86E0D4CEFFEFCF1612
:1045C000D104E104F10409F050F684E0CBCE82E09E
:1045D00013CF0F900F900F900F90DF91CF911F91FD
:1045E0000F91FF90EF90DF90CF90BF90AF909F9092
:1045F0008F907F906F905F904F903F900895AC01A7
:1046000090913F069C3090F58091400628E830E07C
:10461000281B310987FD3395220F331F220F331FCB
:104620004217530784F08091410628E532E0281BA9
:10463000310987FD3395220F331F220F331F421795
:1046400053070CF49A0122503109220F331F4FB740
:10465000F894892F90E0FC01EE0FFF1F8E0F9F1F33
:10466000FC01E05BFA4F328321834FBF0895CF9363
:10467000DF9300D0CDB7DEB76A8389830E94C51966
:1046800089818EBD0E949B0B6A816EBD0F900F9039
:10469000DF91CF910C94BA19873008F02DC0809328
:1046A0004905E82FF0E0EE0FFF1FE850FD4F808135
:1046B0009181FC012491209347053196E491E09388
:1046C0004805FC013296E491E0934A05FC013396DB
:1046D000E491E0934B05FC01349624913196E491EA
:1046E000F0E084E6289FE00DF11D1124F0934F05C2
:1046F000E0934E0581E0089580E00895CF93DF9325
:10470000CDB7DEB766970FB6F894DEBF0FBECDBF4C
:10471000789484B5826084BD84B5816084BD85B59C
:10472000826085BD85B5816085BD80916E008160A8
:1047300080936E001092810080918100826080934E
:104740008100809181008160809381008091800050
:104750008160809380008091B10084608093B1007B
:104760008091B00081608093B00080917A00846075
:1047700080937A0080917A00826080937A008091A1
:104780007A00816080937A0080917A0080688093BB
:104790007A001092C10080913F068C3008F051C021
:1047A00061E085E00E94A11780913F06E82FF0E0CC
:1047B0009F01220F331FE20FF31FE05BFA4F90813E
:1047C000907C9560908310924006109241066CE0B8
:1047D0000E9405312CE0829FB001112440E050E09E
:1047E0009A01260F371FF901EE0FFF1F2E0F3F1FF3
:1047F000F901E05BFA4F908196FD16C04F5F5F4F65
:104800004C30510569F781110FC01092800082E091
:10481000809381001092850010928400B19A80915B
:104820006F00826080936F00E0913F06F0E0CF015F
:10483000880F991FE80FF91FE05BFA4F80818064B1
:10484000808388EE93E00E94FF2280E00E944C2348
:1048500081E0809345051092460510924C05109218
:104860004D055F98579A61E084E00E94A11761E0CE
:1048700084E00E94EA166AE070E080E090E00E9426
:10488000F4175F9A579865E070E080E090E00E942E
:10489000F4175F98579A8CB58C7F8CBD8DB581606D
:1048A0008DBD2A9A22982898209A60E08DE00E9477
:1048B000EA1660E08BE00E94EA1661E08DE00E945B
:1048C000A11761E08BE00E94A1178CB580618CBDBF
:1048D00065E070E080E090E00E94F4175F9A5798DE
:1048E0006AE070E080E090E00E94F4176FE288EAEE
:1048F0000E94372364E18DE80E9437230E94C51986
:1049000081EA8EBD0E94BA190E94C51988EC8EBD3D
:104910000E94BA196FE881E80E94372361EF89EDA0
:104920000E94372360E48BED0E9437230E94C51953
:104930008FEA8EBD0E94BA1960E080E20E943723A0
:104940000E94C51981E28EBD0E949B0B1EBC0E9475
:104950009B0B8FE78EBD0E94BA190E94C51982E297
:104960008EBD0E949B0B1EBC0E949B0B87E08EBDE0
:104970000E94BA190E94C519289A20981EBC0FEFF0
:1049800013E00E949B0B1EBC01501109D1F70E943D
:10499000BA1962E080E20E94372380E891E0EBE2FE
:1049A000F1E0DF019C011D9221503040E1F70E94AF
:1049B0005B1A60E081E10E94A11760E082E10E9441
:1049C000A11760E08FE00E94A11762E08EE00E94D4
:1049D000A11762E080E10E94A11761E081E00E94DE
:1049E000A11761E080E00E94A11761E086E00E94CB
:1049F000A1171E861D86188A1F861A8A198A609139
:104A00004E0670914F066115710541F040915206B6
:104A100050915306CE010D960E94431581E00E94ED
:104A20004C23E988FA88E114F10491F00D851E8584
:104A300060E270E0C8010E943F33009749F0AC018A
:104A4000401B510B8A010F3F5FEF150709F043C070
:104A5000809147058E9D90018F9D300D11248CE330
:104A600090E0821B930B8F3FAFEF9A0754F097FDB6
:104A70000196959587958F3191052CF08EE190E008
:104A800002C080E090E080934C0580E180934D056A
:104A900000E010E089899A890817190708F0D3C047
:104AA000ED85FE85309729F410924704E7E4F4E0A1
:104AB00002C0E00FF11F608181E495E00E940216C0
:104AC0000E945B1A62E370E080E090E00E94F417BD
:104AD0000F5F1F4FDFCF980140E050E0BE01635FE2
:104AE0007F4FCE0107960E949D1529893A89A8011A
:104AF0004F5F5F4FBE01635F7F4FCE0101960E9403
:104B00009D158B859C85089710F080E001C081E0A1
:104B10000E944C23409147058B859C85489F9001BE
:104B2000499F300D11248CE390E0821B930B8F3F43
:104B3000BFEF9B0754F097FD0196959587958F31B0
:104B400091052CF08EE190E002C080E090E080932F
:104B50004C058AE080934D0500E010E08B859C8534
:104B600008171907D8F4EF81F885309729F41092C7
:104B70004704E7E4F4E002C0E00FF11F608181E444
:104B800095E00E9402160E945B1A62E370E080E0EA
:104B900090E00E94F4170F5F1F4FE0CF8D819E8140
:104BA000089710F080E001C081E00E944C23409102
:104BB00047058D819E81489F9001499F300D1124AA
:104BC0008CE390E0821B930B8F3FEFEF9E0754F036
:104BD00097FD0196959587958F3191052CF08EE183
:104BE00090E002C080E090E080934C0588E18093E3
:104BF0004D0500E010E08D819E8108171907D8F45B
:104C0000E981FA81309729F410924704E7E4F4E04F
:104C100002C0E00FF11F608181E495E00E9402165E
:104C20000E945B1A62E370E080E090E00E94F4175B
:104C30000F5F1F4FE0CFCE0101960E948315CE017A
:104C400007960E94831560E971E080E090E00E9481
:104C5000F41780E00E944C2368EC70E080E090E064
:104C60000E94F41780E891E0EBE2F1E0DF019C01A3
:104C70001D9221503040E1F70E945B1ACE010D9643
:104C80000E9483150E94790F049709F0A5C00E9425
:104C9000790F0497E1F362E370E080E090E00E9416
:104CA000F41710924C0510924D0564E273E081E414
:104CB00095E00E94671610924C058EE080934D059A
:104CC0006FE273E081E495E00E94671610924C0554
:104CD0008CE180934D0568E373E081E495E00E94E8
:104CE00067160E945B1A0E942E184B015C0130ED82
:104CF000830E37E0931EA11CB11C0E942E1868156C
:104D000079058A059B0508F05BC00E94790F04971E
:104D1000A1F780E891E0EBE2F1E0DF019C011D9258
:104D200021503040E1F710924C0510924D0561E49E
:104D300073E081E495E00E94671610924C058EE0C6
:104D400080934D0568E373E081E495E00E94671667
:104D50000E945B1A00E010E060E0C8010E94A92EEA
:104D60000F5F1F4F011534E01307B1F742E350E026
:104D700060E070E088EB9BE00E94A12064E670E0B8
:104D800080E090E00E94F41744E650E060E070E0BC
:104D900084EC99E00E94A12064E670E080E090E05D
:104DA0000E94F41748EC50E060E070E080ED97E07E
:104DB0000E94A12068EC70E080E090E00E94F4176F
:104DC00080E891E0EBE2F1E0DF019C011D922150CF
:104DD0003040E1F70E945B1A81E190E00E943A3195
:104DE0008C0128ECA22E22E0B22EDC011196BC929E
:104DF000AE9280E112968C9312978EE113968C936B
:104E0000139715961C921E92149784E690E01796BD
:104E10009C938E93169719961C921E92189780E079
:104E200090E00E949519F8018287C8010E942A0922
:104E30008AEB92E0D80111969C938E9318968D91EF
:104E40009C91199750969C938E931F97FF24F394EF
:104E50001E96FC921E971C961C921C978FE01D9626
:104E60008C93C8010E942D13C8010E943D12C801F5
:104E70000E94FA12109341040093400481E190E0F3
:104E80000E943A318C01FC01B182A08288E38283C6
:104E90008EE083838DE690E0958384832EE730E077
:104EA00037832683918780870E949519D8011A96A7
:104EB0008C93C8010E942A0986ED92E0F801918343
:104EC000808380859185908B8787F68682E08487B2
:104ED00084E18587C8010E94C508C8010E940D0AA7
:104EE000C8010E945D0910938D0400938C04809189
:104EF0004004909141040E94970980918C04909104
:104F00008D040E94970980E090E00E94670D80E088
:104F100090E0A0E4B1E480936C0490936D04A093BE
:104F20006E04B0936F048093700490937104A09307
:104F30007204B09373048093740490937504A093E7
:104F40007604B09377048093780490937904A093C7
:104F50007A04B0937B0480937C0490937D04A093A7
:104F60007E04B0937F048093800490938104A09387
:104F70008204B09383040E942E1860938804709377
:104F8000890480938A0490938B0480E090E0A0E9E8
:104F9000B2E48093840490938504A0938604B09334
:104FA00087040E94421B4CE350E060E070E080ED1B
:104FB00097E00E94A1206EE670E080E090E00E9401
:104FC000F4174CE350E060E070E080ED97E00E9461
:104FD000A1206EE670E080E090E00E94F4174CE3C0
:104FE00050E060E070E080ED97E00E94A12080E159
:104FF0000E94C116892BF1F464EF71E080E090E02B
:105000000E94F41748EC50E060E070E088EB9BE011
:105010000E94A1206CE271E080E090E00E94F41711
:1050200048EC50E060E070E088EB9BE00E94A1203B
:10503000F092920484E6482E512C612C712CDD24D0
:10504000D3949BE1E92E93E0F92E0E949A0F8111EF
:105050000BC0809166049091670418161906F4F449
:1050600080911D018330D1F410911D01111139C0BF
:1050700042E350E060E070E088EB9BE00E94A120FA
:1050800064E670E080E090E00E94F41744E650E0AF
:1050900060E070E080ED97E00E94A1200E94A30FE5
:1050A0000E94421B80904E0490904F04A0905004A8
:1050B000B090510481149104A104B10409F4E2C236
:1050C0000E942E18DC01CB0188199909AA09BB0995
:1050D000883E9340A105B10508F0D4C20E94DE11BC
:1050E000B4CF0E94420E8436910509F403C21330F6
:1050F00009F000C20E94420E2091660430916704BC
:10510000820F931F9093670480936604A0912501FA
:10511000B09126012BEC32E00E943331A3019201C1
:105120000E94B72EDA01C9018B5F9A4FAF4FBF4F74
:1051300090930101809300010E94FF228090210141
:1051400090902201092C000CAA08BB08A09125010F
:10515000B091260120911F0130912001A901330F48
:10516000660B770B9A01AB01281939094A095B09CB
:105170000E94E12EA30192010E94B72ECA01B9013B
:10518000680D791D8A1D9B1D0E94842D6B8B7C8B65
:105190008D8B9E8B0E942E18809042049090430429
:1051A000A0904404B0904504DC01CB018819990912
:1051B000AA09BB09883E9340A105B10548F40E94A5
:1051C0002E18681979098A099B090E94822D04C04A
:1051D00060E070E08AE794E420E030E04AE754E4DD
:1051E0000E94C32F9B01AC016B897C898D899E89AC
:1051F0000E94E32D20E030E0A9010E94522F0E947E
:1052000035308B01D09246040E942E184B015C0170
:105210009801110F440B550B2B8B3C8B4D8B5E8BE8
:105220000E942E18DC01CB0188199909AA09BB0933
:105230002B893C894D895E8982179307A407B5079E
:1052400018F40E942210ECCF0E949A0F811119C00D
:1052500080911D018130A9F468C160E080E00E9466
:10526000EA16C7010197F1F761E081E00E94EA16B2
:1052700080916604909167040197909367048093EE
:1052800066048091660490916704181619060CF064
:105290000EC10E94420E8436910509F0FBC00E94A7
:1052A0009A0F882309F4EAC061E081E00E94EA16BF
:1052B0000E942E184B015C010E94660F019761F459
:1052C0000E942E18DC01CB0188199909AA09BB0993
:1052D000C297A105B10598F00E942E184B015C0100
:1052E0000E942E1860934A0470934B0480934C04E0
:1052F00090934D04109249041092480424C00E94D7
:10530000221063E070E080E090E00E94F417D4CFB8
:105310000E94660F019709F40CC180914804909196
:10532000490404972CF50E942E18DC01CB01881942
:105330009909AA09BB09883C9105A105B10508F0A6
:105340000CC10E9422100E942E1800914A04109154
:105350004B0420914C0430914D04DC01CB01801BA7
:10536000910BA20BB30B0297A105B10588F6D5CF1F
:105370001092490410924804809166049091670449
:1053800002970CF471C00E94420E8436910551F4CC
:105390000E949A0F811113C080911D01833009F082
:1053A00063C00DC080911D01813029F40E949A0FC5
:1053B000811105C059C08250823008F055C00E944A
:1053C0002E184B015C010E942E18DC01CB018819BC
:1053D0009909AA09BB090597A105B10518F40E940E
:1053E0002210F1CF2091230130912401ACE9BFEFCD
:1053F0000E942B31A30192010E94B72EDA01C9014C
:105400008C599F4FAF4FBF4F8C0106970CF42CCF98
:1054100060E081E00E94EA16C7010197F1F761E0C0
:1054200080E00E94EA160E942E184B015C01980150
:10543000110F440B550B2B8B3C8B4D8B5E8B0E94BD
:105440002E18DC01CB0188199909AA09BB092B89FF
:105450003C894D895E8982179307A407B50708F038
:10546000FCCE0E942210EBCF8091660490916704DD
:105470000197909367048093660419C080911D0181
:105480008130A9F08091660490916704843691057B
:1054900074F00ACF80911D01813029F40E949A0F87
:1054A000811102CF04C08250823008F4FDCE60E04A
:1054B00081E00E94EA160E942E184B015C01C70190
:1054C0000197F1F761E080E00E94EA160E94660F02
:1054D000029709F446C00E942E18DC01CB018819FE
:1054E0009909AA09BB090797A105B105D0F50E9442
:1054F0002210ECCF1092670410926604FBCD40E5B9
:1055000050E060E070E088EB9BE00E94A12060E545
:1055100070E080E090E00E94F41740E550E060E029
:1055200070E088EB9BE00E94A12081E00E9468105F
:10553000B5CD0E942E1860934A0470934B0480935B
:105540004C0490934D048091480490914904019635
:105550009093490480934804E0CE81E00E94681053
:1055600095CD60E080E00E94EA16C7010197F1F74F
:105570000E942E184B015C0100E510E00E94660FAE
:10558000029709F43FC00E942E18DC01CB01881954
:105590009909AA09BB099801012E000C440B550B6F
:1055A00082179307A407B50718F40E942210E6CFCC
:1055B00061E081E00E94EA1668E070E080E090E03F
:1055C0000E94F41760E081E00E94EA160E942E1803
:1055D0004B015C010E94660F029789F00E942E1811
:1055E000DC01CB0188199909AA09BB09883C9105FE
:1055F000A105B10508F083CF0E942210EBCF08EC83
:1056000010E0BCCFC7010197F1F761E080E00E9494
:10561000EA160E942E184B015C010E942E18DC0134
:10562000CB0188199909AA09BB094E97A105B105B3
:1056300018F40E942210F1CF60E080E00E94EA1688
:10564000C7010197F1F70E94420E8436910539F0A7
:1056500081E090911D01933019F480E001C081E058
:105660000E9468100E949A0F882309F417CD0E94A7
:10567000420E8436910509F411CD0E9422100E9439
:10568000A30FF0CF80E090E00E944C0E0E942E18F5
:1056900060934E0470934F04809350049093510490
:1056A0001DCDCF93DF938BE895E00E94831585E8AD
:1056B00095E00E9483158FE795E00E94831589E7A6
:1056C00095E00E94831583EA95E00E9483158DE999
:1056D00095E00E94831587E995E00E94831581E992
:1056E00095E00E9483158BEB95E00E94831585EB76
:1056F00095E00E9483158FEA95E00E94831589EA60
:1057000095E00E94831587EC95E00E94831581EC5B
:1057100095E00E9483158FED95E00E94831589ED39
:1057200095E00E94831583ED95E00E9483158DEC32
:1057300095E00E948315CFE3D6E02697CE010E9424
:10574000831585E0C53ED807C1F78EE496E0DF916A
:10575000CF910C94831540E050E0BA0180E699E0C7
:105760000E94A1206CE870E080E090E00E94F417B5
:1057700040E050E0BA0180EA9FE00E94A1206CE87E
:1057800070E080E090E00E94F41740E050E0BA0141
:1057900080EB94E00E94A12068EC70E080E090E053
:1057A0000E94F41786E00C941A17CF93DF9310929F
:1057B000A7041092A60488EE93E0A0E0B0E08093E6
:1057C000A8049093A904A093AA04B093AB048AE020
:1057D00093E09093A5048093A40485EC90E09093CB
:1057E000B1048093B00484EC90E09093B304809370
:1057F000B20480EC90E09093B5048093B40481EC03
:1058000090E09093B7048093B60482EC90E090937C
:10581000B9048093B80486EC90E09093BB04809325
:10582000BA041092BD041092BE041092BF041092EC
:10583000C00410924405109243058CE193E09093CC
:1058400042058093410569EC73E08EE496E00E9486
:10585000881562E082E00E94A11762E083E00E9466
:10586000A117E2E1F1E1E491F0E0EE0FFF1FEA5F42
:10587000FE4EA591B491B0934306A0934206E4EF87
:10588000F0E1849180934606E3E1F1E1E491F0E0F8
:10589000EE0FFF1FEA5FFE4EC591D491D0934506EF
:1058A000C0934406E5EFF0E1E491E09347061092DF
:1058B000490610924A0610924B0610924C06EBE3F2
:1058C000FFE13197F1F7EC91E82381E009F480E002
:1058D000288190914706922309F0826022E436E005
:1058E0008093480630937605209375058CED90E102
:1058F0009093AD028093AC02809169008C7F8160AF
:1059000080936900E89A81E080934D063093780592
:105910002093770586ED90E19093AF028093AE02DD
:1059200080916900837F846080936900E99A82E0B6
:1059300080934D06809174058C30A0F491E0980F0F
:105940009093740580933F0690E0FC01EE0FFF1FDB
:105950008E0F9F1FFC01E05BFA4F88EB9BE0928368
:10596000818303C08FEF80933F0660E673E085EE8E
:1059700095E00E94881566E673E08BEE95E00E9444
:1059800088156AE673E081EF95E00E94881561ED65
:1059900073E087EF95E00E94881569ED73E08DEF65
:1059A00095E00E94881561EE73E083E096E00E9426
:1059B000881568EE73E089E096E00E9488156FEE26
:1059C00073E08FE096E00E94881569E973E085E155
:1059D00096E00E94881567EF73E08BE196E00E94E5
:1059E00088156CEA73E081E296E00E94881561EB0D
:1059F00073E087E296E00E94881560E074E08DE233
:105A000096E00E9488156EEB73E083E396E00E94B7
:105A1000881564EC73E089E396E00E94881567E0DE
:105A200074E08DEC95E00E94881569E074E083EDE8
:105A300095E00E9488156DEC73E089ED95E00E9479
:105A4000881560E174E08FED95E00E9488156BE0A9
:105A500074E081EC95E00E9488156EE074E087ECBC
:105A600095E00E94881562E174E089EA95E00E9461
:105A7000881567E074E08FEA95E00E94881569E078
:105A800074E085EB95E00E9488156DEC73E08BEB7C
:105A900095E00E94881567E174E081E995E00E9435
:105AA00088156EE174E087E995E00E94881566E646
:105AB00073E08DE995E00E94881565E274E083EA61
:105AC00095E00E9488156BE274E089E795E00E94FA
:105AD000881560E374E08FE795E00E94881565E320
