:100000000C9493080C94CD190C94A6190C94BB086D
:100010000C94BB080C94BB080C94BB080C94671898
:100020000C94BB080C94BB080C94BB080C94F419FA
:100030000C94BB080C94BB080C94BB080C94BB0834
:100040000C945C190C94BB080C94B1170C948B178E
:100050000C94BB080C94BB080C94BB080C94BB0814
:100060000C94BB080C94BB08CD0FE50FFC0F0C10D3
:10007000261040105A107510851095109C10B01065
:10008000C510DB1005A84CCDB2D44EB93836A90244
:100090000C50B9918688083CA6AAAA2ABE00000086
:1000A000803F00000000240027002A000000000814
:1000B000000201000003040700000000000000002F
:1000C000101030020020C0C0F0F03C3CFFFFFFFFEA
:1000D0003C3CF0F0C0C0C0C0F0F03C3CFFFFFFFF74
:1000E0003C3CF0F0C0C0C3C33333CFCF33333333E2
:1000F000CFCF3333C3C33333CFCF03030F0F0F0F30
:100100000303CFCF3333181030020030F0F0FCFC83
:10011000FCFC3C3C3F3FFFFFFFFF3F3F3C3CFCFC07
:10012000FCFCF0F0F0F0FCFCFCFC3C3C3F3FFFFF33
:10013000FFFF3F3F3C3CFCFCFCFCF0F0C3C3C3C3EF
:1001400033333F3F0F0F333333330F0F3F3F3333DF
:10015000C3C3C3C303033333FFFFCFCF0F0F333307
:1001600033330F0FCFCFFFFF3333030316103002AB
:10017000002CFCFCC0C0F3F33C3CF0F0F0F0F0F0DD
:100180003C3CF3F3C0C0FCFC0000C0C0F3F33C3CBB
:10019000F0F0F0F0F0F03C3CF3F3C0C000000303DB
:1001A000CFCF3F3F0F0F0F0F0F0F0F0F0F0F3F3F1F
:1001B000CFCF03033F3F03033F3FCFCFCFCF0F0F3F
:1001C000CFCFCFCF3F3F03033F3F0C30300B012059
:1001D00000C0F87C3E3EFCF8C0000000000080E05B
:1001E00078FEFE000000000000F07C3C3E3EFEFC7D
:1001F000E0000000007C3E3E3EFEF8C00000000033
:100200000000000000F8FEFE0000000000FEFE3EC0
:100210003E3E3E3E00000000000080F0FC3E3E3EC0
:10022000FC000000003E3E3E3E3E3E3EFEFE000024
:100230000000C0F8FE3E7EFCE00000000000E0FC94
:100240007E3EFEF8C000000000000000C0E0C000DC
:1002500000000000F0FF0F000000F9FFFFF00000B9
:100260000000070300FFFF00000000000001000085
:10027000000000FFFF000000000000000000FFFF82
:1002800000000000000000E0FF1FFFFF0000000072
:1002900000FFFF00000000000000000000E0FF3F42
:1002A0000000000000000000000000000000C0FC92
:1002B0007F0300000000FFFF000000FFFF000000C0
:1002C00000FEFF03000000FFFFF000000000000040
:1002D0003F7F3F0000000000FFFF0000E0FF1F0025
:1002E000FFFF00000000000000FFFF000000000012
:1002F0000000000000E0FE1F010000000000F8F810
:10030000FCFFC7000000000000C0FE3F0300FFFF2D
:1003100000000000003F3F3E7EFCF8E000000000CF
:1003200000FFFF80F07C7CF8F0000000000000007F
:1003300080F8FF07000000000000019FFFF8FE1F8B
:100340000100000000FFFFC0000080FFFFFF000071
:10035000000000000000000000000000FFFFC0FCE3
:100360007F030000FFFF00000000000000FFFF000F
:1003700000000000000000E0FE0F0100000000008F
:100380000000000000010FFFF8000000F8FFE7E0A8
:10039000E0E0FFFFE0E0E00000000000000007FFF9
:1003A000FE00000000FFFFFF03000001FFFF000050
:1003B000000000F0FF0F00000000000000C0FC3F44
:1003C00003031FFFFCC0000000000F1F3E3E0F0193
:1003D000FFFF00000000000000800000000000009F
:1003E00007FFFF07000000FCFF07000000000000FF
:1003F00000FFFF000000000000E0FE0F0000000012
:1004000000000000000000000000C0FF7F000000AE
:10041000030303030303FFFF0303030000000000C3
:100420000000C0FF7F000000000FFFFF8000008081
:10043000FF7F00000000FEFF03000000000000003E
:1004400000FFFF8000000080FFFF000000000000B0
:10045000000080FCFF07000000000000FFFFFF001D
:100460000000000000031F3F7C7C3F1F03000000D2
:1004700000007C7C7C7F7F7C7C7C0000007F7F7C1C
:100480007C7C7C7C7C000000003F7E7C7C7E1F07A7
:10049000000000000000000000007F7F000000005E
:1004A000001F3E7C7C3E1F07000000000000031F71
:1004B0007F7C7C3F0700000000007F7F0000000081
:1004C0000000000000011F3F7E7C7E3F1F010000F6
:1004D00000003E7C7C7E3F0F010000000000000019
:1004E00000010000000000000A102E0C01140000A2
:1004F00000000000000000000000000000000000FC
:10050000000078FC020303030302FC7800000000F3
:1005100000000000FF7E0000028383838302FC78DA
:100520000000028383838302FC787EFF008080804A
:100530008000FF7E78FC028383838302000078FCC6
:100540000283838383020000000203030303030288
:10055000FC7878FC028383838302FC7878FC028336
:1005600083838302FC7800000060F0F060000000EC
:10057000000000000000000000001E3F40C0C0C09E
:10058000C0403F1E0000000000000000FF7E1C3E37
:1005900041C1C1C1C1410000000041C1C1C1C1414F
:1005A0003E1C0000010101010101FF7E000041C16C
:1005B000C1C1C1413E1C1C3E41C1C1C1C1413E1C23
:1005C0000000000000000000FF7E1C3E41C1C1C1D0
:1005D000C1413E1C000041C1C1C1C1413E1C0810C7
:1005E000206002380000000000000000000000FE53
:1005F0000000000000000E000E00000000D0BE90C1
:10060000D0BE9000001C62FFC28000000C12924C11
:10061000B0880600807C62B21CC0000000000E0E94
:100620000000000000E018040202000000020204C2
:1006300018E000000024187E18240000808080F05C
:1006400080808000000000000000000000808080AA
:10065000800000000000000000000000000080603A
:1006600018060000F804C2320CF80000000404FE72
:100670000000000000028242221C00000002222230
:1006800022DC0000C0A09884FE808000001E1212B0
:1006900022C20000F844222222C00000000202C24E
:1006A000320A0600008C5222528C00003C42424228
:1006B00026F800000000303000000000000030305C
:1006C000000000008080404020201000404040405A
:1006D0004040000010202040408080000002824204
:1006E000221C0000000000000000000000000005C7
:1006F00000000000000000000000000000070000F3
:10070000070000000004040F0403000004020103BA
:1007100004040300030404040503040000000000B3
:100720000000000000030608101000000010100870
:1007300006030000000000000000000000000007A9
:10074000000000000000160E000000000000000085
:100750000000000000000606000000000402010086
:10076000000000000103040402010000000404076B
:10077000040400000007040404040000000404044E
:10078000040300000000000007000000000404044F
:100790000403000001020404040300000000070039
:1007A000000000000003040404030000000404042B
:1007B0000201000000000606000000000000160E06
:1007C000000000000000010102020400010101011B
:1007D0000101000004020201010000000000050008
:1007E00000000000F804728AFA84780000C038061D
:1007F00038C0000000FE222222DC0000F8040202C1
:1008000002020000FE02020204F8000000FE2222A2
:100810002222000000FE222222220000F80402020E
:1008200022E20000FE20202020FE0000000202FE46
:10083000020200000000000202FE0000FE40B008BC
:100840000402000000FE000000000000FE0C7080AA
:10085000700CFE00FE0C30C000FE0000F804020226
:1008600004F80000FE424242221C0000F80402028A
:1008700004F8000000FE4242A21C0000001C2242BC
:1008800042800000020202FE02020200FE0000009E
:1008900000FE00000638C000C03806003EC0F00E62
:1008A000F0C03E000006986098060000000618E0C0
:1008B000180600000202C2320A0600000000FE0212
:1008C000020202000006186080000000020202021C
:1008D000FE00000040300C0C304000000000000022
:1008E00000000000010204040400000006010101F0
:1008F00001010600000704040403000001020404CF
:1009000004040000070404040201000000070404BA
:1009100004040000000700000000000001020404BD
:10092000040700000700000000070000000404079F
:100930000404000000040404040300000700000194
:100940000204000000070404040400000700000182
:100950000000070007000000030700000102040474
:100960000201000007000000000000000102040C6A
:10097000121110000007000001060000000404042A
:10098000040300000000000700000000030404044A
:100990000403000000000106010000000007000041
:1009A000000700000006010001060000000000072B
:1009B00000000000060504040404000000001F10ED
:1009C00010101000000000000102040010101010B0
:1009D0001F000000000000000000000008080808D8
:1009E00008080000000002040000000000E01010F1
:1009F00010F0000000FE201010E0000000E01010D9
:100A00001010000000E0101010FE000000E09090B8
:100A100090E000000020FC222222020000E01010E2
:100A200010F0000000FE201010E000001010F20096
:100A30000000000000101010F200000000FE8040D6
:100A400020100000000202FE00000000F02010F064
:100A50002010F00000F0201010E0000000E0101066
:100A600010E0000000F0201010E0000000E0101086
:100A700010F0000000F02010107000000060909056
:100A800090200000002020FC2020200000F000002A
:100A900000F000000070800080700000F000C030A6
:100AA000C000F0000030C0C0300000000030C000C6
:100AB0008070000000101090503000000080807E98
:100AC00002020000000000FE000000000002027EA2
:100AD0008080000000808000000080000000000096
:100AE00000000000000000000000000000030404FB
:100AF00002070000000704040403000000030404CC
:100B000004040000000304040207000000030404BE
:100B1000040400000000070000000000003324244B
:100B2000221F00000007000000070000000007046B
:100B300004000000202020201F000000000700010A
:100B40000204000000000007040400000700000782
:100B50000000070000070000000700000003040475
:100B600004030000003F0404040300000003040425
:100B7000023F000000070000000000000002040423
:100B80000403000000000003040404000003040444
:100B9000020700000000030403000000010601003A
:100BA0000106010000060101060000002020310EB0
:100BB0000300000000060504040400000000001FFC
:100BC0001010000000000007000000000010101FBF
:100BD0000000000001000001010100000000000011
:100BE00000000000050800FF0C4B00000000003E64
:100BF0005B4F5B3E3E6B4F6B3E1C3E7C3E1C183C8D
:100C00007E3C181C577D571C1C5E7F5E1C00183CE8
:100C10001800FFE7C3E7FF0018241800FFE7DBE731
:100C2000FF30483A060E2629792926407F05050718
:100C3000407F05253F5A3CE73C5A7F3E1C1C080874
:100C40001C1C3E7F14227F22145F5F005F5F060939
:100C50007F017F006689956A606060606094A2FF92
:100C6000A29408047E040810207E201008082A1C84
:100C700008081C2A08081E101010100C1E0C1E0C50
:100C800030383E3830060E3E0E06000000000000F0
:100C9000005F00000007000700147F147F14242A5F
:100CA0007F2A122313086462364956205000080731
:100CB0000300001C2241000041221C002A1C7F1C52
:100CC0002A08083E08080080703000080808080854
:100CD000000060600020100804023E5149453E00BB
:100CE000427F400072494949462141494D33181419
:100CF000127F1027454545393C4A49493141211168
:100D000009073649494936464949291E0000140059
:100D1000000040340000000814224114141414147C
:100D2000004122140802015909063E415D594E7CDA
:100D30001211127C7F494949363E414141227F418F
:100D400041413E7F494949417F090909013E4141ED
:100D500051737F0808087F00417F41002040413FD8
:100D6000017F081422417F404040407F021C027FE7
:100D70007F0408107F3E4141413E7F090909063E3C
:100D80004151215E7F09192946264949493203010B
:100D90007F01033F4040403F1F2040201F3F40381D
:100DA000403F631408146303047804036159494DF8
:100DB00043007F4141410204081020004141417F2E
:100DC00004020102044040404040000307080020A4
:100DD000545478407F2844443838444444283844A4
:100DE00044287F385454541800087E090218A4A4DB
:100DF0009C787F0804047800447D40002040403DFA
:100E0000007F1028440000417F40007C0478047873
:100E10007C080404783844444438FC182424181806
:100E2000242418FC7C080404084854545424040462
:100E30003F44243C4040207C1C2040201C3C40304F
:100E4000403C44281028444C9090907C4464544C7E
:100E500044000836410000007700000041360800D9
:100E600002010204023C2623263C1EA1A161123A83
:100E70004040207A385454555921555579412154D0
:100E8000547841215554784020545579400C1E52D5
:100E90007212395555555939545454593955545479
:100EA000580000457C410002457D420001457C40E0
:100EB000F0292429F0F0282528F07C5455450020FD
:100EC00054547C547C0A097F49324949493232489A
:100ED000484832324A4848303A4141217A3A424001
:100EE0002078009DA0A07D39444444393D404040D5
:100EF0003D3C24FF2424487E4943662B2FFC2F2BA6
:100F0000FF0929F620C0887E090320545479410046
:100F100000447D413048484A32384040227A007AC5
:100F20000A0A727D0D19317D2629292F28262929A3
:100F3000292630484D4020380808080808080808C5
:100F4000382F10C8ACBA2F102834FA00007B0000EC
:100F500008142A142222142A1408AA005500AAAA46
:100F600055AA55AA000000FF00101010FF0014142D
:100F700014FF001010FF00FF1010F010F0141414F4
:100F8000FC001414F700FF0000FF00FF1414F40429
:100F9000FC141417101F10101F101F1414141F001E
:100FA000101010F0000000001F101010101F101083
:100FB0001010F010000000FF101010101010101092
:100FC00010FF10000000FF140000FF00FF00001FD2
:100FD00010170000FC04F414141710171414F40470
:100FE000F40000FF00F714141414141414F700F79D
:100FF000141414171410101F101F141414F41410C8
:1010000010F010F000001F101F0000001F1400005F
:1010100000FC140000F010F01010FF10FF14141466
:10102000FF141010101F00000000F010FFFFFFFF62
:10103000FFF0F0F0F0F0FFFFFF0000000000FFFF06
:101040000F0F0F0F0F38444438447C2A2A3E147E79
:1010500002020606027E027E02635549416338445D
:10106000443C04407E201E2006027E020299A5E731
:10107000A5991C2A492A1C4C7201724C304A4D4DCC
:10108000303048784830BC625A463D3E49494900B4
:101090007E0101017E2A2A2A2A2A44445F444440D0
:1010A000514A444040444A51400000FF0103E0805F
:1010B000FF000008086B6B083612362436060F094D
:1010C0000F06000018180000001010003040FF014B
:1010D00001001F01011E00191D1712003C3C3C3C81
:1010E000000000000000000000250028002B000286
:1010F00001020408102040800102040810200102AF
:101100000408102000000000230026002900040429
:10111000040404040404020202020202030303039F
:101120000303D827742911241FBECFEFD8E0DEBFF8
:10113000CDBF14E0A0E0B1E0E2E4FFE502C005901D
:101140000D92A433B107D9F726E0A4E3B4E001C0BF
:101150001D92AE33B207E1F718E0C2E9D8E004C04F
:101160002197FE010E94732DC139D107C9F70E9452
:10117000B8210C94942F0C940000AF92BF92CF92A0
:10118000DF92EF92FF920F931F93CF93DF93EC01C7
:101190006B01590180916A0490916B04FC015583A5
:1011A00044830E94FE1E80916A0490916B04FC01AE
:1011B000B782A6820E94FE1E80911A018823C1F088
:1011C00080916A0490916B040E94851F88819981A7
:1011D000092E000CAA0BBB0BF89480932706909362
:1011E0002806A0932906B0932A06789410921A0133
:1011F0001092300584E080933105C6010E94E31D02
:101200000E94ED1AE616F70634F0601771075CF0DD
:101210007983688318C0601771072CF08B01E6167C
:10122000F7060CF4870119830883F894012E000C4B
:10123000220B330B009327061093280620932906D0
:1012400030932A0678948EE18093300588E280936B
:101250003105C880D9800D2C000CEE08FF08F7FE80
:101260000EC06DE285E295E00E94241744275527C1
:10127000BA014C195D096E097F092AE003C02AE012
:10128000B701A60185E295E00E9440178881998107
:101290000A9734F467E174E085E295E00E948917CB
:1012A000888199818436910534F467E174E085E2A0
:1012B00095E00E9489176881798180916A049091F4
:1012C0006B040E949E1FDF91CF911F910F91FF90A1
:1012D000EF90DF90CF90BF90AF900C94751D4F9220
:1012E0005F926F927F92AF92BF92CF92DF92EF9216
:1012F000FF920F931F93CF93DF936C018B015A01E1
:10130000E9010E94ED1A409043045090440460901B
:10131000450470904604DC01CB01840D951DA61D8B
:10132000B71D8093430490934404A0934504B09365
:101330004604F89410922706109228061092290667
:1013400010922A067894609143047091440480912D
:101350004504909146042B013C0197FF07C04424AB
:1013600055243201461A570A680A790A24E04216BF
:10137000510461047104FCF0F601F080F11002C028
:1013800097FD11C024E030E040E050E00E94052BC2
:101390009F2D920F292F30E02C173D0714F09C2F22
:1013A0009150F601908310924304109244041092DD
:1013B000450410924604109230058EE0809331056A
:1013C000C8010E94E31D81E00E94AF1DF6019081DB
:1013D00080912C05F50126E0929FE00DF11D11246E
:1013E000248135812F5F3F4F90912B05929FA00163
:1013F000939F500D1124C8E3D0E0C41BD50BC2301D
:10140000D1054CF0D595C7952197CD31D1052CF05C
:10141000CCE1D0E002C0C0E0D0E010E094E3F92ECF
:10142000F80EE12C00E02F2D412F6AE1812F0E9460
:10143000EC1D1F5F1733A9F7C09330058AE1809335
:101440003105F6018081950146E0849F200D311D14
:101450001124C9010E94E31D0E94751D10921A01FA
:1014600080E0DF91CF911F910F91FF90EF90DF907F
:10147000CF90BF90AF907F906F905F904F900C9403
:10148000AF1D4CE850E060E070E080E699E00E941B
:10149000021B68EC70E080E090E00E9416194CE8B6
:1014A00050E060E070E080EA9FE00E94021B68EC80
:1014B00070E080E090E00E9416194CE850E060E097
:1014C00070E080E699E00E94021B68EC70E080E02A
:1014D00090E00E9416194CE850E060E070E080EA6D
:1014E0009FE00C94021B80913E04833018F490E03E
:1014F0000196089584E690E008958FE00E94FF1819
:10150000803921E0920734F08438934034F082E04F
:1015100090E0089580E090E0089581E090E00895E3
:1015200082E10E94FF18803921E0920774F08C3B21
:1015300022E092076CF0803223E0920764F0843856
:10154000934064F081E090E0089580E090E0089599
:1015500084E090E0089583E090E0089582E090E0D8
:1015600008958EE00E94E31721E0892B09F020E026
:10157000822F089580912301833001F580916C04BE
:10158000811104C00E94B10A882349F080916C0443
:101590008823A1F00E94B10A811105C0089581E05D
:1015A00080936C04F3CF80916D0490916E0401964A
:1015B00090936E0480936D0410926C0408958F9242
:1015C0009F92AF92BF92EF92FF920F931F93CF9390
:1015D000DF937C0184E68E9D80018F9D100D112488
:1015E000C0E0D1E000501140C8018C0F9D1F0E9447
:1015F000EF2A899381E0C631D807B1F780900001C6
:1016000090900101A0900201B090030120E030E031
:1016100040E85FEBC501B4010E94CB29882351F05B
:1016200020E030E040E85FE3C501B4010E94CB292F
:101630008823F9F086E1EFEAF2E0A0E0B1E0019062
:101640000D928A95E1F742E350E060E070E088EEA9
:1016500093E00E94021B64E670E080E090E00E944C
:10166000161942E350E060E070E088EE93E00E94DB
:10167000021B8091040190910501909320018093B9
:101680001F018091060190910701909322018093A0
:10169000210120910801222329F0253028F024E09F
:1016A00030E002C021E030E0215020933E048091E0
:1016B000090190910A0190931C0180931B01809174
:1016C0000B0190910C0190931E0180931D0180915C
:1016D0000D0190910E019093400480933F048091FE
:1016E0000F01909110019093170180931601809142
:1016F0001301909114019093190180931801809126
:10170000110180933D048091120180932301EF2801
:1017100031F49091150181E0892780933B04DF919A
:10172000CF911F910F91FF90EF90BF90AF909F903E
:101730008F9008950E94DF0A42E350E060E070E07D
:1017400080EA9FE00E94021B64E670E080E090E087
:101750000E94161944E650E060E070E080EA9FE0E5
:101760000C94021B2F923F924F925F926F927F9246
:101770008F929F92AF92BF92CF92DF92EF92FF92A1
:101780000F931F93CF93DF9300D01F92CDB7DEB797
:101790009B838A8320E030E040E85FE360910001B2
:1017A0007091010180910201909103010E94CB2967
:1017B00080901F0190902001A0902101B090220103
:1017C000C0901B01D0901C01E0901D01F0901E0103
:1017D00000913F0410914004609016017090170131
:1017E00081115BC0809104019091050188159905D4
:1017F00009F053C080910601909107018A159B055D
:1018000009F04BC00E94730A2091080130E02817AC
:10181000390709F042C08091090190910A018C15A5
:101820009D05D9F580910B0190910C018E159F05B6
:10183000A1F580910D0190910E018017910769F536
:1018400080910F01909110018615970531F59091C7
:10185000110180913D04981320C090911201809154
:10186000230198131AC02091130130911401809123
:101870001801909119012817390779F481E09091A6
:101880003B04911180E090911501981306C02A81C4
:101890003B81121613060CF063C00E94730A50912C
:1018A0003D0440912301209118013091190191E0EC
:1018B00060913B04611190E0212C312C60E8462EB0
:1018C0006FE3562E209200013092010140920201F6
:1018D000509203019092050180920401B092070199
:1018E000A092060180930801D0920A01C0920901DA
:1018F000F0920C01E0920B0110930E0100930D0188
:101900007092100160920F015093110140931201E7
:1019100030931401209313019093150184E62A81DA
:101920003B81829F8001839F100D112470E0C72EA0
:1019300071E0D72E780136E1E30EF11CF6016191DA
:101940006F01C80169830E94EF2A6981681719F045
:10195000C8010E94F72A0F5F1F4F0E151F0571F770
:101960000F900F900F90DF91CF911F910F91FF90EB
:10197000EF90DF90CF90BF90AF909F908F907F902F
:101980006F905F904F903F902F9008954F925F928D
:101990006F927F928F929F92AF92BF92CF92DF927F
:1019A000EF92FF920F931F93CF93DF9300D000D05D
:1019B00000D0CDB7DEB7B82EA0911801B0911901B3
:1019C0002FEF30E00E94812D24E630E040E050E02F
:1019D0000E94052B622F81E80E94601D80914704C0
:1019E000882371F082E2809330051092310565E220
:1019F00073E085E295E00E94891780E00E94AF1DA8
:101A000080911A01882331F08091680490916904D3
:101A10000E94851F0E94501900914C0410914D04A2
:101A200020914E0430914F04045D1E4F2F4F3F4FC5
:101A3000061717072807390708F075C081E10E94CB
:101A4000FF18BC01990F880B990B0E94D2292AE03C
:101A500037ED43EA50E40E94312A20E030E040E8CC
:101A60005AE30E94312A2CE83EE24AEB5DE30E94F1
:101A7000112C20E030E040E251E40E94312A0E9423
:101A8000832C072E000C880B990B0E94D22920E092
:101A900030E040E251E40E94112C2B013C01E09027
:101AA0003804F09039048701000F111F000F111F37
:101AB000005B1B4FD8012D913D914D915C91609140
:101AC00048047091490480914A0490914B040E940B
:101AD0009F2BF8014082518262827382A30192019E
:101AE0000E94A02B609348047093490480934A0499
:101AF00090934B04FFEFEF1AFF0AF0923904E09243
:101B0000380426E0E216F10424F010923904109211
:101B100038040E94501960934C0470934D048093D4
:101B20004E0490934F0420E030E040EC50E460918C
:101B300048047091490480914A0490914B040E949A
:101B4000112C6B017C0120E030E040E251E40E9466
:101B5000312A0E94832C80916804909169040E942C
:101B60009E1FBB2009F4A8C020E030E040E351E410
:101B7000C701B6010E94CB2987FF25C0809034049D
:101B800090903504A0903604B090370438EB830E63
:101B90003BE0931EA11CB11C0E94501986169706AB
:101BA000A806B90680F460E081E00E940C180E944B
:101BB0008E210E94501960933404709335048093F1
:101BC00036049093370426E636E64EE251E4C70128
:101BD000B6010E94CB2987FF25C0809034049090E5
:101BE0003504A0903604B09037044CED840E45E0E7
:101BF000941EA11CB11C0E94501986169706A806B7
:101C0000B90680F460E081E00E940C180E948E21E9
:101C10000E94501960933404709335048093360405
:101C2000909337042DEC3CEC4CE251E4C701B60133
:101C30000E94CB2987FF25C0809034049090350402
:101C4000A0903604B090370458EE850E53E0951EF0
:101C5000A11CB11C0E94501986169706A806B90649
:101C600080F460E081E00E940C180E94410A0E940A
:101C70005019609334047093350480933604909324
:101C8000370423E333E34BE251E4C701B6010E947A
:101C9000CB2987FF11C060E081E00E940C1888EE1C
:101CA00093E00E945A1E0E94410A68EC70E080E0B6
:101CB00090E00E941619EFCF8091470481119EC0D9
:101CC00089E2809330051092310520E030E040E257
:101CD00051E4C701B6010E94CB2987FF06C06BE221
:101CE00073E085E295E00E948917A7019601C7017C
:101CF000B6010E94052D882319F06DE273E01AC029
:101D000046015701E894B7F82FEF3FEF4FE75FE741
:101D1000C501B4010E94052D811111C02FEF3FEFC5
:101D20004FE75FE7C501B4010E94CB2918163CF4C8
:101D300061E373E085E295E00E942B175FC02FEF0F
:101D40003FEF4FE75FE4C701B6010E94F82C181679
:101D50001CF465E373E0EECF2FEF3FEF4FE75FEC4E
:101D6000C701B6010E94CB2987FDF3CF20E030E008
:101D7000A901C701B6010E94CB2987FF09C06DE206
:101D800085E295E00E942417F7FAF094F7F8F094B2
:101D90002DEC3CEC4CE45DE3C701B6010E94A02BA6
:101DA0004B015C010E948A2C6B017C010E94D029AE
:101DB0009B01AC01C501B4010E949F2B4B015C014A
:101DC0002AE0B701A60185E295E00E9440176EE285
:101DD00085E295E00E94241720E030E040E251E4E3
:101DE000C501B4010E94312A0E948A2CAB0160E037
:101DF00070E02AE085E295E00E94401788E3809336
:101E0000300587E28093310569E373E085E295E070
:101E10000E94891780914204882309F4B1C00E946E
:101E2000ED1A00914304109144042091450430912F
:101E30004604DC01CB01800F911FA21FB31F8093CA
:101E4000430490934404A0934504B0934604F8944B
:101E500010922706109228061092290610922A0640
:101E6000789460914304709144048091450490916A
:101E700046048B019C0197FF07C00027112798019A
:101E8000061B170B280B390B0830110521053105EE
:101E900034F110914104111102C097FD0CC028E0EB
:101EA00030E040E050E00E94052B210F2E3008F07A
:101EB0002DE02093410410924304109244041092A8
:101EC00045041092460480913B04811108C04AE009
:101ED00050E060E070E080ED97E00E94021B1092FD
:101EE0003005109231056FE673E085E295E00E94BF
:101EF0008917A0904104A6E0AA9EC0011124FC010C
:101F0000E753FA4F5F0180912C05248135812F5FC3
:101F10003F4F90912B05929FA001939F500D11244C
:101F200028E330E06901C41AD50AF2E0CF16D104E3
:101F30006CF0D594C79421E0C21AD1083DE1C316D4
:101F4000D10434F06CE1C62ED12C02C0C12CD12CAE
:101F500010E054E3F52EF80EE12C00E02F2D412F78
:101F60006AE1812F0E94EC1D1F5F1733A9F7C09211
:101F700030058AE180933105C5010E94E31D45C10A
:101F8000E09141048E2F90E08E30910508F044C11D
:101F9000FC01EC5CFF4F0C94732DE0901601F09067
:101FA000170100913F04109140046BE373E0CE01F0
:101FB00001960E94D81624E630E040E050E0BE01D1
:101FC0006F5F7F4F8FE191E014C061E473E0CE0159
:101FD00001960E94D81644E6E42EF12C00E010E0B1
:101FE00024E630E040E050E0BE016F5F7F4F81E2C9
:101FF00091E00E94BD08DAC065E473E0CE0101966D
:102000000E94D81624E030E041EB55E0BE016F5F3E
:102010007F4F8EE394E0C8C0809147048111FCC0DB
:102020006BE473E0CE0101960E94D81634EFE32EE4
:10203000FF24F39404E610E024EF31E044E650E09E
:10204000BE016F5F7F4F8BE191E0D3CF809147045A
:102050008111E2C063E573E0CE0101960E94D816BB
:1020600024EFE22EFF24F39404E610E024EF31E0A5
:1020700044E650E0BE016F5F7F4F8DE191E0B9CF44
:10208000809147048111C8C0E0901601F0901701BB
:102090006BE573E0CE0101960E94D81600E010E0D7
:1020A00024E630E040E050E0BE016F5F7F4F8FE3F9
:1020B00094E09FCF809147048111AEC000913F040E
:1020C0001091400463E673E0CE0101960E94D81699
:1020D00094E6E92EF12C24E630E040E050E0BE0129
:1020E0006F5F7F4F86E191E084CF6BE673E0CE01B6
:1020F00001960E94D81624E030E045E755E0BE0185
:102100006F5F7F4F8DE394E04FC064E773E0CE01D3
:1021100001960E94D81624E030E04DE555E0BE015E
:102120006F5F7F4F83E291E03FC080914704811150
:1021300073C06DE773E006C08091470481116CC0E5
:1021400062E873E0CE0101960E94D81624E030E0E8
:102150004DE855E0BE016F5F7F4F8CE394E024C0F3
:1021600067E873E0CE0101960E94D81684E6E82E57
:10217000F12C00E010E024E630E040E050E0BE0149
:102180006F5F7F4F88E191E034CF6FE873E0CE015D
:1021900001960E94D81622E030E045EA55E0BE01E3
:1021A0006F5F7F4F8BE394E00E946F09CE01019631
:1021B0000E94D31631C0109230058EE08093310515
:1021C00065E973E085E295E00E9489171092300579
:1021D0008AE1809331056AE973E085E295E00E9427
:1021E00089171092300586E28093310560EA73E02A
:1021F00085E295E00E94891721E041E050E060E02F
:1022000070E085E295E00E9440170E94751D1092D3
:102210001A0180E00E94AF1D0E94900A8C01892B58
:1022200009F4F9C00E94900A20913A04049709F039
:1022300064C021115EC08091420481112DC0809143
:102240004104893041F480913C04882329F190E0D5
:102250000E949A0B1FC08A30F9F480913C048823B5
:10226000D9F090E00E94B20B42E350E060E070E0F1
:1022700080ED97E00E94021B64E670E080E090E051
:102280000E94161944E650E060E070E080ED97E0AF
:102290000E94021B10923C049091420481E0892725
:1022A0008093420480914704882361F08091410427
:1022B0009DEF980F943018F08950823018F481E027
:1022C0008093420480E891E0E4E2F1E0DF019C01C8
:1022D0001D9221503040E1F781E080931A01F8947B
:1022E00010922706109228061092290610922A06AC
:1022F000789481E080933A0490C021118EC04AE026
:1023000050E060E070E08CED95E00E94021B60EA16
:1023100070E080E090E00E9416190E94900A7C0113
:102320008017910709F079C080913D04811107C0A1
:1023300080914704811103C0C7010E949A0B8091CC
:102340003D048130E1F480914704811118C021E0FF
:1023500030E02E193F094EE1429FC001439F900D8E
:1023600011248C599F4F9093200180931F0144E6C4
:1023700050E060E070E080ED97E00E94021B8091E9
:102380003D048230C1F421E030E02E193F0949E1DB
:10239000429FC001439F900D11248C599F4F9093F1
:1023A00022018093210144E650E060E070E080ED7E
:1023B00097E00E94021B80913D04833091F433E04A
:1023C000E316F10419F480933E0403C0EA94E0920A
:1023D0003E0444E650E060E070E080ED97E00E944B
:1023E000021B81E080933A0420E831E0E4E2F1E06E
:1023F000DF01A9011D9241505040E1F780931A017D
:10240000F89410922706109228061092290610922E
:102410002A06789402C010923A0426960FB6F894D1
:10242000DEBF0FBECDBFDF91CF911F910F91FF9007
:10243000EF90DF90CF90BF90AF909F908F907F9064
:102440006F905F904F900895DC01ED91FD91808138
:10245000ED91FD919081ED91FD916C9163708E23D2
:1024600009F064609F2309F06860E1E4F2E1E60F9F
:10247000F11D659565956D936D917D918D919D9102
:10248000099423C01AC012C016C010C01EC009C0D3
:1024900014C013C006C019C009C00DC007C00DC0CC
:1024A00014C062507040804090400BC0615070403A
:1024B0008040904006C06E5F01C06F5F7F4F8F4FBE
:1024C0009F4F9E938E937E936E93089580915B05AC
:1024D00090915C050C9424128091590590915A05B5
:1024E0000C942412CF92DF92EF92FF920F931F93DE
:1024F000CF93DF936C017A018B01C0E0D0E0CE1561
:10250000DF0589F0D8016D918D01D601ED91FC9127
:102510000190F081E02DC6010995892B11F47E010F
:1025200002C02196ECCFC701DF91CF911F910F918F
:10253000FF90EF90DF90CF900895FC01538D448D74
:10254000252F30E0842F90E0821B930B541710F05E
:10255000CF96089501970895FC01918D828D98176B
:1025600061F0828DDF01A80FB11D5D968C91928D77
:102570009F5F9F73928F90E008958FEF9FEF089574
:10258000FC01918D828D981731F0828DE80FF11D3D
:10259000858D90E008958FEF9FEF0895FC01918D58
:1025A000228D892F90E0805C9F4F821B91098F7351
:1025B0009927089588E894E00E94CE1221E0892BA3
:1025C00009F420E0822F0895FC01848DDF01A80F1B
:1025D000B11DA35ABF4F2C91848D90E001968F734B
:1025E0009927848FA689B7892C93A089B1898C916A
:1025F00080648C93938D848D981306C00288F38930
:10260000E02D80818F7D80830895EF92FF920F935C
:102610001F93CF93DF93EC0181E0888F9B8D8C8D8E
:10262000981305C0E889F989808185FD24C0F62EBC
:102630000B8D10E00F5F1F4F0F731127E02E8C8D55
:10264000E8120CC00FB607FCFACFE889F98980813F
:1026500085FFF5CFCE010E94E412F1CF8B8DFE01F4
:10266000E80FF11DE35AFF4FF0820B8FEA89FB89D7
:102670008081806207C0EE89FF896083E889F989DB
:1026800080818064808381E090E0DF91CF911F9111
:102690000F91FF90EF900895CF93DF93EC01888D19
:1026A0008823C9F0EA89FB89808185FD05C0A88956
:1026B000B9898C9186FD0FC00FB607FCF5CF8081DC
:1026C00085FFF2CFA889B9898C9185FFEDCFCE0126
:1026D0000E94E412E7CFDF91CF91089580E090E06F
:1026E000892B29F00E94DA1281110C9400000895C0
:1026F000833081F028F4813099F08230A1F0089580
:102700008730A9F08830B9F08430D1F4809180000E
:102710008F7D03C0809180008F7780938000089523
:1027200084B58F7702C084B58F7D84BD0895809174
:10273000B0008F7703C08091B0008F7D8093B00090
:1027400008953FB7F89480917D0490917E04A09104
:102750007F04B091800426B5A89B05C02F3F19F0D7
:102760000196A11DB11D3FBFBA2FA92F982F882711
:10277000820F911DA11DB11DBC01CD0142E0660F6C
:10278000771F881F991F4A95D1F7089508950E94D1
:102790007F2F0C941D2E0C941D2E2F923F924F9242
:1027A0005F926F927F928F929F92AF92BF92CF92E1
:1027B000DF92EF92FF920F931F93CF93DF9300D09E
:1027C00000D0CDB7DEB71C01FC01A480B5806785C1
:1027D00070896A197B0980E090E00E94D0296B0122
:1027E0007C01F101868197818A199B09BC0180E0F7
:1027F00090E00E94D0299B01AC01C701B6010E9464
:10280000112C20E030E040E753E40E94312A20E020
:1028100030E046E153E40E94A02B25E33AEF4EE876
:102820005CE30E94312A4B015C010E940C2C6983FD
:102830007A838B839C83F101658570E080E090E072
:102840000E94D2292AE939E949E95FE30E94112C63
:102850006B017C01C501B4010E94FD2C2B013C01E0
:10286000F10113813280612F70E06F5F7F4F072E7F
:10287000000C880B990B0E94D2294B015C01A70127
:102880009601C301B2010E94312A9B01AC01C5012E
:10289000B4010E94A02B0E948A2C762E632D70E03A
:1028A0006F5F7F4F072E000C880B990B0E94D22977
:1028B0004B015C01A701960169817A818B819C8122
:1028C0000E94312A9B01AC01C501B4010E94A02BDA
:1028D0000E948A2C462FEE24E39401E0272D612FDD
:1028E000832D0E94EC1D0F900F900F900F90DF91A1
:1028F000CF911F910F91FF90EF90DF90CF90BF90FD
:10290000AF909F908F907F906F905F904F903F908F
:102910002F900895CF93DF93EC01E881F981008433
:10292000F185E02D099588859985988B8F87E881B9
:10293000F9810084F185E02DCE0109958E85811104
:1029400019C09A819F5F8B85282F220F820F981BB9
:102950002C858B81222311F0865F01C0855F9093C7
:102960003005809331056F857889CE01DF91CF9155
:102970000C94131FDF91CF9108952F923F924F92A5
:102980005F926F927F928F929F92AF92BF92CF92FF
:10299000DF92EF92FF920F931F93CF93DF93CDB708
:1029A000DEB72F970FB6F894DEBF0FBECDBF1C0168
:1029B000FC01958593808280B0902A05A09029051E
:1029C00081E0F82EF91AE92EE194EE0C192F492D29
:1029D000490F0B2D2A2D682D85E295E00E94BD1F21
:1029E000492D411B2A2D682D85E295E00E94BD1FCF
:1029F000682D610F2A2D492D85E295E00E94BD1FAB
:102A0000682D611B2A2D492D85E295E00E94BD1F8E
:102A1000612C61160CF055C0F7FC04C01150E39412
:102A2000E394FE0C6394862D880F8F5FF80E762C4E
:102A3000780C0B2D2A2DD12ED90C4D2D672D85E22A
:102A400095E00E94BD1FC82CC6182A2D4D2D6C2D57
:102A500085E295E00E94BD1F2A2DD92CD11A4D2D5B
:102A6000672D85E295E00E94BD1F2A2D4D2D6C2D0E
:102A700085E295E00E94BD1FD62CD90C2A2D4D2D44
:102A8000C12EC80C6C2D85E295E00E94BD1F2A2D39
:102A90004D2DD82CD11A6D2D85E295E00E94BD1FD9
:102AA000792C76182A2D472D6C2D85E295E00E9411
:102AB000BD1F2A2D472D6D2D85E295E00E94BD1F7B
:102AC000A8CF26E930E03F872E87EE85FF85BF013E
:102AD000FF0F880B990B0E94D22925E33AEF4EE8AD
:102AE0005CE30E94312A4B015C010E940C2C69833B
:102AF0007A838B839C83F101658570E080E090E0B0
:102B00000E94D2296B017C0120E030E040EC5FE3C1
:102B10000E94112C69877A878B879C87C501B40135
:102B20000E94FD2C2B013C01F101638170E06F5F7D
:102B30007F4F072E000C880B990B0E94D2294B0166
:102B40005C01F101628170E06F5F7F4F072E000C26
:102B5000880B990B0E94D2296D837E838F8398877F
:102B6000A7019601C301B2010E94312A9B01AC0169
:102B7000C501B4010E94A02B0E948A2C6D87A70179
:102B8000960169817A818B819C810E94312A9B0107
:102B9000AC016D817E818F8198850E94A02B0E945F
:102BA0008A2C162F29853A854B855C85C301B20195
:102BB0000E94312A9B01AC01C501B4010E94A02BE7
:102BC0000E948A2CB62E29853A854B855C856981C1
:102BD0007A818B819C810E94312A9B01AC016D819D
:102BE0007E818F8198850E94A02B0E948A2C862F3F
:102BF000E0902A05009129052D85412F6B2D0E941B
:102C0000EC1D2E853F85225E3F4F3F872E87243A5D
:102C1000314009F05ACFF1018585803108F4AAC00E
:102C200025EA30E03F872E87EE85FF85BF01FF0F45
:102C3000880B990B0E94D22925E33AEF4EE85CE31A
:102C40000E94312A4B015C010E940C2C69837A831B
:102C50008B839C83F101658570E080E090E00E94A9
:102C6000D2296B017C0126E636E646EA5FE30E9444
:102C7000112C69877A878B879C87C501B4010E94D4
:102C8000FD2C2B013C01F101638170E06F5F7F4FF0
:102C9000072E000C880B990B0E94D2294B015C0176
:102CA000F101628170E06F5F7F4F072E000C880B8F
:102CB000990B0E94D2296D837E838F839887A70109
:102CC0009601C301B2010E94312A9B01AC01C501EA
:102CD000B4010E94A02B0E948A2C162FA7019601F6
:102CE00069817A818B819C810E94312A9B01AC0190
:102CF0006D817E818F8198850E94A02B0E948A2CF5
:102D0000F62E29853A854B855C85C301B2010E9468
:102D1000312A9B01AC01C501B4010E94A02B0E9485
:102D20008A2CB62E29853A854B855C8569817A8106
:102D30008B819C810E94312A9B01AC016D817E8137
:102D40008F8198850E94A02B0E948A2C862FE0906C
:102D50002A0500912905212F4F2D6B2D0E94EC1D76
:102D60002E853F85225E3F4F3F872E872539314094
:102D700009F05ACF2F960FB6F894DEBF0FBECDBF25
:102D8000DF91CF911F910F91FF90EF90DF90CF9047
:102D9000BF90AF909F908F907F906F905F904F907B
:102DA0003F902F900895FC01808191810C941D2EFD
:102DB000EF92FF920F931F93CF93DF93EC01198251
:102DC00018821B821A821D821C8261157105A9F16D
:102DD0007B01FB0101900020E9F731978F01061B71
:102DE000170BB8016F5F7F4F80E090E00E94B52E17
:102DF000009759F0998388831B830A832C813D8136
:102E0000232B81F4FC0110820DC0888199810097E9
:102E100011F00E941D2E198218821D821C821B82B5
:102E20001A820BC01D830C83B701DF91CF911F91D4
:102E30000F91FF90EF900C948D2FDF91CF911F9108
:102E40000F91FF90EF900895DC01ED91FC910190BE
:102E5000F081E02D09946115710579F0FB01019075
:102E60000020E9F73197AF01461B570BDC01ED91CC
:102E7000FC910280F381E02D099480E090E00895B8
:102E80004F925F926F927F92EF92FF920F931F93F8
:102E9000CF93DF93CDB7DEB7A1970FB6F894DEBF1F
:102EA0000FBECDBF7C01FA01CB0119A2223008F47C
:102EB0002AE08E010F5D1F4F422E512C612C712C88
:102EC000BF01A30192010E946E2BF901CA010150BA
:102ED00011096A3014F4605D01C0695CD8016C931B
:102EE000232B242B252B61F7B801C7010E942B1738
:102EF000A1960FB6F894DEBF0FBECDBFDF91CF9184
:102F00001F910F91FF90EF907F906F905F904F9087
:102F100008950C942B171F920F920FB60F92112445
:102F20002F933F934F935F936F937F938F939F93D1
:102F3000AF93BF93EF93FF9388E894E00E94E4126D
:102F4000FF91EF91BF91AF919F918F917F916F9181
:102F50005F914F913F912F910F900FBE0F901F9057
:102F600018951F920F920FB60F9211242F938F93E3
:102F70009F93EF93FF93E0919804F09199048081DF
:102F8000E0919E04F0919F0482FD12C09081809197
:102F9000A1048F5F8F732091A204821751F0E091FA
:102FA000A104F0E0E857FB4F958F8093A10401C086
:102FB0008081FF91EF919F918F912F910F900FBE84
:102FC0000F901F901895CF93DF93282F30E0F901D1
:102FD000E455FF4F8491F901E051FF4ED491F9017E
:102FE000E25FFE4EC491CC2391F081110E947813D0
:102FF000EC2FF0E0EE0FFF1FEC5FFE4EA591B491B9
:10300000EC91ED2381E090E021F480E002C080E0CB
:1030100090E0DF91CF9108951F93CF93DF93282FF6
:1030200030E0F901E455FF4F8491F901E051FF4E82
:10303000D491F901E25FFE4EC491CC23C9F0162F62
:1030400081110E947813EC2FF0E0EE0FFF1FEB517F
:10305000FF4EA591B4918FB7F894111105C09C91C2
:10306000ED2FE095E92302C0EC91ED2BEC938FBF9F
:10307000DF91CF911F9108959091A402981324C0DD
:10308000EFEEF0E1E4919FEF9093A402E130B9F00C
:1030900098F0E230C9F4909170009D7F9093700099
:1030A00091E09093B0009091B100987F94609093DC
:1030B000B1001092B30008C010926E0005C090914C
:1030C0006F009D7F90936F0060E00C940C181F922E
:1030D0000F920FB60F9211242F933F934F935F934C
:1030E0006F937F938F939F93AF93BF93EF93FF93D0
:1030F0008091840490918504A0918604B091870406
:10310000892B8A2B8B2B51F180918104E0918204D1
:10311000F091830490818927808380918404909129
:103120008504A0918604B0918704181619061A0622
:103130001B06C4F48091840490918504A0918604B8
:10314000B09187040197A109B109809384049093F9
:103150008504A0938604B093870404C08091A402E0
:103160000E943C18FF91EF91BF91AF919F918F9179
:103170007F916F915F914F913F912F910F900FBE73
:103180000F901F901895CF93DF9390E0FC01E051D2
:10319000FF4E2491FC01E25FFE4E8491882361F191
:1031A00090E0880F991FFC01EE55FF4FC591D49117
:1031B000FC01EB51FF4EA591B491611109C09FB77D
:1031C000F8948881209582238883EC912E230BC06C
:1031D000623061F49FB7F8943881822F8095832301
:1031E0008883EC912E2B2C939FBF06C08FB7F89449
:1031F000E8812E2B28838FBFDF91CF9108958E30E9
:1032000008F08E508770806480937C0080917A00F3
:10321000806480937A0080917A0086FDFCCF809153
:1032200078002091790090E0922B08958F929F92E0
:10323000AF92BF92CF92DF92EF92FF926B017C012F
:103240000E94A1134B015C01C114D104E104F104FB
:10325000F1F00E94A113DC01CB0188199909AA0998
:10326000BB09883E9340A105B10570F321E0C21A65
:10327000D108E108F10888EE880E83E0981EA11CB1
:10328000B11CC114D104E104F10419F7DDCFFF90A2
:10329000EF90DF90CF90BF90AF909F908F90089568
:1032A0002FB7F8946091790470917A0480917B042F
:1032B00090917C042FBF08951F920F920FB60F922A
:1032C00011242F933F938F939F93AF93BF9380913C
:1032D000790490917A04A0917B04B0917C043091A0
:1032E000780423E0230F2D3720F40196A11DB11D92
:1032F00005C026E8230F0296A11DB11D2093780476
:103300008093790490937A04A0937B04B0937C0417
:1033100080917D0490917E04A0917F04B0918004FF
:103320000196A11DB11D80937D0490937E04A0930E
:103330007F04B0938004BF91AF919F918F913F9193
:103340002F910F900FBE0F901F9018951F920F9204
:103350000FB60F9211242F933F934F935F936F9368
:103360007F938F939F93AF93BF93EF93FF93E091DE
:10337000A702F091A8020995FF91EF91BF91AF913B
:103380009F918F917F916F915F914F913F912F917D
:103390000F900FBE0F901F9018951F920F920FB6AF
:1033A0000F9211242F933F934F935F936F937F93CB
:1033B0008F939F93AF93BF93EF93FF93E091A502F9
:1033C000F091A6020995FF91EF91BF91AF919F9166
:1033D0008F917F916F915F914F913F912F910F90BE
:1033E0000FBE0F901F9018951F920F920FB60F925D
:1033F00011242F933F934F935F936F937F938F93FA
:103400009F93AF93BF93EF93FF938091770487FFD0
:1034100005C010928500109284001BC02091770493
:10342000022E000C330B8091580590E028173907C5
:1034300084F480917704082E000C990BFC01EE0FA8
:10344000FF1F8E0F9F1FFC01EC5CFA4F808186FDF1
:1034500015C0809177048F5F809377042091770463
:10346000022E000C330B8091580590E02817390785
:10347000C4F4809177048C3064F113C08091770498
:10348000082E000C990BFC01EE0FFF1F8E0F9F1FE3
:10349000FC01EC5CFA4F808160E08F730E940C1895
:1034A000D8CF8091840090918500049680349C4907
:1034B00018F480E49CE905C0809184009091850017
:1034C000049690938900809388008FEF809377040F
:1034D0003BC0209184003091850080917704082EB4
:1034E000000C990BFC01EE0FFF1F8E0F9F1FFC01BC
:1034F000EC5CFA4F81819281820F931F9093890037
:103500008093880080917704082E000C990BFC01B1
:10351000EE0FFF1F8E0F9F1FFC01EC5CFA4F8081A6
:1035200086FF12C080917704082E000C990BFC01D5
:10353000EE0FFF1F8E0F9F1FFC01EC5CFA4F808186
:1035400061E08F730E940C18FF91EF91BF91AF91D2
:103550009F918F917F916F915F914F913F912F91AB
:103560000F900FBE0F901F901895089508959C011D
:10357000803167E29607E4F4813F78ED9707D4F055
:1035800097FF05C031952195310992E001C091E086
:103590004AE050E08AE02417350744F09F5FBA0103
:1035A000869FA001879F500D1124F5CF892F089584
:1035B00085E0089586E008950DB407FEFDCF2898B4
:1035C000209A2A9A22988CB58F7B8CBD08958CB551
:1035D00080648CBD2A98229A089580912B068230AF
:1035E00030F4F89480E296E00E94241201C0F8942E
:1035F00060912706709128068091290690912A06ED
:10360000789408953F924F925F926F927F928F923B
:103610009F92AF92BF92CF92DF92EF92FF920F9361
:103620001F93CF93DF9300D000D0CDB7DEB72091AA
:10363000A402263021F02F3F09F02CC204C0EFEE87
:10364000F0E1349076C026E02093A402EFEEF0E1A2
:10365000E491EF3F09F41EC2E13011F1E23009F4C8
:1036600043C0E11165C014BC15BC24B5226024BD63
:1036700025B5216025BDE4E1F1E1E491F0E0EE0F34
:10368000FF1FEB51FF4E259134913093310620936B
:103690003006E6EFF0E1E491E0932F06312C4BC0C9
:1036A0001092800010928100209181002860209368
:1036B000810020918100216020938100E4E1F1E10B
:1036C000E491F0E0EE0FFF1FEB51FF4E2591349196
:1036D00030932E0620932D06E6EFF0E1E491E0937F
:1036E0002C063324339427C01092B0001092B100FE
:1036F0002091B00022602093B0002091B1002160A1
:103700002093B100E4E1F1E1E491F0E0EE0FFF1F5E
:10371000EB51FF4E25913491309383042093820422
:10372000E6EFF0E1E491E0938104B2E03B2E03C0C8
:103730003E2E37FCAFC12A013B018C0161E086E0DF
:103740000E94C3184801A12CB12C832D8D7F09F054
:10375000BBC060E072E18AE790E0A50194010E949D
:10376000052B29833A834B835C8369017A0121E02D
:10377000C21AD108E108F1088FEFC816D104E1049C
:10378000F10409F008F44CC060E472E48FE090E0CA
:10379000A50194010E94052B69017A01E1E0CE1A8E
:1037A000D108E108F108F2E03F1220C02FEFC21665
:1037B000D104E104F10409F008F46AC160E970ED94
:1037C00083E090E0A50194010E94052B69017A0134
:1037D00081E0C81AD108E108F108EFEFCE16D10454
:1037E000E104F10409F0D0F583E067C0FFEFCF16E4
:1037F000D104E104F104B1F0A8F068E478EE81E0CE
:1038000090E0A50194010E94052B69017A0181E0F5
:10381000C81AD108E108F108332009F4DFC02FC12C
:1038200081E001C082E03320A1F047C089819A8104
:10383000AB81BC812AE0B595A795979587952A9588
:10384000D1F76C017D0121E0C21AD108E108F1082D
:1038500085E095B5987F892B85BD6FC068E478EECB
:1038600081E090E0A50194010E94052B69017A0195
:10387000F1E0CF1AD108E108F1082FEFC216D10408
:10388000E104F10409F008F4A7C064E274EF80E0F9
:1038900090E0A50194010E94052B69017A01E1E005
:1038A000CE1AD108E108F108FFEFCF16D104E104E8
:1038B000F10411F008F0B4C085E09091B100987F58
:1038C000892B8093B10039C060E072E18AE790E013
:1038D000A50194010E94052B69017A0181E0C81AB3
:1038E000D108E108F108C114D104E1E0EE06F104C9
:1038F00088F068E478EE81E090E0A50194010E94F0
:10390000052B69017A01F1E0CF1AD108E108F1082D
:1039100093E001C091E021E032120FC0809181005C
:10392000887F892B809381004114510461047104C4
:1039300049F42FEF3FEFA9012DC041145104610458
:10394000710471F0D801AA0FBB1FA30192010E945C
:10395000242B28EE33E040E050E00E946E2B03C0A1
:103960002FEF3FEFA90181E03816A1F0E2E03E160B
:1039700019F131108FC0C7BC20933606309337063B
:10398000409338065093390680916E008260809390
:103990006E0080C0D0928900C092880020933206C9
:1039A00030933306409334065093350680916F0070
:1039B000826080936F006EC0C092B3002093840435
:1039C000309385044093860450938704809170005F
:1039D0008260809370005EC084E06FCFFFEFCF16EF
:1039E000D104E104F104D1F0C8F062E17AE780E0AB
:1039F00090E0A50194010E94052B69017A0181E004
:103A0000C81AD108E108F108EFEFCE16D104E1049D
:103A1000F10411F008F00ACF84E01BCF83E019CF46
:103A200062E17AE780E090E0A50194010E94052B15
:103A300069017A0181E0C81AD108E108F108EFEFC5
:103A4000CE16D104E104F104C1F0B8F089819A8165
:103A5000AB81BC814AE0B595A795979587954A9526
:103A6000D1F76C017D0121E0C21AD108E108F1080B
:103A7000332009F4EDCE87E020CF86E0D4CEFFEFEF
:103A8000CF16D104E104F10409F050F684E0CBCE66
:103A900082E013CF0F900F900F900F90DF91CF9196
:103AA0001F910F91FF90EF90DF90CF90BF90AF905C
:103AB0009F908F907F906F905F904F903F90089570
:103AC000CF93DF9300D0CDB7DEB76A8389830E949E
:103AD000E71A89818EBD0E9489216A816EBD0F908F
:103AE0000F90DF91CF910C94DC1ACF93DF9360E0BD
:103AF00080E20E94601D0E94E71A81E28EBD0E9452
:103B0000892180E28EBD0E9489218FE58EBD0E94B1
:103B1000DC1A0E94E71A82E28EBD0E9489211EBC37
:103B20000E94892185E08EBD0E94DC1A0E94E71A5E
:103B3000289A2098809124018EBDC5E2D1E00E9490
:103B4000892189918EBD82E0C43AD807C1F70E94CD
:103B5000DC1A62E080E2DF91CF910C94601DA5E257
:103B6000B5E018968C931897E82FF0E0EE0FFF1F42
:103B7000E750FD4F80819181FC01249116962C9392
:103B800016973196E4911796EC931797FC013296AD
:103B9000E4911996EC931997FC013396E4911A96E7
:103BA000EC931A97FC01349624913196E491F0E05D
:103BB00084E6289FE00DF11D11241E96FC93EE93E0
:103BC0001D9781E00895FC014481558160817181D8
:103BD00085E295E00C9472129F92AF92BF92CF92C1
:103BE000DF92EF92FF920F931F93CF93DF93C82F33
:103BF000D62F142FD02E422F50E0461B510957FFCD
:103C000003C0519541955109812F90E08C1B91097A
:103C100097FF03C0919581959109BB24B3948417B4
:103C2000950714F0B12C06C0812F122F282F8C2F4E
:103C3000CD2FD82F1C1730F48D2FD22F282F8C2F5B
:103C4000C12F182FA12EAC1A822F90E08D1B910945
:103C500097FF03C0919581959109F82ECA2CC694BF
:103C6000D21718F099249A9413C09924939410C0F1
:103C70000E2D2D2DBB2079F04C2F6D2F85E295E078
:103C80000E94BD1FCF18C7FE02C0D90DCA0CCF5F5E
:103C9000C11770F303C04D2F6C2FF0CFDF91CF9180
:103CA0001F910F91FF90EF90DF90CF90BF90AF905A
:103CB0009F900895AC0190911D069C3090F58091E5
:103CC0001E0628E830E0281B310987FD3395220FB6
:103CD000331F220F331F4217530784F080911F06B2
:103CE00028E532E0281B310987FD3395220F331F69
:103CF000220F331F421753070CF49A012250310947
:103D0000220F331F4FB7F894892F90E0FC01EE0F7C
:103D1000FF1F8E0F9F1FFC01EC5CFA4F3283218343
:103D20004FBF0895089508950895089580E090E0A4
:103D30000895CF92DF92EF920F93CF93DF936C01B0
:103D4000FC018485C585823040F5D281CD0FCE5FE0
:103D5000DF5FF601DC1770F4638128E0260F6B5FEC
:103D6000E0902A05009129054D2F8D2F0E94EC1D12
:103D7000DE5FEFCFD281DF5FDC17B8F5F60163813C
:103D800025E0260F6D5FE0902A05009129054D2F53
:103D90008D2F0E94EC1DD65FEFCFF601D381CD0FA2
:103DA000CE5FDF5FF601CD1768F0828143E0480FF8
:103DB000E0902A05009129052D2F6D2F0E94EC1D02
:103DC000DE5FF0CFD381DF5FCD1778F0F60182811F
:103DD00045E0480FE0902A05009129052D2F6D2F11
:103DE0008D5F0E94EC1DD65FEFCFDF91CF910F91D9
:103DF000EF90DF90CF9008950C941D2E1F93CF93DA
:103E0000DF93EC018E819F810E94B71A182F8C815D
:103E10009D810E94B71A811708F4812F8B87DF914B
:103E2000CF911F910895CF92DF92EF92FF92CF939F
:103E3000DF93EC016B01CB010E94B71AFB84F81AE7
:103E4000FF2041F067E174E085E295E00E94891768
:103E5000FA94F6CF0D2C000CEE08FF08F7FE0EC00A
:103E60006DE285E295E00E94241744275527BA01A8
:103E70004C195D096E097F092AE003C02AE0B701E9
:103E8000A60185E295E0DF91CF91FF90EF90DF9062
:103E9000CF900C944017CF93DF93EC01E881F98128
:103EA0000084F185E02D099588859985988B8F8709
:103EB000E881F9810084F185E02DCE0109958E8598
:103EC000811120C02C858B819A81213069F038F0D6
:103ED000223061F42D85820F8C5F9F5F08C08F5F59
:103EE0002D85920F9C5F03C0865F01C0975F909302
:103EF0003005809331056F857889CE01DF91CF91B0
:103F00000C94131FDF91CF910895CF93DF93EC01B1
:103F1000E881F9810280F381E02D0995E881F9813A
:103F20000084F185E02DCE010995E881F9810190A9
:103F3000F081E02DCE01DF91CF910994CF93DF93F3
:103F4000EC018E819F8186179707A4F08C819D815B
:103F5000681779077CF0CB01798768870E94B71AC8
:103F60008A87E881F9810190F081E02DCE01DF910F
:103F7000CF910994DF91CF9108950F936034C8F5E4
:103F80004033B8F50130C1F4213099F5E42FE695BE
:103F9000E695E69580E4E89FF0011124E60FF11D17
:103FA000EC5DFE4F477081E090E001C0880F4A95BC
:103FB000EAF7908189271CC0842F8695869586957F
:103FC000E62FF0E0477090E4899FE00DF11D112489
:103FD000EC5DFE4F81E090E001C0880F4A95EAF762
:103FE000213019F49081892B03C080959081892319
:103FF00080830F9108957F928F929F92AF92BF928C
:10400000CF92DF92EF92FF920F931F93CF93DF93A4
:10401000EC018C85CC80DD806F857889EE80FF8017
:104020000D857B801A818230B8F56C197D0980E09E
:1040300090E00E94D0294B015C01B7016C197D0909
:1040400080E090E00E94D0299B01AC01C501B40141
:104050000E94112C6B017C01602F70E080E090E0E9
:104060000E94D2299B01AC01C701B6010E94312AEE
:104070000E948A2CF62E862F810F43E0480FEE24F3
:10408000E39401E0272D672D0E94EC1D4B814F5FCB
:104090006A816F5F6F0D39C0C701861B970BBC012A
:1040A00080E090E00E94D0294B015C01C7018C198F
:1040B0009D09BC0180E090E00E94D0299B01AC01E9
:1040C000C501B4010E94112C6B017C01602F70E0CE
:1040D00080E090E00E94D2299B01AC01C701B601AB
:1040E0000E94312A0E948A2CF62E670D87E0810FEC
:1040F00023E0260FEE24E39401E0482F0E94EC1DFC
:104100004B814F5F4F0D6A816A5F21E085E295E048
:104110000E94BD1FDF91CF911F910F91FF90EF90F3
:10412000DF90CF90BF90AF909F908F907F90089539
:104130005F926F927F928F929F92AF92BF92CF9237
:10414000DF92EF92FF920F931F93CF93DF93EC01D7
:104150006A3009F46AC06D3009F4C9C0E62EBD802A
:10416000AC801C859B842985621708F450C08A8521
:1041700090E0820F911D462F50E0481759070CF030
:1041800046C0E21A8F8086948694869481E08815D2
:1041900008F451C0C92C38E0D32ED10E9C2D9919AA
:1041A0008E81282F30E0E92FF0E02E173F077CF1B9
:1041B000981789F0A885B0E0AA0FBB1FA750BD4F84
:1041C000E89EE00DF11D112436968D919C91E80F2B
:1041D000F91FF49001C0F12C812EF0FE03C00B2DCD
:1041E0002A2D04C021E0A11020E00B2D482D6C2DBC
:1041F000CE010E94BD1FF69483948D10EECFC39420
:10420000CDCF8FEFC81AD80A185FC814D0F14E81ED
:104210008B85840F8F5F8B8790E020E430E0241B38
:104220003109281739070CF062C09C858F81890FEE
:104230008C871B865CC0ED85FE852E8130E0CF012A
:10424000B9010E945F2D8E2D90E00E945F2D829F0C
:104250007001839FF00C929FF00C11248E9E9001B0
:104260008F9E300D1124269FC001279F900D369FF1
:10427000900D1124E80EF91EC12CD12C86E0E80E19
:10428000F11C792C872D89199E81891708F0B9CFE7
:10429000A885B0E0AA0FBB1FA750BD4F2D853E8556
:1042A000C29EF001C39EF00DD29EF00D1124EE0DC2
:1042B000FF1DE80FF11D8D919C91E80FF91F64908F
:1042C000512C452D410F60FE03C00B2D2A2D04C03B
:1042D00021E0A11020E00B2D672DCE010E94BD1F13
:1042E0006694539488E05812ECCF7394CBCF81E05E
:1042F00090E0DF91CF911F910F91FF90EF90DF90B1
:10430000CF90BF90AF909F908F907F906F905F9075
:1043100008950DB407FEFDCF0895089540E050E0E4
:10432000BA0180E699E00E94021B6CE870E080E030
:1043300090E00E94161940E050E0BA0180EA9FE048
:104340000E94021B6CE870E080E090E00E94161969
:1043500040E050E0BA0180EB94E00E94021B68EC60
:1043600070E080E090E00E94161986E00C943C1802
:10437000CF93DF9300D0CDB7DEB7789484B5826059
:1043800084BD84B5816084BD85B5826085BD85B5F9
:10439000816085BD80916E00816080936E00109277
:1043A00081008091810082608093810080918100F2
:1043B0008160809381008091800081608093800083
:1043C0008091B10084608093B1008091B0008160E1
:1043D0008093B00080917A00846080937A0080910D
:1043E0007A00826080937A0080917A008160809365
:1043F0007A0080917A00806880937A001092C100E0
:1044000080911D068C3008F051C061E085E00E946B
:10441000C31880911D06E82FF0E09F01220F331F83
:10442000E20FF31FEC5CFA4F9081907C95609083D3
:1044300010921E0610921F066CE00E94532D2CE075
:10444000829FB001112440E050E09A01260F371FEF
:10445000F901EE0FFF1F2E0F3F1FF901EC5CFA4F21
:10446000908196FD16C04F5F5F4F4C30510569F744
:1044700081110FC01092800082E080938100109221
:10448000850010928400B19A80916F0082608093C1
:104490006F00E0911D06F0E0CF01880F991FE80F33
:1044A000F91FEC5CFA4F80818064808388EE93E092
:1044B0000E945A1E80E00E94AF1D81E08093290572
:1044C00010922A0510923005109231055F98579A84
:1044D00061E084E00E94C31861E084E00E940C184F
:1044E0006AE070E080E090E00E9416195F9A5798A9
:1044F00065E070E080E090E00E9416195F98579A9E
:104500008CB58C7F8CBD8DB581608DBD2A9A22982B
:104510002898209A60E08DE00E940C1860E08BE003
:104520000E940C1861E08DE00E94C31861E08BE0EE
:104530000E94C3188CB580618CBD65E070E080E09E
:1045400090E00E9416195F9A57986AE070E080E048
:1045500090E00E9416196FE288EA0E94601D64E1F3
:104560008DE80E94601D0E94E71A81EA8EBD0E94BC
:10457000DC1A0E94E71A88EC8EBD0E94DC1A6FE8F4
:1045800081E80E94601D61EF89ED0E94601D60E47A
:104590008BED0E94601D0E94E71A8FEA8EBD0E947B
:1045A000DC1A60E080E20E94601D0E94E71A81E24E
:1045B0008EBD0E9489211EBC0E9489218FE78EBD7D
:1045C0000E94DC1A0E94E71A82E28EBD0E948921B5
:1045D0001EBC0E94892187E08EBD0E94DC1A0E94C9
:1045E000E71A289A20981EBC0FEF13E00E94892139
:1045F0001EBC01501109D1F70E94DC1A62E080E272
:104600000E94601D34E2E32E31E0F32E00E811E059
:10461000D701F8011D923197E9F70E94751D60E0FE
:1046200081E10E94C31860E082E10E94C31860E04B
:104630008FE00E94C31862E08EE00E94C31862E01F
:1046400080E10E94C31861E081E00E94C31861E02C
:1046500080E00E94C31861E086E00E94C31881E0F8
:104660000E94AF1D8BE0809330058EE08093310572
:1046700064E074E085E295E00E9489170E94751D50
:1046800062E370E080E090E00E94161962EA73E055
:1046900085E295E00E9489170E94751D62E370E033
:1046A00080E090E00E94161964EA73E085E295E0EC
:1046B0000E9489170E94751D62E370E080E090E01F
:1046C0000E94161966EA73E085E295E00E94891758
:1046D0000E94751D62E370E080E090E00E94161970
:1046E0006EE973E085E295E00E9489170E94751DCE
:1046F00060E971E080E090E00E94161980E00E947D
:10470000AF1D68EC70E080E090E00E941619D701C0
:10471000F8011D923197E9F70E94751D0E94900AD9
:10472000049709F0A5C00E94900A0497E1F362E3A0
:1047300070E080E090E00E9416191092300510920F
:10474000310568EA73E085E295E00E9489171092CE
:1047500030058EE08093310563EB73E085E295E0F0
:104760000E948917109230058CE1809331056CEB23
:1047700073E085E295E00E9489170E94751D0E94F2
:1047800050196B017C01F0EDCF0EF7E0DF1EE11C4C
:10479000F11C0E9450196C157D058E059F0508F0CF
:1047A0005BC00E94900A0497A1F780E891E0E4E2E0
:1047B000F1E0DF019C011D9221503040E1F71092A1
:1047C00030051092310565EC73E085E295E00E94BA
:1047D0008917109230058EE0809331056CEB73E001
:1047E00085E295E00E9489170E94751D00E010E0A7
:1047F00060E0C8010E94F72A0F5F1F4F011534E0E7
:104800001307B1F742E350E060E070E088EB9BE013
:104810000E94021B64E670E080E090E00E9416199E
:1048200044E650E060E070E084EC99E00E94021BF6
:1048300064E670E080E090E00E94161948EC50E0D9
:1048400060E070E080ED97E00E94021B68EC70E091
:1048500080E090E00E94161980E891E0E4E2F1E047
:10486000DF019C011D9221503040E1F70E94751D2F
:1048700081E190E00E94882D6C0127EDE22E22E07C
:10488000F22EDC011196FC92EE9280E112968C934E
:1048900012978EE113968C93139715961C921E9285
:1048A000149784E690E017969C938E93169719962A
:1048B0001C921E92189780E090E00E94B71AF601B1
:1048C0008287C6010E94FE1E89EC92E0D6011196F5
:1048D0009C938E9318968D919C91199750969C93CA
:1048E0008E931F9711E01E961C931E971C961C9288
:1048F0001C978FE01D968C93C6010E94BD14C601C3
:104900000E94CD13C6010E948A14D0926B04C092FB
:104910006A0481E190E00E94882D6C01FC01F18223
:10492000E08288E382838EE083838DE690E0958346
:1049300084832EE730E037832683918780870E9427
:10494000B71AD6011A968C93C6010E94FE1E85EEF8
:1049500092E0F6019183808380859185908B878793
:10496000168782E0848784E18587C6010E94991EAC
:10497000C6010E94FB1FC6010E944B1FD092690412
:10498000C092680480916A0490916B040E94851F14
:1049900080916804909169040E94851F80E090E0F6
:1049A0000E94DF0A80E090E0A0E4B1E4809350042C
:1049B00090935104A0935204B093530480935404F1
:1049C00090935504A0935604B093570480935804D1
:1049D00090935904A0935A04B0935B0480935C04B1
:1049E00090935D04A0935E04B0935F048093600491
:1049F00090936104A0936204B09363048093640471
:104A000090936504A0936604B09367040E945019C4
:104A100060934C0470934D0480934E0490934F0424
:104A200080E090E0A0E9B2E48093480490934904C8
:104A3000A0934A04B0934B0481E00E94C60C6EE53B
:104A400071E080E090E00E9416194CE350E060E0D5
:104A500070E080ED97E00E94021B6EE670E080E05F
:104A600090E00E9416194CE350E060E070E080EDA9
:104A700097E00E94021B6EE670E080E090E00E94EA
:104A800016194CE350E060E070E080ED97E00E9482
:104A9000021B80E10E94E317892BF1F464EF71E0BF
:104AA00080E090E00E94161948EC50E060E070E071
:104AB00088EB9BE00E94021B6CE271E080E090E0DA
:104AC0000E94161948EC50E060E070E088EB9BE033
:104AD0000E94021B1093470484E6C82ED12CE12CBF
:104AE000F12C9BEC692E97E0792E0E94B10A81117E
:104AF0000DC080916D0490916E04181619060CF08B
:104B000092C080912301833009F08DC080912301F0
:104B1000811117C042E350E060E070E088EB9BE059
:104B20000E94021B64E670E080E090E00E9416198B
:104B300044E650E060E070E080ED97E00E94021BE8
:104B400076C0833009F095C00E94730A84369105BF
:104B500009F48FC00E945019A0911F01B09120014B
:104B60002FE332E00E94812DA70196010E94052BC0
:104B700049015A01F5E08F0E9F1EA11CB11CC40112
:104B80000E945A1E20901B0130901C01032C000C27
:104B900044085508A0911F01B091200120911D01EA
:104BA00030911E01A901330F660B770B9A01AB01FF
:104BB00022193309440955090E942F2BA701960198
:104BC0000E94052BDA01C901820D931DA41DB51D9C
:104BD0009A8389830E94730A00916D0410916E0478
:104BE000080F191F10936E0400936D0410926C044B
:104BF00020906F04309070044090710450907204C3
:104C00002114310441045104C9F10E945019DC01FE
:104C1000CB0182199309A409B509883E9340A105E7
:104C2000B105F0F12BC088EE93E00E945A1E81E09E
:104C30000E94C60C8090730490907404A090750438
:104C4000B090760481149104A104B10409F4A1C1C7
:104C50000E945019DC01CB0188199909AA09BB09E6
:104C6000883E9340A105B10508F093C10E946E13E0
:104C70003CCF10926E0410926D046CCF00E010E0F7
:104C800029813A81021713073CF50E94BA0A61E0B4
:104C900070E080E090E00E9416190F5F1F4FF0CF88
:104CA000101611060CF4D6C020911F01309120017E
:104CB000A6EFBFEF0E94792DA70196010E94052B58
:104CC000DA01C9014996A11DB11DBC01072E000CD6
:104CD000880B990B0E9416190E94B10A811158C0C5
:104CE00080912301813009F053C0B7C00F5F1F4F7F
:104CF0000333110581F061E081E00E940C1866E049
:104D000070E080E090E00E9416190E94BA0A0E94AA
:104D10007D0A019759F32091210130912201ACE9DC
:104D2000BFEF0E94792DA70196010E94052B490132
:104D30005A01F4E68F0E911CA11CB11C80916D04E8
:104D400090916E04019790936E0480936D0426E019
:104D500082169104D4F060E081E00E940C188BE18F
:104D600093E00197F1F761E080E00E940C18B40134
:104D7000990C880B990B0E94161960E080E00E9444
:104D80000C188BE193E00197F1F780E00E94C60CCC
:104D900080916D0490916E04029764F10E94730AF1
:104DA0008436910529F40E94B10A811108C022C0FD
:104DB000809123018130B9F382508230D8F400E031
:104DC00010E00E947D0A019791F00F5F1F4F03339F
:104DD000110569F061E081E00E940C1866E070E066
:104DE00080E090E00E9416190E94BA0AEACF00E023
:104DF00010E08DCF00E010E00E947D0A019791F055
:104E00000F5F1F4F0333110569F061E081E00E94DD
:104E10000C1866E070E080E090E00E9416190E9495
:104E2000BA0AEACF00E010E00E947D0A019701F57E
:104E30000F5F1F4F03331105D9F061E081E00E943D
:104E40000C1866E070E080E090E00E9416190E9465
:104E5000BA0AEACF60E070E039CFC4010E945A1E5E
:104E600060E081E00E940C1880E00E94C60C86C0C1
:104E700080916D0490916E04019790936E048093DD
:104E80006D04892B51F00E94730A8436910529F034
:104E900080912301833009F458C010926E0410925F
:104EA0006D0460E081E00E940C18C3010197F1F7E6
:104EB00061E080E00E940C180EE110E00E94BA0A46
:104EC00061E070E080E090E00E9416190150110945
:104ED000A9F760E080E00E940C18C3010197F1F788
:104EE00061E081E00E940C188BEF99EF0197F1F7D8
:104EF00060E081E00E940C180E947D0A029799F5FB
:104F000060E081E00E940C1888EE93E00E945A1E37
:104F10008BE193E00197F1F761E080E00E940C18CB
:104F20000EE110E00E94BA0A61E070E080E090E0DB
:104F30000E94161901501109A9F760E080E00E9453
:104F40000C188BE193E00197F1F780E00E94C60C0A
:104F50000E94B10A882391F080916D0490916E04B3
:104F6000892BB1F30BC0083E33E0130749F28BE104
:104F700093E00197F1F70F5F1F4FBECF0E945019CA
:104F800060936F0470937004809371049093720423
:104F90004ECE80E090E00E94B20B0E9450196093C8
:104FA00073047093740480937504909376045ECEBA
:104FB000CF93DF9310928B0410928A0488EE93E0D3
:104FC000A0E0B0E080938C0490938D04A0938E04B5
:104FD000B0938F048BE093E09093890480938804CE
:104FE00085EC90E0909395048093940484EC90E099
:104FF000909397048093960480EC90E090939904AA
:105000008093980481EC90E090939B0480939A04A1
:1050100082EC90E090939D0480939C0486EC90E059
:1050200090939F0480939E041092A1041092A20476
:105030001092A3041092A404109228051092270540
:105040008DE193E0909326058093250562E082E050
:105050000E94C31862E083E00E94C318E0E1F1E11E
:10506000E491F0E0EE0FFF1FEC5FFE4EA591B491CE
:10507000B0932106A0932006E2EFF0E184918093A3
:105080002406E1E1F1E1E491F0E0EE0FFF1FEC5FB7
:10509000FE4EC591D491D0932306C0932206E3EF30
:1050A000F0E1E491E093250610922706109228067D
:1050B0001092290610922A06EBE3FFE13197F1F7EF
:1050C000EC91E82381E009F480E0288190912506A5
:1050D000922309F0826020E236E080932606309326
:1050E0005A05209359058CE692E19093A60280938D
:1050F000A502809169008C7F816080936900E89AA5
:1051000081E080932B0630935C0520935B0586E657
:1051100092E19093A8028093A70280916900837F17
:10512000846080936900E99A82E080932B068091E5
:1051300058058C30A0F491E0980F90935805809317
:105140001D0690E0FC01EE0FFF1F8E0F9F1FFC015C
:10515000EC5CFA4F88EB9BE09283818303C08FEF76
:1051600080931D066BE373E089EC95E00E94D816EE
:1051700061E473E08FEC95E00E94D81665E473E07B
:1051800085ED95E00E94D8166EEC73E08BED95E00E
:105190000E94D81666ED73E081EE95E00E94D81665
:1051A0006EED73E087EE95E00E94D81665EE73E031
:1051B0008DEE95E00E94D8166CEE73E083EF95E0DB
:1051C0000E94D81664E773E089EF95E00E94D81634
:1051D0006DE773E08FEF95E00E94D81662E873E008
:1051E00085E096E00E94D81664EF73E08BE096E0CD
:1051F0000E94D8166FE873E081E196E00E94D8160D
:1052000065E973E087E196E00E94D8166BEF73E0E2
:1052100081EB95E00E94D8166DEF73E087EB95E087
:105220000E94D8166EE973E08DEB95E00E94D816C7
:1052300064E074E083EC95E00E94D8166FEF73E0B1
:1052400085EA95E00E94D81662E074E08BEA95E06A
:105250000E94D81666E074E08DE895E00E94D816AA
:105260006BEF73E083E995E00E94D8166DEF73E071
:1052700089E995E00E94D8166EE973E08FE995E020
:105280000E94D8166BE074E085E795E00E94D8167E
:1052900062E174E08BE795E00E94D81661E473E068
:1052A00081E895E00E94D81669E174E087E895E00E
:1052B0000E94D8166FE174E08DE595E00E94D81643
:1052C00064E274E083E695E00E94D81669E274E037
:1052D00089E695E00E94D8166EE274E08FE695E0CC
:1052E000DF91CF910C94D816CF93DF938FE695E0A2
:1052F0000E94D31689E695E00E94D31683E695E0D6
:105300000E94D3168DE595E00E94D31687E895E0BC
:105310000E94D31681E895E00E94D3168BE795E0B2
:105320000E94D31685E795E00E94D3168FE995E099
:105330000E94D31689E995E00E94D31683E995E08F
:105340000E94D3168DE895E00E94D3168BEA95E073
:105350000E94D31685EA95E00E94D31683EC95E06F
:105360000E94D3168DEB95E00E94D31687EB95E053
:105370000E94D31681EB95E00E94D316CDE1D6E0D2
:105380002697CE010E94D31685E0C93CD807C1F705
:10539000DF91CF9108950E940D2A08F481E00895CD
:1053A000E89409C097FB3EF49095809570956195BF
:1053B0007F4F8F4F9F4F9923A9F0F92F96E9BB2775
:1053C0009395F695879577956795B795F111F8CFF1
:1053D000FAF4BB0F11F460FF1BC06F5F7F4F8F4F5C
:1053E0009F4F16C0882311F096E911C0772321F052
:1053F0009EE8872F762F05C0662371F096E8862FEA
:1054000070E060E02AF09A95660F771F881FDAF740
:10541000880F9695879597F90895990F0008550F6D
:10542000AA0BE0E8FEEF16161706E807F907C0F02A
:1054300012161306E407F50798F0621B730B840B32
:10544000950B39F40A2661F0232B242B252B21F40C
:1054500008950A2609F4A140A6958FEF811D811DAC
:1054600008950E94442A0C94B52A0E94A72A38F075
:105470000E94AE2A20F0952311F00C949E2A0C94E1
:10548000A42A11240C94E92A0E94C62A70F3959F3D
:10549000C1F3950F50E0551F629FF001729FBB272B
:1054A000F00DB11D639FAA27F00DB11DAA1F649FC7
:1054B0006627B00DA11D661F829F2227B00DA11D7A
:1054C000621F739FB00DA11D621F839FA00D611D00
:1054D000221F749F3327A00D611D231F849F600D21
:1054E000211D822F762F6A2F11249F5750409AF04A
:1054F000F1F088234AF0EE0FFF1FBB1F661F771FD6
:10550000881F91505040A9F79E3F510580F00C94A0
:105510009E2A0C94E92A5F3FE4F3983ED4F38695E3
:1055200077956795B795F795E7959F5FC1F7FE2B40
:10553000880F911D9695879597F9089597F99F671C
:1055400080E870E060E008959FEF80EC089500240B
:105550000A941616170618060906089500240A94D8
:1055600012161306140605060895092E0394000C5E
:1055700011F4882352F0BB0F40F4BF2B11F460FFED
:1055800004C06F5F7F4F8F4F9F4F089557FD905816
:10559000440F551F59F05F3F71F04795880F97FBF7
:1055A000991F61F09F3F79F08795089512161306B1
:1055B0001406551FF2CF4695F1DF08C016161706E0
:1055C0001806991FF1CF8695710561050894089515
:1055D000E894BB2766277727CB0197F90895F999B7
:1055E000FECF92BD81BDF89A992780B50895262FE8
:1055F000F999FECF1FBA92BD81BD20BD0FB6F894B8
:10560000FA9AF99A0FBE01960895052E97FB1EF49B
:1056100000940E941C2B57FD07D00E946E2B07FCA4
:1056200003D04EF40C941C2B509540953095219549
:105630003F4F4F4F5F4F08959095809570956195BE
:105640007F4F8F4F9F4F08950E94902BA59F900DE5
:10565000B49F900DA49F800D911D11240895B7FF54
:105660000C94242B0E94242B821B930B08952F92C1
:105670003F924F925F926F927F928F929F92AF92E2
:10568000BF92CF92DF92EF92FF920F931F93CF932F
:10569000DF93CDB7DEB7CA1BDB0B0FB6F894DEBFC6
:1056A0000FBECDBF09942A88398848885F846E84EC
:1056B0007D848C849B84AA84B984C884DF80EE8036
:1056C000FD800C811B81AA81B981CE0FD11D0FB63F
:1056D000F894DEBF0FBECDBFED010895A1E21A2EF2
:1056E000AA1BBB1BFD010DC0AA1FBB1FEE1FFF1F86
:1056F000A217B307E407F50720F0A21BB30BE40BD6
:10570000F50B661F771F881F991F1A9469F760951C
:105710007095809590959B01AC01BD01CF010895D6
:10572000A29FB001B39FC001A39F700D811D1124E2
:10573000911DB29F700D811D1124911D0895505827
:10574000BB27AA270E94B72B0C94B52A0E94A72A30
:1057500038F00E94AE2A20F039F49F3F19F426F465
:105760000C94A42A0EF4E095E7FB0C949E2AE92FF2
:105770000E94C62A58F3BA17620773078407950771
:1057800020F079F4A6F50C94E82A0EF4E0950B2E9F
:10579000BA2FA02D0B01B90190010C01CA01A00183
:1057A0001124FF27591B99F0593F50F4503E68F1DE
:1057B0001A16F040A22F232F342F4427585FF3CF1F
:1057C000469537952795A795F0405395C9F77EF4F0
:1057D0001F16BA0B620B730B840BBAF09150A1F039
:1057E000FF0FBB1F661F771F881FC2F70EC0BA0FBF
:1057F000621F731F841F48F4879577956795B79547
:10580000F7959E3F08F0B0CF9395880F08F0992741
:10581000EE0F9795879508950E94BB2CE3950C9405
:10582000E42C0E94252C0C94B52A0E94AE2A58F034
:105830000E94A72A40F029F45F3F29F00C949E2A89
:1058400051110C94E92A0C94A42A0E94C62A68F3E8
:105850009923B1F3552391F3951B550BBB27AA2729
:1058600062177307840738F09F5F5F4F220F331F63
:10587000441FAA1FA9F335D00E2E3AF0E0E832D02B
:1058800091505040E695001CCAF72BD0FE2F29D02E
:10589000660F771F881FBB1F261737074807AB0700
:1058A000B0E809F0BB0B802DBF01FF2793585F4F75
:1058B0003AF09E3F510578F00C949E2A0C94E92A08
:1058C0005F3FE4F3983ED4F3869577956795B79557
:1058D000F7959F5FC9F7880F911D9695879597F962
:1058E0000895E1E0660F771F881FBB1F62177307DB
:1058F0008407BA0720F0621B730B840BBA0BEE1FF0
:1059000088F7E09508950E948A2C6894B1110C9450
:10591000E92A08950E94CE2A88F09F5798F0B92F5F
:105920009927B751B0F0E1F0660F771F881F991FD4
:105930001AF0BA95C9F714C0B13091F00E94E82A64
:10594000B1E008950C94E82A672F782F8827B85F74
:1059500039F0B93FCCF3869577956795B395D9F72C
:105960003EF490958095709561957F4F8F4F9F4F36
:1059700008950C94A42A0E94CE2AD8F3E894E0E07B
:10598000BB279F57F0F02AED3FE049EC06C0EE0F31
:10599000BB0F661F771F881F28F0B23A6207730794
:1059A000840728F0B25A620B730B840BE3959A9527
:1059B00072F7803830F49A95BB0F661F771F881FE7
:1059C000D2F790480C940C2DEF93E0FF07C0A2EAA9
:1059D0002AED3FE049EC5FEB0E94B72B0E94B52A0D
:1059E0000F90039401FC9058E4E8F0E00C94182D1B
:1059F0000E940D2A08F48FEF08959F930E94BB2CFC
:105A00000F9007FCEE5F0C94E42C0E940D2A880B8B
:105A1000990B08959F3F31F0915020F48795779529
:105A20006795B795880F911D9695879597F9089575
:105A30009F938F937F936F93FF93EF939B01AC01A1
:105A40000E94312AEF91FF910E942C2D2F913F91BE
:105A50004F915F910C94312ADF93CF931F930F9353
:105A6000FF92EF92DF927B018C01689406C0DA2EE0
:105A7000EF010E94442AFE01E894A59125913591F9
:105A800045915591A6F3EF010E94B72BFE019701B6
:105A9000A801DA9469F7DF90EF90FF900F911F91C2
:105AA000CF91DF910895991B79E004C0991F961753
:105AB00008F0961B881F7A95C9F780950895AA1B50
:105AC000BB1B51E107C0AA1FBB1FA617B70710F0E9
:105AD000A61BB70B881F991F5A95A9F7809590951B
