:100000000C9494080C94D51C0C94AE1C0C94BC0855
:100010000C94BC080C94BC080C94BC080C946F1B8A
:100020000C94BC080C94BC080C94BC080C94FC1CEC
:100030000C94BC080C94BC080C94BC080C94BC0830
:100040000C94641C0C94BC080C94B91A0C94931A6C
:100050000C94BC080C94BC080C94BC080C94BC0810
:100060000C94BC080C94BC08071022103C104C10D7
:1000700069108610A310C110D110E110F910001101
:1000800014112C11421105A84CCDB2D44EB93836FA
:10009000A9020C50B9918688083CA6AAAA2ABE00DB
:1000A0000000803F101030020020C0C0F0F03C3C47
:1000B000FFFFFFFF3C3CF0F0C0C0C0C0F0F03C3C94
:1000C000FFFFFFFF3C3CF0F0C0C0C3C33333CFCFD2
:1000D00033333333CFCF3333C3C33333CFCF0303C0
:1000E0000F0F0F0F0303CFCF333318103002003040
:1000F000F0F0FCFCFCFC3C3C3F3FFFFFFFFF3F3FC0
:100100003C3CFCFCFCFCF0F0F0F0FCFCFCFC3C3C5F
:100110003F3FFFFFFFFF3F3F3C3CFCFCFCFCF0F09F
:10012000C3C3C3C333333F3F0F0F333333330F0FD7
:100130003F3F3333C3C3C3C303033333FFFFCFCFC7
:100140000F0F333333330F0FCFCFFFFF333303039F
:1001500016103002002CFCFCC0C0F3F33C3CF0F065
:10016000F0F0F0F03C3CF3F3C0C0FCFC0000C0C079
:10017000F3F33C3CF0F0F0F0F0F03C3CF3F3C0C0A3
:1001800000000303CFCF3F3F0F0F0F0F0F0F0F0FD5
:100190000F0F3F3FCFCF03033F3F03033F3FCFCF7F
:1001A000CFCF0F0FCFCFCFCF3F3F03033F3F0C3019
:1001B000300B012000C0F87C3E3EFCF8C00000007F
:1001C000000080E078FEFE000000000000F07C3CB3
:1001D0003E3EFEFCE0000000007C3E3E3EFEF8C0DD
:1001E000000000000000000000F8FEFE000000001B
:1001F00000FEFE3E3E3E3E3E00000000000080F05D
:10020000FC3E3E3EFC000000003E3E3E3E3E3E3E8A
:10021000FEFE00000000C0F8FE3E7EFCE000000094
:100220000000E0FC7E3EFEF8C00000000000000080
:10023000C0E0C00000000000F0FF0F000000F9FF68
:10024000FFF000000000070300FFFF0000000000B7
:1002500000010000000000FFFF000000000000009F
:100260000000FFFF00000000000000E0FF1FFFFF94
:100270000000000000FFFF00000000000000000080
:1002800000E0FF3F00000000000000000000000050
:100290000000C0FC7F0300000000FFFF000000FF23
:1002A000FF00000000FEFF03000000FFFFF0000061
:1002B000000000003F7F3F0000000000FFFF000043
:1002C000E0FF1F00FFFF00000000000000FFFF0034
:1002D000000000000000000000E0FE1F0100000020
:1002E0000000F8F8FCFFC7000000000000C0FE3F5F
:1002F0000300FFFF00000000003F3F3E7EFCF8E0EF
:100300000000000000FFFF80F07C7CF8F00000009F
:100310000000000080F8FF07000000000000019FBF
:10032000FFF8FE1F0100000000FFFFC0000080FF7B
:10033000FFFF0000000000000000000000000000BF
:10034000FFFFC0FC7F030000FFFF00000000000073
:1003500000FFFF0000000000000000E0FE0F0100B1
:10036000000000000000000000010FFFF800000086
:10037000F8FFE7E0E0E0FFFFE0E0E0000000000061
:10038000000007FFFE00000000FFFFFF0300000168
:10039000FFFF0000000000F0FF0F00000000000061
:1003A00000C0FC3F03031FFFFCC0000000000F1F44
:1003B0003E3E0F01FFFF0000000000000080000033
:1003C0000000000007FFFF07000000FCFF0700001F
:1003D0000000000000FFFF000000000000E0FE0F32
:1003E0000000000000000000000000000000C0FF4E
:1003F0007F000000030303030303FFFF0303030065
:10040000000000000000C0FF7F000000000FFFFFA1
:1004100080000080FF7F00000000FEFF030000005E
:100420000000000000FFFF8000000080FFFF0000D0
:1004300000000000000080FCFF070000000000003A
:10044000FFFFFF000000000000031F3F7C7C3F1FF8
:100450000300000000007C7C7C7F7F7C7C7C0000B3
:10046000007F7F7C7C7C7C7C7C000000003F7E7C6D
:100470007C7E1F07000000000000000000007F7F5E
:1004800000000000001F3E7C7C3E1F0700000000B3
:100490000000031F7F7C7C3F0700000000007F7F7F
:1004A000000000000000000000011F3F7E7C7E3F36
:1004B0001F01000000003E7C7C7E3F0F0100000019
:1004C0000000000000010000000000000A102E0CD7
:1004D0000114000000000000000000000000000007
:1004E00000000000000078FC020303030302FC7814
:1004F0000000000000000000FF7E000002838383F4
:100500008302FC780000028383838302FC787EFFF1
:10051000008080808000FF7E78FC028383838302DA
:10052000000078FC0283838383020000000203033F
:1005300003030302FC7878FC028383838302FC7844
:1005400078FC028383838302FC7800000060F0F073
:1005500060000000000000000000000000001E3FDE
:1005600040C0C0C0C0403F1E0000000000000000AE
:10057000FF7E1C3E41C1C1C1C1410000000041C11C
:10058000C1C1C1413E1C0000010101010101FF7E0A
:10059000000041C1C1C1C1413E1C1C3E41C1C1C19D
:1005A000C1413E1C0000000000000000FF7E1C3E18
:1005B00041C1C1C1C1413E1C000041C1C1C1C141D5
:1005C0003E1C0810206002380000000000000000FF
:1005D000000000FE0000000000000E000E00000001
:1005E00000D0BE90D0BE9000001C62FFC280000010
:1005F0000C12924CB0880600807C62B21CC00000D5
:1006000000000E0E0000000000E0180402020000CE
:100610000002020418E000000024187E18240000E4
:10062000808080F0808080000000000000000000DA
:1006300000808080800000000000000000000000BA
:100640000000806018060000F804C2320CF80000B8
:10065000000404FE0000000000028242221C000090
:100660000002222222DC0000C0A09884FE808000CC
:10067000001E121222C20000F844222222C00000F2
:10068000000202C2320A0600008C5222528C000084
:100690003C42424226F800000000303000000000DA
:1006A000000030300000000080804040202010001A
:1006B00040404040404000001020204040808000EA
:1006C00000028242221C0000000000000000000026
:1006D0000000000500000000000000000000000015
:1006E00000070000070000000004040F04030000DE
:1006F00004020103040403000304040405030400CA
:1007000000000000000000000003060810100000B8
:1007100000101008060300000000000000000000A8
:1007200000000007000000000000160E000000009E
:1007300000000000000000000000060600000000AD
:100740000402010000000000010304040201000093
:10075000000404070404000000070404040400006B
:10076000000404040403000000000000070000006F
:100770000004040404030000010204040403000054
:100780000000070000000000000304040403000050
:10079000000404040201000000000606000000003E
:1007A0000000160E0000000000000101020204001B
:1007B0000101010101010000040202010100000029
:1007C0000000050000000000F804728AFA84780036
:1007D00000C0380638C0000000FE222222DC0000E3
:1007E000F804020202020000FE02020204F8000005
:1007F00000FE22222222000000FE222222220000ED
:10080000F804020222E20000FE20202020FE000068
:10081000000202FE020200000000000202FE0000D0
:10082000FE40B0080402000000FE000000000000CE
:10083000FE0C7080700CFE00FE0C30C000FE00004C
:10084000F804020204F80000FE424242221C0000AA
:10085000F804020204F8000000FE4242A21C00005C
:10086000001C224242800000020202FE020202003C
:10087000FE00000000FE00000638C000C038060080
:100880003EC0F00EF0C03E000006986098060000E2
:10089000000618E0180600000202C2320A06000034
:1008A0000000FE0202020200000618608000000044
:1008B00002020202FE00000040300C0C304000003A
:1008C0000000000000000000010204040400000019
:1008D00006010101010106000007040404030000F1
:1008E00001020404040400000704040402010000DF
:1008F00000070404040400000007000000000000DA
:1009000001020404040700000700000000070000C3
:1009100000040407040400000004040404030000AD
:1009200007000001020400000007040404040000A2
:100930000700000100000700070000000307000097
:100940000102040402010000070000000000000092
:100950000102040C12111000000700000106000043
:10096000000404040403000000000007000000006D
:100970000304040404030000000001060100000059
:10098000000700000007000000060100010600004B
:100990000000000700000000060504040404000035
:1009A00000001F10101010000000000001020400E1
:1009B000101010101F0000000000000000000000D8
:1009C00008080808080800000000020400000000F1
:1009D00000E0101010F0000000FE201010E00000F9
:1009E00000E010101010000000E0101010FE0000D9
:1009F00000E0909090E000000020FC222222020003
:100A000000E0101010F0000000FE201010E00000C8
:100A10001010F2000000000000101010F2000000A2
:100A200000FE804020100000000202FE00000000D6
:100A3000F02010F02010F00000F0201010E0000076
:100A400000E0101010E0000000F0201010E00000A6
:100A500000E0101010F0000000F0201010700000F6
:100A60000060909090200000002020FC20202000BA
:100A700000F0000000F000000070800080700000B6
:100A8000F000C030C000F0000030C0C030000000F6
:100A90000030C00080700000001010905030000046
:100AA0000080807E02020000000000FE00000000C6
:100AB0000002027E80800000008080000000800034
:100AC0000000000000000000000000000000000026
:100AD00000030404020700000007040404030000EC
:100AE00000030404040400000003040402070000DF
:100AF00000030404040400000000070000000000DC
:100B000000332424221F000000070000000700001B
:100B10000000070404000000202020201F00000027
:100B200000070001020400000000000704040000A8
:100B30000700000700000700000700000007000092
:100B40000003040404030000003F04040403000045
:100B500000030404023F0000000700000000000042
:100B60000002040404030000000000030404040065
:100B70000003040402070000000003040300000057
:100B80000106010001060100000601010600000047
:100B90002020310E030000000006050404040000BC
:100BA0000000001F101000000000000700000000FF
:100BB0000010101F000000000100000101010000F2
:100BC0000000000000000000050800FF0C4B0000C2
:100BD0000000003E5B4F5B3E3E6B4F6B3E1C3E7C1D
:100BE0003E1C183C7E3C181C577D571C1C5E7F5ECB
:100BF0001C00183C1800FFE7C3E7FF00182418008A
:100C0000FFE7DBE7FF30483A060E26297929264020
:100C10007F050507407F05253F5A3CE73C5A7F3E4C
:100C20001C1C08081C1C3E7F14227F22145F5F00DE
:100C30005F5F06097F017F006689956A606060607A
:100C40006094A2FFA29408047E040810207E201065
:100C500008082A1C08081C2A08081E101010100C6E
:100C60001E0C1E0C30383E3830060E3E0E060000BC
:100C700000000000005F00000007000700147F1460
:100C80007F14242A7F2A12231308646236495620CF
:100C9000500008070300001C2241000041221C00F4
:100CA0002A1C7F1C2A08083E0808008070300008B3
:100CB00008080808000060600020100804023E5187
:100CC00049453E00427F4000724949494621414919
:100CD0004D331814127F1027454545393C4A494980
:100CE0003141211109073649494936464949291EEA
:100CF00000001400000040340000000814224114D9
:100D000014141414004122140802015909063E412A
:100D10005D594E7C1211127C7F494949363E414152
:100D200041227F4141413E7F494949417F090909AB
:100D3000013E414151737F0808087F00417F410017
:100D40002040413F017F081422417F404040407FC6
:100D5000021C027F7F0408107F3E4141413E7F0913
:100D60000909063E4151215E7F0919294626494954
:100D7000493203017F01033F4040403F1F20402094
:100D80001F3F4038403F6314081463030478040392
:100D90006159494D43007F41414102040810200040
:100DA0004141417F040201020440404040400003B1
:100DB00007080020545478407F284444383844447D
:100DC0004428384444287F385454541800087E0975
:100DD0000218A4A49C787F0804047800447D400095
:100DE0002040403D007F1028440000417F40007CAF
:100DF000047804787C080404783844444438FC18A7
:100E000024241818242418FC7C080404084854548A
:100E1000542404043F44243C4040207C1C204020B7
:100E20001C3C4030403C44281028444C9090907C1E
:100E30004464544C44000836410000007700000030
:100E40004136080002010204023C2623263C1EA172
:100E5000A161123A4040207A3854545559215555D1
:100E60007941215454784121555478402054557982
:100E7000400C1E5272123955555559395454545913
:100E800039555454580000457C410002457D4200CC
:100E900001457C40F0292429F0F0282528F07C54D5
:100EA0005545002054547C547C0A097F49324949F5
:100EB00049323248484832324A4848303A41412162
:100EC0007A3A42402078009DA0A07D3944444439BC
:100ED0003D4040403D3C24FF2424487E4943662B4E
:100EE0002FFC2F2BFF0929F620C0887E09032054F0
:100EF0005479410000447D413048484A32384040EE
:100F0000227A007A0A0A727D0D19317D2629292F4D
:100F100028262929292630484D4020380808080865
:100F200008080808382F10C8ACBA2F102834FA0067
:100F3000007B000008142A142222142A1408AA0094
:100F40005500AAAA55AA55AA000000FF00101010CB
:100F5000FF00141414FF001010FF00FF1010F01019
:100F6000F0141414FC001414F700FF0000FF00FF3D
:100F70001414F404FC141417101F10101F101F1465
:100F800014141F00101010F0000000001F101010AB
:100F9000101F10101010F010000000FF10101010A3
:100FA0001010101010FF10000000FF140000FF00D0
:100FB000FF00001F10170000FC04F4141417101792
:100FC0001414F404F40000FF00F71414141414149F
:100FD00014F700F7141414171410101F101F141412
:100FE00014F4141010F010F000001F101F00000087
:100FF0001F14000000FC140000F010F01010FF108F
:10100000FF141414FF141010101F00000000F01043
:10101000FFFFFFFFFFF0F0F0F0F0FFFFFF00000028
:101020000000FFFF0F0F0F0F0F38444438447C2A95
:101030002A3E147E02020606027E027E02635549A3
:1010400041633844443C04407E201E2006027E0258
:101050000299A5E7A5991C2A492A1C4C7201724CD9
:10106000304A4D4D303048784830BC625A463D3E9B
:10107000494949007E0101017E2A2A2A2A2A44443C
:101080005F444440514A444040444A51400000FFBC
:101090000103E080FF000008086B6B08361236245D
:1010A00036060F090F060000181800000010100087
:1010B0003040FF0101001F01011E00191D17120021
:1010C0003C3C3C3C000000000000000000250028E3
:1010D000002B0002010204081020408001020408D5
:1010E0001020010204081020000000002300260048
:1010F000290004040404040404040202020202029B
:1011000003030303030300000000240027002A0058
:1011100000000008000201000003040700000000B6
:10112000000000006D29172311241FBECFEFD8E067
:10113000DEBFCDBF14E0A0E0B1E0EAECF1E602C012
:1011400005900D92A035B107D9F726E0A0E5B4E0EF
:1011500001C01D92A736B207E1F718E0C3E9D8E055
:1011600004C02197FE010E94B72EC239D107C9F7EA
:101170000E946E230C94D8300C9400008F929F92A2
:10118000AF92BF92CF92DF92EF92FF920F931F9395
:10119000CF93DF93EC015B0149018091850490912D
:1011A0008604FC01558344830E94611E809185045E
:1011B00090918604FC01978286820E94611E809134
:1011C0001F01882341F080918504909186040E943C
:1011D000CE1E10921F011092490584E080934A05AB
:1011E000C5010E94E3160E94D71280905E04909081
:1011F0005F04A0906004B0906104DC01CB01880D15
:10120000991DAA1DBB1D80935E0490935F04A0935B
:101210006004B0936104F894109246061092470659
:101220001092480610924906789460915E0470917D
:101230005F0480916004909161049601DD0C440B81
:10124000550B4B015C0197FF07C08824992454017A
:10125000861A970AA80AB90A82169306A406B50642
:10126000CCF00E94492C88819981280F391F2017C2
:1012700031072CF0E216F3061CF4970101C0980127
:101280003983288310925E0410925F0410926004E8
:10129000109261048EE18093490588E280934A05AB
:1012A000688179818EE395E00E945A17888199813F
:1012B0000A9734F467E274E08EE395E00E94911A95
:1012C000888199818436910534F467E274E08EE375
:1012D00095E00E94911A68817981809185049091AE
:1012E00086040E94E71EDF91CF911F910F91FF901E
:1012F000EF90DF90CF90BF90AF909F908F900C9425
:101300005F154F925F926F927F92AF92BF92CF9292
:10131000DF92EF92FF920F931F93CF93DF936C01B5
:101320008B015A01E9010E94D71240905E0450904F
:101330005F046090600470906104DC01CB01840D57
:10134000951DA61DB71D80935E0490935F04A09326
:101350006004B0936104F894109246061092470618
:101360001092480610924906789460915E0470913C
:101370005F0480916004909161042B013C0197FF10
:1013800007C0442455243201461A570A680A790ACC
:1013900024E04216510461047104FCF0F601F0806F
:1013A000F11002C097FD11C024E030E040E050E0B1
:1013B0000E94492C9F2D920F292F30E02C173D07BA
:1013C00014F09C2F9150F601908310925E041092BD
:1013D0005F041092600410926104109249058EE03F
:1013E00080934A05C8010E94E31681E00E94D1154E
:1013F000F601908180914505F50126E0929FE00D70
:10140000F11D1124248135812F5F3F4F90914405B8
:10141000929FA001939F500D1124C8E3D0E0C41BFC
:10142000D50BC230D1054CF0D595C7952197CD315C
:10143000D1052CF0CCE1D0E002C0C0E0D0E010E05B
:1014400094E3F92EF80EE12C00E02F2D412F6AE1F4
:10145000812F0E94EC161F5F1733A9F7C09349052F
:101460008AE180934A05F6018081950146E0849FD8
:10147000200D311D1124C9010E94E3160E945F1541
:1014800010921F0180E0DF91CF911F910F91FF908B
:10149000EF90DF90CF90BF90AF907F906F905F9074
:1014A0004F900C94D1154CE850E060E070E080E67D
:1014B00099E00E94EC1268EC70E080E090E00E94FD
:1014C0001E1C4CE850E060E070E080EA9FE00E9463
:1014D000EC1268EC70E080E090E00E941E1C4CE88A
:1014E00050E060E070E080E699E00E94EC1268EC69
:1014F00070E080E090E00E941E1C4CE850E060E04C
:1015000070E080EA9FE00C94EC12809159048330E3
:1015100018F490E00196089584E690E008958FE035
:101520000E94071C803921E0920734F084389340F0
:1015300034F082E090E0089580E090E0089581E04A
:1015400090E0089582E10E94071C803921E0920713
:1015500074F08C3B22E092076CF0803223E092071B
:1015600064F08438934064F081E090E0089580E076
:1015700090E0089584E090E0089583E090E008957D
:1015800082E090E008958EE00E94EB1A21E0892B22
:1015900009F020E0822F0895CF92DF92EF92FF9220
:1015A0000F931F93CF93DF93C0911801D09119012E
:1015B0008091280190912901893E93400CF46CC0E0
:1015C000209719F488EE93E063C08091870490918E
:1015D0008804A0918904B0918A040097A105B105FF
:1015E000E1F0C0908B04D0908C04E0908D04F090DA
:1015F0008E040E94581C0091870410918804209149
:10160000890430918A04C01AD10AE20AF30ADC0183
:10161000CB018C0D9D1DAE1DBF1D80938B0490933F
:101620008C04A0938D04B0938E040E94581C609388
:101630008704709388048093890490938A0460914E
:101640008B0470918C0480918D0490918E042AE01B
:1016500030E040E050E00E94B22C60938B04709325
:101660008C0480938D0490938E0480E190E08C1B19
:101670009D0B880F991F829FB001839F700D929FD1
:10168000700D11248091280190912901861B970BE0
:10169000909329018093280180912801909129013C
:1016A000DF91CF911F910F91FF90EF90DF90CF903E
:1016B0000C94991580912A01833001F580918F0453
:1016C000811104C00E94C30A882349F080918F04CD
:1016D0008823A1F00E94C30A811105C0089581E00A
:1016E00080938F04F3CF80919004909191040196A0
:1016F000909391048093900410928F0408958F9298
:101700009F92AF92BF92EF92FF920F931F93CF934E
:10171000DF937C0184E68E9D80018F9D100D112446
:10172000C0E0D1E000501140C8018C0F9D1F0E9405
:10173000332C899381E0C831D807B1F7809000013C
:1017400090900101A0900201B090030120E030E0F0
:1017500040E85FEBC501B4010E940F2B882351F0D4
:101760002AE037ED43E85FE3C501B4010E940F2B87
:101770008823F9F088E1E6EBF2E0A0E0B1E0019027
:101780000D928A95E1F742E350E060E070E088EE68
:1017900093E00E94EC1264E670E080E090E00E942A
:1017A0001E1C42E350E060E070E088EE93E00E948F
:1017B000EC12809104019091050190932101809396
:1017C0002001809106019091070190932701809359
:1017D000260120910801222329F0253028F024E059
:1017E00030E002C021E030E0215020935904809184
:1017F000090190910A019093230180932201809125
:101800000B0190910C01909325018093240180910C
:101810000D0190910E0190935B0480935A04809186
:101820000F019091100190931C0180931B018091F6
:1018300013019091140190931E0180931D018091DA
:1018400016019091170190931901809318018091CE
:10185000120180932A01EF2851F49091150181E043
:101860008927809357048091110180931A01DF9199
:10187000CF911F910F91FF90EF90BF90AF909F90ED
:101880008F9008950E947F0B42E350E060E070E08B
:1018900080EA9FE00E94EC1264E670E080E090E055
:1018A0000E941E1C44E650E060E070E080EA9FE089
:1018B0000C94EC122F923F924F925F926F927F9214
:1018C0008F929F92AF92BF92CF92DF92EF92FF9250
:1018D0000F931F93CF93DF931F92CDB7DEB71C01F9
:1018E0002AE037ED43E85FE3609100017091010168
:1018F00080910201909103010E940F2B80902001A2
:1019000090902101A0902601B0902701C090220163
:10191000D0902301E0902401F090250100915A0419
:1019200010915B0460901B0170901C0140901801A5
:1019300050901901811161C08091040190910501BD
:101940008815990509F059C0809106019091070109
:101950008A159B0509F051C00E94850A2091080153
:1019600030E02817390709F048C0809109019091AB
:101970000A018C159D0509F040C080910B019091E2
:101980000C018E159F05C9F580910D0190910E01F6
:101990008017910791F580910F01909110018615A4
:1019A000970559F59091110180911A01981325C05E
:1019B0009091120180912A0198131FC02091130168
:1019C0003091140180911D0190911E012817390753
:1019D000A1F481E090915704911180E0909115015C
:1019E00098130BC01214130444F0809116019091C7
:1019F00017018415950509F463C00E94850AF091CA
:101A00001A01E0912A0120911D0130911E0191E0FF
:101A100060915704611190E04AE057ED63E87FE37D
:101A20004093000150930101609302017093030100
:101A30009092050180920401B0920701A0920601E4
:101A400080930801D0920A01C0920901F0920C0122
:101A5000E0920B0110930E0100930D0170921001A2
:101A600060920F01F0931101E09312013093140181
:101A70002093130190931501509217014092160183
:101A800084E6829D8001839D100D112480E0C82E84
:101A900081E0D82E7801F8E1EF0EF11CF60161919A
:101AA0006F01C80169830E94332C6981681719F09E
:101AB000C8010E943B2C0F5F1F4F0E151F0571F7C9
:101AC0000F90DF91CF911F910F91FF90EF90DF90DA
:101AD000CF90BF90AF909F908F907F906F905F90CE
:101AE0004F903F902F9008954F925F926F927F9208
:101AF0008F929F92AF92BF92CF92DF92EF92FF921E
:101B00000F931F93CF93DF9300D000D000D0CDB7B9
:101B1000DEB7B82EA0911D01B0911E012FEF30E06D
:101B20000E94C52E24E630E040E050E00E94492C9F
:101B3000622F81E80E944A1580916204882371F027
:101B400082E28093490510924A056EE273E08EE3CB
:101B500095E00E94911A80E00E94D11580911F01AA
:101B6000882331F080918304909184040E94CE1EDA
:101B70000E94581C00916704109168042091690428
:101B800030916A04045D1E4F2F4F3F4F0617170711
:101B90002807390708F075C081E10E94071CBC01C5
:101BA000990F880B990B0E94162B2AE037ED43EA18
:101BB00050E40E94752B20E030E040E85AE30E9498
:101BC000752B2CE83EE24AEB5DE30E94552D20E0A8
:101BD00030E040E251E40E94752B0E94C72D072E91
:101BE000000C880B990B0E94162B20E030E040E29D
:101BF00051E40E94552D2B013C01E0905404F090DB
:101C000055048701000F111F000F111F05591B4FAD
:101C1000D8012D913D914D915C916091630470913B
:101C2000640480916504909166040E94E32CF8019D
:101C30004082518262827382A30192010E94E42C4D
:101C400060936304709364048093650490936604C6
:101C5000FFEFEF1AFF0AF0925504E092540426E0D9
:101C6000E216F10424F010925504109254040E94DC
:101C7000581C609367047093680480936904909380
:101C80006A0420E030E040EC50E46091630470911D
:101C9000640480916504909166040E94552D6B0147
:101CA0007C0120E030E040E251E40E94752B0E946C
:101CB000C72D80918304909184040E94E71EBB206D
:101CC00009F4B4C020E030E040E351E4C701B601BC
:101CD0000E940F2B87FF29C08090500490905104E0
:101CE000A0905204B090530438EB830E3BE0931E57
:101CF000A11CB11C0E94581C86169706A806B9069E
:101D0000A0F460E081E00E94141B88EE93E00E9442
:101D100099150E94ED220E94581C60935004709304
:101D20005104809352049093530426E636E64EE223
:101D300051E4C701B6010E940F2B87FF29C0809094
:101D4000500490905104A0905204B09053044CED74
:101D5000840E45E0941EA11CB11C0E94581C8616DE
:101D60009706A806B906A0F460E081E00E94141B63
:101D700088EE93E00E9499150E94ED220E94581C63
:101D800060935004709351048093520490935304D1
:101D90002DEC3CEC4CE251E4C701B6010E940F2B44
:101DA00087FF29C08090500490905104A090520465
:101DB000B090530458EE850E53E0951EA11CB11C43
:101DC0000E94581C86169706A806B906A0F460E083
:101DD00081E00E94141B88EE93E00E9499150E94F6
:101DE000530A0E94581C60935004709351048093CE
:101DF00052049093530423E333E34BE251E4C701CD
:101E0000B6010E940F2B87FF11C060E081E00E94A5
:101E1000141B88EE93E00E9499150E94530A68EC07
:101E200070E080E090E00E941E1CEFCF8091620481
:101E300081111AC089E28093490510924A0520E079
:101E400030E040E251E4C701B6010E940F2B87FF4A
:101E500006C064E373E08EE395E00E94911A41E0CE
:101E6000C701B6010E94051688E38093490587E201
:101E700080934A0566E373E08EE395E00E94911A31
:101E800080915D04882309F4B5C00E94D7120091A7
:101E90005E0410915F042091600430916104DC01C4
:101EA000CB01800F911FA21FB31F80935E049093FC
:101EB0005F04A0936004B0936104F8941092460606
:101EC0001092470610924806109249067894609145
:101ED0005E0470915F0480916004909161048B01B5
:101EE0009C0197FF07C0002711279801061B170BBD
:101EF000280B390B083011052105310554F11091DB
:101F00005C04111102C097FD10C028E030E040E0F1
:101F100050E00E94492C210F2F3008F02EE0209332
:101F20005C04109291041092900410925E0410923E
:101F30005F04109260041092610480915704811133
:101F400008C04AE050E060E070E080ED97E00E9459
:101F5000EC121092490510924A056CE673E08EE38C
:101F600095E00E94911AA0905C04A6E0AA9EC00190
:101F70001124FC01EE51FA4F5F0180914505248147
:101F800035812F5F3F4F90914405929FA001939F11
:101F9000500D112428E330E06901C41AD50AF2E09B
:101FA000CF16D1046CF0D594C79421E0C21AD108A1
:101FB0003DE1C316D10434F02CE1C22ED12C02C075
:101FC000C12CD12C10E094E3F92EF80EE12C00E0A6
:101FD0002F2D412F6AE1812F0E94EC161F5F1733CE
:101FE000A9F7C09249058AE180934A05C5010E947C
:101FF000E31670C1E0915C048E2F90E08F30910564
:1020000008F06FC1FC01EC5CFF4F0C94B72EE09020
:102010001B01F0901C0100915A0410915B0468E3CD
:1020200073E0CE0101960E94E019CC24C394D12C18
:1020300024E630E040E050E0BE016F5F7F4F80E279
:1020400091E017C06EE373E0CE0101960E94E019A3
:10205000CC24C394D12C14E6E12EF12C00E010E046
:1020600024E630E040E050E0BE016F5F7F4F86E243
:1020700091E00E94BE0801C162E473E0CE010196C6
:102080000E94E01924E030E04AEC55E0BE016F5FA9
:102090007F4F89E594E0EFC080916204811121C1F6
:1020A00068E473E0CE0101960E94E019CC24C39449
:1020B000D12CA4EFEA2EFF24F39404EB10E024EFDC
:1020C00031E046E950E0BE016F5F7F4F82E291E070
:1020D000D0CF80916204811104C160E573E0CE012C
:1020E00001960E94E019CC24C394D12CE4EFEE2E8B
:1020F000FF24F39404EB10E024EF31E046E950E0D4
:10210000BE016F5F7F4F84E291E0B3CF80916204A4
:102110008111E7C0E0901B01F0901C0168E573E0BD
:10212000CE0101960E94E019CC24C394D12C00E08A
:1021300010E024E630E040E050E0BE016F5F7F4FEA
:102140008AE594E096CF809162048111CAC0009123
:102150005A0410915B0460E673E0CE0101960E9480
:10216000E019CC24C394D12C54E6E52EF12C24E6BE
:1021700030E040E050E0BE016F5F7F4F8BE191E0C7
:1021800078CF68E673E0CE0101960E94E01924E062
:1021900030E04EE855E0BE016F5F7F4F8AE191E08D
:1021A0006AC061E773E0CE0101960E94E01924E065
:1021B00030E046E755E0BE016F5F7F4F8AE291E075
:1021C0005AC06AE773E0CE0101960E94E01928E048
:1021D000C22ED12C3FE0E32EF12C00E010E02FE0E6
:1021E00030E040E050E0BE016F5F7F4F88E191E05A
:1021F00040CF80916204811174C064E873E006C02E
:102200008091620481116DC069E873E0CE0101968E
:102210000E94E01924E030E046EA55E0BE016F5F1D
:102220007F4F88E594E027C06EE873E0CE01019609
:102230000E94E019CC24C394D12C94E6E92EF12C11
:1022400000E010E024E630E040E050E0BE016F5FC7
:102250007F4F8DE191E00DCF66E973E0CE010196ED
:102260000E94E01922E030E04EEB55E0BE016F5FC6
:102270007F4F87E594E00E948109CE0101960E947C
:10228000DB192FC0109249058EE080934A056CE956
:1022900073E08EE395E00E94911A109249058AE15D
:1022A00080934A0561EA73E08EE395E00E94911AFB
:1022B0001092490586E280934A0567EA73E08EE34F
:1022C00095E00E94911A42E06AE077ED83E89FE38F
:1022D0000E9405160E945F1510921F0180E00E9467
:1022E000D1150E94A20A8C01892B09F4F9C00E9421
:1022F000A20A20915604049709F064C021115EC01F
:1023000080915D0481112DC080915C048A3041F47C
:1023100080915804882329F190E00E94420C1FC04C
:102320008B30F9F4809158048823D9F090E00E9412
:102330005A0C42E350E060E070E080ED97E00E94CC
:10234000EC1264E670E080E090E00E941E1C44E61F
:1023500050E060E070E080ED97E00E94EC12109297
:10236000580490915D0481E0892780935D048091F9
:102370006204882361F080915C049DEF980F943093
:1023800018F08A50823018F481E080935D0480E870
:1023900091E0EBE2F1E0DF019C011D922150304021
:1023A000E1F781E080931F01F894109246061092A5
:1023B00047061092480610924906789481E080936F
:1023C000560490C021118EC04AE050E060E070E0F9
:1023D0008CED95E00E94EC1260EA70E080E090E005
:1023E0000E941E1C0E94A20A6C018017910709F02E
:1023F00079C080911A01811107C080916204811116
:1024000003C0C6010E94420C80911A018130E1F4A0
:1024100080916204811118C021E030E02C193D093F
:102420004EE1429FC001439F900D11248C599F4F54
:10243000909321018093200144E650E060E070E039
:1024400080ED97E00E94EC1280911A018230C1F475
:1024500021E030E02C193D0949E1429FC001439F32
:10246000900D11248C599F4F909327018093260142
:1024700044E650E060E070E080ED97E00E94EC12EE
:1024800080911A01833091F433E0C316D10419F41A
:102490008093590403C0CA94C092590444E650E0A2
:1024A00060E070E080ED97E00E94EC1281E08093A4
:1024B000560420E831E0EBE2F1E0DF01A9011D92D2
:1024C00041505040E1F780931F01F8941092460666
:1024D000109247061092480610924906789402C05E
:1024E0001092560426960FB6F894DEBF0FBECDBFED
:1024F000DF91CF911F910F91FF90EF90DF90CF90E0
:10250000BF90AF909F908F907F906F905F904F9013
:102510000895DC01ED91FD918081ED91FD91908117
:10252000ED91FD916C9163708E2309F064609F239F
:1025300009F06860E6EAF2E1E60FF11D6595659540
:102540006D936D917D918D919D91099423C01AC0D9
:1025500012C016C010C01EC009C014C013C006C0EF
:1025600019C009C00DC007C00DC014C06250704032
:10257000804090400BC0615070408040904006C049
:102580006E5F01C06F5F7F4F8F4F9F4F9E938E9303
:102590007E936E93089580917405909175050C94C7
:1025A000891280917205909173050C948912809123
:1025B0004A06823030F4F8948FE396E00E94891244
:1025C00001C0F894609146067091470680914806D4
:1025D00090914906789408953F924F925F926F923E
:1025E0007F928F929F92AF92BF92CF92DF92EF92A3
:1025F000FF920F931F93CF93DF9300D000D0CDB7FE
:10260000DEB72091AB02263021F02F3F09F02CC21B
:1026100004C0E3EDF0E1349076C026E02093AB02F5
:10262000E3EDF0E1E491EF3F09F41EC2E13011F176
:10263000E23009F443C0E11165C014BC15BC24B5F7
:10264000226024BD25B5216025BDE8EFF0E1E491CD
:10265000F0E0EE0FFF1FE753FF4E259134913093CA
:10266000500620934F06EAEDF0E1E491E0934E0628
:10267000312C4BC01092800010928100209181007B
:1026800028602093810020918100216020938100A7
:10269000E8EFF0E1E491F0E0EE0FFF1FE753FF4EAB
:1026A0002591349130934D0620934C06EAEDF0E1EC
:1026B000E491E0934B063324339427C01092B0008A
:1026C0001092B1002091B00022602093B0002091C0
:1026D000B10021602093B100E8EFF0E1E491F0E077
:1026E000EE0FFF1FE753FF4E2591349130939C046A
:1026F00020939B04EAEDF0E1E491E0939A04B2E0C8
:102700003B2E03C03E2E37FCAFC12A013B018C019A
:1027100061E086E00E94CB1B4801A12CB12C832DE7
:102720008D7F09F0BBC060E072E18AE790E0A5010F
:1027300094010E94492C29833A834B835C8369016D
:102740007A0121E0C21AD108E108F1088FEFC8161A
:10275000D104E104F10409F008F44CC060E472E42F
:102760008FE090E0A50194010E94492C69017A0153
:10277000E1E0CE1AD108E108F108F2E03F1220C0F2
:102780002FEFC216D104E104F10409F008F46AC184
:1027900060E970ED83E090E0A50194010E94492C6E
:1027A00069017A0181E0C81AD108E108F108EFEF68
:1027B000CE16D104E104F10409F0D0F583E067C03E
:1027C000FFEFCF16D104E104F104B1F0A8F068E402
:1027D00078EE81E090E0A50194010E94492C690106
:1027E0007A0181E0C81AD108E108F108332009F420
:1027F000DFC02FC181E001C082E03320A1F047C0DB
:1028000089819A81AB81BC812AE0B595A79597957E
:1028100087952A95D1F76C017D0121E0C21AD10874
:10282000E108F10885E095B5987F892B85BD6FC0DB
:1028300068E478EE81E090E0A50194010E94492CC3
:1028400069017A01F1E0CF1AD108E108F1082FEF10
:10285000C216D104E104F10409F008F4A7C064E24F
:1028600074EF80E090E0A50194010E94492C690179
:102870007A01E1E0CE1AD108E108F108FFEFCF16A6
:10288000D104E104F10411F008F0B4C085E09091A6
:10289000B100987F892B8093B10039C060E072E16C
:1028A0008AE790E0A50194010E94492C69017A0110
:1028B00081E0C81AD108E108F108C114D104E1E0AF
:1028C000EE06F10488F068E478EE81E090E0A5017E
:1028D00094010E94492C69017A01F1E0CF1AD108D4
:1028E000E108F10893E001C091E021E032120FC04D
:1028F00080918100887F892B80938100411451044D
:102900006104710449F42FEF3FEFA9012DC0411478
:1029100051046104710471F0D801AA0FBB1FA30117
:1029200092010E94682C28EE33E040E050E00E94C3
:10293000B22C03C02FEF3FEFA90181E03816A1F0C0
:10294000E2E03E1619F131108FC0C7BC2093550646
:1029500030935606409357065093580680916E0068
:10296000826080936E0080C0D0928900C0928800FF
:1029700020935106309352064093530650935406C9
:1029800080916F00826080936F006EC0C092B30030
:1029900020939D0430939E0440939F045093A00481
:1029A000809170008260809370005EC084E06FCF81
:1029B000FFEFCF16D104E104F104D1F0C8F062E1D9
:1029C0007AE780E090E0A50194010E94492C69011A
:1029D0007A0181E0C81AD108E108F108EFEFCE16BC
:1029E000D104E104F10411F008F00ACF84E01BCF18
:1029F00083E019CF62E17AE780E090E0A5019401DD
:102A00000E94492C69017A0181E0C81AD108E108C5
:102A1000F108EFEFCE16D104E104F104C1F0B8F0F3
:102A200089819A81AB81BC814AE0B595A79597953C
:102A300087954A95D1F76C017D0121E0C21AD10832
:102A4000E108F108332009F4EDCE87E020CF86E0DD
:102A5000D4CEFFEFCF16D104E104F10409F050F613
:102A600084E0CBCE82E013CF0F900F900F900F90A9
:102A7000DF91CF911F910F91FF90EF90DF90CF905A
:102A8000BF90AF909F908F907F906F905F904F908E
:102A90003F900895CF93DF9300D0CDB7DEB76A8320
:102AA00089830E94EF1D89818EBD0E94E8226A8180
:102AB0006EBD0F900F90DF91CF910C94E41DCF93DA
:102AC000DF9360E080E20E944A150E94EF1D81E2E0
:102AD0008EBD0E94E82280E28EBD0E94E8228FE532
:102AE0008EBD0E94E41D0E94EF1D82E28EBD0E94F9
:102AF000E8221EBC0E94E82285E08EBD0E94E41DF3
:102B00000E94EF1D289A209880912B018EBDCCE267
:102B1000D1E00E94E82289918EBD82E0CB3AD807AD
:102B2000C1F70E94E41D62E080E2DF91CF910C9436
:102B30004A15AC0190913C069C3090F580913D0681
:102B400028E830E0281B310987FD3395220F331F19
:102B5000220F331F4217530784F080913E0628E569
:102B600032E0281B310987FD3395220F331F220FD6
:102B7000331F421753070CF49A0122503109220FD8
:102B8000331F4FB7F894892F90E0FC01EE0FFF1F21
:102B90008E0F9F1FFC01E35BFA4F328321834FBFEF
:102BA0000895AEE3B5E018968C931897E82FF0E0FF
:102BB000EE0FFF1FEE5FFC4F80819181FC0124919D
:102BC00016962C9316973196E4911796EC931797D7
:102BD000FC013296E4911996EC931997FC01339617
:102BE000E4911A96EC931A97FC013496249131964D
:102BF000E491F0E084E6289FE00DF11D11241E967B
:102C0000FC93EE931D9781E008954F925F926F922F
:102C10007F928F929F92AF92BF92CF92DF92EF926C
:102C2000FF926B017C01B42E9B01AC010E94492EE6
:102C3000882319F064E474E027C026013701E89482
:102C400077F82FEF3FEF4FE75FE7C301B2010E9434
:102C5000492E81110DC02FEF3FEF4FE75FE7C30112
:102C6000B2010E940F2B18161CF468E474E00CC02B
:102C70002FEF3FEF4FE75FE4C701B6010E943C2E04
:102C8000181694F46CE474E08EE395E0FF90EF90F6
:102C9000DF90CF90BF90AF909F908F907F906F907C
:102CA0005F904F900C94331A2FEF3FEF4FE75FEC9C
:102CB000C701B6010E940F2B87FDE4CF20E030E072
:102CC000A901C701B6010E940F2B87FF0BC06DE25F
:102CD0008EE395E00E942C1A4C01F7FAF094F7F875
:102CE000F09402C0812C912CA12C60E070E080E077
:102CF0009FE3AB1441F020E030E040E251E40E9459
:102D0000552DA394F6CF9B01AC01C701B6010E94DB
:102D1000E42C2B013C010E94CE2D6B017C010E9412
:102D2000142B9B01AC01C301B2010E94E32C2B01C7
:102D30003C012AE0B701A6018EE395E00E94481A03
:102D40007C01E80CF91CBB2039F06EE28EE395E0C3
:102D50000E942C1AE80EF91EDB2CDD2031F120E058
:102D600030E040E251E4C301B2010E94752B2B0117
:102D70003C010E94CE2D4B01A12CB12C2AE0B501C3
:102D8000A4018EE395E00E94481AE80EF91EC501E1
:102D9000B4010E94142B9B01AC01C301B2010E943B
:102DA000E32C2B013C01DA94D8CFC701FF90EF90C0
:102DB000DF90CF90BF90AF909F908F907F906F905B
:102DC0005F904F900895FC0144815581608171812D
:102DD0008EE395E00C9490179F92AF92BF92CF92A2
:102DE000DF92EF92FF920F931F93CF93DF93C82F41
:102DF000D62F142FD02E422F50E0461B510957FFDB
:102E000003C0519541955109812F90E08C1B910988
:102E100097FF03C0919581959109BB24B3948417C2
:102E2000950714F0B12C06C0812F122F282F8C2F5C
:102E3000CD2FD82F1C1730F48D2FD22F282F8C2F69
:102E4000C12F182FA12EAC1A822F90E08D1B910953
:102E500097FF03C0919581959109F82ECA2CC694CD
:102E6000D21718F099249A9413C09924939410C0FF
:102E70000E2D2D2DBB2079F04C2F6D2F8EE395E07C
:102E80000E94061FCF18C7FE02C0D90DCA0CCF5F23
:102E9000C11770F303C04D2F6C2FF0CFDF91CF918E
:102EA0001F910F91FF90EF90DF90CF90BF90AF9068
:102EB0009F900895CF92DF92EF92FF920F931F930E
:102EC000CF93DF936B01770FEE08FF08F7FE1BC06F
:102ED000EC016DE20E942C1A8C0144275527BA019F
:102EE0004C195D096E097F092AE0CE010E94481A3B
:102EF000800F911FDF91CF911F910F91FF90EF9065
:102F0000DF90CF9008952AE0B701A601DF91CF911D
:102F10001F910F91FF90EF90DF90CF900C94481A83
:102F2000CF92DF92EF92FF920F931F93CF93DF9395
:102F30006C017A018B01C0E0D0E0CE15DF0589F08D
:102F4000D8016D918D01D601ED91FC910190F08138
:102F5000E02DC6010995892B11F47E0102C021964E
:102F6000ECCFC701DF91CF911F910F91FF90EF90B0
:102F7000DF90CF900895FC01538D448D252F30E0D4
:102F8000842F90E0821B930B541710F0CF96089576
:102F900001970895FC01918D828D981761F0828DC3
:102FA000DF01A80FB11D5D968C91928D9F5F9F737D
:102FB000928F90E008958FEF9FEF0895FC01918D1F
:102FC000828D981731F0828DE80FF11D858D90E08C
:102FD00008958FEF9FEF0895FC01918D228D892F29
:102FE00090E0805C9F4F821B91098F739927089511
:102FF00081EA94E00E94EC1721E0892B09F420E09B
:10300000822F0895FC01848DDF01A80FB11DA35A02
:10301000BF4F2C91848D90E001968F739927848FF8
:10302000A689B7892C93A089B1898C9180648C93EF
:10303000938D848D981306C00288F389E02D8081DA
:103040008F7D80830895EF92FF920F931F93CF930C
:10305000DF93EC0181E0888F9B8D8C8D981305C0E8
:10306000E889F989808185FD24C0F62E0B8D10E05A
:103070000F5F1F4F0F731127E02E8C8DE8120CC0CD
:103080000FB607FCFACFE889F989808185FFF5CF73
:10309000CE010E940218F1CF8B8DFE01E80FF11DC9
:1030A000E35AFF4FF0820B8FEA89FB8980818062AF
:1030B00007C0EE89FF896083E889F989808180648F
:1030C000808381E090E0DF91CF911F910F91FF907D
:1030D000EF900895CF93DF93EC01888D8823C9F09A
:1030E000EA89FB89808185FD05C0A889B9898C9111
:1030F00086FD0FC00FB607FCF5CF808185FFF2CFAC
:10310000A889B9898C9185FFEDCFCE010E94021864
:10311000E7CFDF91CF91089580E090E0892B29F0EF
:103120000E94F81781110C9400000895833081F0FB
:1031300028F4813099F08230A1F008958730A9F009
:103140008830B9F08430D1F4809180008F7D03C045
:10315000809180008F7780938000089584B58F7769
:1031600002C084B58F7D84BD08958091B0008F77B3
:1031700003C08091B0008F7D8093B00008953FB769
:10318000F89480915F0690916006A0916106B091DD
:10319000620626B5A89B05C02F3F19F00196A11D18
:1031A000B11D3FBFBA2FA92F982F8827820F911DDD
:1031B000A11DB11DBC01CD0142E0660F771F881F24
:1031C000991F4A95D1F7089508950E94C3300C9431
:1031D000612F0C94612F2F923F924F925F926F92CA
:1031E0007F928F929F92AF92BF92CF92DF92EF9297
:1031F000FF920F931F93CF93DF9300D000D0CDB7F2
:10320000DEB71C01FC01A480B580678570896A194E
:103210007B0980E090E00E94142B6B017C01F1019E
:10322000868197818A199B09BC0180E090E00E9409
:10323000142B9B01AC01C701B6010E94552D20E063
:1032400030E040E753E40E94752B20E030E046E197
:1032500053E40E94E42C25E33AEF4EE85CE30E943D
:10326000752B4B015C010E94502D69837A838B83FF
:103270009C83F101658570E080E090E00E94162B50
:103280002AE939E949E95FE30E94552D6B017C0188
:10329000C501B4010E94412E2B013C01F1011381B3
:1032A0003280612F70E06F5F7F4F072E000C880B1C
:1032B000990B0E94162B4B015C01A7019601C301DB
:1032C000B2010E94752B9B01AC01C501B4010E94A3
:1032D000E42C0E94CE2D762E632D70E06F5F7F4F21
:1032E000072E000C880B990B0E94162B4B015C01DA
:1032F000A701960169817A818B819C810E94752B3F
:103300009B01AC01C501B4010E94E42C0E94CE2DAA
:10331000462FEE24E39401E0272D612F832D0E9498
:10332000EC160F900F900F900F90DF91CF911F919F
:103330000F91FF90EF90DF90CF90BF90AF909F9054
:103340008F907F906F905F904F903F902F90089557
:10335000CF93DF93EC01E881F9810084F185E02DC2
:10336000099588859985988B8F87E881F9810084F4
:10337000F185E02DCE0109958E85811119C09A81C4
:103380009F5F8B85282F220F820F981B2C858B81A6
:10339000222311F0865F01C0855F909349058093D9
:1033A0004A056F857889CE01DF91CF910C94761E06
:1033B000DF91CF910895FC01808191810C94612F60
:1033C000EF92FF920F931F93CF93DF93EC0119823B
:1033D00018821B821A821D821C8261157105A9F157
:1033E0007B01FB0101900020E9F731978F01061B5B
:1033F000170BB8016F5F7F4F80E090E00E94F92FBC
:10340000009759F0998388831B830A832C813D811F
:10341000232B81F4FC0110820DC0888199810097D3
:1034200011F00E94612F198218821D821C821B825A
:103430001A820BC01D830C83B701DF91CF911F91BE
:103440000F91FF90EF900C94D130DF91CF911F91AD
:103450000F91FF90EF900895DC01ED91FC910190A8
:10346000F081E02D09946115710579F0FB0101905F
:103470000020E9F73197AF01461B570BDC01ED91B6
:10348000FC910280F381E02D099480E090E00895A2
:103490004F925F926F927F92EF92FF920F931F93E2
:1034A000CF93DF93CDB7DEB7A1970FB6F894DEBF09
:1034B0000FBECDBF7C01FA01CB0119A2223008F466
:1034C0002AE08E010F5D1F4F422E512C612C712C72
:1034D000BF01A30192010E94B22CF901CA0101505F
:1034E00011096A3014F4605D01C0695CD8016C9305
:1034F000232B242B252B61F7B801C7010E94331A17
:10350000A1960FB6F894DEBF0FBECDBFDF91CF916D
:103510001F910F91FF90EF907F906F905F904F9071
:1035200008950C94331A1F920F920FB60F92112424
:103530002F933F934F935F936F937F938F939F93BB
:10354000AF93BF93EF93FF9381EA94E00E94021838
:10355000FF91EF91BF91AF919F918F917F916F916B
:103560005F914F913F912F910F900FBE0F901F9041
:1035700018951F920F920FB60F9211242F938F93CD
:103580009F93EF93FF93E091B104F091B204808197
:10359000E091B704F091B80482FD12C0908180914F
:1035A000BA048F5F8F732091BB04821751F0E091B2
:1035B000BA04F0E0EF55FB4F958F8093BA0401C039
:1035C0008081FF91EF919F918F912F910F900FBE6E
:1035D0000F901F901895CF93DF93282F30E0F901BB
:1035E000E05FFE4E8491F901EC52FF4ED491F90157
:1035F000EE50FF4EC491CC2391F081110E94961899
:10360000EC2FF0E0EE0FFF1FE851FF4EA591B491B3
:10361000EC91ED2381E090E021F480E002C080E0B5
:1036200090E0DF91CF9108951F93CF93DF93282FE0
:1036300030E0F901E05FFE4E8491F901EC52FF4E5B
:10364000D491F901EE50FF4EC491CC23C9F0162F4E
:1036500081110E949618EC2FF0E0EE0FFF1FE75348
:10366000FF4EA591B4918FB7F894111105C09C91AC
:10367000ED2FE095E92302C0EC91ED2BEC938FBF89
:10368000DF91CF911F9108959091AB02981324C0C0
:10369000E3EDF0E1E4919FEF9093AB02E130B9F0FC
:1036A00098F0E230C9F4909170009D7F9093700083
:1036B00091E09093B0009091B100987F94609093C6
:1036C000B1001092B30008C010926E0005C0909136
:1036D0006F009D7F90936F0060E00C94141B1F920D
:1036E0000F920FB60F9211242F933F934F935F9336
:1036F0006F937F938F939F93AF93BF93EF93FF93BA
:1037000080919D0490919E04A0919F04B091A0048B
:10371000892B8A2B8B2B51F180919A04E0919B0489
:10372000F0919C0490818927808380919D049091E1
:103730009E04A0919F04B091A004181619061A06C1
:103740001B06C4F480919D0490919E04A0919F0457
:10375000B091A0040197A109B10980939D049093B1
:103760009E04A0939F04B093A00404C08091AB0278
:103770000E94441BFF91EF91BF91AF919F918F9158
:103780007F916F915F914F913F912F910F900FBE5D
:103790000F901F901895CF93DF9390E0FC01EC52AF
:1037A000FF4E2491FC01EE50FF4E8491882361F17D
:1037B00090E0880F991FFC01EA5FFE4EC591D491FD
:1037C000FC01E753FF4EA591B491611109C09FB769
:1037D000F8948881209582238883EC912E230BC056
:1037E000623061F49FB7F8943881822F80958323EB
:1037F0008883EC912E2B2C939FBF06C08FB7F89433
:10380000E8812E2B28838FBFDF91CF9108958E30D2
:1038100008F08E508770806480937C0080917A00DD
:10382000806480937A0080917A0086FDFCCF80913D
:1038300078002091790090E0922B08958F929F92CA
:10384000AF92BF92CF92DF92EF92FF926B017C0119
:103850000E94BF184B015C01C114D104E104F104C2
:10386000F1F00E94BF18DC01CB0188199909AA095F
:10387000BB09883E9340A105B10570F321E0C21A4F
:10388000D108E108F10888EE880E83E0981EA11C9B
:10389000B11CC114D104E104F10419F7DDCFFF908C
:1038A000EF90DF90CF90BF90AF909F908F90089552
:1038B0002FB7F89460915B0670915C0680915D066D
:1038C00090915E062FBF08951F920F920FB60F9230
:1038D00011242F933F938F939F93AF93BF93809126
:1038E0005B0690915C06A0915D06B0915E063091FA
:1038F0005A0623E0230F2D3720F40196A11DB11D98
:1039000005C026E8230F0296A11DB11D20935A067B
:1039100080935B0690935C06A0935D06B0935E0671
:1039200080915F0690916006A0916106B091620659
:103930000196A11DB11D80935F0690936006A09330
:103940006106B0936206BF91AF919F918F913F91B5
:103950002F910F900FBE0F901F9018951F920F92EE
:103960000FB60F9211242F933F934F935F936F9352
:103970007F938F939F93AF93BF93EF93FF93E091C8
:10398000AE02F091AF020995FF91EF91BF91AF9117
:103990009F918F917F916F915F914F913F912F9167
:1039A0000F900FBE0F901F9018951F920F920FB699
:1039B0000F9211242F933F934F935F936F937F93B5
:1039C0008F939F93AF93BF93EF93FF93E091AC02DC
:1039D000F091AD020995FF91EF91BF91AF919F9149
:1039E0008F917F916F915F914F913F912F910F90A8
:1039F0000FBE0F901F9018951F920F920FB60F9247
:103A000011242F933F934F935F936F937F938F93E3
:103A10009F93AF93BF93EF93FF938091590687FFD6
:103A200005C010928500109284001BC02091590699
:103A3000022E000C330B8091710590E02817390796
:103A400084F480915906082E000C990BFC01EE0FAE
:103A5000FF1F8E0F9F1FFC01E35BFA4F808186FDE5
:103A600015C0809159068F5F8093590620915906A1
:103A7000022E000C330B8091710590E02817390756
:103A8000C4F4809159068C3064F113C080915906BA
:103A9000082E000C990BFC01EE0FFF1F8E0F9F1FCD
:103AA000FC01E35BFA4F808160E08F730E94141B7E
:103AB000D8CF8091840090918500049680349C49F1
:103AC00018F480E49CE905C0809184009091850001
:103AD000049690938900809388008FEF8093590615
:103AE0003BC0209184003091850080915906082EBA
:103AF000000C990BFC01EE0FFF1F8E0F9F1FFC01A6
:103B0000E35BFA4F81819281820F931F909389002A
:103B10008093880080915906082E000C990BFC01B7
:103B2000EE0FFF1F8E0F9F1FFC01E35BFA4F80819A
:103B300086FF12C080915906082E000C990BFC01DB
:103B4000EE0FFF1F8E0F9F1FFC01E35BFA4F80817A
:103B500061E08F730E94141BFF91EF91BF91AF91B1
:103B60009F918F917F916F915F914F913F912F9195
:103B70000F900FBE0F901F901895089508959C0107
:103B8000803167E29607E4F4813F78ED9707D4F03F
:103B900097FF05C031952195310992E001C091E070
:103BA0004AE050E08AE02417350744F09F5FBA01ED
:103BB000869FA001879F500D1124F5CF892F08956E
:103BC00085E0089586E008950DB407FEFDCF28989E
:103BD000209A2A9A22988CB58F7B8CBD08958CB53B
:103BE00080648CBD2A98229A0895089508950895B6
:103BF000089580E090E00895CF92DF92EF920F93C6
:103C0000CF93DF936C01FC018485C585823040F53C
:103C1000D281CD0FCE5FDF5FF601DC1770F46381D8
:103C200028E0260F6B5FE0904305009142054D2F81
:103C30008D2F0E94EC16DE5FEFCFD281DF5FDC17A5
:103C4000B8F5F601638125E0260F6D5FE09043052E
:103C5000009142054D2F8D2F0E94EC16D65FEFCFBD
:103C6000F601D381CD0FCE5FDF5FF601CD1768F08F
:103C7000828143E0480FE0904305009142052D2FDB
:103C80006D2F0E94EC16DE5FF0CFD381DF5FCD1782
:103C900078F0F601828145E0480FE09043050091FD
:103CA00042052D2F6D2F8D5F0E94EC16D65FEFCF52
:103CB000DF91CF910F91EF90DF90CF9008950C940A
:103CC000612F1F93CF93DF93EC018E819F810E9420
:103CD000BF1D182F8C819D810E94BF1D811708F484
:103CE000812F8B87DF91CF911F9108950F931F93A1
:103CF000CF93DF93EC018B01CB010E94BF1DCB85DD
:103D0000C81BCC2341F067E274E08EE395E00E948B
:103D1000911AC150F6CFB8018EE395E0DF91CF91B3
:103D20001F910F910C945A17CF93DF93EC01E88108
:103D3000F9810084F185E02D099588859985988B16
:103D40008F87E881F9810084F185E02DCE01099506
:103D50008E85811120C02C858B819A81213069F05C
:103D600038F0223061F42D85820F8C5F9F5F08C090
:103D70008F5F2D85920F9C5F03C0865F01C0975FA8
:103D80009093490580934A056F857889CE01DF912C
:103D9000CF910C94761EDF91CF910895CF93DF934E
:103DA000EC01E881F9810280F381E02D0995E88139
:103DB000F9810084F185E02DCE010995E881F98132
:103DC0000190F081E02DCE01DF91CF910994CF9346
:103DD000DF93EC018E819F8186179707A4F08C8179
:103DE0009D81681779077CF0CB01798768870E94ED
:103DF000BF1D8A87E881F9810190F081E02DCE0115
:103E0000DF91CF910994DF91CF9108950F936034A2
:103E1000C8F54033B8F50130C1F4213099F5E42FED
:103E2000E695E695E69580E4E89FF0011124E60F1B
:103E3000F11DE55DFE4F477081E090E001C0880F05
:103E40004A95EAF7908189271CC0842F869586952C
:103E50008695E62FF0E0477090E4899FE00DF11D14
:103E60001124E55DFE4F81E090E001C0880F4A9586
:103E7000EAF7213019F49081892B03C08095908155
:103E8000892380830F9108952F923F924F925F92E2
:103E90006F927F928F929F92AF92BF92CF92DF925A
:103EA000EF92FF920F931F93CF93DF93CDB7DEB7BF
:103EB0002F970FB6F894DEBF0FBECDBF1C01FC01DB
:103EC000958593808280B0904305A090420581E063
:103ED000F82EF91AE92EE194EE0C192F492D490F0D
:103EE0000B2D2A2D682D8EE395E00E94061F492D8B
:103EF000411B2A2D682D8EE395E00E94061F682D38
:103F0000610F2A2D492D8EE395E00E94061F682D32
:103F1000611B2A2D492D8EE395E00E94061F612C1E
:103F200061160CF055C0F7FC04C01150E394E39403
:103F3000FE0C6394862D880F8F5FF80E762C780C1C
:103F40000B2D2A2DD12ED90C4D2D672D8EE395E00A
:103F50000E94061FC82CC6182A2D4D2D6C2D8EE3ED
:103F600095E00E94061F2A2DD92CD11A4D2D672DC0
:103F70008EE395E00E94061F2A2D4D2D6C2D8EE3B9
:103F800095E00E94061FD62CD90C2A2D4D2DC12E4E
:103F9000C80C6C2D8EE395E00E94061F2A2D4D2D36
:103FA000D82CD11A6D2D8EE395E00E94061F792C36
:103FB00076182A2D472D6C2D8EE395E00E94061F62
:103FC0002A2D472D6D2D8EE395E00E94061FA8CF68
:103FD00026E930E03F872E87EE85FF85BF01FF0F82
:103FE000880B990B0E94162B25E33AEF4EE85CE311
:103FF0000E94752B4B015C010E94502D69837A83CE
:104000008B839C83F101658570E080E090E00E94E5
:10401000162B6B017C0120E030E040EC5FE30E9456
:10402000552D69877A878B879C87C501B4010E94CB
:10403000412E2B013C01F101638170E06F5F7F4FE6
:10404000072E000C880B990B0E94162B4B015C016C
:10405000F101628170E06F5F7F4F072E000C880BCB
:10406000990B0E94162B6D837E838F839887A701FF
:104070009601C301B2010E94752B9B01AC01C501E1
:10408000B4010E94E42C0E94CE2D6D87A7019601F9
:1040900069817A818B819C810E94752B9B01AC0187
:1040A0006D817E818F8198850E94E42C0E94CE2DA7
:1040B000162F29853A854B855C85C301B2010E9484
:1040C000752B9B01AC01C501B4010E94E42C0E9438
:1040D000CE2DB62E29853A854B855C8569817A81FE
:1040E0008B819C810E94752B9B01AC016D817E812F
:1040F0008F8198850E94E42C0E94CE2D862FE0901F
:104100004305009142052D85412F6B2D0E94EC1631
:104110002E853F85225E3F4F3F872E87243A3140D0
:1041200009F05ACFF1018585803108F4AAC025EA4B
:1041300030E03F872E87EE85FF85BF01FF0F880B9C
:10414000990B0E94162B25E33AEF4EE85CE30E94A0
:10415000752B4B015C010E94502D69837A838B8300
:104160009C83F101658570E080E090E00E94162B51
:104170006B017C0126E636E646EA5FE30E94552D98
:1041800069877A878B879C87C501B4010E94412E7D
:104190002B013C01F101638170E06F5F7F4F072EBF
:1041A000000C880B990B0E94162B4B015C01F1014E
:1041B000628170E06F5F7F4F072E000C880B990BB8
:1041C0000E94162B6D837E838F839887A7019601AB
:1041D000C301B2010E94752B9B01AC01C501B40162
:1041E0000E94E42C0E94CE2D162FA7019601698112
:1041F0007A818B819C810E94752B9B01AC016D8122
:104200007E818F8198850E94E42C0E94CE2DF62E0F
:1042100029853A854B855C85C301B2010E94752BC7
:104220009B01AC01C501B4010E94E42C0E94CE2D7B
:10423000B62E29853A854B855C8569817A818B818B
:104240009C810E94752B9B01AC016D817E818F81C9
:1042500098850E94E42C0E94CE2D862FE090430585
:1042600000914205212F4F2D6B2D0E94EC162E85BB
:104270003F85225E3F4F3F872E872539314009F029
:104280005ACF2F960FB6F894DEBF0FBECDBFDF9189
:10429000CF911F910F91FF90EF90DF90CF90BF9043
:1042A000AF909F908F907F906F905F904F903F90D6
:1042B0002F9008957F928F929F92AF92BF92CF924C
:1042C000DF92EF92FF920F931F93CF93DF93EC0156
:1042D0008C85CC80DD806F857889EE80FF800D85B0
:1042E0007B801A818230B8F56C197D0980E090E0FE
:1042F0000E94142B4B015C01B7016C197D0980E011
:1043000090E00E94142B9B01AC01C501B4010E94F6
:10431000552D6B017C01602F70E080E090E00E94E1
:10432000162B9B01AC01C701B6010E94752B0E94A0
:10433000CE2DF62E862F810F43E0480FEE24E39416
:1043400001E0272D672D0E94EC164B814F5F6A819B
:104350006F5F6F0D39C0C701861B970BBC0180E0F2
:1043600090E00E94142B4B015C01C7018C199D0940
:10437000BC0180E090E00E94142B9B01AC01C501C0
:10438000B4010E94552D6B017C01602F70E080E02C
:1043900090E00E94162B9B01AC01C701B6010E9460
:1043A000752B0E94CE2DF62E670D87E0810F23E03E
:1043B000260FEE24E39401E0482F0E94EC164B8177
:1043C0004F5F4F0D6A816A5F21E08EE395E00E94A6
:1043D000061FDF91CF911F910F91FF90EF90DF901B
:1043E000CF90BF90AF909F908F907F9008955F92F5
:1043F0006F927F928F929F92AF92BF92CF92DF92F5
:10440000EF92FF920F931F93CF93DF93EC016A30EB
:1044100009F46AC06D3009F4C9C0E62EBD80AC80D5
:104420001C859B842985621708F450C08A8590E01A
:10443000820F911D462F50E0481759070CF046C0D7
:10444000E21A8F8086948694869481E0881508F419
:1044500051C0C92C38E0D32ED10E9C2D99198E81D4
:10446000282F30E0E92FF0E02E173F077CF1981756
:1044700089F0A885B0E0AA0FBB1FAE5FBC4FE89ED5
:10448000E00DF11D112436968D919C91E80FF91FD6
:10449000F49001C0F12C812EF0FE03C00B2D2A2DCB
:1044A00004C021E0A11020E00B2D482D6C2DCE0181
:1044B0000E94061FF69483948D10EECFC394CDCF47
:1044C0008FEFC81AD80A185FC814D0F14E818B85B7
:1044D000840F8F5F8B8790E020E430E0241B31094C
:1044E000281739070CF062C09C858F81890F8C8753
:1044F0001B865CC0ED85FE852E8130E0CF01B901C1
:104500000E94A32E8E2D90E00E94A32E829F700108
:10451000839FF00C929FF00C11248E9E90018F9E31
:10452000300D1124269FC001279F900D369F900DBE
:104530001124E80EF91EC12CD12C86E0E80EF11CE6
:10454000792C872D89199E81891708F0B9CFA88504
:10455000B0E0AA0FBB1FAE5FBC4F2D853E85C29E4B
:10456000F001C39EF00DD29EF00D1124EE0DFF1D43
:10457000E80FF11D8D919C91E80FF91F6490512C6B
:10458000452D410F60FE03C00B2D2A2D04C021E0F4
:10459000A11020E00B2D672DCE010E94061F66940E
:1045A000539488E05812ECCF7394CBCF81E090E025
:1045B000DF91CF911F910F91FF90EF90DF90CF90FF
:1045C000BF90AF909F908F907F906F905F90089575
:1045D0000DB407FEFDCF0895089540E050E0BA0104
:1045E00080E699E00E94EC126CE870E080E090E0D8
:1045F0000E941E1C40E050E0BA0180EA9FE00E9449
:10460000EC126CE870E080E090E00E941E1C40E03C
:1046100050E0BA0180EB94E00E94EC1268EC70E08C
:1046200080E090E00E941E1C86E00C94441BCF9317
:10463000DF9388E895E00E94DB1982E895E00E940C
:10464000DB198CE795E00E94DB1986E795E00E9474
:10465000DB1980EA95E00E94DB198AE995E00E9467
:10466000DB1984E995E00E94DB198EE895E00E9451
:10467000DB1988EB95E00E94DB1982EB95E00E9444
:10468000DB198CEA95E00E94DB1986EA95E00E942E
:10469000DB1984EC95E00E94DB198EEB95E00E941B
:1046A000DB198CED95E00E94DB1986ED95E00E9408
:1046B000DB1980ED95E00E94DB198AEC95E00E9401
:1046C000DB19CCE3D6E02697CE010E94DB1985E00A
:1046D000C23ED807C1F7DF91CF910895789484B591
:1046E000826084BD84B5816084BD85B5826085BDEE
:1046F00085B5816085BD80916E00816080936E007C
:10470000109281008091810082608093810080916D
:10471000810081608093810080918000816080931E
:1047200080008091B10084608093B1008091B000DE
:1047300081608093B00080917A00846080937A00D9
:1047400080917A00826080937A0080917A00816003
:1047500080937A0080917A00806880937A0010922A
:10476000C10080913C068C3008F051C061E085E0CA
:104770000E94CB1B80913C06E82FF0E09F01220FA6
:10478000331FE20FF31FE35BFA4F9081907C95603B
:10479000908310923D0610923E066CE00E94972E88
:1047A0002CE0829FB001112440E050E09A01260FD6
:1047B000371FF901EE0FFF1F2E0F3F1FF901E35BBB
:1047C000FA4F908196FD16C04F5F5F4F4C305105F8
:1047D00069F781110FC01092800082E08093810000
:1047E0001092850010928400B19A80916F008260CF
:1047F00080936F00E0913C06F0E0CF01880F991F95
:10480000E80FF91FE35BFA4F80818064808388EEB4
:1048100093E00E94991580E00E94D11581E0809379
:104820004205109243051092490510924A055F987F
:10483000579A61E084E00E94CB1B61E084E00E9413
:10484000141B6AE070E080E090E00E941E1C5F9AFA
:10485000579865E070E080E090E00E941E1C5F9831
:10486000579A8CB58C7F8CBD8DB581608DBD2A9A91
:1048700022982898209A60E08DE00E94141B60E046
:104880008BE00E94141B61E08DE00E94CB1B61E075
:104890008BE00E94CB1B8CB580618CBD65E070E025
:1048A00080E090E00E941E1C5F9A57986AE070E0DA
:1048B00080E090E00E941E1C6FE288EA0E944A1588
:1048C00064E18DE80E944A150E94EF1D81EA8EBDC9
:1048D0000E94E41D0E94EF1D88EC8EBD0E94E41D25
:1048E0006FE881E80E944A1561EF89ED0E944A1540
:1048F00060E48BED0E944A150E94EF1D8FEA8EBD89
:104900000E94E41D60E080E20E944A150E94EF1DB3
:1049100081E28EBD0E94E8221EBC0E94E8228FE741
:104920008EBD0E94E41D0E94EF1D82E28EBD0E949A
:10493000E8221EBC0E94E82287E08EBD0E94E41D92
:104940000E94EF1D289A20981EBCCFEFD3E00E9452
:10495000E8221EBC2197D9F70E94E41D62E080E2A4
:104960000E944A15CBE2D1E000E811E0DE01F80137
:104970001D923197E9F70E945F1560E081E10E9486
:10498000CB1B60E082E10E94CB1B60E08FE00E94C5
:10499000CB1B62E08EE00E94CB1B62E080E10E94B4
:1049A000CB1B61E081E00E94CB1B61E080E00E94B4
:1049B000CB1B61E086E00E94CB1B81E00E94D115F9
:1049C0008BE0809349058EE080934A0564E174E0B2
:1049D0008EE395E00E94911A0E945F1562E370E0F9
:1049E00080E090E00E941E1C69EA73E08EE395E08F
:1049F0000E94911A0E945F1562E370E080E090E0EF
:104A00000E941E1C6BEA73E08EE395E00E94911AEF
:104A10000E945F1562E370E080E090E00E941E1C3F
:104A20006DEA73E08EE395E00E94911A0E945F1593
:104A300062E370E080E090E00E941E1C65EA73E093
:104A40008EE395E00E94911A0E945F1560E971E083
:104A500080E090E00E941E1C80E00E94D11568EC6E
:104A600070E080E090E00E941E1CDE01F8011D92C3
:104A70003197E9F70E945F150E94A20A049709F096
:104A8000A4C00E94A20A0497E1F362E370E080E010
:104A900090E00E941E1C1092490510924A056FEA90
:104AA00073E08EE395E00E94911A109249058EE022
:104AB00080934A056AEB73E08EE395E00E94911AB9
:104AC000109249058CE180934A0563EC73E08EE314
:104AD00095E00E94911A0E945F150E94581C6B017C
:104AE0007C01F0EDCF0EF7E0DF1EE11CF11C0E940F
:104AF000581C6C157D058E059F0508F05AC00E9454
:104B0000A20A0497A1F780E891E0EBE2F1E0DF016F
:104B10009C011D9221503040E1F7109249051092FE
:104B20004A056CEC73E08EE395E00E94911A1092B6
:104B300049058EE080934A0563EC73E08EE395E0CF
:104B40000E94911A0E945F15C0E0D0E060E0CE01A3
:104B50000E943B2C2196C11534E0D307B9F742E3FC
:104B600050E060E070E088EB9BE00E94EC1264E6AD
:104B700070E080E090E00E941E1C44E650E060E09F
:104B800070E084EC99E00E94EC1264E670E080E052
:104B900090E00E941E1C48EC50E060E070E080ED68
:104BA00097E00E94EC1268EC70E080E090E00E94D8
:104BB0001E1C80E891E0EBE2F1E0DF019C011D9218
:104BC00021503040E1F70E945F1581E190E00E94A2
:104BD000CC2EEC0120EEE22E22E0F22EF982E882C9
:104BE00080E18A838EE18B831D821C8284E690E0C3
:104BF0009F838E831986188680E090E00E94BF1DF7
:104C00008A87CE010E94611E82ED92E0998388839B
:104C100088859985988B8F8711E01E871C868FE089
:104C20008D87CE010E94441FCE010E94EB18CE0159
:104C30000E94A819D0938604C093850481E190E076
:104C40000E94CC2EEC01F982E88288E38A838EE010
:104C50008B838DE690E09D838C832EE730E03F834D
:104C60002E83998788870E94BF1D8A87CE010E9464
:104C7000611E8EEE92E09983888388859985988B52
:104C80008F871E8782E08C8784E18D87CE010E940A
:104C9000FC1DCE010E945A21CE010E94941ED09389
:104CA0008404C093830480918504909186040E94BB
:104CB000CE1E80918304909184040E94CE1E80E0D9
:104CC00090E00E947F0B80E090E0A0E4B1E480934C
:104CD0006B0490936C04A0936D04B0936E04809366
:104CE0006F0490937004A0937104B0937204809346
:104CF000730490937404A0937504B0937604809326
:104D0000770490937804A0937904B0937A04809305
:104D10007B0490937C04A0937D04B0937E048093E5
:104D20007F0490938004A0938104B09382040E9436
:104D3000581C60936704709368048093690490938F
:104D40006A0480E090E0A0E9B2E480936304909369
:104D50006404A0936504B093660481E00E94740D1E
:104D60004CE350E060E070E080ED97E00E94EC12D0
:104D70006EE670E080E090E00E941E1C4CE350E084
:104D800060E070E080ED97E00E94EC126EE670E06B
:104D900080E090E00E941E1C4CE350E060E070E078
:104DA00080ED97E00E94EC1280E10E94EB1A892BC3
:104DB000F1F464EF71E080E090E00E941E1C48EC8A
:104DC00050E060E070E088EB9BE00E94EC126CE247
:104DD00071E080E090E00E941E1C48EC50E060E032
:104DE00070E088EB9BE00E94EC121093620484E672
:104DF000882E912CA12CB12C0BE113E09BEF292ED6
:104E000099EF392E0E94C30A81110DC08091900440
:104E100090919104181619060CF039C280912A015C
:104E2000833009F034C280912A01811117C042E316
:104E300050E060E070E088EB9BE00E94EC1264E6DA
:104E400070E080E090E00E941E1C44E650E060E0CC
:104E500070E080ED97E00E94EC12CFC1833009F042
:104E6000EEC10E94850A8436910509F4E8C10E94CA
:104E7000581CA0912001B09121012BEC32E00E943E
:104E8000C52EA50194010E94492CDA01C9018B5F4E
:104E90009A4FAF4FBF4F90932901809328010E94F2
:104EA00099154090220150902301052C000C6608B2
:104EB0007708A0912001B091210120912401309127
:104EC0002501A901330F660B770B9A01AB01241959
:104ED0003509460957090E94732CA50194010E94C7
:104EE000492CCA01B901640D751D861D971D0E94CC
:104EF000162B2B013C010E94581CC0909204D090AC
:104F00009304E0909404F0909504DC01CB018C199B
:104F10009D09AE09BF09883E9340A105B10548F43B
:104F20000E94581C6C197D098E099F090E94142B40
:104F300004C060E070E08AE794E420E030E04AE7F3
:104F400054E40E94552D9B01AC01C301B2010E94A3
:104F5000752B20E030E0A9010E94E42C0E94C72DAF
:104F6000EB010E94850A2091900430919104820FF8
:104F7000931F909391048093900410928F04612C5E
:104F8000712C6C167D0664F40E945A0B61E070E08F
:104F900080E090E00E941E1C8FEF681A780AF1CF23
:104FA0000E94C30A811155C080912A01813009F005
:104FB00050C04AC12196C333D10581F061E081E040
:104FC0000E94141B66E070E080E090E00E941E1CCE
:104FD0000E945A0B0E948F0A019761F320912601CB
:104FE00030912701ACE9BFEF0E94BD2EA5019401CD
:104FF0000E94492C29013A01F4E64F0E511C611C14
:10500000711C809190049091910401979093910468
:105010008093900426E042165104C4F060E081E0E1
:105020000E94141BC8010197F1F761E080E00E9423
:10503000141BB201550C880B990B0E941E1C60E0DA
:1050400080E00E94141BC8010197F1F780E00E94E4
:10505000740D809190049091910402975CF10E94EC
:10506000850A8436910529F40E94C30A811108C07B
:1050700021C080912A018130B9F382508230D0F46E
:10508000C0E0D0E00E948F0A019789F02196C333D7
:10509000D10569F061E081E00E94141B66E070E0D8
:1050A00080E090E00E941E1C0E945A0BEBCFC0E0F3
:1050B000D0E090CFC0E0D0E00E948F0A019789F045
:1050C0002196C333D10569F061E081E00E94141B91
:1050D00066E070E080E090E00E941E1C0E945A0B87
:1050E000EBCFC0E0D0E00E948F0A019789F42196AF
:1050F000C333D10569F061E081E00E94141B66E0D2
:1051000070E080E090E00E941E1C0E945A0BEBCFE2
:10511000109291041092900460E081E00E94141BB0
:105120008BEC97E00197F1F761E080E00E94141B9F
:10513000CEE1D0E00E945A0B61E070E080E090E0A8
:105140000E941E1C2197B1F760E080E00E94141BB2
:105150008BEC97E00197F1F761E081E00E94141B6E
:10516000C1010197F1F760E081E00E94141B0E94E9
:105170008F0A029709F08EC060E081E00E94141B44
:10518000C8010197F1F761E080E00E94141BCEE1B5
:10519000D0E00E945A0B61E070E080E090E00E9455
:1051A0001E1C2197B1F760E080E00E94141BC8012B
:1051B0000197F1F70E94581C609392047093930436
:1051C000809394049093950480E00E94740D109253
:1051D0008B0410928C0410928D0410928E040E9405
:1051E000581C60938704709388048093890490937B
:1051F0008A040E94C30A811152C081E00E94740D8A
:105200004090960450909704609098047090990490
:10521000411451046104710409F450C00E94581CE7
:10522000DC01CB0184199509A609B709883E934092
:10523000A105B10508F042C00E948C18E3CD109280
:1052400091041092900413CE60E081E00E94141B40
:1052500080E00E94740D0E94581C60939204709329
:105260009304809394049093950410928B0410926D
:105270008C0410928D0410928E040E94581C60932E
:105280008704709388048093890490938A040E9411
:10529000CC0AB3CFC83E93E0D90759F46DCF8091C3
:1052A000900490919104892B09F0A7CF0E94CC0A19
:1052B000A0CFC8010197F1F7219659CF80E090E087
:1052C0000E945A0C0E94581C609396047093970495
:1052D0008093980490939904AFCFCF93DF9310926B
:1052E000A4041092A30488EE93E0A0E0B0E08093C1
:1052F000A5049093A604A093A704B093A80484E106
:1053000093E09093A2048093A10485EC90E09093A5
:10531000AE048093AD0484EC90E09093B00480934D
:10532000AF0480EC90E09093B2048093B10481ECE0
:1053300090E09093B4048093B30482EC90E0909357
:10534000B6048093B50486EC90E09093B804809303
:10535000B7041092BA041092BB041092BC041092CD
:10536000BD04109241051092400586E293E09093AF
:105370003F0580933E0562E082E00E94CB1B62E025
:1053800083E00E94CB1BE4EFF0E1E491F0E0EE0F4C
:10539000FF1FE851FF4EA591B491B0934006A09332
:1053A0003F06E6EDF0E1849180934306E5EFF0E1FE
:1053B000E491F0E0EE0FFF1FE851FF4EC591D4914C
:1053C000D0934206C0934106E7EDF0E1E491E0930B
:1053D0004406109246061092470610924806109214
:1053E0004906EBE3FFE13197F1F7EC91E82381E027
:1053F00009F480E0288190914406922309F08260AC
:105400002FE336E0809345063093730520937205B1
:1054100081ED92E19093AD028093AC02809169009E
:105420008C7F816080936900E89A81E080934A06CE
:1054300030937505209374058BEC92E19093AF0245
:105440008093AE0280916900837F846080936900BD
:10545000E99A82E080934A06809171058C30A0F42D
:1054600091E0980F9093710580933C0690E0FC01C9
:10547000EE0FFF1F8E0F9F1FFC01E35BFA4F88EBBF
:105480009BE09283818303C08FEF80933C0668E3A7
:1054900073E082EE95E00E94E0196EE373E088EE1F
:1054A00095E00E94E01962E473E08EEE95E00E94C0
:1054B000E01965ED73E084EF95E00E94E0196DED71
:1054C00073E08AEF95E00E94E01965EE73E080E0FA
:1054D00096E00E94E0196CEE73E086E096E00E9490
:1054E000E01963EF73E08CE096E00E94E01961E759
:1054F00073E082E196E00E94E0196BEF73E088E1CF
:1055000096E00E94E01964E873E08EE196E00E9464
:10551000E01969E873E084E296E00E94E01964E033
:1055200074E08AE296E00E94E01966E973E080E3A5
:1055300096E00E94E0196CE973E086E396E00E9431
:10554000E0196BE074E08AEC95E00E94E0196DE0F0
:1055500074E080ED95E00E94E01965EA73E086ED65
:1055600095E00E94E01964E174E08CED95E00E9402
:10557000E0196FE074E08EEB95E00E94E01962E1C3
:1055800074E084EC95E00E94E01966E174E086EA3C
:1055900095E00E94E0196BE074E08CEA95E00E94CF
:1055A000E0196DE074E082EB95E00E94E01965EA95
:1055B00073E088EB95E00E94E0196BE174E08EE8FF
:1055C00095E00E94E01962E274E084E995E00E94AF
:1055D000E0196EE373E08AE995E00E94E01969E260
:1055E00074E080EA95E00E94E0196FE274E086E7DB
:1055F00095E00E94E01964E374E08CE795E00E9476
:10560000E01969E374E082E895E00E94E0196EE336
:1056100074E088E895E0DF91CF910C94E0190E9446
:10562000512B08F481E00895E89409C097FB3EF4FB
:1056300090958095709561957F4F8F4F9F4F9923DF
:10564000A9F0F92F96E9BB279395F695879577955D
:105650006795B795F111F8CFFAF4BB0F11F460FF1D
:105660001BC06F5F7F4F8F4F9F4F16C0882311F075
:1056700096E911C0772321F09EE8872F762F05C089
:10568000662371F096E8862F70E060E02AF09A9524
:10569000660F771F881FDAF7880F9695879597F919
:1056A0000895990F0008550FAA0BE0E8FEEF1616B3
:1056B0001706E807F907C0F012161306E407F50706
:1056C00098F0621B730B840B950B39F40A2661F07A
:1056D000232B242B252B21F408950A2609F4A1401D
:1056E000A6958FEF811D811D08950E94882B0C9433
:1056F000F92B0E94EB2B38F00E94F22B20F095231F
:1057000011F00C94E22B0C94E82B11240C942D2C0A
:105710000E940A2C70F3959FC1F3950F50E0551F1E
:10572000629FF001729FBB27F00DB11D639FAA27F6
:10573000F00DB11DAA1F649F6627B00DA11D661F45
:10574000829F2227B00DA11D621F739FB00DA11D66
:10575000621F839FA00D611D221F749F3327A00D20
:10576000611D231F849F600D211D822F762F6A2FBC
:1057700011249F5750409AF0F1F088234AF0EE0F21
:10578000FF1FBB1F661F771F881F91505040A9F74E
:105790009E3F510580F00C94E22B0C942D2C5F3F22
:1057A000E4F3983ED4F3869577956795B795F7958A
:1057B000E7959F5FC1F7FE2B880F911D9695879502
:1057C00097F9089597F99F6780E870E060E0089581
:1057D0009FEF80EC089500240A9416161706180609
:1057E0000906089500240A941216130614060506E5
:1057F0000895092E0394000C11F4882352F0BB0F76
:1058000040F4BF2B11F460FF04C06F5F7F4F8F4FD8
:105810009F4F089557FD9058440F551F59F05F3F13
:1058200071F04795880F97FB991F61F09F3F79F0C2
:1058300087950895121613061406551FF2CF469544
:10584000F1DF08C0161617061806991FF1CF8695C6
:105850007105610508940895E894BB2766277727AA
:10586000CB0197F90895F999FECF92BD81BDF89AC1
:10587000992780B50895262FF999FECF1FBA92BDBA
:1058800081BD20BD0FB6F894FA9AF99A0FBE019621
:105890000895052E97FB1EF400940E94602C57FD7E
:1058A00007D00E94B22C07FC03D04EF40C94602C5D
:1058B00050954095309521953F4F4F4F5F4F08953C
:1058C00090958095709561957F4F8F4F9F4F08956C
:1058D0000E94D42CA59F900DB49F900DA49F800D85
:1058E000911D11240895B7FF0C94682C0E94682C18
:1058F000821B930B08952F923F924F925F926F926B
:105900007F928F929F92AF92BF92CF92DF92EF924F
:10591000FF920F931F93CF93DF93CDB7DEB7CA1BD0
:10592000DB0B0FB6F894DEBF0FBECDBF09942A88FB
:10593000398848885F846E847D848C849B84AA84A3
:10594000B984C884DF80EE80FD800C811B81AA8130
:10595000B981CE0FD11D0FB6F894DEBF0FBECDBFFB
:10596000ED010895A1E21A2EAA1BBB1BFD010DC07B
:10597000AA1FBB1FEE1FFF1FA217B307E407F507FF
:1059800020F0A21BB30BE40BF50B661F771F881FDB
:10599000991F1A9469F760957095809590959B0171
:1059A000AC01BD01CF010895A29FB001B39FC0011A
:1059B000A39F700D811D1124911DB29F700D811D3B
:1059C0001124911D08955058BB27AA270E94FB2C33
:1059D0000C94F92B0E94EB2B38F00E94F22B20F054
:1059E00039F49F3F19F426F40C94E82B0EF4E0955B
:1059F000E7FB0C94E22BE92F0E940A2C58F3BA170C
:105A0000620773078407950720F079F4A6F50C94D4
:105A10002C2C0EF4E0950B2EBA2FA02D0B01B90102
:105A200090010C01CA01A0011124FF27591B99F014
:105A3000593F50F4503E68F11A16F040A22F232F20
:105A4000342F4427585FF3CF469537952795A79570
:105A5000F0405395C9F77EF41F16BA0B620B730B17
:105A6000840BBAF09150A1F0FF0FBB1F661F771F88
:105A7000881FC2F70EC0BA0F621F731F841F48F43D
:105A8000879577956795B795F7959E3F08F0B0CFC6
:105A90009395880F08F09927EE0F979587950895AD
:105AA0000E94FF2DE3950C94282E0E94692D0C94E2
:105AB000F92B0E94F22B58F00E94EB2B40F029F4B6
:105AC0005F3F29F00C94E22B51110C942D2C0C9477
:105AD000E82B0E940A2C68F39923B1F3552391F324
