:100000000C9485080C94F9220C94D2220C94AD081F
:100010000C94AD080C94AD080C94AD080C94AD088C
:100020000C94AD080C94AD080C94AD080C942023EE
:100030000C94AD080C94AD080C94AD080C94AD086C
:100040000C9488220C94AD080C9456220C94302207
:100050000C94AD080C94AD080C94AD080C94AD084C
:100060000C94AD080C94AD0805A84CCDB2D44EB993
:100070003836A9020C50B9918688083CA6AAAA2A4B
:10008000BE000000803F101030020020C0C0F0F021
:100090003C3CFFFFFFFF3C3CF0F0C0C0C0C0F0F0B4
:1000A0003C3CFFFFFFFF3C3CF0F0C0C0C3C3333318
:1000B000CFCF33333333CFCF3333C3C33333CFCF48
:1000C00003030F0F0F0F0303CFCF3333181030028A
:1000D0000030F0F0FCFCFCFC3C3C3F3FFFFFFFFF2E
:1000E0003F3F3C3CFCFCFCFCF0F0F0F0FCFCFCFC7A
:1000F0003C3C3F3FFFFFFFFF3F3F3C3CFCFCFCFC28
:10010000F0F0C3C3C3C333333F3F0F0F3333333335
:100110000F0F3F3F3333C3C3C3C303033333FFFF67
:10012000CFCF0F0F333333330F0FCFCFFFFF333327
:10013000030316103002002CFCFCC0C0F3F33C3C5F
:10014000F0F0F0F0F0F03C3CF3F3C0C0FCFC000039
:10015000C0C0F3F33C3CF0F0F0F0F0F03C3CF3F3C3
:10016000C0C000000303CFCF3F3F0F0F0F0F0F0F93
:100170000F0F0F0F3F3FCFCF03033F3F03033F3F1F
:10018000CFCFCFCF0F0FCFCFCFCF3F3F03033F3FD7
:100190000C30300B012000C0F87C3E3EFCF8C00063
:1001A0000000000080E078FEFE000000000000F08B
:1001B0007C3C3E3EFEFCE0000000007C3E3E3EFEFD
:1001C000F8C0000000000000000000F8FEFE000083
:1001D000000000FEFE3E3E3E3E3E000000000000ED
:1001E00080F0FC3E3E3EFC000000003E3E3E3E3EB7
:1001F0003E3EFEFE00000000C0F8FE3E7EFCE00039
:1002000000000000E0FC7E3EFEF8C00000000000A0
:100210000000C0E0C00000000000F0FF0F00000080
:10022000F9FFFFF000000000070300FFFF000000DF
:10023000000000010000000000FFFF0000000000BF
:1002400000000000FFFF00000000000000E0FF1FB2
:10025000FFFF0000000000FFFF00000000000000A2
:10026000000000E0FF3F0000000000000000000070
:1002700000000000C0FC7F0300000000FFFF000042
:1002800000FFFF00000000FEFF03000000FFFFF082
:100290000000000000003F7F3F0000000000FFFF63
:1002A0000000E0FF1F00FFFF00000000000000FF53
:1002B000FF00000000000000000000E0FE1F010041
:1002C00000000000F8F8FCFFC7000000000000C0BC
:1002D000FE3F0300FFFF00000000003F3F3E7EFCAA
:1002E000F8E00000000000FFFF80F07C7CF8F000E8
:1002F00000000000000080F8FF0700000000000080
:10030000019FFFF8FE1F0100000000FFFFC000007A
:1003100080FFFFFF00000000000000000000000060
:100320000000FFFFC0FC7F030000FFFF0000000093
:10033000000000FFFF0000000000000000E0FE0FD2
:100340000100000000000000000000010FFFF800A5
:100350000000F8FFE7E0E0E0FFFFE0E0E000000081
:100360000000000007FFFE00000000FFFFFF030089
:100370000001FFFF0000000000F0FF0F0000000080
:10038000000000C0FC3F03031FFFFCC00000000092
:100390000F1F3E3E0F01FFFF000000000000008025
:1003A00000000000000007FFFF07000000FCFF073F
:1003B00000000000000000FFFF000000000000E05F
:1003C000FE0F000000000000000000000000000020
:1003D000C0FF7F000000030303030303FFFF0303C9
:1003E0000300000000000000C0FF7F000000000FBD
:1003F000FFFF80000080FF7F00000000FEFF030081
:1004000000000000000000FFFF8000000080FFFFF0
:10041000000000000000000080FCFF07000000005A
:100420000000FFFFFF000000000000031F3F7C7C76
:100430003F1F0300000000007C7C7C7F7F7C7C7C75
:100440000000007F7F7C7C7C7C7C7C000000003F87
:100450007E7C7C7E1F070000000000000000000082
:100460007F7F00000000001F3E7C7C3E1F070000D5
:1004700000000000031F7F7C7C3F0700000000009D
:100480007F7F000000000000000000011F3F7E7C15
:100490007E3F1F01000000003E7C7C7E3F0F01007C
:1004A00000000000000000010000000000000A1031
:1004B0002E0C0114000000000000000000000000ED
:1004C000000000000000000078FC020303030302A8
:1004D000FC780000000000000000FF7E00000283A6
:1004E00083838302FC780000028383838302FC7889
:1004F0007EFF008080808000FF7E78FC0283838303
:100500008302000078FC02838383830200000002E0
:10051000030303030302FC7878FC028383838302D2
:10052000FC7878FC028383838302FC7800000060FF
:10053000F0F060000000000000000000000000007B
:100540001E3F40C0C0C0C0403F1E00000000000071
:100550000000FF7E1C3E41C1C1C1C141000000003E
:1005600041C1C1C1C1413E1C0000010101010101A5
:10057000FF7E000041C1C1C1C1413E1C1C3E41C1C2
:10058000C1C1C1413E1C0000000000000000FF7E10
:100590001C3E41C1C1C1C1413E1C000041C1C1C19D
:1005A000C1413E1C0810206002380000000000001D
:1005B0000000000000FE0000000000000E000E0021
:1005C000000000D0BE90D0BE9000001C62FFC28030
:1005D00000000C12924CB0880600807C62B21CC0F5
:1005E000000000000E0E0000000000E018040202EF
:1005F00000000002020418E000000024187E182405
:100600000000808080F080808000000000000000FA
:1006100000000080808080000000000000000000DA
:1006200000000000806018060000F804C2320CF8D8
:100630000000000404FE0000000000028242221CB0
:1006400000000002222222DC0000C0A09884FE806C
:100650008000001E121222C20000F844222222C092
:100660000000000202C2320A0600008C5222528CA4
:1006700000003C42424226F80000000030300000FA
:10068000000000003030000000008080404020204A
:10069000100040404040404000001020204040807A
:1006A000800000028242221C0000000000000000C6
:1006B0000000000000050000000000000000000035
:1006C000000000070000070000000004040F0403FE
:1006D00000000402010304040300030404040503EE
:1006E00004000000000000000000000306081010D5
:1006F00000000010100806030000000000000000C9
:10070000000000000007000000000000160E0000BE
:1007100000000000000000000000000006060000CD
:1007200000000402010000000000010304040201B3
:10073000000000040407040400000007040404048B
:10074000000000040404040300000000000007008F
:100750000000000404040403000001020404040374
:100760000000000007000000000000030404040370
:10077000000000040404020100000000060600005E
:1007800000000000160E000000000000010102023F
:100790000400010101010101000004020201010045
:1007A00000000000050000000000F804728AFA84CE
:1007B000780000C0380638C0000000FE222222DC8B
:1007C0000000F804020202020000FE02020204F825
:1007D000000000FE22222222000000FE222222220D
:1007E0000000F804020222E20000FE20202020FE89
:1007F0000000000202FE020200000000000202FEF1
:100800000000FE40B0080402000000FE00000000EE
:100810000000FE0C7080700CFE00FE0C30C000FE6C
:100820000000F804020204F80000FE424242221CCA
:100830000000F804020204F8000000FE4242A21C7C
:100840000000001C224242800000020202FE02025E
:100850000200FE00000000FE00000638C000C038A4
:1008600006003EC0F00EF0C03E00000698609806FC
:100870000000000618E0180600000202C2320A0654
:1008800000000000FE020202020000061860800064
:10089000000002020202FE00000040300C0C30405A
:1008A0000000000000000000000001020404040039
:1008B0000000060101010101060000070404040311
:1008C00000000102040404040000070404040201FF
:1008D00000000007040404040000000700000000FA
:1008E00000000102040404070000070000000007E4
:1008F00000000004040704040000000404040403CE
:1009000000000700000102040000000704040404C2
:1009100000000700000100000700070000000307B7
:1009200000000102040402010000070000000000B2
:1009300000000102040C1211100000070000010663
:10094000000000040404040300000000000700008D
:100950000000030404040403000000000106010079
:10096000000000070000000700000006010001066B
:100970000000000000070000000006050404040455
:10098000000000001F101010100000000000010205
:100990000400101010101F000000000000000000F4
:1009A0000000080808080808000000000204000011
:1009B000000000E0101010F0000000FE201010E019
:1009C000000000E010101010000000E0101010FEF9
:1009D000000000E0909090E000000020FC22222225
:1009E000020000E0101010F0000000FE201010E0E7
:1009F00000001010F2000000000000101010F200C3
:100A0000000000FE804020100000000202FE0000F6
:100A10000000F02010F02010F00000F0201010E096
:100A2000000000E0101010E0000000F0201010E0C6
:100A3000000000E0101010F0000000F02010107016
:100A400000000060909090200000002020FC2020FA
:100A5000200000F0000000F00000007080008070B6
:100A60000000F000C030C000F0000030C0C0300016
:100A700000000030C0008070000000101090503066
:100A800000000080807E02020000000000FE0000E6
:100A900000000002027E80800000008080000000D4
:100AA00080000000000000000000000000000000C6
:100AB000000000030404020700000007040404030C
:100AC00000000003040404040000000304040207FF
:100AD00000000003040404040000000007000000FC
:100AE000000000332424221F00000007000000073C
:100AF00000000000070404000000202020201F0048
:100B000000000007000102040000000000070404C8
:100B100000000700000700000700000700000007B2
:100B200000000003040404030000003F0404040365
:100B3000000000030404023F000000070000000062
:100B40000000000204040403000000000003040489
:100B50000400000304040207000000000304030073
:100B60000000010601000106010000060101060067
:100B700000002020310E03000000000605040404DC
:100B800000000000001F101000000000000700001F
:100B900000000010101F0000000001000001010112
:100BA00000000000000000000000050800FF0C4BE2
:100BB00000000000003E5B4F5B3E3E6B4F6B3E1CF7
:100BC0003E7C3E1C183C7E3C181C577D571C1C5E0E
:100BD0007F5E1C00183C1800FFE7C3E7FF001824E5
:100BE0001800FFE7DBE7FF30483A060E262979298F
:100BF00026407F050507407F05253F5A3CE73C5AC4
:100C00007F3E1C1C08081C1C3E7F14227F22145FA0
:100C10005F005F5F06097F017F006689956A6060FB
:100C200060606094A2FFA29408047E040810207EF5
:100C3000201008082A1C08081C2A08081E1010107A
:100C4000100C1E0C1E0C30383E3830060E3E0E06C0
:100C5000000000000000005F000000070007001413
:100C60007F147F14242A7F2A1223130864623649D2
:100C70005620500008070300001C224100004122BA
:100C80001C002A1C7F1C2A08083E080800807030BF
:100C9000000808080808000060600020100804022E
:100CA0003E5149453E00427F400072494949462134
:100CB00041494D331814127F1027454545393C4AA8
:100CC00049493141211109073649494936464949BF
:100CD000291E000014000000403400000008142207
:100CE0004114141414140041221408020159090675
:100CF0003E415D594E7C1211127C7F494949363E76
:100D0000414141227F4141413E7F494949417F095B
:100D10000909013E414151737F0808087F00417F66
:100D200041002040413F017F081422417F40404064
:100D3000407F021C027F7F0408107F3E4141413EFC
:100D40007F090909063E4151215E7F09192946267E
:100D50004949493203017F01033F4040403F1F2082
:100D600040201F3F4038403F631408146303047859
:100D700004036159494D43007F4141410204081079
:100D800020004141417F04020102044040404040B4
:100D9000000307080020545478407F284444383822
:100DA00044444428384444287F3854545418000894
:100DB0007E090218A4A49C787F0804047800447D6E
:100DC00040002040403D007F1028440000417F400B
:100DD000007C047804787C0804047838444444385F
:100DE000FC1824241818242418FC7C08040408483F
:100DF0005454542404043F44243C4040207C1C2090
:100E000040201C3C4030403C44281028444C9090EA
:100E1000907C4464544C4400083641000000770044
:100E200000004136080002010204023C2623263C51
:100E30001EA1A161123A4040207A385454555921DC
:100E400055557941215454784121555478402054C6
:100E50005579400C1E527212395555555939545412
:100E6000545939555454580000457C410002457D81
:100E7000420001457C40F0292429F0F0282528F083
:100E80007C545545002054547C547C0A097F4932D7
:100E9000494949323248484832324A4848303A4152
:100EA00041217A3A42402078009DA0A07D394444F7
:100EB00044393D4040403D3C24FF2424487E494382
:100EC000662B2FFC2F2BFF0929F620C0887E0903F3
:100ED00020545479410000447D413048484A32381A
:100EE0004040227A007A0A0A727D0D19317D262946
:100EF000292F28262929292630484D40203808083E
:100F0000080808080808382F10C8ACBA2F10283471
:100F1000FA00007B000008142A142222142A140864
:100F2000AA005500AAAA55AA55AA000000FF001061
:100F30001010FF00141414FF001010FF00FF101019
:100F4000F010F0141414FC001414F700FF0000FF5C
:100F500000FF1414F404FC141417101F10101F10B9
:100F60001F1414141F00101010F0000000001F10B8
:100F70001010101F10101010F010000000FF1010C3
:100F800010101010101010FF10000000FF140000CF
:100F9000FF00FF00001F10170000FC04F4141417DA
:100FA00010171414F404F40000FF00F714141414C0
:100FB000141414F700F7141414171410101F101F32
:100FC000141414F4141010F010F000001F101F007F
:100FD00000001F14000000FC140000F010F01010BE
:100FE000FF10FF141414FF141010101F0000000055
:100FF000F010FFFFFFFFFFF0F0F0F0F0FFFFFF0049
:1010000000000000FFFF0F0F0F0F0F38444438445B
:101010007C2A2A3E147E02020606027E027E0263BB
:10102000554941633844443C04407E201E2006025A
:101030007E020299A5E7A5991C2A492A1C4C720137
:10104000724C304A4D4D303048784830BC625A4678
:101050003D3E494949007E0101017E2A2A2A2A2A69
:1010600044445F444440514A444040444A51400053
:1010700000FF0103E080FF000008086B6B083612D8
:10108000362436060F090F0600001818000000105D
:1010900010003040FF0101001F01011E00191D1743
:1010A00012003C3C3C3C000000000000000000241A
:1010B0000027002A0000000000250028002B000067
:1010C0000000080002010000030407000000000007
:1010D00000000001020408102040800102040810F2
:1010E000200102040810200000000023002600292F
:1010F00000040404040404040402020202020203C1
:10110000030303030300EE235F2D11241FBECFEF63
:10111000D8E0DEBFCDBF14E0A0E0B1E0EEE2F6E63D
:1011200002C005900D92AC3EB107D9F726E0ACEEB7
:10113000B4E001C01D92A233B207E1F718E0C4E8A1
:10114000D8E004C02197FE010E94F830C338D107CF
:10115000C9F70E94D1240C940A330C940000E0914A
:101160002506EC3088F54091260628E830E0241B5F
:10117000310947FD3395220F331F220F331F82178A
:10118000930784F04091270628E532E0241B3109BB
:1011900047FD3395220F331F220F331F821793070A
:1011A0000CF49C0122503109220F331F4FB7F894E1
:1011B0008E2F90E0FC01EE0FFF1FE80FF91FEC509F
:1011C000FA4F328321834FBF0895A1EEB5E0189600
:1011D0008C931897E82FF0E0EE0FFF1FEA59FC4FB1
:1011E00080819181FC01249116962C93169731965B
:1011F000E4911796EC931797FC013296E4911996B7
:10120000EC931997FC013396E4911A96EC931A9794
:10121000FC01349624913196E491F0E084E6289F15
:10122000E00DF11D11241E96FC93EE931D9781E0B5
:101230000895E82F8034E8F46033D8F42130D1F4F5
:101240004130B9F4862F86958695869520E4829F55
:10125000C0011124E80FF92FF11DE557FE4F67700B
:1012600021E030E001C0220F6A95EAF780818227F1
:1012700080830895862F86958695869520E4829FA3
:10128000C0011124E80FF92FF11DE557FE4F208111
:10129000677081E090E001C0880F6A95EAF74130FD
:1012A00011F4822BE5CF80958223E2CF7F928F923B
:1012B0009F92AF92BF92CF92DF92EF92FF920F93E5
:1012C0001F93CF93DF93C82FD62F142F702E422F4A
:1012D000461B550B6A0157FF03C0D194C194D10836
:1012E000812F8C1B990B5C0197FF03C0B194A194D3
:1012F000B108AC14BD0434F4812F122F282F8C2F89
:10130000CD2FD82F1C1730F48D2FD22F282F8C2FB4
:10131000C12F182F812E8C1A422F4D1B550BCA013D
:1013200057FF03C0919581959109F82E982C9694BA
:101330000FEFD21708F401E0C11790F42E2D472DBE
:101340006C2F8D2FAC14BD0414F06D2F8C2F0E94C8
:1013500019099F1897FE02C0D00F980CCF5FECCFF1
:10136000DF91CF911F910F91FF90EF90DF90CF9081
:10137000BF90AF909F908F907F9008959C01803197
:101380009742D4F486E0213F78ED3707BCF081E046
:1013900037FF04C031952195310982E04AE050E0E1
:1013A0009AE02417350754F08F5FBA01969FA00189
:1013B000979F500D1124F5CF85E008950895AF92C1
:1013C000BF92CF92DF92EF92FF920F931F93CF9332
:1013D000DF936C017B018B01040F151FEB015E0194
:1013E000AE18BF08C017D10759F06991D601ED9129
:1013F000FC910190F081E02DC6010995892B79F7C8
:10140000C501DF91CF911F910F91FF90EF90DF9079
:10141000CF90BF90AF900895FC01538D448D252F40
:1014200030E0842F90E0821B930B541710F0CF967E
:10143000089501970895FC01918D828D981761F0B0
:10144000A28DAE0FBF2FB11D5D968C91928D9F5FC7
:101450009F73928F90E008958FEF9FEF0895FC01A6
:10146000918D828D981731F0828DE80FF11D858D59
:1014700090E008958FEF9FEF0895FC01918D228DEC
:10148000892F90E0805C9F4F821B91098F73992771
:10149000089584E495E00E943D0A21E0892B09F437
:1014A00020E0822F089580E090E0892B29F00E94AF
:1014B000490A81110C9400000895FC01A48DA80F25
:1014C000B92FB11DA35ABF4F2C91848D90E0019686
:1014D0008F739927848FA689B7892C93A089B189A6
:1014E0008C91837080648C93938D848D981306C047
:1014F0000288F389E02D80818F7D80830895EF92AB
:10150000FF920F931F93CF93DF93EC0181E0888FBD
:101510009B8D8C8D98131AC0E889F989808185FF8D
:1015200015C09FB7F894EE89FF896083E889F9892F
:1015300080818370806480839FBF81E090E0DF9131
:10154000CF911F910F91FF90EF900895F62E0B8D84
:1015500010E00F5F1F4F0F731127E02E8C8D8E113F
:101560000CC00FB607FCFACFE889F989808185FFA6
:10157000F5CFCE010E945D0AF1CFEB8DEC0FFD2F70
:10158000F11DE35AFF4FF0829FB7F8940B8FEA8961
:10159000FB8980818062CFCFCF93DF93EC01888D70
:1015A0008823B9F0AA89BB89E889F9898C9185FDDE
:1015B00003C0808186FD0DC00FB607FCF7CF8C916C
:1015C00085FFF2CF808185FFEDCFCE010E945D0ABD
:1015D000E9CFDF91CF910895833081F028F48130F5
:1015E00099F08230A9F008958730A9F08830C9F0C9
:1015F0008430B1F4809180008F7D03C080918000A1
:101600008F7780938000089584B58F7784BD089587
:1016100084B58F7DFBCF8091B0008F778093B00031
:1016200008958091B0008F7DF9CFCF93DF93282F5D
:1016300030E0F901E154FF4E8491F901ED52FF4E83
:10164000D491F901EF50FF4EC491CC23A1F0811148
:101650000E94EC0AEC2FF0E0EE0FFF1FE951FF4E65
:10166000A591B491EC91ED2381E090E009F480E044
:10167000DF91CF91089580E090E0FACF1F93CF9350
:10168000DF93282F30E0F901E154FF4E8491F901F6
:10169000ED52FF4ED491F901EF50FF4EC491CC238F
:1016A000A9F0162F81110E94EC0AEC2FF0E0EE0F4A
:1016B000FF1FEB54FF4EA591B4918FB7F894EC91B6
:1016C000111108C0D095DE23DC938FBFDF91CF913D
:1016D0001F910895DE2BF8CFCF93DF9390E0FC01AC
:1016E000ED52FF4E24918F509F4EFC018491882330
:1016F000C9F090E0880F991FFC01E555FF4EA591B8
:10170000B491FC01EB54FF4EC591D49161110DC011
:101710009FB7F8948C91209582238C9388812823FD
:1017200028839FBFDF91CF910895623051F49FB716
:10173000F8943C91822F809583238C93E8812E2B03
:10174000EFCF8FB7F894EC912E2B2C938FBFEACF6D
:101750008E50806480937C0080917A0080648093B6
:101760007A0080917A0086FDFCCF8091780090917C
:10177000790008953FB7F894809106059091070588
:10178000A0910805B091090526B5A89B05C02F3F7B
:1017900019F00196A11DB11D3FBFBA2FA92F982F97
:1017A0008827BC01CD01620F711D811D911D42E092
:1017B000660F771F881F991F4A95D1F708958F925A
:1017C0009F92AF92BF92CF92DF92EF92FF924B0126
:1017D0005C010E94BA0B6B017C010E94BA0B6C1970
:1017E0007D098E099F09683E734081059105A8F324
:1017F00021E0821A9108A108B10888EEC80E83E0A2
:10180000D81EE11CF11C81149104A104B10429F734
:10181000FF90EF90DF90CF90BF90AF909F908F9010
:1018200008952FB7F8946091020570910305809197
:101830000405909105052FBF0895089508950DB4EE
:1018400007FEFDCF2898209A2A9A22988CB58F7B84
:101850008CBD08958CB580648CBD2A98229A089519
:101860002F923F924F925F926F927F928F929F92B0
:10187000AF92BF92CF92DF92EF92FF920F931F939E
:10188000CF93DF93EC010E811F818F849888AC8009
:10189000BD80B8016A197B0990E080E00E94682D44
:1018A0006B017C016D8570E090E080E00E946A2D04
:1018B0002B013C013B802A808C858230C0F58A1840
:1018C0009B08B40190E080E00E94682DA70196017A
:1018D0000E94962FA30192010E94C92D0E940F30F1
:1018E000162F862F820D43E0480FEE24E39401E08B
:1018F000232D632D0E9456096B816F5F8A818F5F54
:1019000021E041E0810FDF91CF911F910F91FF9076
:10191000EF90DF90CF90BF90AF909F908F907F908F
:101920006F905F904F903F902F900C941909081979
:101930001909B80190E080E00E94682DA701960186
:101940000E94962FA30192010E94C92D0E940F3080
:10195000162F630D87E0820D23E0260FEE24E3941B
:1019600001E0482F0E9456096B816F5F610F8A81E9
:1019700021E041E08A5FC7CFCF92DF92EF920F93D1
:10198000CF93DF936C01FC01C5858485823040F5DF
:10199000D281CD0FCE5FDF5FF601DC1770F463817B
:1019A00028E0260F6B5FE090E6050091E5054D2FDE
:1019B0008D2F0E945609DE5FEFCFD281DF5FDC17EB
:1019C000B0F5F601638125E0260F6D5FE090E60536
:1019D0000091E5054D2F8D2F0E945609D65FEFCF60
:1019E000D381CD0FCE5FDF5FF601CD1768F0828126
:1019F00043E0480FE090E6050091E5052D2F6D2F9F
:101A00000E945609DE5FF0CFD381DF5FCD1778F0FB
:101A1000F601828145E0480FE090E6050091E5057A
:101A20002D2F6D2F8D5F0E945609D65FEFCFDF916E
:101A3000CF910F91EF90DF90CF9008951F93CF93A8
:101A4000DF93EC018E819F810E94BE09182F8C814B
:101A50009D810E94BE09912F181708F4982F9B872B
:101A6000DF91CF911F910895CF93DF93EC01E8812F
:101A7000F9810280F381E02D0995E881F9810084E4
:101A8000F185E02DCE010995E881F9810190F08181
:101A9000E02DCE01DF91CF910994CF93DF93EC013C
:101AA0008E819F8186179707A4F08C819D8168178E
:101AB00079077CF0CB01798768870E94BE098A8705
:101AC000E881F9810190F081E02DCE01DF91CF9185
:101AD0000994DF91CF9108955F926F927F928F92D8
:101AE0009F92AF92BF92CF92DF92EF92FF920F93AD
:101AF0001F93CF93DF93EC016A3031F48C859F8183
:101B0000890F8C871B86C4C06D3009F4C1C0162FA5
:101B10008985681708F4AEC02A85280F3327331F3C
:101B2000621713060CF0A6C0CD80BC80DC84AB84A9
:101B3000181B7F8076947694769421E02715A8F17F
:101B40000A2D902F9A198E81891708F493C0E0E02E
:101B5000891791F0A885B0E0AA0FBB1FAA59BC4F06
:101B6000189FF001112436969F01290F311DED9128
:101B7000FC91E20FF31FE491912CEE2EF12C6D2DD0
:101B8000690D2C2D4B2DE0FD04C041E0B11040E06B
:101B90002C2D802F0E941909F701F595E795939454
:101BA00038E09312EACF0F5FCCCFED85FE852E8112
:101BB00030E0012F10E0CF01B9010E94E430C801EC
:101BC0000E94E4307E9EA0017F9E500D1124469F0E
:101BD0008001479F100D569F100D1124829FA00178
:101BE000839F500D929F500D1124040F151FF12C4F
:101BF000E12C0A5F1F4F6A2CE62DEA198E81E81747
:101C000088F5A885B0E0AA0FBB1FAA59BC4F8D85E7
:101C10009E85E89E4001E99E900CF89E900C112450
:101C2000800E911E8E0E911CED91FC91E80DF91D18
:101C3000E491512C8E2E912C652D6D0D2C2D4B2D5C
:101C4000E0FD04C041E0B11040E02C2D862D0E9443
:101C50001909F401F595E795539488E05812EACFF5
:101C60006394CACF2FEFE21AF20A38E0D30EE714DA
:101C700008F4C1CF9E818B85890F8F5F8B8720E40D
:101C800030E0291B31098217130611F00CF036CF12
:101C900081E090E0DF91CF911F910F91FF90EF9045
:101CA000DF90CF90BF90AF909F908F907F906F907C
:101CB0005F9008950C946C0D0DB407FEFDCF089550
:101CC000CF93DF93D82FC62F0E942A0CDEBD0E942F
:101CD0005C0ECEBDDF91CF910C941F0CCF93DF93A0
:101CE00060E080E20E94600E0E942A0C81E28EBDBC
:101CF0000E945C0E80E28EBD0E945C0E8FE58EBD60
:101D00000E941F0C0E942A0C82E28EBD0E945C0E73
:101D10001EBC0E945C0E85E08EBD0E941F0C0E94BE
:101D20002A0C289A209880918B018EBDCCE8D1E0B6
:101D30000E945C0E89918EBD83E0CB30D807C1F73D
:101D40000E941F0C62E080E2DF91CF910C94600E44
:101D50000895089590E080E00895CF92DF92EF9289
:101D6000FF92CF93DF9320918001222391F16B01A9
:101D7000EC010E94110C0D2C000CEE08FF08C60EA1
:101D8000D71EE81EF91E9E01DD0F440B550B60E2C5
:101D900071EA87E090E00E949D2E220F331F220FF0
:101DA000331FE90125970E94110C6C157D058E05E6
:101DB0009F0578F461E086E00E943E0BCE0101971A
:101DC000F1F760E086E00E943E0BCE010197F1F74B
:101DD000EACFDF91CF91FF90EF90DF90CF90089501
:101DE0006CE870E080E699E00E94AD0E64E670E079
:101DF00080E090E00E94DF0B6CE870E080EA9FE0FA
:101E00000E94AD0E64E670E080E090E00E94DF0B7F
:101E10006CE870E080E699E00E94AD0E64E670E048
:101E200080E090E00E94DF0B6CE870E080EA9FE0C9
:101E30000C94AD0E20916F013091700180915F0183
:101E40009091600128173907D9F5209171013091DF
:101E5000720180916101909162012817390781F523
:101E6000909173018091630198132AC020917401AD
:101E700030917501809164019091650128173907AF
:101E8000F9F420917601309177018091660190916B
:101E9000670128173907A1F490917C0180916C01AA
:101EA00098130EC081E04091780150917901209102
:101EB0006801309169014217530719F480E00895D1
:101EC00081E0089590917D0180914F0198134CC05D
:101ED00020917E0130917F018091500190915101BC
:101EE0002817390709F040C0909180018091520174
:101EF00098133AC020918101309182018091530161
:101F0000909154012817390779F520918301309178
:101F1000840180915501909156012817390721F5C8
:101F200020918701309188018091590190915A0147
:101F300028173907C9F42091890130918A018091CD
:101F40005B0190915C012817390771F481E04091A1
:101F50008501509186012091570130915801421717
:101F6000530719F480E0089581E008958FE00E94FE
:101F7000A80B803921E0920734F08438934034F084
:101F800082E090E0089590E080E0089581E090E0A4
:101F9000089582E10E94A80B803921E0920774F035
:101FA0008C3B22E092076CF0803223E0920764F0D1
:101FB0008438934064F081E090E0089590E080E000
:101FC000089584E090E0089583E090E0089582E031
:101FD00090E008958EE00E94150B21E0892B09F016
:101FE00020E0822F089590917301933030F49F5F29
:101FF00081E0943609F080E0089594E6F9CFEF92FD
:10200000FF920F931F93CF93DF9320917C01233096
:10201000D1F58B01EC018881811112C0E090F004B0
:10202000F090F1040E94EA0F882339F08FEFE81A4C
:10203000F80AF092F104E092F0048881882379F0A4
:10204000E090F004F090F1040E94EA0F811107C0C3
:10205000EFEFEE1AFE0AF092F104E092F0048091A4
:10206000F0049091F104C39774F01092F10410926F
:10207000F004888191E089278883882321F0F80182
:1020800080818F5F8083DF91CF911F910F91FF90AF
:10209000EF9008958F929F92AF92BF92CF92DF926E
:1020A000EF92FF920F931F93CF93DF93882341F01A
:1020B0001092EC041092ED041092EE041092EF04D2
:1020C000C0915D01D0915E0100916D0110916E0192
:1020D0000C171D0754F48091780190917901892B98
:1020E000B1F410935E0100935D0180915D019091C8
:1020F0005E01DF91CF911F910F91FF90EF90DF90E4
:10210000CF90BF90AF909F908F900C94AF08C090ED
:10211000EC04D090ED04E090EE04F090EF04C114D4
:10212000D104E104F10451F00E94110C9B01AC01B7
:102130002C193D094E095F0969017A010E94110CB1
:102140004B015C012091780130917901032E000C44
:10215000440B550BC701B6010E94F32E861A970A4D
:10216000A80AB90A8092EC049092ED04A092EE04C1
:10217000B092EF046AE0629FC001639F900D11244A
:10218000C81BD90BC017D1070CF4E801D0935E012E
:10219000C0935D01AACF60E081E00E943E0B88EE13
:1021A00093E00C94AF0860E081E00E943E0B81E078
:1021B0000C944A10DC01ED91FD918081ED91FD912F
:1021C0009081ED91FD916C9163708E2309F06460B4
:1021D0009F2309F06860E7EFF0E1E60FF11D6595D8
:1021E00065956D936D917D918D919D91099423C01D
:1021F0001AC012C016C010C01EC009C014C013C03F
:1022000006C019C009C00DC007C00DC014C062507F
:102210007040804090400BC06150704080409040C2
:1022200006C06E5F01C06F5F7F4F8F4F9F4F9E93C1
:102230008E937E936E9308958091F0059091F105B1
:102240000C94DA108091F2059091F3050C94DA1059
:1022500080912406823078F4F89489E196E00E9417
:10226000DA106091200670912106809122069091EB
:10227000230678940895F894F4CFFB010190002090
:10228000E9F73197AF01461B570B0C94DF098F928A
:102290009F92AF92BF92EF92FF920F931F93CF93B3
:1022A000DF93CDB7DEB7A1970FB6F894DEBF0FBEB0
:1022B000CDBF7C01FA01CB0119A2223008F42AE03B
:1022C0008E010F5D1F4F822E912CB12CA12CBF01CE
:1022D000A50194010E94F32EF901CA016A300CF5A0
:1022E000605DD8016E938D01232B242B252B79F76C
:1022F00090E080E0109721F0BD01C7010E943D11E0
:10230000A1960FB6F894DEBF0FBECDBFDF91CF917F
:102310001F910F91FF90EF90BF90AF909F908F9083
:102320000895695CDECFCF92DF92EF92FF920F9318
:102330001F93CF93DF936B01770FEE08FF08F7FE33
:102340001BC0EC016DE20E945A0E8C0144275527F8
:10235000BA014C195D096E097F092AE0CE010E947D
:102360004711800F911FDF91CF911F910F91FF9027
:10237000EF90DF90CF9008952AE0B701A601DF919A
:10238000CF911F910F91FF90EF90DF90CF900C9421
:1023900047118F929F92AF92BF92CF92DF92EF92AE
:1023A000FF921F93CF93DF936B017C01B42E20E04B
:1023B00030E0A9010E94632DD0E0C0E087FF0AC091
:1023C0006DE281EE95E00E945A0EEC01F7FAF0946E
:1023D000F7F8F09410E060E070E080E09FE31B15F8
:1023E00041F020E030E040E251E40E94962F1F5F70
:1023F000F6CFA70196010E94252F6B017C010E9458
:102400000F304B015C012AE0BC01A40181EE95E094
:102410000E944711C80FD91F1123D1F1C501B40182
:102420000E94682D9B01AC01C701B6010E94242FB8
:102430006B017C016EE281EE95E00E945A0EC80F9E
:10244000D91F115028F120E030E040E251E4C701EB
:10245000B6010E94C92D4B015C010E940F306B0137
:10246000F12CE12C2AE0B701A60181EE95E00E9453
:102470004711C80FD91FC701B6010E94682D9B01E3
:10248000AC01C501B4010E94242F6B017C01D9CF9E
:10249000CE01DF91CF911F91FF90EF90DF90CF9011
:1024A000BF90AF909F908F9008956115710511F0C6
:1024B0000C943D1190E080E008950F931F93CF930B
:1024C000DF93EC018B01CB010E94BE09CB85C81BB9
:1024D000CC2341F062E973E081EE95E00E94551251
:1024E000C150F6CFB80181EE95E0DF91CF911F91F9
:1024F0000F910C949311CF93DF93EC01E881F98154
:102500000084F185E02D099588859985988B8F87C2
:10251000E881F9810084F185E02DCE0109958E8551
:10252000811119C09A819F5F2B85822F880F820F9E
:10253000981B8B812C859093EC05222351F0865FAC
:102540008093ED056F857889CE01DF91CF910C9452
:102550005D12855FF5CFDF91CF910895CF93DF9323
:10256000EC01E881F9810084F185E02D09958885E9
:102570009985988B8F87E881F9810084F185E02D1A
:10258000CE0109958E85811124C08B819A812C857D
:102590002130A1F020F02230A9F0975F17C02D85DF
:1025A000920F9C5F9093EC058F5F8093ED056F8594
:1025B0007889CE01DF91CF910C945D129093EC0558
:1025C000865FF3CF2D85820F8C5F9F5F9093EC0524
:1025D000ECCFDF91CF9108956F927F928F929F926F
:1025E000AF92BF92CF92DF92EF92FF920F931F9321
:1025F000CF93DF93EC015B01390180902E05909021
:102600002F05F40155834483C4010E941E0DF4017B
:1026100077826682C4010E941E0D80912A01882360
:1026200029F0C4010E94340D10922A011092EC0589
:1026300084E08093ED05F5014481558160817181CD
:1026400081EE95E00E94DF090E9428118090F80435
:102650009090F904A090FA04B090FB04DC01CB0147
:10266000880D991DAA1DBB1D8093F8049093F90451
:10267000A093FA04B093FB04F894109220061092F1
:102680002106109222061092230678946091F80495
:102690007091F9048091FA049091FB049601DD0C8D
:1026A000440B550B4B015C0197FF07C0882499240C
:1026B0005401861A970AA80AB90A82169306A40634
:1026C000B50624F4E0912A01EE23C1F00E949D2E6C
:1026D00088819981280F391F201731072CF0890133
:1026E000E216F3060CF48701198308831092F804AC
:1026F0001092F9041092FA041092FB048EE1809378
:10270000EC0588E28093ED056881798181EE95E0A2
:102710000E949311888199810A9734F462E973E0E9
:1027200081EE95E00E945512888199818436910549
:1027300034F462E973E081EE95E00E9455126881FD
:10274000798180912E0590912F050E944D0DDF918A
:10275000CF911F910F91FF90EF90DF90CF90BF909E
:10276000AF909F908F907F906F900C946E0E4F92D1
:102770005F926F927F92AF92BF92CF92DF92EF9271
:10278000FF920F931F93CF93DF935C018B016A013C
:10279000D22F0E9428114090F8045090F9046090C4
:1027A000FA047090FB04DC01CB01840D951DA61D7D
:1027B000B71D8093F8049093F904A093FA04B093A2
:1027C000FB04F89410922006109221061092220623
:1027D0001092230678946091F8047091F904809126
:1027E000FA049091FB042B013C0197FF07C044249D
:1027F00055243201461A570A680A790A24E042161B
:10280000510461047104DCF0D501CC91C11102C006
:1028100097FD0DC024E030E040E050E00E949D2E86
:102820002C0F2D1710F02FEF2D0FF5012083109294
:10283000F8041092F9041092FA041092FB0410921A
:10284000EC058EE08093ED05B80181EE95E00E94E5
:10285000551281E00E94E508D501EC91F0E0EE0F01
:10286000FF1FEC0DFD1D80819181FC012191AF01C5
:10287000481B590B2111FACF8091E8059091E7058B
:10288000949F9001959F300D1124C8E3D0E0C21BA6
:10289000D30BC230D10574F1D595C7952197CD31B1
:1028A000D10514F0CCE1D0E010E034E3F32EF80EC3
:1028B000E12C00E02F2D412F6AE1812F0E94560963
:1028C0001F5F1733A9F7C093EC058AE18093ED05EC
:1028D000F501808190E0880F991FC80ED91ED6019E
:1028E000CD91DC916991662339F081EE95E00E94EB
:1028F0005A0EF8CFC0E0D8CF0E946E0E10922A0177
:1029000080E0DF91CF911F910F91FF90EF90DF90CA
:10291000CF90BF90AF907F906F905F904F900C944E
:10292000E5088091890190918A0184369105C4F46B
:102930000A97C4F48EE28093EC051092ED0564E9E9
:1029400073E081EE95E00E945512609189017091CB
:102950008A0181EE95E00E94931180E00C94E508D5
:1029600082E2E9CF88E2E7CF4F925F926F927F9247
:102970008F929F92AF92BF92CF92DF92EF92FF928F
:10298000CF93DF9380912A01882331F080912C0529
:1029900090912D050E94340D0E94110CAB01BC01D9
:1029A00080900B0590900C05A0900D05B0900E0541
:1029B00080910F0590911005A0911105B09112051D
:1029C000845D9E4FAF4FBF4F84179507A607B7078B
:1029D00008F06FC081E10E94A80BBC01990F880B21
:1029E000990B0E946A2D20E138E541EA50E40E94EB
:1029F000C92D20E030E040E85AE30E94C92D2CE8C0
:102A00003EE24AEB5DE30E94962F20E030E040E298
:102A100051E40E94C92D0E940830072E000C880B3B
:102A2000990B0E946A2D20E030E040E251E40E94C0
:102A3000962F2B013C01E090F204F090F304E701A3
:102A4000CC0FDD1FCC0FDD1FCD5EDA4F2881398121
:102A50004A815B81C501B4010E94242F9B01AC0116
:102A6000488259826A827B82C301B2010E94252F6B
:102A700060930B0570930C0580930D0590930E05E4
:102A80008FEFE81AF80AF092F304E092F20486E07D
:102A9000E816F10424F01092F3041092F2040E945C
:102AA000110C60930F05709310058093110590939E
:102AB000120520E030E040EC50E460910B0570918D
:102AC0000C0580910D0590910E050E94962F6B01CB
:102AD0007C016091810170918201072E000C880BAE
:102AE000990B0E946A2D20E030E040E251E40E9400
:102AF000962F9B01AC01C701B6010E94252F6B01E7
:102B00007C0120E030E040E251E40E94C92D0E94A7
:102B1000083080912C0590912D050E944D0D8091DB
:102B20002B05882309F49EC00E9491142DEC3CECE7
:102B30004CE251E4C701B6010E94632D87FF23C018
:102B40008090F4049090F504A090F604B090F704FF
:102B500088EB880E8BE0981EA11CB11C0E94110C02
:102B600086169706A806B90670F40E94CB100E943C
:102B7000DC230E94110C6093F4047093F50480939D
:102B8000F6049093F70423E333E34BE251E4C701E7
:102B9000B6010E94632D87FF23C08090F4049090BB
:102BA000F504A090F604B090F7048CED880E85E053
:102BB000981EA11CB11C0E94110C86169706A8062F
:102BC000B90670F40E94CB100E94DC230E94110C05
:102BD0006093F4047093F5048093F6049093F704E3
:102BE0002AE939E949E251E4C701B6010E94632D9F
:102BF00087FF23C08090F4049090F504A090F60421
:102C0000B090F70488EE880E83E0981EA11CB11CDA
:102C10000E94110C86169706A806B90670F40E9449
:102C2000CB100E94F00E0E94110C6093F40470937C
:102C3000F5048093F6049093F70420E030E048E236
:102C400051E4C701B6010E94632D87FF65C00E9451
:102C5000CB100E94F00E68EC70E080E090E00E94E3
:102C6000DF0BF5CF89E28093EC051092ED0520E0B3
:102C700030E040E251E4C701B6010E94632D87FFB6
:102C800006C067E973E081EE95E00E945512A70146
:102C90009601C701B6010E948A3069E973E081118B
:102CA00026C046015701E894B7F82FEF3FEF4FE7F2
:102CB0005FE7C501B4010E948A3081110CC02FEF7B
:102CC0003FEF4FE75FE7C501B4010E94632D6DE957
:102CD00073E0181664F02FEF3FEF4FE75FE4C70192
:102CE000B6010E947D3018163CF461EA73E081EE73
:102CF00095E00E943D111ACF2FEF3FEF4FE75FECB9
:102D0000C701B6010E94632D87FDEFCF41E0C701E7
:102D1000B6010E94C9110ACF88E38093EC0587E2CF
:102D20008093ED0565EA73E081EE95E0DF91CF9148
:102D3000FF90EF90DF90CF90BF90AF909F908F90DB
:102D40007F906F905F904F900C945512EBE8F1E0FC
:102D500080E891E0DF019C011D9221503040E1F7B5
:102D60000895CF92DF92EF92FF920F931F93CF932C
:102D7000DF93EB017B012EE0E20EF11C8B016C0175
:102D8000C61AD70AC601800F911F0E94872EF8012C
:102D900081938F01EE15FF05A9F7CE01DF91CF9149
:102DA0001F910F91FF90EF90DF90CF900895482FE3
:102DB0004150550B9A0144E1429FC001439F900D41
:102DC00011246FE671E048960E94B1168EE0EFE69E
:102DD000F1E0AFE5B1E001900D928A95E1F762E391
:102DE00070E080EA9FE00E94AD0E62E370E080E058
:102DF00090E00E94DF0B64E670E080EA9FE00C94B4
:102E0000AD0EFC0180819181009711F00C94A931E5
:102E100008950C94A9310C94A9310C94A931EF9226
:102E2000FF920F931F93CF93DF93EC017B018A01F5
:102E300088819981009729F02A813B8124173507E1
:102E400088F4B8016F5F7F4F0E943232009791F093
:102E5000998388831B830A832C813D81232B11F462
:102E6000FC0110821D830C83B701888199810E9427
:102E700003330CC088819981009711F00E94A93119
:102E8000198218821D821C821B821A82CE01DF9158
:102E9000CF911F910F91FF90EF900895FC01118247
:102EA00010821382128215821482FB01019000208D
:102EB000E9F73197AF01461B570B0C940F17AF92F0
:102EC000BF92CF92DF92EF92FF920F931F93CF9317
:102ED000DF93EC016B015A0179012417350720F4C7
:102EE0008B2D5901E42EF82E63E973E0CE010E9488
:102EF0004E17D60114960D911C91A016B10628F517
:102F0000E016F10608F48701D601ED91FC911197C6
:102F1000E00FF11FF08010826D917C916A0D7B1D96
:102F200061157105F1F0FB0101900020E9F731977F
:102F3000AF01461B570BCE010E940F17F60180818F
:102F40009181080F191FD801FC92CE01DF91CF911A
:102F50001F910F91FF90EF90DF90CF90BF90AF90B7
:102F6000089588819981009711F00E94A9311982F2
:102F700018821D821C821B821A82E0CF4F925F92C0
:102F80006F927F928F929F92AF92BF92CF92DF9279
:102F9000EF92FF920F931F93CF93DF9300D000D057
:102FA00000D01F92CDB7DEB79F838E83FC01A48033
:102FB000B580678570896A197B0990E080E00E947E
:102FC000682D6B017C01EE81FF81668177816A1932
:102FD0007B0990E080E00E94682D9B01AC01C70155
:102FE000B6010E94962F20E030E040E753E40E94B3
:102FF000C92D20E030E046E153E40E94252F25E36F
:103000003AEF4EE85CE30E94C92D2B013C010E947F
:10301000912F4B015C01EE81FF81658570E090E0AE
:1030200080E00E946A2D2AE939E949E95FE30E94BC
:10303000962F6B017C01C301B2010E94823069832B
:103040007A838B839C83EE81FF811381F281FD83E0
:10305000612F70E06F5F7F4F072E000C880B990B7C
:103060000E946A2D2B013C0129813A814B815C81B0
:10307000C701B6010E94C92D9B01AC01C301B20179
:103080000E94252F0E940F3069838D81682F70E088
:103090006F5F7F4F072E000C880B990B0E946A2DE3
:1030A0002B013C01A7019601C501B4010E94C92D65
:1030B0009B01AC01C301B2010E94252F0E940F3079
:1030C000462FEE24E39401E02981612F8D810E9437
:1030D000560927960FB6F894DEBF0FBECDBFDF911D
:1030E000CF911F910F91FF90EF90DF90CF90BF9005
:1030F000AF909F908F907F906F905F904F900895CA
:103100002F923F924F925F926F927F928F929F92F7
:10311000AF92BF92CF92DF92EF92FF920F931F93E5
:10312000CF93DF93CDB7DEB72F970FB6F894DEBFFE
:103130000FBECDBF1C01FC01F585F983FC01B380F6
:10314000A280C090E605D090E50581E0982EF98137
:103150009F1A8F2E8194880C6F2F6B0D2C2D4D2D67
:103160008A2D0E9419096B2D2981621B2C2D4D2D52
:103170008A2D0E9419092C2D4D2D6B2D89818A0DC8
:103180000E9419092C2D4D2D6B2D8A2D3981831B01
:103190000E9419091D828D81998189170CF053C0F5
:1031A00097FC05C09150998383948394980CED818A
:1031B000EF5FED838E2F880F8F5F980E7E2E7A0C37
:1031C0002C2D4D2DF980FB0C6F2D872D0E94190998
:1031D000EA2CFD81EF1A2C2D4D2D6F2D8E2D0E9486
:1031E00019092C2D4D2DFB2C3981F31A6F2D872DAC
:1031F0000E9419092C2D4D2D6F2D8E2D0E9419091D
:10320000FD80FB0C2C2D4D2D6F2DE980EA0C8E2DB1
:103210000E9419092C2D4D2D6F2DFA2C8981F81A39
:103220008F2D0E9419097B2C9D81791A2C2D4D2DF3
:10323000672D8E2D0E9419092C2D4D2D672D8F2D58
:103240000E941909A8CFE6E9F0E0FF87EE872E85F6
:103250003F85B901330F880B990B0E946A2D25E336
:103260003AEF4EE85CE30E94C92D2B013C010E941D
:10327000912F4B015C01F101658570E090E080E0E9
:103280000E946A2D6B017C0120E030E040EC5FE39E
:103290000E94962F69877A878B879C87C301B2012A
:1032A0000E9482302B013C01F101638170E06F5F6D
:1032B0007F4F072E000C880B990B0E946A2D6983A3
:1032C0007A838B839C83F101628170E06F5F7F4F13
:1032D000072E000C880B990B0E946A2D6D837E834C
:1032E0008F839887A3019201C701B6010E94C92D5F
:1032F00029813A814B815C810E94252F0E940F30E9
:103300006D87A7019601C501B4010E94C92D2D81C9
:103310003E814F8158850E94252F0E940F30162F25
:10332000A301920169857A858B859C850E94C92DB0
:1033300029813A814B815C810E94252F0E940F30A8
:10334000F62E29853A854B855C85C501B4010E941E
:10335000C92D2D813E814F8158850E94252F0E94C5
:103360000F30862FE090E6050091E5052D85412F71
:103370006F2D0E9456092E853F85225E3F4F3F8765
:103380002E87243A314009F062CFF10185858031E2
:1033900008F4A2C025EA30E03F872E87EE85FF853E
:1033A000BF01FF0F880B990B0E946A2D25E33AEFAE
:1033B0004EE85CE30E94C92D2B013C010E94912F35
:1033C0004B015C01F101658570E090E080E00E94B6
:1033D0006A2D6B017C0126E636E646EA5FE30E9431
:1033E000962F69877A878B879C87C301B2010E94D9
:1033F00082302B013C01F101638170E06F5F7F4FF0
:10340000072E000C880B990B0E946A2D69837A8322
:103410008B839C83F101628170E06F5F7F4F072E89
:10342000000C880B990B0E946A2D6D837E838F831D
:103430009887A3019201C701B6010E94C92D298175
:103440003A814B815C810E94252F0E940F30162FFC
:10345000A7019601C501B4010E94C92D2D813E81AD
:103460004F8158850E94252F0E940F30F62EA30110
:10347000920169857A858B859C850E94C92D298159
:103480003A814B815C810E94252F0E940F30D62EFD
:1034900029853A854B855C85C501B4010E94C92DFB
:1034A0002D813E814F8158850E94252F0E940F302B
:1034B000862FE090E6050091E505212F4F2D6D2D1B
:1034C0000E9456092E853F85225E3F4F3F872E87FB
:1034D0002539314009F062CF2F960FB6F894DEBF40
:1034E0000FBECDBFDF91CF911F910F91FF90EF9055
:1034F000DF90CF90BF90AF909F908F907F906F9014
:103500005F904F903F902F900895FF920F931F93DD
:10351000CF93DF93EC01F62E08811981C8010E9438
:10352000872EF81621F06F2DC8010E948F2ECE0134
:10353000DF91CF911F910F91FF900895CF92DF926D
:10354000EF92FF920F931F93CF93DF9300D0CDB7ED
:10355000DEB76C017C0108E010E01A830983F701F3
:1035600061917F01CE0101960E94851A0F5F1F4F66
:103570000631110591F7C6010F900F90DF91CF91A1
:103580001F910F91FF90EF90DF90CF9008950E94D0
:10359000620F882369F08DE791E00E949E1A8EE009
:1035A000EDE7F1E0AFE4B1E001900D928A95E1F72B
:1035B0000895CF92DF92EF92FF920F931F93CF93D4
:1035C000DF930E94C90F0497E1F30E94A61686E0DC
:1035D0008093EC051092ED0567EA73E081EE95E0CB
:1035E0000E9455128091850190918601892B09F0E6
:1035F000B3C089E08093EC0584E18093ED0562EC33
:1036000073E081EE95E00E94551267EB73E081EE66
:1036100095E00E9455120E946E0E80918501909156
:103620008601892B09F0A1C060E570E080E699E091
:103630000E94AD0E60E570E080E496E00E94AD0E61
:103640006CE870E080E699E00E94AD0E0FEF1FEF8E
:10365000D0E0C0E08AE0D82E94E2C92E0E94C90FC3
:103660007C01892BD9F30E94C90F892BE1F768E708
:1036700070E080E699E00E94AD0E84E0E816F10467
:10368000F1F00230110530F4CE01D89EE001D99E50
:10369000D00D1124CE0DDF1D1C161D065CF41092FA
:1036A000EC05C092ED05BE0181EE95E00E949311FC
:1036B0000E946E0E0F5F1F4F0230110579F66CE20B
:1036C00071E080E090E00E94DF0B80918501909195
:1036D0008601C536D1050CF4ACC0009709F058C07E
:1036E000D0938601C09385010E94C71A0E94A61636
:1036F00086E08093EC0582E18093ED056DEB73E04D
:1037000081EE95E00E9455121092EC0584E28093C0
:10371000ED05609185017091860181EE95E00E9432
:1037200093110E946E0E60E570E080E496E00E94C6
:10373000AD0E62E370E080E090E00E94DF0B6CE889
:1037400070E080E699E00E94AD0E6CE271E080E0EE
:1037500090E00E94DF0B61C083E08093EC0584E180
:103760008093ED0561EB73E04CCF6CE870E080E492
:1037700096E00E94AD0E6CE870E080EB94E00E9451
:10378000AD0E68EC70E080E090E00E94DF0B5ECF51
:103790008C179D0709F041C0109286011092850197
:1037A0000E94C71A0E94A61688E08093EC0580E16B
:1037B0008093ED0566EC73E081EE95E00E94551272
:1037C0000E946E0E60E570E080E699E00E94AD0E0A
:1037D0006EE170E080E090E00E94DF0B60E570E059
:1037E00080E699E00E94AD0E6EE170E080E090E02E
:1037F0000E94DF0B60E570E088EB9BE00E94AD0E5D
:1038000064E670E080E090E00E94DF0B1092FE041E
:103810001092FF0481E080932A010E94A616DF9196
:10382000CF911F910F91FF90EF90DF90CF900C946C
:103830006E0E892B19F481E08093FF0460E570E03F
:1038400080E496E00E94AD0E68EC70E080E090E0CD
:1038500080CFAF92BF92CF92DF92EF92FF920F9301
:103860001F93CF93DF9300D0CDB7DEB78B016B01F1
:103870002EE0C20ED11C7B015C01A61AB70AC5015D
:103880008E0D9F1D9A838983F70161917F01CE017F
:1038900001960E94851AEC14FD0489F7C8010F9067
:1038A0000F90DF91CF911F910F91FF90EF90DF90DC
:1038B000CF90BF90AF900895AF92BF92CF92DF921A
:1038C000EF92FF920F931F93CF93DF9300D000D01E
:1038D00000D0CDB7DEB7A0917E01B0917F012FEF70
:1038E00030E00E94063124E630E040E050E00E94E3
:1038F0009D2E622F81E80E94600E0E94B414809178
:10390000FF04882309F4B3C00E9428110091F80431
:103910001091F9042091FA043091FB04DC01CB01F1
:10392000800F911FA21FB31F8093F8049093F90496
:10393000A093FA04B093FB04F8941092200610921E
:103940002106109222061092230678946091F804C2
:103950007091F9048091FA049091FB048B019C0111
:1039600097FF07C0002711279801061B170B280B8C
:10397000390B083011052105310504F11091FE04C1
:10398000111102C097FD0CC028E030E040E050E08B
:103990000E949D2E210F233108F022E12093FE0486
:1039A0001092F8041092F9041092FA041092FB0499
:1039B0006AE070E080ED97E00E94AD0E1092EC0599
:1039C0001092ED0563E374E081EE95E00E945512DC
:1039D000E091FE04F0E0EE0FFF1FEA5EFC4FA080D6
:1039E000B180F5018191AF014A195B098111FACFCC
:1039F0008091E8059091E705949F9001959F300D87
:103A0000112498E3C92ED12CC21AD30A92E0C91608
:103A1000D1045CF1D594C794E1E0CE1AD108FDE160
:103A2000CF16D1041CF01CE1C12ED12C10E0B4E360
:103A3000FB2EF80EE12C00E02F2D412F6AE1812FA3
:103A40000E9456091F5F1733A9F7C092EC058AE15F
:103A50008093ED05F50161915F01662309F4FBC1D7
:103A600081EE95E00E945A0EF5CFC12CDFCFE09198
:103A7000FE04E33108F0C8C2F0E0EF5BF24E0C94B4
:103A8000F830541D751D8D1D971DB01DC91DD11D0C
:103A9000E91D011EA31FAB1FC41FE21FEA1F022066
:103AA00055206D2075208D20E0908901F0908A01CD
:103AB00000918701109188016FEC73E0CE010196AF
:103AC0000E944E17CC24C394D12C24E630E050E061
:103AD00040E0BE016F5F7F4F8FE691E00E94EC12E5
:103AE000CE0101960E9401178FC265ED73E0CE01F1
:103AF00001960E944E17CC24C394D12CF4E6EF2EED
:103B0000F12C10E000E024E630E050E040E0BE019F
:103B10006F5F7F4F81E791E0E1CF24E047E451E020
:103B200069ED73E083E791E00E94B7136DC26FED1A
:103B300073E0CE0101960E944E17CC24C394D12C81
:103B400074EFE72EFF24F39406E910E024EF31E050
:103B500046E950E0BE016F5F7F4F84E791E0BECF42
:103B600066EE73E0CE0101960E944E17CC24C394FA
:103B7000D12C54EFE52EFF24F39406E910E024EF56
:103B800031E046E950E0BE016F5F7F4F86E791E08C
:103B9000A5CF24E04FE351E06DEE73E08CE791E0B8
:103BA000C3CF66EF73E0CE0101960E944E1728E066
:103BB000C22ED12C39E1E32EF12C06E010E029E1F0
:103BC00030E046E050E0BE016F5F7F4F88E791E054
:103BD00085CF6DEF73E0CE0101960E944E1788E00D
:103BE000C82ED12C9AE0E92EF12C10E000E02AE05A
:103BF00030E050E040E0BE016F5F7F4F8AE791E028
:103C00006DCF0E9428110091F8041091F9042091C1
:103C1000FA043091FB04DC01CB01800F911FA21F3D
:103C2000B31F8093F8049093F904A093FA04B0931F
:103C3000FB04F8941092200610922106109222069E
:103C40001092230678946091F8047091F9048091A1
:103C5000FA049091FB048B019C0197FF07C0002799
:103C600011279801061B170B280B390B043011057F
:103C700021053105D4F01091FD04111102C097FD0A
:103C80000CC024E030E040E050E00E949D2E210F67
:103C9000243008F023E02093FD041092F8041092E1
:103CA000F9041092FA041092FB040E94A6161091D7
:103CB000FD04112309F4D7C0812F8150990B9C0179
:103CC00044E1429FC001439F900D11246CE171E0DB
:103CD00048960E94B11680E00E94E5081092EC051B
:103CE0001092ED05E0912901F0E0EE0FFF1FE15C7D
:103CF000FE4F6081718181EE95E00E945512109215
:103D0000EC057DE0C72EC092ED0562E074E081EE27
:103D100095E00E94551260911C0170911D0181EE89
:103D200095E00E9493111092EC05EAE1DE2ED0920C
:103D3000ED0565E074E081EE95E00E945512E0919A
:103D40002001F0E0EE0FFF1FE95BFE4F6081718103
:103D500081EE95E00E9455121092EC05B7E2FB2E21
:103D6000F092ED0568E074E081EE95E00E94551256
:103D700060911E0170911F0181EE95E00E949311E8
:103D800000E20093EC051092ED056BE074E081EE2B
:103D900095E00E945512609121017091220181EEFF
:103DA00095E00E9493110093EC05C092ED056EE042
:103DB00074E081EE95E00E945512609123017091AC
:103DC000240181EE95E00E9493110093EC05D092BE
:103DD000ED0561E174E081EE95E00E94551260917D
:103DE00025017091260181EE95E00E9493110093C8
:103DF000EC05F092ED0564E174E081EE95E00E943F
:103E00005512609127017091280181EE95E00E9482
:103E1000931109E3D02EE12C01E020E34D2D67E260
:103E20008D2D0E945609D39491E4D912F4CF1092AB
:103E3000E5058AE38093EC0588E28093ED05412F48
:103E400050E070E060E02AE081EE95E00E944711CA
:103E500081E08093E5050E946E0E10922A0180E0B9
:103E60000E94E508D1C081E080932A0180912B0552
:103E700081110E9491140E94B4141092EC058EE0FE
:103E80008093ED0567E174E081EE95E00E945512A4
:103E900081E00E94E508E091FD04F0E0EE0FFF1FD5
:103EA000E95CFE4F80819181FC012191AF01481BAB
:103EB000590B2111FACF8091E8059091E705949F65
:103EC0009001959F300D112448E3C42ED12CC21AC5
:103ED000D30AE2E0CE16D104A4F1D594C794F1E060
:103EE000CF1AD1089DE1C916D1041CF09CE1C92E5E
:103EF000D12C10E004E3B02EB80EE12C00E02B2D05
:103F0000412F6AE1812F0E9456091F5F1733A9F7DD
:103F1000C092EC058AE18093ED05E091FD04F0E0AC
:103F2000EE0FFF1FE95CFE4F00811181F8016191E6
:103F30008F01662309F48FCF81EE95E00E945A0E1F
:103F4000F5CFC12CD6CF24E047E351E06CE174E01B
:103F50008DEF94E0E9CDE0908901F0908A0161E273
:103F600074E0CE0101960E944E17CC24C394D12C4C
:103F700010E000E024E630E050E040E0BE016F5F7A
:103F80007F4F87E891E0AACD80912B0581113CC03D
:103F9000009187011091880168E274E0CE010196DA
:103FA0000E944E17CC24C394D12CF4E6EF2EF12CB2
:103FB00024E630E050E040E0BE016F5F7F4F89E8CB
:103FC00091E08CCD24E04FE251E06FE274E08DE7A8
:103FD00091E0AACD68E374E0CE0101960E944E17ED
:103FE00068E0C62ED12C79E1E72EF12C03E010E039
:103FF00029E130E043E050E0BE016F5F7F4F83E88E
:1040000091E06CCD0E94D91A0E94C90F6C01892BD6
:1040100009F45EC10E94C90F2091FC04049709F0C5
:10402000E2C021112EC08091FF04882309F49EC0B4
:104030001092FD048091FF0491E089278093FF0492
:1040400080912B05882371F0E091FE04F0E0EE0FE3
:10405000FF1FEA5EFC4F208131812852344011F469
:104060009093FF040E94A61681E080932A01F894A1
:10407000109220061092210610922206109223061A
:10408000789481E08093FC0426960FB6F894DEBF06
:104090000FBECDBFDF91CF911F910F91FF90EF9099
:1040A000DF90CF90BF90AF9008956FE374E0CE01A2
:1040B00001960E944E17CC24C394D12C54E6E52ED1
:1040C000F12C10E000E024E630E050E040E0BE01DA
:1040D0006F5F7F4F8EE791E001CD22E04BE251E030
:1040E00066E474E080E891E01FCD6CE474E0CE01FA
:1040F00001960E944E1728E0C22ED12C38E0E32E04
:10410000F12C08EF1FEF28E030E048EF5FEFBE0131
:104110006F5F7F4F81E891E0E1CC1092EC058EE07B
:104120008093ED0563E574E081EE95E00E94551201
:104130001092EC058AE18093ED0568E574E081EE6C
:1041400095E00E9455121092EC0586E28093ED05F1
:104150006EE574E081EE95E00E94551242E066E65D
:1041600076E686E89FE30E94C91175CEE091FE04D1
:10417000F0E0EE0FFF1FEA5EFC4F00811181F4E0DA
:1041800007311F0739F48091FD04882309F452CFC9
:104190000E94D7160C51144009F04CCF2091FD0419
:1041A000222309F447CF2150330B44E1429FC00141
:1041B000439F900D11246FE671E048960E94291CE0
:1041C00062E370E080ED97E00E94AD0E62E370E084
:1041D00080E090E00E94DF0B64E670E080ED97E005
:1041E0000E94AD0E27CF21114FCF6AE070E08CED19
:1041F00095E00E94AD0E60EA70E080E090E00E94E1
:10420000DF0B0E94C90F8C159D0509F03DCF8091F1
:104210007D01811103C08C2D0E94D71680917D01F4
:104220008130B1F4C60101974EE1489F9001499F4A
:10423000300D112484E690E0821B930B9093700163
:1042400080936F0164E670E080ED97E00E94AD0E10
:1042500080917D018230B1F4C601019749E1489F08
:104260009001499F300D112484E690E0821B930B4E
:10427000909372018093710164E670E080ED97E0A5
:104280000E94AD0E80917D01833061F4F3E0CF1682
:10429000D104D1F48093730164E670E080ED97E07F
:1042A0000E94AD0E11E01093FC040E94A61610931C
:1042B0002A01F894109220061092210610922206EC
:1042C000109223067894E0CECA94C0927301E4CF92
:1042D0001092FC04D9CE0F931F93CF93DF9300D09D
:1042E000CDB7DEB78B019A838983FB016081CE0154
:1042F00001960E94851AC8010F900F90DF91CF910F
:104300001F910F910895CF93DF930E94A616C1EEDF
:10431000D5E01B861C8660E674E0CE010E94551233
:104320001B868EE08C8769E674E0CE010E945512F0
:104330001B868CE18C8742E066E676E686E89FE3A2
:104340000E94C9110E946E0E65E173E090E080E06A
:104350000E946B2165E173E081E090E00E946B2197
:104360001092370567E375E084E090E00E946B21CE
:104370008EE091E00E949E1A1092360566E375E089
:1043800084E690E00E946B2160E071E086E690E0B8
:104390000E94291C60E071E088E190E00E94291CE5
:1043A00060E071E08CE290E00E94291C60E071E026
:1043B00080E490E00E94291C8EE0EEE0F1E0ADE7A1
:1043C000B1E001900D928A95E1F78EE0EEE0F1E028
:1043D000AFE4B1E001900D928A95E1F78EE0E0E064
:1043E000F1E0AFE6B1E001900D928A95E1F78EE041
:1043F000E0E0F1E0AFE5B1E001900D928A95E1F7E0
:1044000068EE73E080E090E00E94DF0B62E370E012
:1044100088EB9BE00E94AD0E62E370E080E090E0EC
:104420000E94DF0B64E670E084EC99E00E94AD0E20
:1044300062E370E080E090E00E94DF0B68EC70E0E7
:1044400080ED97E00E94AD0E64E670E080E090E0C1
:104450000E94DF0B0E94A616DF91CF910C946E0E86
:104460001F920F920FB60F9211242F933F934F93E9
:104470005F936F937F938F939F93AF93BF93EF93CC
:10448000FF9384E495E00E945D0AFF91EF91BF9154
:10449000AF919F918F917F916F915F914F913F91DC
:1044A0002F910F900FBE0F901F9018951F920F9293
:1044B0000FB60F9211242F938F939F93EF93FF9337
:1044C000E0915405F09155058081E0915A05F091F5
:1044D0005B0582FD1BC0908180915D058F5F8F73AE
:1044E00020915E05821741F0E0915D05F0E0EC5B04
:1044F000FA4F958F80935D05FF91EF919F918F917A
:104500002F910F900FBE0F901F9018958081F4CFC0
:104510001F920F920FB60F9211242F933F938F93F8
:104520009F93AF93BF938091020590910305A09153
:104530000405B09105053091010523E0230F2D37C7
:1045400058F50196A11DB11D209301058093020528
:1045500090930305A0930405B0930505809106058B
:1045600090910705A0910805B09109050196A11D3C
:10457000B11D8093060590930705A0930805B0939D
:104580000905BF91AF919F918F913F912F910F900E
:104590000FBE0F901F90189526E8230F0296A11DBD
:1045A000B11DD2CF1F920F920FB60F9211242F93ED
:1045B0003F934F935F936F937F938F939F93AF93AB
:1045C000BF93EF93FF93E0910D03F0910E030995D4
:1045D000FF91EF91BF91AF919F918F917F916F91DB
:1045E0005F914F913F912F910F900FBE0F901F90B1
:1045F00018951F920F920FB60F9211242F933F938D
:104600004F935F936F937F938F939F93AF93BF93DA
:10461000EF93FF93E0910B03F0910C030995FF9149
:10462000EF91BF91AF919F918F917F916F915F912A
:104630004F913F912F910F900FBE0F901F901895A3
:104640001F920F920FB60F9211242F933F934F9307
:104650005F936F937F938F939F93AF93BF93CF930A
:10466000DF93EF93FF9380910005C0911806D0E08F
:1046700087FF24C01092850010928400809100056D
:104680008F5F8093000580910005082E000C990B28
:104690008C179D0724F4809100058C30C4F1809123
:1046A000840090918500049680349C4908F47AC077
:1046B0008091840090918500049676C080910005D9
:1046C000082E000C990B8C179D07C4F6E09100058D
:1046D0008E2FEE0F990BFC01EE0FFF1FE80FF91F55
:1046E000EC50FA4F808186FFC9CFE09100058E2FF4
:1046F000EE0F990BFC01EE0FFF1FE80FF91FEC50B6
:10470000FA4F808160E08F730E943E0BB7CF2091FB
:10471000840030918500E09100058E2FEE0F990BFB
:10472000FC01EE0FFF1FE80FF91FEC50FA4F8181DB
:104730009281820F931F9093890080938800E0916B
:1047400000058E2FEE0F990BFC01EE0FFF1FE80FF7
:10475000F91FEC50FA4F808186FF11C0E0910005EF
:104760008E2FEE0F990BFC01EE0FFF1FE80FF91FC4
:10477000EC50FA4F808161E08F730E943E0BFF91F5
:10478000EF91DF91CF91BF91AF919F918F917F91E9
:104790006F915F914F913F912F910F900FBE0F90AE
:1047A0001F90189580E49CE990938900809388007D
:1047B0008FEF80930005E3CF6CE870E080E699E02E
:1047C0000E94AD0E6CE870E080EA9FE00E94AD0EA2
:1047D00068EC70E080EB94E00C94AD0ECF93DF9327
:1047E000109247051092460588EE93E0A0E0B0E0F5
:1047F0008093480590934905A0934A05B0934B05D3
:1048000088E793E0909345058093440585EC90E01C
:10481000909351058093500584EC90E0909353055C
:104820008093520580EC90E0909355058093540559
:1048300081EC90E0909357058093560582EC90E0D0
:10484000909359058093580586EC90E090935B0512
:1048500080935A0510925D0510925E0510925F05D7
:10486000109260051092E4051092E3058AE893E047
:104870009093E2058093E10568E574E088E296E0B4
:104880000E944E17809118068C3008F086C091E087
:10489000980F909318068093250690E0FC01EE0F88
:1048A000FF1FE80FF91FEC50FA4F88EB9BE0928353
:1048B000818362E082E00E946C0B62E083E00E94F0
:1048C0006C0BE3EFF0E1E491F0E0EE0FFF1FE95134
:1048D000FF4EA591B491B0931A06A0931906E5ED89
:1048E000F0E1449140931D06E4EFF0E1E491F0E043
:1048F000EE0FFF1FE951FF4EC591D491D0931C06D6
:10490000C0931B06E6EDF0E1E491E0931E061092E1
:1049100020061092210610922206109223062BE305
:104920003FE1C9010197F1F79C91842F892391E020
:1049300009F490E08881E82309F0926029E136E0EB
:1049400090931F063093F1052093F0058CE191E1DF
:1049500090930C0380930B03809169008C7F81609E
:1049600080936900E89A81E0809324063093F305F0
:104970002093F20582E291E190930E0380930D0360
:1049800080916900837F846080936900E99A82E066
:1049900080932406DF91CF9108958FEF80932506B1
:1049A00088CFCF93DF93CDB7DEB764970FB6F89477
:1049B000DEBF0FBECDBF789484B5826084BD84B560
:1049C000816084BD85B5826085BD85B5816085BD0A
:1049D00080916E00816080936E00109281008091C2
:1049E000810082608093810080918100816080934A
:1049F0008100809180008160809380008091B1006F
:104A000084608093B1008091B00081608093B00099
:104A100080917A00846080937A0080917A0082602D
:104A200080937A0080917A00816080937A008091EF
:104A30007A00806880937A001092C10080912506E8
:104A40008C3008F051C061E085E00E946C0B8091D1
:104A50002506282F30E0F901EE0FFF1FE20FF31FAC
:104A6000EC50FA4F9081907C9560908310922606CE
:104A7000109227062CE0622F0E94D830829FB0014E
:104A8000112430E020E0AB01420F531FFA01EE0F7A
:104A9000FF1FE40FF51FEC50FA4F908196FD16C0F2
:104AA0002F5F3F4F2C30310571F781110FC01092ED
:104AB000800082E080938100109285001092840033
:104AC000B19A80916F00826080936F00E09125061B
:104AD0008E2F90E0FC01EE0FFF1FE80FF91FEC5046
:104AE000FA4F80818064808390E080E00E94AF086C
:104AF00080E00E94E50881E08093E5051092E605DC
:104B00001092EC051092ED055F98579A61E084E0F1
:104B10000E946C0B61E084E00E943E0B6AE070E052
:104B200080E090E00E94DF0B5F9A579865E070E0AC
:104B300080E090E00E94DF0B5F98579A8CB58C7FE5
:104B40008CBD8DB581608DBD2A9A22982898209AB7
:104B500060E08DE00E943E0B60E08BE00E943E0B27
:104B600061E08DE00E946C0B61E08BE00E946C0BB9
:104B70008CB580618CBD65E070E080E090E00E94C3
:104B8000DF0B5F9A57986AE070E080E090E00E9447
:104B9000DF0B6FE288EA0E94600E64E18DE80E94FC
:104BA000600E0E942A0C81EA8EBD0E941F0C0E949A
:104BB0002A0C88EC8EBD0E941F0C6FE881E80E94D1
:104BC000600E61EF89ED0E94600E60E48BED0E9443
:104BD000600E0E942A0C8FEA8EBD0E941F0C60E0BE
:104BE00080E20E94600E0E942A0C81E28EBD0E942B
:104BF0005C0E1EBC0E945C0E8FE78EBD0E941F0CD7
:104C00000E942A0C82E28EBD0E945C0E1EBC0E9495
:104C10005C0E87E08EBD0E941F0C0E942A0C289A11
:104C200020981EBC0FEF13E00E945C0E1EBC0150CA
:104C30001109D1F70E941F0C62E080E20E94600E11
:104C40000E94A6160E946E0E60E081E10E946C0B2D
:104C500060E082E10E946C0B60E08FE00E946C0BD0
:104C600062E08EE00E946C0B62E080E10E946C0BBF
:104C700061E081E00E946C0B61E080E00E946C0BBF
:104C800061E086E00E946C0B1E861D86188A1F86D6
:104C90001A8A198A60912806709129066115710592
:104CA00041F040912C0650912D06CE010D960E94A8
:104CB0000F1781E00E94E508E988FA88E114F10401
:104CC00089F00D851E8560E270E0C8010E94F8320F
:104CD000009741F09C01201B310B89010F3F100709
:104CE00009F042C08091E7058E9D90018F9D300DA7
:104CF00011248CE390E0821B930B8F3FEFEF9E0714
:104D000074F197FD0196959587958F31910514F073
:104D10008EE190E08093EC0580E18093ED0510E05A
:104D200000E089899A890817190708F0D5C0ED8530
:104D3000FE853097B1F410920A05EAE0F5E0608153
:104D400081EE95E00E945A0E0E946E0E62E370E0C2
:104D500080E090E00E94DF0B0F5F1F4FE2CF80E00A
:104D6000D9CFE00FF11FEBCF980150E040E0BE013A
:104D7000635F7F4FCE0107960E945F1729893A89AA
:104D8000A8014F5F5F4FBE01635F7F4FCE01019669
:104D90000E945F178B859C85089708F441C080E0CE
:104DA0000E94E5084091E7058B859C85489F90010E
:104DB000499F300D11248CE390E0821B930B8F3FB1
:104DC000FFEF9F077CF197FD0196959587958F31B1
:104DD000910514F08EE190E08093EC058AE08093D9
:104DE000ED0510E000E08B859C8508171907F8F4A5
:104DF000EF81F8853097C1F410920A05EAE0F5E0FA
:104E0000608181EE95E00E945A0E0E946E0E62E370
:104E100070E080E090E00E94DF0B0F5F1F4FE3CF58
:104E200081E0BECF80E0D8CFE00FF11FE9CF8D81C8
:104E30009E81089708F441C080E00E94E5084091F7
:104E4000E7058D819E81489F9001499F300D112477
:104E50008CE390E0821B930B8F3F2FEF92077CF146
:104E600097FD0196959587958F31910514F08EE108
:104E700090E08093EC0588E18093ED0510E000E080
:104E80008D819E8108171907F8F4E981FA8130971E
:104E9000C1F410920A05EAE0F5E0608181EE95E048
:104EA0000E945A0E0E946E0E62E370E080E090E075
:104EB0000E94DF0B0F5F1F4FE3CF81E0BECF80E08A
:104EC000D8CFE00FF11FE9CFCE0101960E94011764
:104ED000CE0107960E94011768E572E080E090E03D
:104EE0000E94DF0B80E00E94E5080E94A6160E9447
:104EF0006E0ECE010D960E94011790E080E00E9498
:104F0000872E893609F480C068EC70E080E090E07C
:104F10000E94DF0B81E090E00E94872E893611F01D
:104F20000E9483210E94C90F049709F051C000918B
:104F30008501109186010E94C90F0497E1F362E395
:104F400070E080E090E00E94DF0B1092EC05109280
:104F5000ED0562E774E081EE95E00E945512109233
:104F6000EC058EE08093ED056DE774E081EE95E051
:104F70000E9455121092EC058CE18093ED0569E6D4
:104F800074E081EE95E00E9455120E946E0E0E9420
:104F9000110C6B017C0120EDC20E27E0D21EE11C3A
:104FA000F11C0E94110C6C157D058E059F0530F4D7
:104FB0000E94C90F0497A9F70E9483210E94A61698
:104FC0000E946E0E10938601009385010E94C71AFD
:104FD00080E10E94150B892B09F0A7C00E94C90F20
:104FE000039709F0A2C080E10E94150B892B09F0FC
:104FF0003FC00E94C90F0397D9F562E370E080E0DB
:1050000090E00E94DF0BEFCF9DE7E92E91E0F92EB3
:1050100008E010E0C8010E94872EF70181937F010C
:105020000F5F1F4F06311105A9F78EE0EDE7F1E0A4
:10503000AFE4B1E001900D928A95E1F784E090E051
:105040000E94872E80933705F4E18F9FC0011124C1
:105050006FE671E08A599F4F0E94B1168EE0EFE62D
:10506000F1E0AFE5B1E001900D928A95E1F75ACFFA
:105070000E94C90F039709F058C00E94C90F0397F7
:1050800039F462E370E080E090E00E94DF0BF5CF3E
:105090000E94C90F892B39F462E370E080E090E050
:1050A0000E94DF0BF5CF0E94C90F0297F1F5109215
:1050B0008601109285010E94C71A0E94A6168AE0F6
:1050C0008093EC0580E18093ED0566EC73E081EE62
:1050D00095E00E9455120E946E0E60E570E080E639
:1050E00099E00E94AD0E6EE170E080E090E00E94D9
:1050F000DF0B60E570E080E699E00E94AD0E6EE1A6
:1051000070E080E090E00E94DF0B60E570E088EBEB
:105110009BE00E94AD0E64E670E080E090E00E94AB
:10512000DF0B0E94A6160E946E0E81E190E00E94A5
:105130000D318C018EE4C82E83E0D82EF801D18287
:10514000C08280E182838EE183831582148284E6AB
:1051500090E09783868311861086FF24F394F2866D
:10516000C8010E941E0D80E493E0F80191838083C2
:1051700080859185908B8787F68614868FE085875A
:10518000C8010E948018C8010E94BE17C8010E9471
:105190007B1210932F0500932E0581E190E00E9471
:1051A0000D318C01FC01D182C08288E382838EE0C4
:1051B00083838AE690E0958384832EE730E037830B
:1051C00026839187808783E08287C8010E941E0D15
:1051D0008CE593E0F8019183808380859185908BA5
:1051E0008787F68682E0848784E18587C8010E94EC
:1051F000BC0CC8010E94300CC8010E94AE12109372
:105200002D0500932C0580912E0590912F050E946D
:10521000340D80912C0590912D050E94340DE3E111
:10522000F5E080E090E0A0E4B1E481939193A19354
:10523000B19325E0EB32F207C1F70E94110C6093A5
:105240000F0570931005809311059093120580E06F
:1052500090E0A0E9B2E480930B0590930C05A09335
:105260000D05B0930E058091850190918601892BE3
:10527000C9F00E94D91A0BE113E02090850130900B
:1052800086012114310409F453C00E94D91A80E028
:1052900090E0892B91F30E94490A882371F30E94C0
:1052A0000000EBCF88EE93E00E94AF080E945C1CE8
:1052B0006CE370E080ED97E00E94AD0E6CE370E06F
:1052C00080E090E00E94DF0B6CE370E080ED97E0FF
:1052D0000E94AD0E6CE370E080E090E00E94DF0B76
:1052E0006CE370E080ED97E00E94AD0E80E10E94DB
:1052F000150B892B09F0BFCF64EF71E080E090E0DF
:105300000E94DF0B66E970E088EB9BE00E94AD0E27
:1053100066E970E080E090E00E94DF0B66E970E0F3
:1053200088EB9BE00E94AD0E81E080932B05A3CF1C
:105330008091890190918A0120916F0130917001D3
:105340008217930724F49093700180936F010E9459
:10535000EA0F882309F468C30E94110C613F7A4068
:105360008105910508F460C380917C0181116EC0B4
:1053700062E370E088EB9BE00E94AD0E64E670E0B3
:1053800080E090E00E94DF0B64E670E080ED97E043
:105390000E94AD0E80E00E944A100E945C1CC090EA
:1053A0003805D0903905E0903A05F0903B05C114DE
:1053B000D104E104F10409F060C30E941A0F8823AC
:1053C00009F468C3D090370584E1D89E7001112498
:1053D00094E6E90EF11CC7010E94872E8F5F80932F
:1053E0003605893CC0F081E08D0D893208F064C338
:1053F00080933705E0903705E4E1EE9E70011124BB
:10540000F4E6EF0EF11C1092360567E375E084E0D8
:1054100090E00E946B2166E375E0C7010E946B215A
:105420008091370524E1829FC00111246FE671E06D
:105430008A599F4F0E94291C8EE0EFE6F1E0AFE50C
:10544000B1E001900D928A95E1F729C36091740152
:1054500070917501072E000C880B990B0E946A2D24
:105460006B017C0180916F01909170019C8B8B8B03
:10547000BC01990F880B990B0E946A2D2B013C01EE
:105480006091760170917701072E000C880B990BC3
:105490000E946A2DA70196010E94242FA301920168
:1054A0000E94C92D20E030E048EC52E40E94962F83
:1054B000A70196010E94252F4B015C01E0905D0140
:1054C000F0905E0195E0E916F9060CF042C0C501C6
:1054D000B4010E9408301B012BEC32E0AB89BC897F
:1054E0000E94063124E630E040E050E00E949D2E0C
:1054F000DA01C9018B5F9A4FAF4FBF4F90935E01A6
:1055000080935D010E94AF0880917301833008F0A1
:1055100070C08F5F8F8381E089830E94110C4B01E3
:105520005C016101330CEE08FF080E94110C681940
:1055300079098A099B096C157D058E059F0508F080
:105540005AC0BE01695F7F4FCE0101960E94FF0FD6
:10555000ECCFEB89FC89EF2B09F448C020E030EC5C
:1055600042E354E4C301B2010E94C92D20E030E0BF
:1055700048EC52E40E94962F20E030EA40EA54E4DE
:105580000E94252F2B013C01B701FF0C880B990BC2
:105590000E946A2D9B01AC01C301B2010E94242F1D
:1055A0006B017C0120E030EA40EA54E4C301B2011F
:1055B0000E94242F9B01AC01C701B6010E94962FC7
:1055C000A50194010E94C92D20E030E048E452E496
:1055D0000E94242F6B017C0120E030E0A9010E9491
:1055E000632D87FD79CFC701B60173CF312C212CF4
:1055F00073CF84E68FCF0E94EA0F811180C1809122
:105600007C01813009F07BC10E94D3100E94110CF3
:10561000AB01BC0120917A0130917B01E8EEF3E00F
:105620002E9FC0012F9F900D3E9F900D1124092E9B
:10563000000CAA0BBB0B840F951FA61FB71F8093EE
:105640003C0590933D05A0933E05B0933F0525E0B2
:1056500035E030936E0120936D019CCE80917C01EA
:10566000813021F033E63F1508F457C160E081E056
:105670000E943E0B0E94110C6B017C01C801019736
:10568000F1F761E080E00E943E0B0E94B60F0297A6
:10569000A9F00E94110CAB01BC014C195D096E0907
:1056A0007F098091830190918401092E000CAA0B3F
:1056B000BB0B481759076A077B0738F360E080E0A7
:1056C0000E943E0BC8010197F1F70E94110C6B017B
:1056D0007C010E94B60F029709F457C10E94110C79
:1056E0006C197D098E099F09603571058105910549
:1056F00080F361E081E00E943E0B68E070E080E0B2
:1057000090E00E94DF0B60E081E00E943E0B0E946F
:10571000110C6B017C010E94B60F0297D1F20E941E
:10572000110C6C197D098E099F09683C7105810572
:10573000910588F360E570E088EB9BE00E94AD0E78
:1057400060E570E080E090E00E94DF0B60E570E0D3
:1057500088EB9BE00E94AD0E0E94D3101BCE80917F
:105760007C01813029F40E94EA0F8111D6C07ECFDE
:105770008250823008F07ACFD0C00E94110C4B01C9
:105780005C010E94110C6093320570933305809385
:1057900034059093350510923105109230050E9422
:1057A000110CC0903205D0903305E0903405F09094
:1057B00035056C197D098E099F09623071058105D7
:1057C0009105C8F0E0903005F09031050E94B60FC9
:1057D000019789F40E94110C609332057093330590
:1057E00080933405909335058FEFE81AF80AF0920C
:1057F0003105E09230058091300590913105049794
:105800005CF010923105109230058F818230D0F417
:105810008F8181508F832ACF0E94110C68197909DA
:105820008A099B09683C71058105910540F4BE0118
:10583000695F7F4FCE0101960E94FF0FB0CF0E949B
:10584000D310A2CD0E94F30F882309F494C00E94C4
:10585000EA0F8823E9F20E94110C6B017C010E947F
:10586000110C6C197D098E099F0965307105810540
:105870009105A8F32091710130917201ACE9BFEF5D
:105880000E94FE3024E630E040E050E00E949D2E71
:1058900069017A0194E6C90ED11CE11CF11CE6E015
:1058A000CE16D1042CF160E081E00E943E0BC801CD
:1058B0000197F1F761E080E00E943E0B0E94110C1D
:1058C0004B015C010D2C000CEE08FF080E94110C2E
:1058D000681979098A099B096C157D058E059F0554
:1058E000A8F360E080E00E943E0BC8010197F1F749
:1058F00061E081E00E943E0B8F8181508F83FF80A9
:10590000FF2009F4B3CE0E94F30F882309F427CFB8
:105910000E94EA0F882309F4A1CE60E080E00E9493
:105920003E0BC8010197F1F761E081E00E943E0B58
:105930000E94110C6B017C010E94B60F019709F0C7
:105940001CCF0E94110C6C197D098E099F096233CE
:1059500071058105910508F010CFBE01695F7F4F89
:10596000CE0101960E94FF0F63E070E080E090E0BE
:105970000E94DF0BE1CF80917C01813009F467CF79
:105980008250823008F044CF66CFC8010197F1F70A
:1059900061E080E00E943E0B0E94110C68537F4F33
:1059A0008F4F9F4F60934005709341058093420550
:1059B0009093430525E035E030936E0120936D010F
:1059C0000E94D3100E94EA0F882321F00E94F30F57
:1059D000882331F10E94110CAB01BC0120917A01A6
:1059E00030917B01E8EEF3E02E9FC0012F9F900DD8
:1059F0003E9F900D1124092E000CAA0BBB0B8C5955
:105A00009F4FAF4FBF4F840F951FA61FB71F8093A7
:105A10003C0590933D05A0933E05B0933F05BACC5D
:105A200080E00E944A10CECF0E94110CC090400529
:105A3000D0904105E0904205F0904305C616D70688
:105A4000E806F90638F460E080E00E943E0BC801E9
:105A50000197F1F70E94110CC0903C05D0903D05D4
:105A6000E0903E05F0903F05C616D706E806F90619
:105A700008F090CC28EE33E0ECCD0E94110C6C19AC
:105A80007D098E099F09603D77408105910508F0E9
:105A900094CCFDCB0E94620F882309F4F8CB0E94BE
:105AA000C71A0E94110C60933805709339058093D2
:105AB0003A0590933B05EBCB109237059BCC88E2DF
:105AC00096E00C9401170E94A52D08F481E008953A
:105AD000E89409C097FB3EF4909580957095619588
