:100000000C9493080C94C9170C94A2170C94BB0879
:100010000C94BB080C94BB080C94BB080C9463169E
:100020000C94BB080C94BB080C94BB080C94F01700
:100030000C94BB080C94BB080C94BB080C94BB0834
:100040000C9458170C94BB080C94AD150C948715A0
:100050000C94BB080C94BB080C94BB080C94BB0814
:100060000C94BB080C94BB08CB0DE30DFA0D0A0EE3
:10007000240E3E0E580E730E830E930E9A0EAE0E85
:10008000C30ED90E05A84CCDB2D44EB93836A9024C
:100090000C50B9918688083CA6AAAA2ABE00000086
:1000A000803F00000000240027002A000000000814
:1000B000000201000003040700000000000000002F
:1000C000101030020020C0C0F0F03C3CFFFFFFFFEA
:1000D0003C3CF0F0C0C0C0C0F0F03C3CFFFFFFFF74
:1000E0003C3CF0F0C0C0C3C33333CFCF33333333E2
:1000F000CFCF3333C3C33333CFCF03030F0F0F0F30
:100100000303CFCF3333181030020030F0F0FCFC83
:10011000FCFC3C3C3F3FFFFFFFFF3F3F3C3CFCFC07
:10012000FCFCF0F0F0F0FCFCFCFC3C3C3F3FFFFF33
:10013000FFFF3F3F3C3CFCFCFCFCF0F0C3C3C3C3EF
:1001400033333F3F0F0F333333330F0F3F3F3333DF
:10015000C3C3C3C303033333FFFFCFCF0F0F333307
:1001600033330F0FCFCFFFFF3333030316103002AB
:10017000002CFCFCC0C0F3F33C3CF0F0F0F0F0F0DD
:100180003C3CF3F3C0C0FCFC0000C0C0F3F33C3CBB
:10019000F0F0F0F0F0F03C3CF3F3C0C000000303DB
:1001A000CFCF3F3F0F0F0F0F0F0F0F0F0F0F3F3F1F
:1001B000CFCF03033F3F03033F3FCFCFCFCF0F0F3F
:1001C000CFCFCFCF3F3F03033F3F0C30300B012059
:1001D00000C0F87C3E3EFCF8C0000000000080E05B
:1001E00078FEFE000000000000F07C3C3E3EFEFC7D
:1001F000E0000000007C3E3E3EFEF8C00000000033
:100200000000000000F8FEFE0000000000FEFE3EC0
:100210003E3E3E3E00000000000080F0FC3E3E3EC0
:10022000FC000000003E3E3E3E3E3E3EFEFE000024
:100230000000C0F8FE3E7EFCE00000000000E0FC94
:100240007E3EFEF8C000000000000000C0E0C000DC
:1002500000000000F0FF0F000000F9FFFFF00000B9
:100260000000070300FFFF00000000000001000085
:10027000000000FFFF000000000000000000FFFF82
:1002800000000000000000E0FF1FFFFF0000000072
:1002900000FFFF00000000000000000000E0FF3F42
:1002A0000000000000000000000000000000C0FC92
:1002B0007F0300000000FFFF000000FFFF000000C0
:1002C00000FEFF03000000FFFFF000000000000040
:1002D0003F7F3F0000000000FFFF0000E0FF1F0025
:1002E000FFFF00000000000000FFFF000000000012
:1002F0000000000000E0FE1F010000000000F8F810
:10030000FCFFC7000000000000C0FE3F0300FFFF2D
:1003100000000000003F3F3E7EFCF8E000000000CF
:1003200000FFFF80F07C7CF8F0000000000000007F
:1003300080F8FF07000000000000019FFFF8FE1F8B
:100340000100000000FFFFC0000080FFFFFF000071
:10035000000000000000000000000000FFFFC0FCE3
:100360007F030000FFFF00000000000000FFFF000F
:1003700000000000000000E0FE0F0100000000008F
:100380000000000000010FFFF8000000F8FFE7E0A8
:10039000E0E0FFFFE0E0E00000000000000007FFF9
:1003A000FE00000000FFFFFF03000001FFFF000050
:1003B000000000F0FF0F00000000000000C0FC3F44
:1003C00003031FFFFCC0000000000F1F3E3E0F0193
:1003D000FFFF00000000000000800000000000009F
:1003E00007FFFF07000000FCFF07000000000000FF
:1003F00000FFFF000000000000E0FE0F0000000012
:1004000000000000000000000000C0FF7F000000AE
:10041000030303030303FFFF0303030000000000C3
:100420000000C0FF7F000000000FFFFF8000008081
:10043000FF7F00000000FEFF03000000000000003E
:1004400000FFFF8000000080FFFF000000000000B0
:10045000000080FCFF07000000000000FFFFFF001D
:100460000000000000031F3F7C7C3F1F03000000D2
:1004700000007C7C7C7F7F7C7C7C0000007F7F7C1C
:100480007C7C7C7C7C000000003F7E7C7C7E1F07A7
:10049000000000000000000000007F7F000000005E
:1004A000001F3E7C7C3E1F07000000000000031F71
:1004B0007F7C7C3F0700000000007F7F0000000081
:1004C0000000000000011F3F7E7C7E3F1F010000F6
:1004D00000003E7C7C7E3F0F010000000000000019
:1004E00000010000000000000A102E0C01140000A2
:1004F00000000000000000000000000000000000FC
:10050000000078FC020303030302FC7800000000F3
:1005100000000000FF7E0000028383838302FC78DA
:100520000000028383838302FC787EFF008080804A
:100530008000FF7E78FC028383838302000078FCC6
:100540000283838383020000000203030303030288
:10055000FC7878FC028383838302FC7878FC028336
:1005600083838302FC7800000060F0F060000000EC
:10057000000000000000000000001E3F40C0C0C09E
:10058000C0403F1E0000000000000000FF7E1C3E37
:1005900041C1C1C1C1410000000041C1C1C1C1414F
:1005A0003E1C0000010101010101FF7E000041C16C
:1005B000C1C1C1413E1C1C3E41C1C1C1C1413E1C23
:1005C0000000000000000000FF7E1C3E41C1C1C1D0
:1005D000C1413E1C000041C1C1C1C1413E1C0810C7
:1005E000206002380000000000000000000000FE53
:1005F0000000000000000E000E00000000D0BE90C1
:10060000D0BE9000001C62FFC28000000C12924C11
:10061000B0880600807C62B21CC0000000000E0E94
:100620000000000000E018040202000000020204C2
:1006300018E000000024187E18240000808080F05C
:1006400080808000000000000000000000808080AA
:10065000800000000000000000000000000080603A
:1006600018060000F804C2320CF80000000404FE72
:100670000000000000028242221C00000002222230
:1006800022DC0000C0A09884FE808000001E1212B0
:1006900022C20000F844222222C00000000202C24E
:1006A000320A0600008C5222528C00003C42424228
:1006B00026F800000000303000000000000030305C
:1006C000000000008080404020201000404040405A
:1006D0004040000010202040408080000002824204
:1006E000221C0000000000000000000000000005C7
:1006F00000000000000000000000000000070000F3
:10070000070000000004040F0403000004020103BA
:1007100004040300030404040503040000000000B3
:100720000000000000030608101000000010100870
:1007300006030000000000000000000000000007A9
:10074000000000000000160E000000000000000085
:100750000000000000000606000000000402010086
:10076000000000000103040402010000000404076B
:10077000040400000007040404040000000404044E
:10078000040300000000000007000000000404044F
:100790000403000001020404040300000000070039
:1007A000000000000003040404030000000404042B
:1007B0000201000000000606000000000000160E06
:1007C000000000000000010102020400010101011B
:1007D0000101000004020201010000000000050008
:1007E00000000000F804728AFA84780000C038061D
:1007F00038C0000000FE222222DC0000F8040202C1
:1008000002020000FE02020204F8000000FE2222A2
:100810002222000000FE222222220000F80402020E
:1008200022E20000FE20202020FE0000000202FE46
:10083000020200000000000202FE0000FE40B008BC
:100840000402000000FE000000000000FE0C7080AA
:10085000700CFE00FE0C30C000FE0000F804020226
:1008600004F80000FE424242221C0000F80402028A
:1008700004F8000000FE4242A21C0000001C2242BC
:1008800042800000020202FE02020200FE0000009E
:1008900000FE00000638C000C03806003EC0F00E62
:1008A000F0C03E000006986098060000000618E0C0
:1008B000180600000202C2320A0600000000FE0212
:1008C000020202000006186080000000020202021C
:1008D000FE00000040300C0C304000000000000022
:1008E00000000000010204040400000006010101F0
:1008F00001010600000704040403000001020404CF
:1009000004040000070404040201000000070404BA
:1009100004040000000700000000000001020404BD
:10092000040700000700000000070000000404079F
:100930000404000000040404040300000700000194
:100940000204000000070404040400000700000182
:100950000000070007000000030700000102040474
:100960000201000007000000000000000102040C6A
:10097000121110000007000001060000000404042A
:10098000040300000000000700000000030404044A
:100990000403000000000106010000000007000041
:1009A000000700000006010001060000000000072B
:1009B00000000000060504040404000000001F10ED
:1009C00010101000000000000102040010101010B0
:1009D0001F000000000000000000000008080808D8
:1009E00008080000000002040000000000E01010F1
:1009F00010F0000000FE201010E0000000E01010D9
:100A00001010000000E0101010FE000000E09090B8
:100A100090E000000020FC222222020000E01010E2
:100A200010F0000000FE201010E000001010F20096
:100A30000000000000101010F200000000FE8040D6
:100A400020100000000202FE00000000F02010F064
:100A50002010F00000F0201010E0000000E0101066
:100A600010E0000000F0201010E0000000E0101086
:100A700010F0000000F02010107000000060909056
:100A800090200000002020FC2020200000F000002A
:100A900000F000000070800080700000F000C030A6
:100AA000C000F0000030C0C0300000000030C000C6
:100AB0008070000000101090503000000080807E98
:100AC00002020000000000FE000000000002027EA2
:100AD0008080000000808000000080000000000096
:100AE00000000000000000000000000000030404FB
:100AF00002070000000704040403000000030404CC
:100B000004040000000304040207000000030404BE
:100B1000040400000000070000000000003324244B
:100B2000221F00000007000000070000000007046B
:100B300004000000202020201F000000000700010A
:100B40000204000000000007040400000700000782
:100B50000000070000070000000700000003040475
:100B600004030000003F0404040300000003040425
:100B7000023F000000070000000000000002040423
:100B80000403000000000003040404000003040444
:100B9000020700000000030403000000010601003A
:100BA0000106010000060101060000002020310EB0
:100BB0000300000000060504040400000000001FFC
:100BC0001010000000000007000000000010101FBF
:100BD0000000000001000001010100000000000011
:100BE00000000000050800FF0C4B00000000003E64
:100BF0005B4F5B3E3E6B4F6B3E1C3E7C3E1C183C8D
:100C00007E3C181C577D571C1C5E7F5E1C00183CE8
:100C10001800FFE7C3E7FF0018241800FFE7DBE731
:100C2000FF30483A060E2629792926407F05050718
:100C3000407F05253F5A3CE73C5A7F3E1C1C080874
:100C40001C1C3E7F14227F22145F5F005F5F060939
:100C50007F017F006689956A606060606094A2FF92
:100C6000A29408047E040810207E201008082A1C84
:100C700008081C2A08081E101010100C1E0C1E0C50
:100C800030383E3830060E3E0E06000000000000F0
:100C9000005F00000007000700147F147F14242A5F
:100CA0007F2A122313086462364956205000080731
:100CB0000300001C2241000041221C002A1C7F1C52
:100CC0002A08083E08080080703000080808080854
:100CD000000060600020100804023E5149453E00BB
:100CE000427F400072494949462141494D33181419
:100CF000127F1027454545393C4A49493141211168
:100D000009073649494936464949291E0000140059
:100D1000000040340000000814224114141414147C
:100D2000004122140802015909063E415D594E7CDA
:100D30001211127C7F494949363E414141227F418F
:100D400041413E7F494949417F090909013E4141ED
:100D500051737F0808087F00417F41002040413FD8
:100D6000017F081422417F404040407F021C027FE7
:100D70007F0408107F3E4141413E7F090909063E3C
:100D80004151215E7F09192946264949493203010B
:100D90007F01033F4040403F1F2040201F3F40381D
:100DA000403F631408146303047804036159494DF8
:100DB00043007F4141410204081020004141417F2E
:100DC00004020102044040404040000307080020A4
:100DD000545478407F2844443838444444283844A4
:100DE00044287F385454541800087E090218A4A4DB
:100DF0009C787F0804047800447D40002040403DFA
:100E0000007F1028440000417F40007C0478047873
:100E10007C080404783844444438FC182424181806
:100E2000242418FC7C080404084854545424040462
:100E30003F44243C4040207C1C2040201C3C40304F
:100E4000403C44281028444C9090907C4464544C7E
:100E500044000836410000007700000041360800D9
:100E600002010204023C2623263C1EA1A161123A83
:100E70004040207A385454555921555579412154D0
:100E8000547841215554784020545579400C1E52D5
:100E90007212395555555939545454593955545479
:100EA000580000457C410002457D420001457C40E0
:100EB000F0292429F0F0282528F07C5455450020FD
:100EC00054547C547C0A097F49324949493232489A
:100ED000484832324A4848303A4141217A3A424001
:100EE0002078009DA0A07D39444444393D404040D5
:100EF0003D3C24FF2424487E4943662B2FFC2F2BA6
:100F0000FF0929F620C0887E090320545479410046
:100F100000447D413048484A32384040227A007AC5
:100F20000A0A727D0D19317D2629292F28262929A3
:100F3000292630484D4020380808080808080808C5
:100F4000382F10C8ACBA2F102834FA00007B0000EC
:100F500008142A142222142A1408AA005500AAAA46
:100F600055AA55AA000000FF00101010FF0014142D
:100F700014FF001010FF00FF1010F010F0141414F4
:100F8000FC001414F700FF0000FF00FF1414F40429
:100F9000FC141417101F10101F101F1414141F001E
:100FA000101010F0000000001F101010101F101083
:100FB0001010F010000000FF101010101010101092
:100FC00010FF10000000FF140000FF00FF00001FD2
:100FD00010170000FC04F414141710171414F40470
:100FE000F40000FF00F714141414141414F700F79D
:100FF000141414171410101F101F141414F41410C8
:1010000010F010F000001F101F0000001F1400005F
:1010100000FC140000F010F01010FF10FF14141466
:10102000FF141010101F00000000F010FFFFFFFF62
:10103000FFF0F0F0F0F0FFFFFF0000000000FFFF06
:101040000F0F0F0F0F38444438447C2A2A3E147E79
:1010500002020606027E027E02635549416338445D
:10106000443C04407E201E2006027E020299A5E731
:10107000A5991C2A492A1C4C7201724C304A4D4DCC
:10108000303048784830BC625A463D3E49494900B4
:101090007E0101017E2A2A2A2A2A44445F444440D0
:1010A000514A444040444A51400000FF0103E0805F
:1010B000FF000008086B6B083612362436060F094D
:1010C0000F06000018180000001010003040FF014B
:1010D00001001F01011E00191D1712003C3C3C3C81
:1010E000000000000000000000250028002B000286
:1010F00001020408102040800102040810200102AF
:101100000408102000000000230026002900040429
:10111000040404040404020202020202030303039F
:1011200003038828312811241FBECFEFD8E0DEBF8B
:10113000CDBF14E0A0E0B1E0E4EFFFE502C0059010
:101140000D92A633B107D9F726E0A6E3B4E001C0BB
:101150001D92AF33B207E1F718E0C2E9D8E004C04E
:101160002197FE010E94CC2DC139D107C9F70E94F9
:10117000F1210C94ED2F0C9400004CE850E060E05D
:1011800070E080E699E00E944D1D68EC70E080E020
:1011900090E00E9412174CE850E060E070E080EAB6
:1011A0009FE00E944D1D68EC70E080E090E00E949E
:1011B00012174CE850E060E070E080E699E00E9491
:1011C0004D1D68EC70E080E090E00E9412174CE842
:1011D00050E060E070E080EA9FE00C944D1D80914B
:1011E0006F04833018F490E00196089584E690E04F
:1011F00008958FE00E94FB16803921E0920734F0B9
:101200008438934034F082E090E0089580E090E0EC
:10121000089581E090E0089582E10E94FB168039F4
:1012200021E0920774F08C3B22E092076CF0803250
:1012300023E0920764F08438934064F081E090E00A
:10124000089580E090E0089584E090E0089583E0C0
:1012500090E0089582E090E008958EE00E94DF150E
:1012600021E0892B09F020E0822F08958091080168
:10127000833001F580915B04811104C00E942D0927
:10128000882349F080915B048823A1F00E942D09F6
:10129000811105C0089581E080935B04F3CF8091B4
:1012A0005C0490915D04019690935D0480935C04CE
:1012B00010925B0408958F929F92AF92BF92EF922B
:1012C000FF920F931F93CF93DF937C0184E68E9D53
:1012D00080018F9D100D1124C9E0D1E0095011400B
:1012E000C8018C0F9D1F0E94482B899381E0CF314C
:1012F000D807B1F78090090190900A01A0900B01E6
:10130000B0900C0120E030E040E85FEBC501B40193
:101310000E94242A882351F02CE53FE842E85FE34D
:10132000C501B4010E94242A8823F9F086E1E4EE85
:10133000F2E0A9E0B1E001900D928A95E1F742E375
:1013400050E060E070E088EE93E00E944D1D64E69E
:1013500070E080E090E00E94121742E350E060E00D
:1013600070E088EE93E00E944D1D80910D019091F8
:101370000E01909301018093000180910F019091E3
:1013800010019093070180930601209111012223FF
:1013900029F0253028F024E030E002C021E030E0E0
:1013A000215020936F04809112019091130190932A
:1013B0000301809302018091140190911501909393
:1013C000050180930401809116019091170190937B
:1013D0007104809370048091180190911901909389
:1013E00021018093200180911C0190911D01909317
:1013F00023018093220180911B0180930801EF2833
:1014000051F490911E0181E0892780936D048091B1
:101410001A0180931F01DF91CF911F910F91FF90CF
:10142000EF90BF90AF909F908F9008950E945B09BE
:1014300042E350E060E070E080EA9FE00E944D1DD2
:1014400064E670E080E090E00E94121744E650E00D
:1014500060E070E080EA9FE00C944D1D2F923F9277
:101460004F925F926F927F928F929F92AF92BF92B4
:10147000CF92DF92EF92FF920F931F93CF93DF9360
:1014800000D01F92CDB7DEB79B838A832CE53FE85F
:1014900042E85FE36091090170910A0180910B01BC
:1014A00090910C010E94242A8090000190900101EB
:1014B000A0900601B0900701C0900201D0900301F6
:1014C000E0900401F0900501009170041091710406
:1014D000609020017090210181115BC080910D010D
:1014E00090910E018815990509F053C080910F0164
:1014F000909110018A159B0509F04BC00E94EF08DE
:101500002091110130E02817390709F042C080917D
:101510001201909113018C159D05D9F5809114014C
:10152000909115018E159F05A1F58091160190915E
:1015300017018017910769F58091180190911901A1
:101540008615970531F590911A0180911F01981326
:1015500020C090911B018091080198131AC020911E
:101560001C0130911D0180912201909123012817C7
:10157000390779F481E090916D04911180E09091A8
:101580001E01981306C02A813B81121613060CF027
:1015900065C00E94EF0850911F0140910801209101
:1015A00022013091230191E060916D04611190E07E
:1015B0006CE5262E6FE8362E62E8462E6FE3562E37
:1015C0002092090130920A0140920B0150920C01C5
:1015D00090920E0180920D01B0921001A0920F0125
:1015E00080931101D0921301C0921201F092150163
:1015F000E0921401109317010093160170921901E3
:101600006092180150931A0140931B0130931D0101
:1016100020931C0190931E0184E62A813B81829FC6
:101620008001839F100D112479E0C72E71E0D72E21
:10163000780136E1E30EF11CF60161916F01C801FA
:1016400069830E94482B6981681719F0C8010E94BC
:10165000502B0F5F1F4F0E151F0571F70F900F9046
:101660000F90DF91CF911F910F91FF90EF90DF903E
:10167000CF90BF90AF909F908F907F906F905F9032
:101680004F903F902F9008954F925F926F927F926C
:101690008F929F92AF92BF92CF92DF92EF92FF9282
:1016A0000F931F93CF93DF9300D000D000D0CDB71E
:1016B000DEB7B82EA0912201B09123012FEF30E0C8
:1016C0000E94DA2D24E630E040E050E00E945E2BDC
:1016D000622F81E80E94AB1F80913604882371F04D
:1016E00082E2809331051092320562E573E086E272
:1016F00095E00E94851580E00E94FA1F80912401E8
:10170000882331F080915704909158040E94C219A7
:101710000E944C1700913B0410913C0420913D0421
:1017200030913E04045D1E4F2F4F3F4F06171707A1
:101730002807390708F075C081E10E94FB16BC013B
:10174000990F880B990B0E942B2A2AE037ED43EA68
:1017500050E40E948A2A20E030E040E85AE30E94E8
:101760008A2A2CE83EE24AEB5DE30E946A2C20E0E4
:1017700030E040E251E40E948A2A0E94DC2C072ECD
:10178000000C880B990B0E942B2A20E030E040E2ED
:1017900051E40E946A2C2B013C01E0906A04F09015
:1017A0006B048701000F111F000F111F015C1B4FFD
:1017B000D8012D913D914D915C91609137047091CC
:1017C00038048091390490913A040E94F82BF80172
:1017D0004082518262827382A30192010E94F92B9E
:1017E00060933704709338048093390490933A04DB
:1017F000FFEFEF1AFF0AF0926B04E0926A0426E012
:10180000E216F10424F010926B0410926A040E9414
:101810004C1760933B0470933C0480933D04909379
:101820003E0420E030E040EC50E4609137047091D9
:1018300038048091390490913A040E946A2C6B011B
:101840007C0120E030E040E251E40E948A2A0E94BC
:10185000DC2C80915704909158040E94DB19BB2026
:1018600009F4A8C020E030E040E351E4C701B6012C
:101870000E94242A87FF25C0809066049090670408
:10188000A0906804B090690438EB830E3BE0931E8F
:10189000A11CB11C0E944C1786169706A806B90613
:1018A00080F460E081E00E9408160E9407280E94F0
:1018B0004C17609366047093670480936804909358
:1018C000690426E636E64EE251E4C701B6010E94FD
:1018D000242A87FF25C08090660490906704A0901A
:1018E0006804B09069044CED840E45E0941EA11C80
:1018F000B11C0E944C1786169706A806B90680F4FC
:1019000060E081E00E9408160E9407280E944C17A0
:1019100060936604709367048093680490936904ED
:101920002DEC3CEC4CE251E4C701B6010E94242AA4
:1019300087FF25C08090660490906704A09068049B
:10194000B090690458EE850E53E0951EA11CB11CA1
:101950000E944C1786169706A806B90680F460E028
:1019600081E00E9408160E94BD080E944C176093F7
:10197000660470936704809368049093690423E37A
:1019800033E34BE251E4C701B6010E94242A87FFEA
:1019900011C060E081E00E94081688EE93E00E948A
:1019A000B9210E94BD0868EC70E080E090E00E94E0
:1019B0001217EFCF8091360481111AC089E280930B
:1019C00031051092320520E030E040E251E4C701D9
:1019D000B6010E94242A87FF06C068E573E086E20C
:1019E00095E00E94851541E0C701B6010E942E20B6
:1019F00088E38093310587E2809332056AE573E0DE
:101A000086E295E00E94851580917304882309F48D
:101A1000B5C00E94381D00917E0410917F04209172
:101A2000800430918104DC01CB01800F911FA21F43
:101A3000B31F80937E0490937F04A0938004B0939F
:101A40008104F894109228061092290610922A0612
:101A500010922B06789460917E0470917F0480919F
:101A60008004909181048B019C0197FF07C000279F
:101A700011279801061B170B280B390B083011058D
:101A80002105310554F110917204111102C097FD26
:101A900010C028E030E040E050E00E945E2B210FB3
:101AA0002E3008F02DE02093720410925D04109205
:101AB0005C0410927E0410927F04109280041092B5
:101AC000810480916D04811108C04AE050E060E01B
:101AD00070E080ED97E00E944D1D1092310510924C
:101AE000320560E973E086E295E00E948515A090DA
:101AF0007204A6E0AA9EC0011124FC01E653FA4F2D
:101B00005F0180912D05248135812F5F3F4F90919A
:101B10002C05929FA001939F500D112428E330E0E3
:101B20006901C41AD50AF2E0CF16D1046CF0D5943D
:101B3000C79421E0C21AD1083DE1C316D10434F0A4
:101B40006CE1C62ED12C02C0C12CD12C10E054E384
:101B5000F52EF80EE12C00E02F2D412F6AE1812FA8
:101B60000E9415211F5F1733A9F7C09231058AE142
:101B700080933205C5010E940C2143C1E09172049B
:101B80008E2F90E08E30910508F042C1FC01EC5C94
:101B9000FF4F0C94CC2DE0902001F090210100919A
:101BA0007004109171046CE573E0CE0101960E94FF
:101BB000D41424E630E040E050E0BE016F5F7F4F78
:101BC00080E091E014C062E673E0CE0101960E94CD
:101BD000D41444E6E42EF12C00E010E024E630E0DA
:101BE00040E050E0BE016F5F7F4F86E091E00E94D1
:101BF000CB1BDAC066E673E0CE0101960E94D414D6
:101C000024E030E042EB55E0BE016F5F7F4F8FE68E
:101C100094E0C8C0809136048111FAC06CE673E08C
:101C2000CE0101960E94D41434EFE32EFF24F394E6
:101C30000AEF10E024EF31E04AEF50E0BE016F5FA1
:101C40007F4F82E091E0D3CF809136048111E0C0D4
:101C500064E773E0CE0101960E94D41424EFE22ED3
:101C6000FF24F39406E910E024EF31E046E950E068
:101C7000BE016F5F7F4F84E091E0B9CF8091360461
:101C80008111C6C0E0902001F09021016CE773E063
:101C9000CE0101960E94D41400E010E024E630E06A
:101CA00040E050E0BE016F5F7F4F80E794E09FCF40
:101CB000809136048111ACC00091700410917104C0
:101CC00064E873E0CE0101960E94D41494E6E92EF4
:101CD000F12C24E630E040E050E0BE016F5F7F4F22
:101CE00080E291E084CF6CE873E0CE0101960E941F
:101CF000D41424E030E046E755E0BE016F5F7F4F2B
:101D00008FE191E04FC065E973E0CE0101960E943A
:101D1000D41424E030E04EE555E0BE016F5F7F4F04
:101D200088E091E03FC080913604811171C06EE976
:101D300073E006C08091360481116AC063EA73E0E3
:101D4000CE0101960E94D41424E030E04EE855E024
:101D5000BE016F5F7F4F8EE694E024C068EA73E0B7
:101D6000CE0101960E94D41484E6E82EF12C00E006
:101D700010E024E630E040E050E0BE016F5F7F4FAE
:101D800082E291E034CF60EB73E0CE0101960E94D5
:101D9000D41422E030E046EA55E0BE016F5F7F4F89
:101DA0008DE694E00E94661CCE0101960E94CF143D
:101DB0002FC0109231058EE08093320566EB73E000
:101DC00086E295E00E948515109231058AE18093A4
:101DD00032056BEB73E086E295E00E948515109268
:101DE000310586E28093320561EC73E086E295E08E
:101DF0000E94851542E06CE57FE882E89FE30E943F
:101E00002E200E94C01F1092240180E00E94FA1F21
:101E10000E940C098C01892B09F4F9C00E940C095D
:101E200020916C04049709F064C021115EC0809178
:101E3000730481112DC080917204893041F4809126
:101E40006E04882329F190E00E94160A1FC08A3090
:101E5000F9F480916E048823D9F090E00E942E0A54
:101E600042E350E060E070E080ED97E00E944D1D9D
:101E700064E670E080E090E00E94121744E650E0D3
:101E800060E070E080ED97E00E944D1D10926E04BE
:101E90009091730481E089278093730480913604C4
:101EA000882361F0809172049DEF980F943018F0B0
:101EB0008950823018F481E08093730480E891E0C7
:101EC000E5E2F1E0DF019C011D9221503040E1F795
:101ED00081E080932401F89410922806109229063C
:101EE00010922A0610922B06789481E080936C045D
:101EF00090C021118EC04AE050E060E070E08CEDAF
:101F000095E00E944D1D60EA70E080E090E00E9444
:101F100012170E940C096C018017910709F079C013
:101F200080911F01811107C080913604811103C087
:101F3000C6010E94160A80911F018130E1F4809150
:101F40003604811118C021E030E02C193D094EE122
:101F5000429FC001439F900D11248C599F4F909335
:101F600001018093000144E650E060E070E080ED04
:101F700097E00E944D1D80911F018230C1F421E045
:101F800030E02C193D0949E1429FC001439F900D6B
:101F900011248C599F4F909307018093060144E6CA
:101FA00050E060E070E080ED97E00E944D1D809170
:101FB0001F01833091F433E0C316D10419F48093E8
:101FC0006F0403C0CA94C0926F0444E650E060E01E
:101FD00070E080ED97E00E944D1D81E080936C04DD
:101FE00020E831E0E5E2F1E0DF01A9011D92415076
:101FF0005040E1F780932401F89410922806109243
:10200000290610922A0610922B06789402C010928C
:102010006C0426960FB6F894DEBF0FBECDBFDF91DD
:10202000CF911F910F91FF90EF90DF90CF90BF90D5
:10203000AF909F908F907F906F905F904F9008959A
:10204000DC01ED91FD918081ED91FD919081ED910B
:10205000FD916C9163708E2309F064609F2309F0F9
:102060006860EDE3F0E1E60FF11D659565956D9310
:102070006D917D918D919D91099423C01AC012C0DC
:1020800016C010C01EC009C014C013C006C019C0BD
:1020900009C00DC007C00DC014C062507040804020
:1020A00090400BC0615070408040904006C06E5F11
:1020B00001C06F5F7F4F8F4F9F4F9E938E937E9394
:1020C0006E93089580915C0590915D050C942010AD
:1020D00080915A0590915B050C942010CF92DF926D
:1020E000EF92FF920F931F93CF93DF936C017A01CE
:1020F0008B01C0E0D0E0CE15DF0589F0D8016D91ED
:102100008D01D601ED91FC910190F081E02DC60189
:102110000995892B11F47E0102C02196ECCFC701ED
:10212000DF91CF911F910F91FF90EF90DF90CF90B3
:102130000895FC01538D448D252F30E0842F90E0CD
:10214000821B930B541710F0CF96089501970895B2
:10215000FC01918D828D981761F0828DDF01A80FAF
:10216000B11D5D968C91928D9F5F9F73928F90E0D1
:1021700008958FEF9FEF0895FC01918D828D981740
:1021800031F0828DE80FF11D858D90E008958FEF7D
:102190009FEF0895FC01918D228D892F90E0805C46
:1021A0009F4F821B91098F739927089589E894E0C6
:1021B0000E94CA1021E0892B09F420E0822F0895A3
:1021C000FC01848DDF01A80FB11DA35ABF4F2C91D4
:1021D000848D90E001968F739927848FA689B789A3
:1021E0002C93A089B1898C9180648C93938D848D7C
:1021F000981306C00288F389E02D80818F7D80834B
:102200000895EF92FF920F931F93CF93DF93EC010A
:1022100081E0888F9B8D8C8D981305C0E889F989A2
:10222000808185FD24C0F62E0B8D10E00F5F1F4FBF
:102230000F731127E02E8C8DE8120CC00FB607FC2F
:10224000FACFE889F989808185FFF5CFCE010E9418
:10225000E010F1CF8B8DFE01E80FF11DE35AFF4F27
:10226000F0820B8FEA89FB898081806207C0EE894A
:10227000FF896083E889F98980818064808381E0B7
:1022800090E0DF91CF911F910F91FF90EF90089513
:10229000CF93DF93EC01888D8823C9F0EA89FB890D
:1022A000808185FD05C0A889B9898C9186FD0FC004
:1022B0000FB607FCF5CF808185FFF2CFA889B989D9
:1022C0008C9185FFEDCFCE010E94E010E7CFDF912A
:1022D000CF91089580E090E0892B29F00E94D610DC
:1022E00081110C9400000895833081F028F481302E
:1022F00099F08230A1F008958730A9F08830B9F0C4
:102300008430D1F4809180008F7D03C08091800063
:102310008F7780938000089584B58F7702C084B54D
:102320008F7D84BD08958091B0008F7703C0809128
:10233000B0008F7D8093B00008953FB7F8948091EE
:102340007A0490917B04A0917C04B0917D0426B521
:10235000A89B05C02F3F19F00196A11DB11D3FBFDD
:10236000BA2FA92F982F8827820F911DA11DB11D6B
:10237000BC01CD0142E0660F771F881F991F4A9567
:10238000D1F7089508950E94D82F0C94762E0C94BE
:10239000762E2F923F924F925F926F927F928F9202
:1023A0009F92AF92BF92CF92DF92EF92FF920F93E4
:1023B0001F93CF93DF9300D000D0CDB7DEB71C01C1
:1023C000FC01A480B580678570896A197B0980E06B
:1023D00090E00E94292A6B017C01F101868197819E
:1023E0008A199B09BC0180E090E00E94292A9B0188
:1023F000AC01C701B6010E946A2C20E030E040E742
:1024000053E40E948A2A20E030E046E153E40E942F
:10241000F92B25E33AEF4EE85CE30E948A2A4B0150
:102420005C010E94652C69837A838B839C83F10114
:10243000658570E080E090E00E942B2A2AE939E966
:1024400049E95FE30E946A2C6B017C01C501B4017C
:102450000E94562D2B013C01F10113813280612F26
:1024600070E06F5F7F4F072E000C880B990B0E9466
:102470002B2A4B015C01A7019601C301B2010E9406
:102480008A2A9B01AC01C501B4010E94F92B0E946C
:10249000E32C762E632D70E06F5F7F4F072E000CCC
:1024A000880B990B0E942B2A4B015C01A701960116
:1024B00069817A818B819C810E948A2A9B01AC016F
:1024C000C501B4010E94F92B0E94E32C462FEE2493
:1024D000E39401E0272D612F832D0E9415210F9099
:1024E0000F900F900F90DF91CF911F910F91FF9060
:1024F000EF90DF90CF90BF90AF909F908F907F90A4
:102500006F905F904F903F902F900895CF93DF93FF
:10251000EC01E881F9810084F185E02D0995888539
:102520009985988B8F87E881F9810084F185E02D6A
:10253000CE0109958E85811119C09A819F5F8B8587
:10254000282F220F820F981B2C858B81222311F0BC
:10255000865F01C0855F90933105809332056F855A
:102560007889CE01DF91CF910C946A19DF91CF91D8
:1025700008952F923F924F925F926F927F928F9227
:102580009F92AF92BF92CF92DF92EF92FF920F9302
:102590001F93CF93DF93CDB7DEB72F970FB6F89485
:1025A000DEBF0FBECDBF1C01FC01958593808280EC
:1025B000B0902B05A0902A0581E0F82EF91AE92E9B
:1025C000E194EE0C192F492D490F0B2D2A2D682D62
:1025D00086E295E00E94FA19492D411B2A2D682DAB
:1025E00086E295E00E94FA19682D610F2A2D492D87
:1025F00086E295E00E94FA19682D611B2A2D492D6B
:1026000086E295E00E94FA19612C61160CF055C023
:10261000F7FC04C01150E394E394FE0C6394862D00
:10262000880F8F5FF80E762C780C0B2D2A2DD12E6B
:10263000D90C4D2D672D86E295E00E94FA19C82C21
:10264000C6182A2D4D2D6C2D86E295E00E94FA19B0
:102650002A2DD92CD11A4D2D672D86E295E00E94A6
:10266000FA192A2D4D2D6C2D86E295E00E94FA195B
:10267000D62CD90C2A2D4D2DC12EC80C6C2D86E2DE
:1026800095E00E94FA192A2D4D2DD82CD11A6D2DC6
:1026900086E295E00E94FA19792C76182A2D472DAA
:1026A0006C2D86E295E00E94FA192A2D472D6D2D9A
:1026B00086E295E00E94FA19A8CF26E930E03F872C
:1026C0002E87EE85FF85BF01FF0F880B990B0E94B7
:1026D0002B2A25E33AEF4EE85CE30E948A2A4B015D
:1026E0005C010E94652C69837A838B839C83F10152
:1026F000658570E080E090E00E942B2A6B017C01F0
:1027000020E030E040EC5FE30E946A2C69877A8722
:102710008B879C87C501B4010E94562D2B013C017B
:10272000F101638170E06F5F7F4F072E000C880B13
:10273000990B0E942B2A4B015C01F101628170E030
:102740006F5F7F4F072E000C880B990B0E942B2A7E
:102750006D837E838F839887A7019601C301B201A1
:102760000E948A2A9B01AC01C501B4010E94F92B89
:102770000E94E32C6D87A701960169817A818B8184
:102780009C810E948A2A9B01AC016D817E818F8190
:1027900098850E94F92B0E94E32C162F29853A85F3
:1027A0004B855C85C301B2010E948A2A9B01AC0162
:1027B000C501B4010E94F92B0E94E32CB62E298595
:1027C0003A854B855C8569817A818B819C810E94E9
:1027D0008A2A9B01AC016D817E818F8198850E9440
:1027E000F92B0E94E32C862FE0902B0500912A05FF
:1027F0002D85412F6B2D0E9415212E853F85225E50
:102800003F4F3F872E87243A314009F05ACFF101DC
:102810008585803108F4AAC025EA30E03F872E87FD
:10282000EE85FF85BF01FF0F880B990B0E942B2AB5
:1028300025E33AEF4EE85CE30E948A2A4B015C01F3
:102840000E94652C69837A838B839C83F101658563
:1028500070E080E090E00E942B2A6B017C0126E66C
:1028600036E646EA5FE30E946A2C69877A878B879F
:102870009C87C501B4010E94562D2B013C01F1013A
:10288000638170E06F5F7F4F072E000C880B990B00
:102890000E942B2A4B015C01F101628170E06F5FA5
:1028A0007F4F072E000C880B990B0E942B2A6D83FB
:1028B0007E838F839887A7019601C301B2010E948E
:1028C0008A2A9B01AC01C501B4010E94F92B0E9428
:1028D000E32C162FA701960169817A818B819C8157
:1028E0000E948A2A9B01AC016D817E818F8198852F
:1028F0000E94F92B0E94E32CF62E29853A854B8500
:102900005C85C301B2010E948A2A9B01AC01C5010A
:10291000B4010E94F92B0E94E32CB62E29853A853A
:102920004B855C8569817A818B819C810E948A2A92
:102930009B01AC016D817E818F8198850E94F92B6E
:102940000E94E32C862FE0902B0500912A05212F71
:102950004F2D6B2D0E9415212E853F85225E3F4F06
:102960003F872E872539314009F05ACF2F960FB671
:10297000F894DEBF0FBECDBFDF91CF911F910F91B5
:10298000FF90EF90DF90CF90BF90AF909F908F908F
:102990007F906F905F904F903F902F900895FC0133
:1029A000808191810C94762EEF92FF920F931F936A
:1029B000CF93DF93EC01198218821B821A821D8249
:1029C0001C8261157105A9F17B01FB0101900020BA
:1029D000E9F731978F01061B170BB8016F5F7F4F27
:1029E00080E090E00E940E2F009759F09983888331
:1029F0001B830A832C813D81232B81F4FC011082EF
:102A00000DC088819981009711F00E94762E19825D
:102A100018821D821C821B821A820BC01D830C83AC
:102A2000B701DF91CF911F910F91FF90EF900C9420
:102A3000E62FDF91CF911F910F91FF90EF900895B6
:102A4000DC01ED91FC910190F081E02D099461157C
:102A5000710579F0FB0101900020E9F73197AF0192
:102A6000461B570BDC01ED91FC910280F381E02DB8
:102A7000099480E090E008954F925F926F927F9268
:102A8000EF92FF920F931F93CF93DF93CDB7DEB7F3
:102A9000A1970FB6F894DEBF0FBECDBF7C01FA013F
:102AA000CB0119A2223008F42AE08E010F5D1F4FDE
:102AB000422E512C612C712CBF01A30192010E9466
:102AC000C72BF901CA01015011096A3014F4605D85
:102AD00001C0695CD8016C93232B242B252B61F753
:102AE000B801C7010E942715A1960FB6F894DEBF62
:102AF0000FBECDBFDF91CF911F910F91FF90EF904F
:102B00007F906F905F904F9008950C9427151F92BF
:102B10000F920FB60F9211242F933F934F935F9311
:102B20006F937F938F939F93AF93BF93EF93FF9395
:102B300089E894E00E94E010FF91EF91BF91AF917E
:102B40009F918F917F916F915F914F913F912F91C5
:102B50000F900FBE0F901F9018951F920F920FB6F7
:102B60000F9211242F938F939F93EF93FF93E091F4
:102B70009904F0919A048081E0919F04F091A0045F
:102B800082FD12C090818091A2048F5F8F7320918B
:102B9000A304821751F0E091A204F0E0E757FB4F45
:102BA000958F8093A20401C08081FF91EF919F9146
:102BB0008F912F910F900FBE0F901F901895CF936C
:102BC000DF93282F30E0F901E455FF4F8491F9019C
:102BD000E051FF4ED491F901E25FFE4EC491CC2347
:102BE00091F081110E947411EC2FF0E0EE0FFF1FA5
:102BF000EC5FFE4EA591B491EC91ED2381E090E065
:102C000021F480E002C080E090E0DF91CF91089550
:102C10001F93CF93DF93282F30E0F901E455FF4F46
:102C20008491F901E051FF4ED491F901E25FFE4E2B
:102C3000C491CC23C9F0162F81110E947411EC2F7E
:102C4000F0E0EE0FFF1FEB51FF4EA591B4918FB74F
:102C5000F894111105C09C91ED2FE095E92302C075
:102C6000EC91ED2BEC938FBFDF91CF911F910895E5
:102C70009091A502981324C0EFEEF0E1E4919FEF4C
:102C80009093A502E130B9F098F0E230C9F4909148
:102C900070009D7F9093700091E09093B0009091B0
:102CA000B100987F94609093B1001092B30008C077
:102CB00010926E0005C090916F009D7F90936F0001
:102CC00060E00C9408161F920F920FB60F92112419
:102CD0002F933F934F935F936F937F938F939F9324
:102CE000AF93BF93EF93FF938091850490918604F7
:102CF000A0918704B0918804892B8A2B8B2B51F1EA
:102D000080918204E0918304F0918404908189276A
:102D100080838091850490918604A0918704B0916E
:102D20008804181619061A061B06C4F48091850437
:102D300090918604A0918704B09188040197A1091D
:102D4000B1098093850490938604A0938704B0937F
:102D5000880404C08091A5020E943816FF91EF916B
:102D6000BF91AF919F918F917F916F915F914F91A3
:102D70003F912F910F900FBE0F901F901895CF93FA
:102D8000DF9390E0FC01E051FF4E2491FC01E25FF3
:102D9000FE4E8491882361F190E0880F991FFC0119
:102DA000EE55FF4FC591D491FC01EB51FF4EA5911B
:102DB000B491611109C09FB7F8948881209582234E
:102DC0008883EC912E230BC0623061F49FB7F89496
:102DD0003881822F809583238883EC912E2B2C932E
:102DE0009FBF06C08FB7F894E8812E2B28838FBF32
:102DF000DF91CF9108958E3008F08E5087708064F7
:102E000080937C0080917A00806480937A00809126
:102E10007A0086FDFCCF809178002091790090E0C7
:102E2000922B08958F929F92AF92BF92CF92DF9292
:102E3000EF92FF926B017C010E949D114B015C019E
:102E4000C114D104E104F104F1F00E949D11DC01F0
:102E5000CB0188199909AA09BB09883E9340A105AD
:102E6000B10570F321E0C21AD108E108F10888EE3B
:102E7000880E83E0981EA11CB11CC114D104E1048A
:102E8000F10419F7DDCFFF90EF90DF90CF90BF9066
:102E9000AF909F908F9008952FB7F894609176042B
:102EA0007091770480917804909179042FBF0895F0
:102EB0001F920F920FB60F9211242F933F938F936F
:102EC0009F93AF93BF938091760490917704A091E4
:102ED0007804B09179043091750423E0230F2D37E5
:102EE00020F40196A11DB11D05C026E8230F02960E
:102EF000A11DB11D209375048093760490937704EF
:102F0000A0937804B093790480917A0490917B0423
:102F1000A0917C04B0917D040196A11DB11D809308
:102F20007A0490937B04A0937C04B0937D04BF91BA
:102F3000AF919F918F913F912F910F900FBE0F9066
:102F40001F9018951F920F920FB60F9211242F9376
:102F50003F934F935F936F937F938F939F93AF9321
:102F6000BF93EF93FF93E091A802F091A902099516
:102F7000FF91EF91BF91AF919F918F917F916F9151
:102F80005F914F913F912F910F900FBE0F901F9027
:102F900018951F920F920FB60F9211242F933F9303
:102FA0004F935F936F937F938F939F93AF93BF9351
:102FB000EF93FF93E091A602F091A7020995FF918C
:102FC000EF91BF91AF919F918F917F916F915F91A1
:102FD0004F913F912F910F900FBE0F901F9018951A
:102FE0001F920F920FB60F9211242F933F934F937E
:102FF0005F936F937F938F939F93AF93BF93EF9361
:10300000FF938091740487FF05C010928500109291
:1030100084001BC020917404022E000C330B80919D
:10302000590590E02817390784F480917404082E1C
:10303000000C990BFC01EE0FFF1F8E0F9F1FFC0170
:10304000EB5CFA4F808186FD15C0809174048F5F20
:103050008093740420917404022E000C330B809131
:10306000590590E028173907C4F4809174048C3016
:1030700064F113C080917404082E000C990BFC01BC
:10308000EE0FFF1F8E0F9F1FFC01EB5CFA4F80813C
:1030900060E08F730E940816D8CF809184009091D1
:1030A0008500049680349C4918F480E49CE905C0AE
:1030B000809184009091850004969093890080937C
:1030C00088008FEF809374043BC02091840030917E
:1030D000850080917404082E000C990BFC01EE0F02
:1030E000FF1F8E0F9F1FFC01EB5CFA4F81819281C5
:1030F000820F931F909389008093880080917404BD
:10310000082E000C990BFC01EE0FFF1F8E0F9F1F66
:10311000FC01EB5CFA4F808186FF12C08091740441
:10312000082E000C990BFC01EE0FFF1F8E0F9F1F46
:10313000FC01EB5CFA4F808161E08F730E940816FE
:10314000FF91EF91BF91AF919F918F917F916F917F
:103150005F914F913F912F910F900FBE0F901F9055
:103160001895089508959C01803167E29607E4F46C
:10317000813F78ED9707D4F097FF05C031952195F1
:10318000310992E001C091E04AE050E08AE0241762
:10319000350744F09F5FBA01869FA001879F500DBD
:1031A0001124F5CF892F089585E0089586E00895CC
:1031B0000DB407FEFDCF2898209A2A9A22988CB544
:1031C0008F7B8CBD08958CB580648CBD2A98229A23
:1031D0000895089508950895089580E090E0089571
:1031E000CF92DF92EF920F93CF93DF936C01FC01AC
:1031F0008485C585823040F5D281CD0FCE5FDF5FFB
:10320000F601DC1770F4638128E0260F6B5FE09015
:103210002B0500912A054D2F8D2F0E941521DE5F71
:10322000EFCFD281DF5FDC17B8F5F601638125E0CF
:10323000260F6D5FE0902B0500912A054D2F8D2FF5
:103240000E941521D65FEFCFF601D381CD0FCE5F5F
:10325000DF5FF601CD1768F0828143E0480FE09010
:103260002B0500912A052D2F6D2F0E941521DE5F61
:10327000F0CFD381DF5FCD1778F0F601828145E092
:10328000480FE0902B0500912A052D2F6D2F8D5FA3
:103290000E941521D65FEFCFDF91CF910F91EF9074
:1032A000DF90CF9008950C94762E1F93CF93DF93E9
:1032B000EC018E819F810E94B318182F8C819D8113
:1032C0000E94B318811708F4812F8B87DF91CF916B
:1032D0001F9108950F931F93CF93DF93EC018B0100
:1032E000CB010E94B318CB85C81BCC2341F06CE006
:1032F00074E086E295E00E948515C150F6CFB801D2
:1033000086E295E0DF91CF911F910F910C9483217C
:10331000CF93DF93EC01E881F9810084F185E02D02
:10332000099588859985988B8F87E881F981008434
:10333000F185E02DCE0109958E85811120C02C8567
:103340008B819A81213069F038F0223061F42D852B
:10335000820F8C5F9F5F08C08F5F2D85920F9C5FEF
:1033600003C0865F01C0975F90933105809332055B
:103370006F857889CE01DF91CF910C946A19DF9126
:10338000CF910895CF93DF93EC01E881F98102801A
:10339000F381E02D0995E881F9810084F185E02D24
:1033A000CE010995E881F9810190F081E02DCE01EF
:1033B000DF91CF910994CF93DF93EC018E819F81B0
:1033C00086179707A4F08C819D81681779077CF098
:1033D000CB01798768870E94B3188A87E881F981D1
:1033E0000190F081E02DCE01DF91CF910994DF9122
:1033F000CF9108950F936034C8F54033B8F501308C
:10340000C1F4213099F5E42FE695E695E69580E440
:10341000E89FF0011124E60FF11DEB5DFE4F4770B0
:1034200081E090E001C0880F4A95EAF790818927F2
:103430001CC0842F869586958695E62FF0E0477010
:1034400090E4899FE00DF11D1124EB5DFE4F81E0BA
:1034500090E001C0880F4A95EAF7213019F4908175
:10346000892B03C080959081892380830F910895D3
:103470007F928F929F92AF92BF92CF92DF92EF9204
:10348000FF920F931F93CF93DF93EC018C85CC8039
:10349000DD806F857889EE80FF800D857B801A81C5
:1034A0008230B8F56C197D0980E090E00E94292AED
:1034B0004B015C01B7016C197D0980E090E00E942E
:1034C000292A9B01AC01C501B4010E946A2C6B0141
:1034D0007C01602F70E080E090E00E942B2A9B012D
:1034E000AC01C701B6010E948A2A0E94E32CF62E85
:1034F000862F810F43E0480FEE24E39401E0272D4F
:10350000672D0E9415214B814F5F6A816F5F6F0DA0
:1035100039C0C701861B970BBC0180E090E00E9478
:10352000292A4B015C01C7018C199D09BC0180E06F
:1035300090E00E94292A9B01AC01C501B4010E94C0
:103540006A2C6B017C01602F70E080E090E00E94AB
:103550002B2A9B01AC01C701B6010E948A2A0E9456
:10356000E32CF62E670D87E0810F23E0260FEE2473
:10357000E39401E0482F0E9415214B814F5F4F0DCE
:103580006A816A5F21E086E295E00E94FA19DF9184
:10359000CF911F910F91FF90EF90DF90CF90BF9050
:1035A000AF909F908F907F9008955F926F927F92DF
:1035B0008F929F92AF92BF92CF92DF92EF92FF9243
:1035C0000F931F93CF93DF93EC016A3009F46AC025
:1035D0006D3009F4C9C0E62EBD80AC801C859B848B
:1035E0002985621708F450C08A8590E0820F911DEA
:1035F000462F50E0481759070CF046C0E21A8F805A
:1036000086948694869481E0881508F451C0C92C6C
:1036100038E0D32ED10E9C2D99198E81282F30E0C1
:10362000E92FF0E02E173F077CF1981789F0A88565
:10363000B0E0AA0FBB1FA650BD4FE89EE00DF11DE4
:10364000112436968D919C91E80FF91FF49001C0DA
:10365000F12C812EF0FE03C00B2D2A2D04C021E099
:10366000A11020E00B2D482D6C2DCE010E94FA19DF
:10367000F69483948D10EECFC394CDCF8FEFC81AFC
:10368000D80A185FC814D0F14E818B85840F8F5FE4
:103690008B8790E020E430E0241B3109281739079C
:1036A0000CF062C09C858F81890F8C871B865CC063
:1036B000ED85FE852E8130E0CF01B9010E94B82D45
:1036C0008E2D90E00E94B82D829F7001839FF00C98
:1036D000929FF00C11248E9E90018F9E300D11242C
:1036E000269FC001279F900D369F900D1124E80E54
:1036F000F91EC12CD12C86E0E80EF11C792C872D07
:1037000089199E81891708F0B9CFA885B0E0AA0F62
:10371000BB1FA650BD4F2D853E85C29EF001C39EA6
:10372000F00DD29EF00D1124EE0DFF1DE80FF11DDE
:103730008D919C91E80FF91F6490512C452D410FFC
:1037400060FE03C00B2D2A2D04C021E0A11020E053
:103750000B2D672DCE010E94FA196694539488E0D0
:103760005812ECCF7394CBCF81E090E0DF91CF91F2
:103770001F910F91FF90EF90DF90CF90BF90AF908F
:103780009F908F907F906F905F9008950DB407FE8B
:10379000FDCF08950895AF92BF92CF92DF92EF923E
:1037A000FF920F931F93CF93DF93EC016B015901AD
:1037B0008091590490915A04FC01558344830E94DE
:1037C00055198091590490915A04FC01B782A68240
:1037D0000E945519809124018823C1F080915904D9
:1037E00090915A040E94C21988819981092E000C77
:1037F000AA0BBB0BF8948093280690932906A093FC
:103800002A06B0932B067894109224011092310569
:1038100084E080933205C6010E940C210E94381D6D
:10382000E616F70634F0601771075CF07983688359
:1038300018C0601771072CF08B01E616F7060CF420
:10384000870119830883F894012E000C220B330B97
:10385000009328061093290620932A0630932B06FE
:1038600078948EE18093310588E2809332056881F7
:10387000798186E295E00E948321888199810A9767
:1038800034F46CE074E086E295E00E94851588814E
:1038900099818436910534F46CE074E086E295E019
:1038A0000E948515688179818091590490915A040C
:1038B0000E94DB19DF91CF911F910F91FF90EF9044
:1038C000DF90CF90BF90AF900C94C01F4F925F924B
:1038D0006F927F92AF92BF92CF92DF92EF92FF9260
:1038E0000F931F93CF93DF936C018B015A01E90172
:1038F0000E94381D40907E0450907F0460908004A8
:1039000070908104DC01CB01840D951DA61DB71DAF
:1039100080937E0490937F04A0938004B0938104ED
:10392000F894109228061092290610922A061092F6
:103930002B06789460917E0470917F0480918004BE
:10394000909181042B013C0197FF07C0442455242A
:103950003201461A570A680A790A24E042165104CD
:1039600061047104FCF0F601F080F11002C097FDD3
:1039700011C024E030E040E050E00E945E2B9F2D1B
:10398000920F292F30E02C173D0714F09C2F9150F7
:10399000F601908310927E0410927F0410928004AE
:1039A00010928104109231058EE080933205C80197
:1039B0000E940C2181E00E94FA1FF6019081809103
:1039C0002D05F50126E0929FE00DF11D11242481C3
:1039D00035812F5F3F4F90912C05929FA001939FBF
:1039E000500D1124C8E3D0E0C41BD50BC230D10563
:1039F0004CF0D595C7952197CD31D1052CF0CCE170
:103A0000D0E002C0C0E0D0E010E094E3F92EF80E60
:103A1000E12C00E02F2D412F6AE1812F0E9415211A
:103A20001F5F1733A9F7C09331058AE180933205F0
:103A3000F6018081950146E0849F200D311D1124FF
:103A4000C9010E940C210E94C01F1092240180E035
:103A5000DF91CF911F910F91FF90EF90DF90CF906A
:103A6000BF90AF907F906F905F904F900C94FA1F33
:103A700080912C06823030F4F89481E296E00E9426
:103A8000201001C0F8946091280670912906809159
:103A90002A0690912B06789408953F924F925F9258
:103AA0006F927F928F929F92AF92BF92CF92DF924E
:103AB000EF92FF920F931F93CF93DF9300D000D02C
:103AC000CDB7DEB72091A502263021F02F3F09F0B7
:103AD0002CC204C0EFEEF0E1349076C026E02093D3
:103AE000A502EFEEF0E1E491EF3F09F41EC2E130F0
:103AF00011F1E23009F443C0E11165C014BC15BCFA
:103B000024B5226024BD25B5216025BDE4E1F1E1A5
:103B1000E491F0E0EE0FFF1FEB51FF4E2591349141
:103B20003093320620933106E6EFF0E1E491E09322
:103B30003006312C4BC010928000109281002091F1
:103B400081002860209381002091810021602093D2
:103B50008100E4E1F1E1E491F0E0EE0FFF1FEB51B1
:103B6000FF4E2591349130932F0620932E06E6EFD9
:103B7000F0E1E491E0932D063324339427C01092B2
:103B8000B0001092B1002091B00022602093B000EC
:103B90002091B10021602093B100E4E1F1E1E491D2
:103BA000F0E0EE0FFF1FEB51FF4E25913491309363
:103BB000840420938304E6EFF0E1E491E09382042F
:103BC000B2E03B2E03C03E2E37FCAFC12A013B01C1
:103BD0008C0161E086E00E94BF164801A12CB12C47
:103BE000832D8D7F09F0BBC060E072E18AE790E031
:103BF000A50194010E945E2B29833A834B835C8349
:103C000069017A0121E0C21AD108E108F1088FEFB9
:103C1000C816D104E104F10409F008F44CC060E4D2
:103C200072E48FE090E0A50194010E945E2B69018F
:103C30007A01E1E0CE1AD108E108F108F2E03F1282
:103C400020C02FEFC216D104E104F10409F008F4FA
:103C50006AC160E970ED83E090E0A50194010E94E3
:103C60005E2B69017A0181E0C81AD108E108F108E8
:103C7000EFEFCE16D104E104F10409F0D0F583E0B2
:103C800067C0FFEFCF16D104E104F104B1F0A8F052
:103C900068E478EE81E090E0A50194010E945E2B3B
:103CA00069017A0181E0C81AD108E108F1083320DE
:103CB00009F4DFC02FC181E001C082E03320A1F010
:103CC00047C089819A81AB81BC812AE0B595A795CF
:103CD000979587952A95D1F76C017D0121E0C21A4D
:103CE000D108E108F10885E095B5987F892B85BD5D
:103CF0006FC068E478EE81E090E0A50194010E9435
:103D00005E2B69017A01F1E0CF1AD108E108F108D0
:103D10002FEFC216D104E104F10409F008F4A7C0A2
:103D200064E274EF80E090E0A50194010E945E2BB4
:103D300069017A01E1E0CE1AD108E108F108FFEF4C
:103D4000CF16D104E104F10411F008F0B4C085E00D
:103D50009091B100987F892B8093B10039C060E0C9
:103D600072E18AE790E0A50194010E945E2B69014F
:103D70007A0181E0C81AD108E108F108C114D10420
:103D8000E1E0EE06F10488F068E478EE81E090E08E
:103D9000A50194010E945E2B69017A01F1E0CF1A1E
:103DA000D108E108F10893E001C091E021E032126E
:103DB0000FC080918100887F892B809381004114FE
:103DC00051046104710449F42FEF3FEFA9012DC0A4
:103DD000411451046104710471F0D801AA0FBB1F92
:103DE000A30192010E947D2B28EE33E040E050E0D9
:103DF0000E94C72B03C02FEF3FEFA90181E03816C7
:103E0000A1F0E2E03E1619F131108FC0C7BC20933B
:103E10003706309338064093390650933A0680911E
:103E20006E00826080936E0080C0D0928900C09244
:103E30008800209333063093340640933506509320
:103E4000360680916F00826080936F006EC0C092D2
:103E5000B3002093850430938604409387045093E5
:103E60008804809170008260809370005EC084E05E
:103E70006FCFFFEFCF16D104E104F104D1F0C8F009
:103E800062E17AE780E090E0A50194010E945E2B58
:103E900069017A0181E0C81AD108E108F108EFEF61
:103EA000CE16D104E104F10411F008F00ACF84E049
:103EB0001BCF83E019CF62E17AE780E090E0A501B3
:103EC00094010E945E2B69017A0181E0C81AD10831
:103ED000E108F108EFEFCE16D104E104F104C1F0DE
:103EE000B8F089819A81AB81BC814AE0B595A795EC
:103EF000979587954A95D1F76C017D0121E0C21A0B
:103F0000D108E108F108332009F4EDCE87E020CF95
:103F100086E0D4CEFFEFCF16D104E104F10409F01E
:103F200050F684E0CBCE82E013CF0F900F900F902D
:103F30000F90DF91CF911F910F91FF90EF90DF9045
:103F4000CF90BF90AF909F908F907F906F905F9039
:103F50004F903F900895CF93DF9300D0CDB7DEB759
:103F60006A8389830E94E31889818EBD0E94C61BE3
:103F70006A816EBD0F900F90DF91CF910C94D8188D
:103F8000CF93DF9360E080E20E94AB1F0E94E318B2
:103F900081E28EBD0E94C61B80E28EBD0E94C61BC0
:103FA0008FE58EBD0E94D8180E94E31882E28EBD74
:103FB0000E94C61B1EBC0E94C61B85E08EBD0E94CF
:103FC000D8180E94E318289A2098809125018EBD68
:103FD000C6E2D1E00E94C61B89918EBD82E0C53A3F
:103FE000D807C1F70E94D81862E080E2DF91CF9134
:103FF0000C94AB1FA6E2B5E018968C931897E82FA7
:10400000F0E0EE0FFF1FE650FD4F80819181FC0133
:10401000249116962C9316973196E4911796EC936B
:104020001797FC013296E4911996EC931997FC01CD
:104030003396E4911A96EC931A97FC0134962491E6
:104040003196E491F0E084E6289FE00DF11D112403
:104050001E96FC93EE931D9781E008954F925F9218
:104060006F927F928F929F92AF92BF92CF92DF9288
:10407000EF92FF926B017C01B42E9B01AC010E9478
:104080005E2D882319F069E274E027C0260137010C
:10409000E89477F82FEF3FEF4FE75FE7C301B201F6
:1040A0000E945E2D81110DC02FEF3FEF4FE75FE7BC
:1040B000C301B2010E94242A18161CF46DE274E0B8
:1040C0000CC02FEF3FEF4FE75FE4C701B6010E943E
:1040D000512D181694F461E374E086E295E0FF90A8
:1040E000EF90DF90CF90BF90AF909F908F907F9098
:1040F0006F905F904F900C9427152FEF3FEF4FE795
:104100005FECC701B6010E94242A87FDE4CF20E0BE
:1041100030E0A901C701B6010E94242A87FF0BC025
:104120006DE286E295E00E9420154C01F7FAF094CA
:10413000F7F8F09402C0812C912CA12C60E070E083
:1041400080E09FE3AB1441F020E030E040E251E436
:104150000E946A2CA394F6CF9B01AC01C701B60163
:104160000E94F92B2B013C010E94E32C6B017C0186
:104170000E94292A9B01AC01C301B2010E94F82BC5
:104180002B013C012AE0B701A60186E295E00E94DE
:104190003C157C01E80CF91CBB2039F06EE286E28C
:1041A00095E00E942015E80EF91EDB2CDD2031F190
:1041B00020E030E040E251E4C301B2010E948A2ACB
:1041C0002B013C010E94E32C4B01A12CB12C2AE0D5
:1041D000B501A40186E295E00E943C15E80EF91EA7
:1041E000C501B4010E94292A9B01AC01C301B2019F
:1041F0000E94F82B2B013C01DA94D8CFC701FF9025
:10420000EF90DF90CF90BF90AF909F908F907F9076
:104210006F905F904F900895FC01448155816081BB
:10422000718186E295E00C946E109F92AF92BF92DE
:10423000CF92DF92EF92FF920F931F93CF93DF9372
:10424000C82FD62F142FD02E422F50E0461B5109D5
:1042500057FF03C0519541955109812F90E08C1B68
:10426000910997FF03C0919581959109BB24B3945F
:104270008417950714F0B12C06C0812F122F282F18
:104280008C2FCD2FD82F1C1730F48D2FD22F282F05
:104290008C2FC12F182FA12EAC1A822F90E08D1BCE
:1042A000910997FF03C0919581959109F82ECA2C29
:1042B000C694D21718F099249A9413C09924939411
:1042C00010C00E2D2D2DBB2079F04C2F6D2F86E2C6
:1042D00095E00E94FA19CF18C7FE02C0D90DCA0C8A
:1042E000CF5FC11770F303C04D2F6C2FF0CFDF915C
:1042F000CF911F910F91FF90EF90DF90CF90BF90E3
:10430000AF909F900895CF92DF92EF92FF920F931C
:104310001F93CF93DF936B01770FEE08FF08F7FE33
:104320001BC0EC016DE20E9420158C01442755272B
:10433000BA014C195D096E097F092AE0CE010E947D
:104340003C15800F911FDF91CF911F910F91FF902E
:10435000EF90DF90CF9008952AE0B701A601DF919A
:10436000CF911F910F91FF90EF90DF90CF900C9421
:104370003C15AC0190911E069C3090F580911F0673
:1043800028E830E0281B310987FD3395220F331FC1
:10439000220F331F4217530784F08091200628E52F
:1043A00032E0281B310987FD3395220F331F220F7E
:1043B000331F421753070CF49A0122503109220F80
:1043C000331F4FB7F894892F90E0FC01EE0FFF1FC9
:1043D0008E0F9F1FFC01EB5CFA4F328321834FBF8E
:1043E0000895CF93DF9300D000D0CDB7DEB7789497
:1043F00084B5826084BD84B5816084BD85B58260EA
:1044000085BD85B5816085BD80916E00816080939A
:104410006E00109281008091810082608093810003
:104420008091810081608093810080918000816013
:10443000809380008091B10084608093B10080916E
:10444000B00081608093B00080917A008460809396
:104450007A0080917A00826080937A0080917A005D
:10446000816080937A0080917A00806880937A00DE
:104470001092C10080911E068C3008F051C061E09E
:1044800085E00E94BF1680911E06E82FF0E09F0194
:10449000220F331FE20FF31FEB5CFA4F9081907CE9
:1044A0009560908310921F06109220066CE00E9487
:1044B000AC2D2CE0829FB001112440E050E09A0125
:1044C000260F371FF901EE0FFF1F2E0F3F1FF901B7
:1044D000EB5CFA4F908196FD16C04F5F5F4F4C30FA
:1044E000510569F781110FC01092800082E080931E
:1044F00081001092850010928400B19A80916F0023
:10450000826080936F00E0911E06F0E0CF01880F7B
:10451000991FE80FF91FEB5CFA4F8081806480835C
:1045200088EE93E00E94B92180E00E94FA1F81E0AA
:1045300080932A0510922B051092310510923205B6
:104540005F98579A61E084E00E94BF1661E084E0C2
:104550000E9408166AE070E080E090E00E94121766
:104560005F9A579865E070E080E090E00E94121733
:104570005F98579A8CB58C7F8CBD8DB581608DBD51
:104580002A9A22982898209A60E08DE00E940816C6
:1045900060E08BE00E94081661E08DE00E94BF168B
:1045A00061E08BE00E94BF168CB580618CBD65E038
:1045B00070E080E090E00E9412175F9A57986AE0DE
:1045C00070E080E090E00E9412176FE288EA0E949B
:1045D000AB1F64E18DE80E94AB1F0E94E31881EAE3
:1045E0008EBD0E94D8180E94E31888EC8EBD0E94F0
:1045F000D8186FE881E80E94AB1F61EF89ED0E9437
:10460000AB1F60E48BED0E94AB1F0E94E3188FEAA2
:104610008EBD0E94D81860E080E20E94AB1F0E940D
:10462000E31881E28EBD0E94C61B1EBC0E94C61B01
:104630008FE78EBD0E94D8180E94E31882E28EBDDB
:104640000E94C61B1EBC0E94C61B87E08EBD0E9436
:10465000D8180E94E318289A20981EBC0FEF13E088
:104660000E94C61B1EBC01501109D1F70E94D81828
:1046700062E080E20E94AB1F35E2E32E31E0F32ED0
:1046800000E811E0D701F8011D923197E9F70E9487
:10469000C01F60E081E10E94BF1660E082E10E94DD
:1046A000BF1660E08FE00E94BF1662E08EE00E94BD
:1046B000BF1662E080E10E94BF1661E081E00E94C7
:1046C000BF1661E080E00E94BF1661E086E00E94B4
:1046D000BF1681E00E94FA1F8BE0809331058EE0C7
:1046E0008093320569EF73E086E295E00E948515BC
:1046F0000E94C01F62E370E080E090E00E94121709
:1047000066E273E086E295E00E9485150E94C01F74
:1047100062E370E080E090E00E94121768E273E0CC
:1047200086E295E00E9485150E94C01F62E370E05A
:1047300080E090E00E9412176AE273E086E295E062
:104740000E9485150E94C01F62E370E080E090E047
:104750000E9412176FEB73E086E295E00E948515C8
:104760000E94C01F60E971E080E090E00E94121793
:1047700080E00E94FA1F68EC70E080E090E00E9408
:104780001217D701F8011D923197E9F70E94C01F57
:104790000E940C09049709F0A5C00E940C09049717
:1047A000E1F362E370E080E090E00E941217109263
:1047B0003105109232056CE273E086E295E00E94CA
:1047C0008515109231058EE08093320567E373E022
:1047D00086E295E00E948515109231058CE1809368
:1047E000320560E473E086E295E00E9485150E9440
:1047F000C01F0E944C176B017C01F0EDCF0EF7E05B
:10480000DF1EE11CF11C0E944C176C157D058E0506
:104810009F0508F05BC00E940C090497A1F780E88F
:1048200091E0E5E2F1E0DF019C011D922150304072
:10483000E1F7109231051092320569E473E086E2E7
:1048400095E00E948515109231058EE08093320527
:1048500060E473E086E295E00E9485150E94C01F27
:1048600000E010E060E0C8010E94502B0F5F1F4F76
:10487000011534E01307B1F742E350E060E070E067
:1048800088EB9BE00E944D1D64E670E080E090E0C4
:104890000E94121744E650E060E070E084EC99E07A
:1048A0000E944D1D64E670E080E090E00E941217C7
:1048B00048EC50E060E070E080ED97E00E944D1D14
:1048C00068EC70E080E090E00E94121780E891E0D0
:1048D000E5E2F1E0DF019C011D9221503040E1F75B
:1048E0000E94C01F81E190E00E94E12D6C0122EC4A
:1048F000E22E22E0F22EDC011196FC92EE9280E193
:1049000012968C9312978EE113968C9313971596AB
:104910001C921E92149784E690E017969C938E93B7
:10492000169719961C921E92189780E090E00E94AC
:10493000B318F6018287C6010E94551984EB92E0F4
:10494000D60111969C938E9318968D919C911997F0
:1049500050969C938E931F9711E01E961C931E9762
:104960001C961C921C978FE01D968C93C6010E948A
:10497000B912C6010E94C911C6010E948612D092C6
:104980005A04C092590481E190E00E94E12D6C012B
:10499000FC01F182E08288E382838EE083838DE6EE
:1049A00090E0958384832EE730E0378326839187D8
:1049B00080870E94B318D6011A968C93C6010E9474
:1049C000551980ED92E0F601918380838085918571
:1049D000908B8787168782E0848784E18587C6016C
:1049E0000E94F018C6010E94381AC6010E94881958
:1049F000D0925804C09257048091590490915A045F
:104A00000E94C21980915704909158040E94C219C3
:104A100080E090E00E945B0980E090E0A0E4B1E4D7
:104A200080933F0490934004A0934104B0934204C8
:104A30008093430490934404A0934504B0934604A8
:104A40008093470490934804A0934904B0934A0488
:104A500080934B0490934C04A0934D04B0934E0468
:104A600080934F0490935004A0935104B093520448
:104A70008093530490935404A0935504B093560428
:104A80000E944C1760933B0470933C0480933D0458
:104A900090933E0480E090E0A0E9B2E48093370474
:104AA00090933804A0933904B0933A0481E00E94B3
:104AB000440B6EE571E080E090E00E9412174CE339
:104AC00050E060E070E080ED97E00E944D1D6EE6E2
:104AD00070E080E090E00E9412174CE350E060E04C
:104AE00070E080ED97E00E944D1D6EE670E080E082
:104AF00090E00E9412174CE350E060E070E080ED1F
:104B000097E00E944D1D80E10E94DF15892BF1F492
:104B100064EF71E080E090E00E94121748EC50E0F2
:104B200060E070E088EB9BE00E944D1D6CE271E05C
:104B300080E090E00E94121748EC50E060E070E0E6
:104B400088EB9BE00E944D1D1093360484E6882E6E
:104B5000912CA12CB12C9BEC292E97E0392E0E9490
:104B60002D09811131C080915C0490915D0418166B
:104B7000190624F480910801833031F188EE93E026
:104B80000E94B92181E00E94440BC0906204D09041
:104B90006304E0906404F0906504C114D104E1045E
:104BA000F10409F425C20E944C17DC01CB018C19D9
:104BB0009D09AE09BF09883E9340A105B10508F0E3
:104BC00017C20E946A11CBCF80910801811117C0D2
:104BD00042E350E060E070E088EB9BE00E944D1DF6
:104BE00064E670E080E090E00E94121744E650E036
:104BF00060E070E080ED97E00E944D1DC3CF8330F0
:104C000009F05EC10E94EF088436910509F458C18D
:104C10000E944C17A0910001B09101012FE332E0F6
:104C20000E94DA2DA50194010E945E2BDA01C901D0
:104C30008B5F9A4FAF4FBF4F89839A83AB83BC83FF
:104C400089819A810E94B92140900201509003010C
:104C5000052C000C66087708A0910001B0910101B5
:104C60002091040130910501A901330F660B770BE8
:104C70009A01AB0124193509460957090E94882B6E
:104C8000A50194010E945E2BCA01B901640D751D36
:104C9000861D971D0E942B2A2B013C010E944C1758
:104CA000C0905E04D0905F04E0906004F0906104D6
:104CB000DC01CB018C199D09AE09BF09883E9340E8
:104CC000A105B10548F40E944C176C197D098E09A5
:104CD0009F090E94292A04C060E070E08AE794E4FA
:104CE00020E030E04AE754E40E946A2C9B01AC01CA
:104CF000C301B2010E948A2A20E030E0A9010E948B
:104D0000F92B0E94DC2C3B010E94EF0820915C04EF
:104D100030915D04820F931F90935D0480935C0437
:104D200010925B0400E010E0061517055CF40E9489
:104D3000360961E070E080E090E00E9412170F5F9A
:104D40001F4FF2CF0E942D09811158C08091080198
:104D5000813009F053C0B9C00F5F1F4F03331105F5
:104D600081F061E081E00E94081666E070E080E07A
:104D700090E00E9412170E9436090E94F9080197DC
:104D800059F32091060130910701ACE9BFEF0E9471
:104D9000D22DA50194010E945E2B69017A0184E65F
:104DA000C80ED11CE11CF11C80915C0490915D0443
:104DB000019790935D0480935C0496E0C916D1043A
:104DC000D4F060E081E00E9408168BE193E0019747
:104DD000F1F761E080E00E940816B601DD0C880B57
:104DE000990B0E94121760E080E00E9408168BE188
:104DF00093E00197F1F780E00E94440B80915C04FE
:104E000090915D04029764F10E94EF088436910549
:104E100029F40E942D09811108C022C08091080147
:104E20008130B9F382508230D8F400E010E00E9463
:104E3000F908019791F00F5F1F4F0333110569F0D7
:104E400061E081E00E94081666E070E080E090E09A
:104E50000E9412170E943609EACF00E010E08DCFC1
:104E600000E010E00E94F908019791F00F5F1F4FDA
:104E70000333110569F061E081E00E94081666E0E5
:104E800070E080E090E00E9412170E943609EACF9D
:104E900000E010E00E94F908019769F50F5F1F4FCD
:104EA0000333110541F161E081E00E94081666E0DC
:104EB00070E080E090E00E9412170E943609EACF6D
:104EC00010925D0410925C04A3CE89819A810E94A5
:104ED000B92160E081E00E94081680E00E94440B46
:104EE0000E944C1760935E0470935F04809360048B
:104EF0009093610447CE10925D0410925C0460E0D0
:104F000081E00E940816C1010197F1F761E080E09D
:104F10000E9408160EE110E00E94360961E070E080
:104F200080E090E00E94121701501109A9F760E09B
:104F300080E00E940816C1010197F1F761E081E06D
:104F40000E9408168BEF99EF0197F1F760E081E07E
:104F50000E9408160E94F908029729F0083EF3E023
:104F60001F0709F03EC060E081E00E94081688EE4D
:104F700093E00E94B9218BE193E00197F1F761E0A2
:104F800080E00E9408160EE110E00E94360961E000
:104F900070E080E090E00E94121701501109A9F71B
:104FA00060E080E00E9408168BE193E00197F1F742
:104FB0000E944C1760935E0470935F0480936004BA
:104FC0009093610480E00E94440B0E942D09882385
:104FD00009F4D8CD80915C0490915D04892BA9F3EC
:104FE000D1CD8BE193E00197F1F70F5F1F4FB2CF67
:104FF00080E090E00E942E0A0E944C1760936204A9
:10500000709363048093640490936504DACD40E068
:1050100050E0BA0180E699E00E944D1D6CE870E016
:1050200080E090E00E94121740E050E0BA0180EA70
:105030009FE00E944D1D6CE870E080E090E00E94CF
:10504000121740E050E0BA0180EB94E00E944D1D41
:1050500068EC70E080E090E00E94121786E00C940B
:105060003816CF93DF9380E795E00E94CF148AE64D
:1050700095E00E94CF1484E695E00E94CF148EE55F
:1050800095E00E94CF1488E895E00E94CF1482E852
:1050900095E00E94CF148CE795E00E94CF1486E73C
:1050A00095E00E94CF1480EA95E00E94CF148AE92F
:1050B00095E00E94CF1484E995E00E94CF148EE819
:1050C00095E00E94CF148CEA95E00E94CF1486EA06
:1050D00095E00E94CF1484EC95E00E94CF148EEBF3
:1050E00095E00E94CF1488EB95E00E94CF1482EBEC
:1050F00095E00E94CF14CEE1D6E02697CE010E9423
:10510000CF1485E0CA3CD807C1F7DF91CF9108954D
:10511000CF93DF9310928C0410928B0488EE93E06F
:10512000A0E0B0E080938D0490938E04A0938F0450
:10513000B09390048CE093E090938A048093890468
:1051400085EC90E0909396048093950484EC90E035
:10515000909398048093970480EC90E090939A0445
:105160008093990481EC90E090939C0480939B043D
:1051700082EC90E090939E0480939D0486EC90E0F6
:105180009093A00480939F041092A2041092A30411
:105190001092A4041092A5041092290510922805DB
:1051A0008EE193E0909327058093260562E082E0EC
:1051B0000E94BF1662E083E00E94BF16E0E1F1E1C9
:1051C000E491F0E0EE0FFF1FEC5FFE4EA591B4916D
:1051D000B0932206A0932106E2EFF0E18491809340
:1051E0002506E1E1F1E1E491F0E0EE0FFF1FEC5F55
:1051F000FE4EC591D491D0932406C0932306E3EFCD
:10520000F0E1E491E0932606109228061092290618
:1052100010922A0610922B06EBE3FFE13197F1F78B
:10522000EC91E82381E009F480E028819091260642
:10523000922309F0826021E236E0809327063093C2
:105240005B0520935A0588E690E19093A70280932E
:10525000A602809169008C7F816080936900E89A42
:1052600081E080932C0630935D0520935C0582E6F7
:1052700090E19093A9028093A80280916900837FB6
:10528000846080936900E99A82E080932C06809183
:1052900059058C30A0F491E0980F909359058093B4
:1052A0001E0690E0FC01EE0FFF1F8E0F9F1FFC01FA
:1052B000EB5CFA4F88EB9BE09283818303C08FEF16
:1052C00080931E066CE573E08AEC95E00E94D4148E
:1052D00062E673E080ED95E00E94D41466E673E028
:1052E00086ED95E00E94D41463EC73E08CED95E0BC
:1052F0000E94D4146BEC73E082EE95E00E94D4140B
:1053000063ED73E088EE95E00E94D4146AED73E0DB
:105310008EEE95E00E94D41461EE73E084EF95E088
:105320000E94D41465E973E08AEF95E00E94D414DA
:105330006EE973E080E096E00E94D41463EA73E0C3
:1053400086E096E00E94D41469EE73E08CE096E06B
:105350000E94D41460EB73E082E196E00E94D414C2
:1053600066EB73E088E196E00E94D41460EF73E08E
:1053700082EB95E00E94D41462EF73E088EB95E035
:105380000E94D4146FEB73E08EEB95E00E94D4146E
:1053900069EF73E084EC95E00E94D41464EF73E04D
:1053A00086EA95E00E94D41467EF73E08CEA95E0FA
:1053B0000E94D4146BEF73E08EE895E00E94D41441
:1053C00060EF73E084E995E00E94D41462EF73E02B
:1053D0008AE995E00E94D4146FEB73E080EA95E0CF
:1053E0000E94D41460E074E086E795E00E94D41433
:1053F00067E074E08CE795E00E94D41462E673E005
:1054000082E895E00E94D4146EE074E088E895E0AC
:105410000E94D41464E174E08EE595E00E94D414F7
:1054200069E174E084E695E00E94D4146EE174E0D2
:105430008AE695E00E94D41463E274E080E795E088
:10544000DF91CF910C94D4140E94662A08F481E075
:105450000895E89409C097FB3EF490958095709567
:1054600061957F4F8F4F9F4F9923A9F0F92F96E9B0
:10547000BB279395F695879577956795B795F11125
:10548000F8CFFAF4BB0F11F460FF1BC06F5F7F4FC2
:105490008F4F9F4F16C0882311F096E911C07723D4
:1054A00021F09EE8872F762F05C0662371F096E8DD
:1054B000862F70E060E02AF09A95660F771F881FAC
:1054C000DAF7880F9695879597F90895990F000850
:1054D000550FAA0BE0E8FEEF16161706E807F907C6
:1054E000C0F012161306E407F50798F0621B730B61
:1054F000840B950B39F40A2661F0232B242B252BE2
:1055000021F408950A2609F4A140A6958FEF811D84
:10551000811D08950E949D2A0C940E2B0E94002B41
:1055200038F00E94072B20F0952311F00C94F72AF5
:105530000C94FD2A11240C94422B0E941F2B70F313
:10554000959FC1F3950F50E0551F629FF001729F28
:10555000BB27F00DB11D639FAA27F00DB11DAA1F37
:10556000649F6627B00DA11D661F829F2227B00D84
:10557000A11D621F739FB00DA11D621F839FA00D0F
:10558000611D221F749F3327A00D611D231F849F5F
:10559000600D211D822F762F6A2F11249F575040B6
:1055A0009AF0F1F088234AF0EE0FFF1FBB1F661F31
:1055B000771F881F91505040A9F79E3F510580F0FA
:1055C0000C94F72A0C94422B5F3FE4F3983ED4F3FB
:1055D000869577956795B795F795E7959F5FC1F79E
:1055E000FE2B880F911D9695879597F9089597F949
:1055F0009F6780E870E060E008959FEF80EC089579
:1056000000240A94161617061806090608950024A1
:105610000A9412161306140605060895092E03941B
:10562000000C11F4882352F0BB0F40F4BF2B11F48F
:1056300060FF04C06F5F7F4F8F4F9F4F089557FDEE
:105640009058440F551F59F05F3F71F04795880FF0
:1056500097FB991F61F09F3F79F087950895121687
:1056600013061406551FF2CF4695F1DF08C0161633
:1056700017061806991FF1CF8695710561050894E4
:105680000895E894BB2766277727CB0197F90895FB
:10569000F999FECF92BD81BDF89A992780B50895FA
:1056A000262FF999FECF1FBA92BD81BD20BD0FB63E
:1056B000F894FA9AF99A0FBE01960895052E97FB71
:1056C0001EF400940E94752B57FD07D00E94C72B33
:1056D00007FC03D04EF40C94752B509540953095F3
:1056E00021953F4F4F4F5F4F08959095809570954E
:1056F00061957F4F8F4F9F4F08950E94E92BA59F83
:10570000900DB49F900DA49F800D911D11240895BC
:10571000B7FF0C947D2B0E947D2B821B930B089569
:105720002F923F924F925F926F927F928F929F92B1
:10573000AF92BF92CF92DF92EF92FF920F931F939F
:10574000CF93DF93CDB7DEB7CA1BDB0B0FB6F89450
:10575000DEBF0FBECDBF09942A88398848885F8490
:105760006E847D848C849B84AA84B984C884DF8001
:10577000EE80FD800C811B81AA81B981CE0FD11DE5
:105780000FB6F894DEBF0FBECDBFED010895A1E2C4
:105790001A2EAA1BBB1BFD010DC0AA1FBB1FEE1FAB
:1057A000FF1FA217B307E407F50720F0A21BB30BF6
:1057B000E40BF50B661F771F881F991F1A9469F772
:1057C00060957095809590959B01AC01BD01CF01CE
:1057D0000895A29FB001B39FC001A39F700D811DCA
:1057E0001124911DB29F700D811D1124911D0895EA
:1057F0005058BB27AA270E94102C0C940E2B0E94F5
:10580000002B38F00E94072B20F039F49F3F19F449
:1058100026F40C94FD2A0EF4E095E7FB0C94F72A8D
:10582000E92F0E941F2B58F3BA17620773078407EA
:10583000950720F079F4A6F50C94412B0EF4E09531
:105840000B2EBA2FA02D0B01B90190010C01CA013A
:10585000A0011124FF27591B99F0593F50F4503EE5
:1058600068F11A16F040A22F232F342F4427585FD7
:10587000F3CF469537952795A795F0405395C9F7EF
:105880007EF41F16BA0B620B730B840BBAF09150A7
:10589000A1F0FF0FBB1F661F771F881FC2F70EC046
:1058A000BA0F621F731F841F48F487957795679519
:1058B000B795F7959E3F08F0B0CF9395880F08F005
:1058C0009927EE0F9795879508950E94142DE395DB
:1058D0000C943D2D0E947E2C0C940E2B0E94072BC5
:1058E00058F00E94002B40F029F45F3F29F00C94FF
:1058F000F72A51110C94422B0C94FD2A0E941F2B65
:1059000068F39923B1F3552391F3951B550BBB27EE
:10591000AA2762177307840738F09F5F5F4F220F33
:10592000331F441FAA1FA9F335D00E2E3AF0E0E82A
:1059300032D091505040E695001CCAF72BD0FE2F74
:1059400029D0660F771F881FBB1F26173707480708
:10595000AB07B0E809F0BB0B802DBF01FF279358C0
:105960005F4F3AF09E3F510578F00C94F72A0C9463
:10597000422B5F3FE4F3983ED4F386957795679585
:10598000B795F7959F5FC9F7880F911D96958795F5
:1059900097F90895E1E0660F771F881FBB1F621714
:1059A00073078407BA0720F0621B730B840BBA0BD2
:1059B000EE1F88F7E09508950E94E32C6894B111DA
:1059C0000C94422B08950E94272B88F09F5798F043
:1059D000B92F9927B751B0F0E1F0660F771F881FF4
:1059E000991F1AF0BA95C9F714C0B13091F00E940E
:1059F000412BB1E008950C94412B672F782F882715
:105A0000B85F39F0B93FCCF3869577956795B39534
:105A1000D9F73EF490958095709561957F4F8F4FA3
:105A20009F4F08950C94FD2A0E94272BD8F3E894E9
:105A3000E0E0BB279F57F0F02AED3FE049EC06C0BD
:105A4000EE0FBB0F661F771F881F28F0B23A620760
:105A50007307840728F0B25A620B730B840BE3952B
:105A60009A9572F7803830F49A95BB0F661F771FAE
:105A7000881FD2F790480C94652DEF93E0FF07C084
:105A8000A2EA2AED3FE049EC5FEB0E94102C0E9455
:105A90000E2B0F90039401FC9058E4E8F0E00C9476
:105AA000712D0E94662A08F48FEF08959F930E943B
:105AB000142D0F9007FCEE5F0C943D2D0E94662A7A
:105AC000880B990B08959F3F31F0915020F48795F2
:105AD00077956795B795880F911D9695879597F956
